{"abi":[{"type":"function","name":"addCredential","inputs":[{"name":"keyId","type":"uint16","internalType":"uint16"},{"name":"pubKeyX","type":"bytes32","internalType":"bytes32"},{"name":"pubKeyY","type":"bytes32","internalType":"bytes32"}],"outputs":[],"stateMutability":"nonpayable"},{"type":"function","name":"credentialCount","inputs":[{"name":"account","type":"address","internalType":"address"}],"outputs":[{"name":"","type":"uint256","internalType":"uint256"}],"stateMutability":"view"},{"type":"function","name":"eip712Domain","inputs":[],"outputs":[{"name":"fields","type":"bytes1","internalType":"bytes1"},{"name":"name","type":"string","internalType":"string"},{"name":"version","type":"string","internalType":"string"},{"name":"chainId","type":"uint256","internalType":"uint256"},{"name":"verifyingContract","type":"address","internalType":"address"},{"name":"salt","type":"bytes32","internalType":"bytes32"},{"name":"extensions","type":"uint256[]","internalType":"uint256[]"}],"stateMutability":"view"},{"type":"function","name":"getCredKeys","inputs":[{"name":"account","type":"address","internalType":"address"}],"outputs":[{"name":"","type":"uint256[]","internalType":"uint256[]"}],"stateMutability":"view"},{"type":"function","name":"getCredential","inputs":[{"name":"keyId","type":"uint16","internalType":"uint16"},{"name":"account","type":"address","internalType":"address"}],"outputs":[{"name":"pubKeyX","type":"bytes32","internalType":"bytes32"},{"name":"pubKeyY","type":"bytes32","internalType":"bytes32"}],"stateMutability":"view"},{"type":"function","name":"getPasskeyDigest","inputs":[{"name":"digest","type":"bytes32","internalType":"bytes32"}],"outputs":[{"name":"","type":"bytes32","internalType":"bytes32"}],"stateMutability":"view"},{"type":"function","name":"getPasskeyMultichain","inputs":[{"name":"root","type":"bytes32","internalType":"bytes32"}],"outputs":[{"name":"","type":"bytes32","internalType":"bytes32"}],"stateMutability":"view"},{"type":"function","name":"getRecoverDigest","inputs":[{"name":"account","type":"address","internalType":"address"},{"name":"chainId","type":"uint256","internalType":"uint256"},{"name":"cred","type":"tuple","internalType":"struct OneAuthRecoveryBase.NewCredential","components":[{"name":"keyId","type":"uint16","internalType":"uint16"},{"name":"pubKeyX","type":"bytes32","internalType":"bytes32"},{"name":"pubKeyY","type":"bytes32","internalType":"bytes32"},{"name":"replace","type":"bool","internalType":"bool"}]},{"name":"nonce","type":"uint256","internalType":"uint256"},{"name":"expiry","type":"uint48","internalType":"uint48"}],"outputs":[{"name":"","type":"bytes32","internalType":"bytes32"}],"stateMutability":"view"},{"type":"function","name":"guardianConfig","inputs":[{"name":"account","type":"address","internalType":"address"}],"outputs":[{"name":"userGuardian","type":"address","internalType":"address"},{"name":"externalGuardian","type":"address","internalType":"address"},{"name":"threshold","type":"uint8","internalType":"uint8"}],"stateMutability":"view"},{"type":"function","name":"guardianThreshold","inputs":[{"name":"account","type":"address","internalType":"address"}],"outputs":[{"name":"","type":"uint8","internalType":"uint8"}],"stateMutability":"view"},{"type":"function","name":"isInitialized","inputs":[{"name":"smartAccount","type":"address","internalType":"address"}],"outputs":[{"name":"","type":"bool","internalType":"bool"}],"stateMutability":"view"},{"type":"function","name":"isModuleType","inputs":[{"name":"typeID","type":"uint256","internalType":"uint256"}],"outputs":[{"name":"","type":"bool","internalType":"bool"}],"stateMutability":"pure"},{"type":"function","name":"isValidSignatureWithSender","inputs":[{"name":"","type":"address","internalType":"address"},{"name":"hash","type":"bytes32","internalType":"bytes32"},{"name":"data","type":"bytes","internalType":"bytes"}],"outputs":[{"name":"","type":"bytes4","internalType":"bytes4"}],"stateMutability":"view"},{"type":"function","name":"name","inputs":[],"outputs":[{"name":"","type":"string","internalType":"string"}],"stateMutability":"pure"},{"type":"function","name":"nonceUsed","inputs":[{"name":"account","type":"address","internalType":"address"},{"name":"nonce","type":"uint256","internalType":"uint256"}],"outputs":[{"name":"","type":"bool","internalType":"bool"}],"stateMutability":"view"},{"type":"function","name":"onInstall","inputs":[{"name":"data","type":"bytes","internalType":"bytes"}],"outputs":[],"stateMutability":"nonpayable"},{"type":"function","name":"onUninstall","inputs":[{"name":"","type":"bytes","internalType":"bytes"}],"outputs":[],"stateMutability":"nonpayable"},{"type":"function","name":"recoverWithGuardian","inputs":[{"name":"account","type":"address","internalType":"address"},{"name":"chainId","type":"uint256","internalType":"uint256"},{"name":"cred","type":"tuple","internalType":"struct OneAuthRecoveryBase.NewCredential","components":[{"name":"keyId","type":"uint16","internalType":"uint16"},{"name":"pubKeyX","type":"bytes32","internalType":"bytes32"},{"name":"pubKeyY","type":"bytes32","internalType":"bytes32"},{"name":"replace","type":"bool","internalType":"bool"}]},{"name":"nonce","type":"uint256","internalType":"uint256"},{"name":"expiry","type":"uint48","internalType":"uint48"},{"name":"guardianSig","type":"bytes","internalType":"bytes"}],"outputs":[],"stateMutability":"nonpayable"},{"type":"function","name":"recoverWithPasskey","inputs":[{"name":"account","type":"address","internalType":"address"},{"name":"chainId","type":"uint256","internalType":"uint256"},{"name":"cred","type":"tuple","internalType":"struct OneAuthRecoveryBase.NewCredential","components":[{"name":"keyId","type":"uint16","internalType":"uint16"},{"name":"pubKeyX","type":"bytes32","internalType":"bytes32"},{"name":"pubKeyY","type":"bytes32","internalType":"bytes32"},{"name":"replace","type":"bool","internalType":"bool"}]},{"name":"nonce","type":"uint256","internalType":"uint256"},{"name":"expiry","type":"uint48","internalType":"uint48"},{"name":"signature","type":"bytes","internalType":"bytes"}],"outputs":[],"stateMutability":"nonpayable"},{"type":"function","name":"removeCredential","inputs":[{"name":"keyId","type":"uint16","internalType":"uint16"}],"outputs":[],"stateMutability":"nonpayable"},{"type":"function","name":"setGuardianConfig","inputs":[{"name":"_userGuardian","type":"address","internalType":"address"},{"name":"_externalGuardian","type":"address","internalType":"address"},{"name":"_threshold","type":"uint8","internalType":"uint8"}],"outputs":[],"stateMutability":"nonpayable"},{"type":"function","name":"validateSignatureWithData","inputs":[{"name":"hash","type":"bytes32","internalType":"bytes32"},{"name":"signature","type":"bytes","internalType":"bytes"},{"name":"data","type":"bytes","internalType":"bytes"}],"outputs":[{"name":"","type":"bool","internalType":"bool"}],"stateMutability":"view"},{"type":"function","name":"validateUserOp","inputs":[{"name":"userOp","type":"tuple","internalType":"struct PackedUserOperation","components":[{"name":"sender","type":"address","internalType":"address"},{"name":"nonce","type":"uint256","internalType":"uint256"},{"name":"initCode","type":"bytes","internalType":"bytes"},{"name":"callData","type":"bytes","internalType":"bytes"},{"name":"accountGasLimits","type":"bytes32","internalType":"bytes32"},{"name":"preVerificationGas","type":"uint256","internalType":"uint256"},{"name":"gasFees","type":"bytes32","internalType":"bytes32"},{"name":"paymasterAndData","type":"bytes","internalType":"bytes"},{"name":"signature","type":"bytes","internalType":"bytes"}]},{"name":"userOpHash","type":"bytes32","internalType":"bytes32"}],"outputs":[{"name":"","type":"uint256","internalType":"ERC7579ValidatorBase.ValidationData"}],"stateMutability":"view"},{"type":"function","name":"version","inputs":[],"outputs":[{"name":"","type":"string","internalType":"string"}],"stateMutability":"pure"},{"type":"event","name":"CredentialAdded","inputs":[{"name":"account","type":"address","indexed":true,"internalType":"address"},{"name":"keyId","type":"uint16","indexed":true,"internalType":"uint16"},{"name":"pubKeyX","type":"bytes32","indexed":false,"internalType":"bytes32"},{"name":"pubKeyY","type":"bytes32","indexed":false,"internalType":"bytes32"}],"anonymous":false},{"type":"event","name":"CredentialRemoved","inputs":[{"name":"account","type":"address","indexed":true,"internalType":"address"},{"name":"keyId","type":"uint16","indexed":true,"internalType":"uint16"}],"anonymous":false},{"type":"event","name":"GuardianConfigSet","inputs":[{"name":"account","type":"address","indexed":true,"internalType":"address"},{"name":"userGuardian","type":"address","indexed":false,"internalType":"address"},{"name":"externalGuardian","type":"address","indexed":false,"internalType":"address"},{"name":"threshold","type":"uint8","indexed":false,"internalType":"uint8"}],"anonymous":false},{"type":"event","name":"GuardianRecoveryExecuted","inputs":[{"name":"account","type":"address","indexed":true,"internalType":"address"},{"name":"guardian","type":"address","indexed":true,"internalType":"address"},{"name":"newKeyId","type":"uint16","indexed":true,"internalType":"uint16"},{"name":"nonce","type":"uint256","indexed":false,"internalType":"uint256"}],"anonymous":false},{"type":"event","name":"ModuleInitialized","inputs":[{"name":"account","type":"address","indexed":true,"internalType":"address"}],"anonymous":false},{"type":"event","name":"ModuleUninitialized","inputs":[{"name":"account","type":"address","indexed":true,"internalType":"address"}],"anonymous":false},{"type":"event","name":"PasskeyRecoveryExecuted","inputs":[{"name":"account","type":"address","indexed":true,"internalType":"address"},{"name":"newKeyId","type":"uint16","indexed":true,"internalType":"uint16"},{"name":"nonce","type":"uint256","indexed":false,"internalType":"uint256"}],"anonymous":false},{"type":"error","name":"CannotRemoveLastCredential","inputs":[]},{"type":"error","name":"CredentialNotFound","inputs":[{"name":"keyId","type":"uint16","internalType":"uint16"}]},{"type":"error","name":"EmptyGuardianSignature","inputs":[]},{"type":"error","name":"GuardianNotConfigured","inputs":[]},{"type":"error","name":"InvalidChainId","inputs":[]},{"type":"error","name":"InvalidGuardianSignature","inputs":[]},{"type":"error","name":"InvalidGuardianType","inputs":[]},{"type":"error","name":"InvalidMerkleProof","inputs":[]},{"type":"error","name":"InvalidPublicKey","inputs":[]},{"type":"error","name":"InvalidRecoverySignature","inputs":[]},{"type":"error","name":"InvalidSignatureData","inputs":[]},{"type":"error","name":"InvalidThreshold","inputs":[]},{"type":"error","name":"KeyIdAlreadyExists","inputs":[{"name":"keyId","type":"uint16","internalType":"uint16"}]},{"type":"error","name":"ModuleAlreadyInitialized","inputs":[{"name":"smartAccount","type":"address","internalType":"address"}]},{"type":"error","name":"NonceAlreadyUsed","inputs":[]},{"type":"error","name":"NotInitialized","inputs":[{"name":"smartAccount","type":"address","internalType":"address"}]},{"type":"error","name":"ProofTooLong","inputs":[]},{"type":"error","name":"RecoveryExpired","inputs":[]},{"type":"error","name":"ThresholdRequiresBothGuardians","inputs":[]},{"type":"error","name":"TooManyCredentials","inputs":[]}],"bytecode":{"object":"0x610120604052348015610010575f5ffd5b503073ffffffffffffffffffffffffffffffffffffffff16608081815250504660a0818152505060608061004861012b60201b60201c565b6100635761005a61012f60201b60201c565b80925081935050505b5f61007261012b60201b60201c565b610083578280519060200120610087565b5f5f1b5b90505f61009861012b60201b60201c565b6100a95782805190602001206100ad565b5f5f1b5b90508160c081815250508060e081815250505f6100ce61012b60201b60201c565b610118576040517f8b73c3c69bb8fe3d512ecc4cf759cc79239f7b179b0ffacaa9a75d522b39400f815283602082015282604082015246606082015230608082015260a081209150505b80610100818152505050505050506101a6565b5f90565b6060806040518060400160405280601081526020017f4f6e654175746856616c696461746f720000000000000000000000000000000081525091506040518060400160405280600581526020017f312e302e3000000000000000000000000000000000000000000000000000000081525090509091565b60805160a05160c05160e05161010051614a7b6101e35f395f612a8001525f61345601525f61343301525f6134c501525f6134e90152614a7b5ff3fe608060405234801561000f575f5ffd5b5060043610610156575f3560e01c80638a91b0e3116100c1578063d5370a3d1161007a578063d5370a3d14610413578063d60b347f1461042f578063ecd059611461045f578063ed3262e11461048f578063f551e2ee146104c1578063fa5565e3146104f157610156565b80638a91b0e3146103075780639300126d14610323578063940d3840146103535780639700320314610383578063a1cdf4ed146103b3578063c89f2403146103e357610156565b80635e84cc61116101135780635e84cc611461022f57806361a8d6231461024b57806365e3371a1461026757806369989ffb146102975780636d61fe70146102c757806384b0196e146102e357610156565b806306fdde031461015a5780630cc81a931461017857806313c50641146101945780631647795e146101b05780633b826b0d146101e057806354fd4d5014610211575b5f5ffd5b610162610521565b60405161016f91906139f9565b60405180910390f35b610192600480360381019061018d9190613b75565b61055e565b005b6101ae60048036038101906101a99190613c58565b6107b1565b005b6101ca60048036038101906101c59190613c83565b610952565b6040516101d79190613cdb565b60405180910390f35b6101fa60048036038101906101f59190613cf4565b6109b6565b604051610208929190613d4a565b60405180910390f35b610219610a27565b60405161022691906139f9565b60405180910390f35b61024960048036038101906102449190613d9b565b610a64565b005b61026560048036038101906102609190613e21565b610a75565b005b610281600480360381019061027c9190613e71565b610ca1565b60405161028e9190613e9c565b60405180910390f35b6102b160048036038101906102ac9190613eb5565b610cb2565b6040516102be9190613eef565b60405180910390f35b6102e160048036038101906102dc9190613f08565b610d02565b005b6102eb610f9a565b6040516102fe9796959493929190614053565b60405180910390f35b610321600480360381019061031c9190613f08565b610fe5565b005b61033d60048036038101906103389190613e71565b6111a6565b60405161034a9190613e9c565b60405180910390f35b61036d600480360381019061036891906140d5565b6111b7565b60405161037a9190613cdb565b60405180910390f35b61039d60048036038101906103989190614185565b611515565b6040516103aa9190614218565b60405180910390f35b6103cd60048036038101906103c89190613eb5565b61155a565b6040516103da9190614240565b60405180910390f35b6103fd60048036038101906103f89190613eb5565b6115c8565b60405161040a9190614259565b60405180910390f35b61042d60048036038101906104289190613b75565b611619565b005b61044960048036038101906104449190613eb5565b6117ba565b6040516104569190613cdb565b60405180910390f35b61047960048036038101906104749190614279565b61180c565b6040516104869190613cdb565b60405180910390f35b6104a960048036038101906104a49190613eb5565b611823565b6040516104b8939291906142a4565b60405180910390f35b6104db60048036038101906104d691906142d9565b6118ce565b6040516104e89190614384565b60405180910390f35b61050b6004803603810190610506919061439d565b611902565b6040516105189190613e9c565b60405180910390f35b60606040518060400160405280601081526020017f4f6e654175746856616c696461746f7200000000000000000000000000000000815250905090565b868685858065ffffffffffff164211156105a4576040517fd3c92b0d00000000000000000000000000000000000000000000000000000000815260040160405180910390fd5b5f5f8573ffffffffffffffffffffffffffffffffffffffff1673ffffffffffffffffffffffffffffffffffffffff1681526020019081526020015f206002015f8381526020019081526020015f205f9054906101000a900460ff1615610636576040517f1fb09b8000000000000000000000000000000000000000000000000000000000815260040160405180910390fd5b5f83141580156106465750468314155b1561067d576040517f7a47c9a200000000000000000000000000000000000000000000000000000000815260040160405180910390fd5b60015f5f8673ffffffffffffffffffffffffffffffffffffffff1673ffffffffffffffffffffffffffffffffffffffff1681526020019081526020015f206002015f8481526020019081526020015f205f6101000a81548160ff0219169083151502179055505f6106f18c8c8c8c8c611902565b90506106ff8c828989611951565b610735576040517f62a281f100000000000000000000000000000000000000000000000000000000815260040160405180910390fd5b61073f8c8b6119c0565b895f0160208101906107519190613c58565b61ffff168c73ffffffffffffffffffffffffffffffffffffffff167fecca216aa14b66eb6599c0102f4caedc012eeaac8b6caf0446c274defd1e2dd48b60405161079b9190613eef565b60405180910390a3505050505050505050505050565b5f3390505f60015f8373ffffffffffffffffffffffffffffffffffffffff1673ffffffffffffffffffffffffffffffffffffffff1681526020019081526020015f2090505f61080282600101611a2c565b90505f810361084857826040517ff91bd6f100000000000000000000000000000000000000000000000000000000815260040161083f9190614415565b60405180910390fd5b60018111610882576040517fd2f2c18b00000000000000000000000000000000000000000000000000000000815260040160405180910390fd5b5f8461ffff1690506108a08184600101611a4590919063ffffffff16565b6108e157846040517fec6a6bda0000000000000000000000000000000000000000000000000000000081526004016108d8919061443d565b60405180910390fd5b825f015f8281526020019081526020015f205f5f82015f9055600182015f905550508461ffff168473ffffffffffffffffffffffffffffffffffffffff167faf333fa2fc1dbe79c8609d693a59ee1a03e0d893e2573e6e5fc6e8fe97c5aed560405160405180910390a35050505050565b5f5f5f8473ffffffffffffffffffffffffffffffffffffffff1673ffffffffffffffffffffffffffffffffffffffff1681526020019081526020015f206002015f8381526020019081526020015f205f9054906101000a900460ff16905092915050565b5f5f5f8461ffff1690505f60015f8673ffffffffffffffffffffffffffffffffffffffff1673ffffffffffffffffffffffffffffffffffffffff1681526020019081526020015f205f015f8381526020019081526020015f209050805f015481600101549350935050509250929050565b60606040518060400160405280600581526020017f312e302e30000000000000000000000000000000000000000000000000000000815250905090565b610a7033848484611a62565b505050565b5f8160ff161480610a89575060028160ff16115b15610ac0576040517faabd5a0900000000000000000000000000000000000000000000000000000000815260040160405180910390fd5b60028160ff1603610b68575f73ffffffffffffffffffffffffffffffffffffffff168373ffffffffffffffffffffffffffffffffffffffff161480610b3057505f73ffffffffffffffffffffffffffffffffffffffff168273ffffffffffffffffffffffffffffffffffffffff16145b15610b67576040517fc13a2f9c00000000000000000000000000000000000000000000000000000000815260040160405180910390fd5b5b5f5f5f3373ffffffffffffffffffffffffffffffffffffffff1673ffffffffffffffffffffffffffffffffffffffff1681526020019081526020015f205f01905083815f015f6101000a81548173ffffffffffffffffffffffffffffffffffffffff021916908373ffffffffffffffffffffffffffffffffffffffff16021790555082816001015f6101000a81548173ffffffffffffffffffffffffffffffffffffffff021916908373ffffffffffffffffffffffffffffffffffffffff160217905550818160010160146101000a81548160ff021916908360ff1602179055503373ffffffffffffffffffffffffffffffffffffffff167f8c9b95560ebc765223ef2ae107bb7b8c01b56c7d140261f67542da22e4a9471f858585604051610c93939291906142a4565b60405180910390a250505050565b5f610cab82611b44565b9050919050565b5f610cfb60015f8473ffffffffffffffffffffffffffffffffffffffff1673ffffffffffffffffffffffffffffffffffffffff1681526020019081526020015f20600101611a2c565b9050919050565b5f339050610d0f816117ba565b15610d5157806040517f4d6b9dd3000000000000000000000000000000000000000000000000000000008152600401610d489190614415565b60405180910390fd5b5f5f5f5f5f8787810190610d6591906146da565b945094509450945094505f845190505f811480610d83575085518114155b15610dba576040517fa2d0fee800000000000000000000000000000000000000000000000000000000815260040160405180910390fd5b6040811115610df5576040517f7732141400000000000000000000000000000000000000000000000000000000815260040160405180910390fd5b5f60015f8973ffffffffffffffffffffffffffffffffffffffff1673ffffffffffffffffffffffffffffffffffffffff1681526020019081526020015f2090505f5b82811015610eac57610ea1828a8a8481518110610e5757610e56614789565b5b60200260200101518a8581518110610e7257610e71614789565b5b60200260200101515f01518b8681518110610e9057610e8f614789565b5b602002602001015160200151611b87565b806001019050610e37565b505f73ffffffffffffffffffffffffffffffffffffffff168573ffffffffffffffffffffffffffffffffffffffff16141580610f1457505f73ffffffffffffffffffffffffffffffffffffffff168473ffffffffffffffffffffffffffffffffffffffff1614155b80610f2257505f8360ff1614155b15610f4b575f5f8460ff1614610f385783610f3b565b60015b9050610f4989878784611cc3565b505b8773ffffffffffffffffffffffffffffffffffffffff167f27b541a16df0902e262f34789782092ab25125513b8ed73608e802951771b92860405160405180910390a250505050505050505050565b5f6060805f5f5f60607f0f000000000000000000000000000000000000000000000000000000000000009650610fce611ee3565b809650819750505046935030925090919293949596565b5f3390505f60015f8373ffffffffffffffffffffffffffffffffffffffff1673ffffffffffffffffffffffffffffffffffffffff1681526020019081526020015f2090505f61103682600101611f5a565b90505f5b81518110156110bb57825f015f83838151811061105a57611059614789565b5b602002602001015181526020019081526020015f205f5f82015f9055600182015f905550506110af82828151811061109557611094614789565b5b602002602001015184600101611a4590919063ffffffff16565b5080600101905061103a565b505f5f8473ffffffffffffffffffffffffffffffffffffffff1673ffffffffffffffffffffffffffffffffffffffff1681526020019081526020015f205f015f5f82015f6101000a81549073ffffffffffffffffffffffffffffffffffffffff0219169055600182015f6101000a81549073ffffffffffffffffffffffffffffffffffffffff02191690556001820160146101000a81549060ff021916905550508273ffffffffffffffffffffffffffffffffffffffff167f9d00629762554452d03c3b45626436df6ca1c3795d05d04df882f6db481b1be060405160405180910390a25050505050565b5f6111b082611f7c565b9050919050565b5f60018383905010156111f6576040517f52f151d300000000000000000000000000000000000000000000000000000000815260040160405180910390fd5b5f83835f81811061120a57611209614789565b5b9050013560f81c60f81b60f81c60ff1690505f8103611323576041848490501015611261576040517f52f151d300000000000000000000000000000000000000000000000000000000815260040160405180910390fd5b5f5f61126d8888611fbf565b91509150806112a8576040517f52f151d300000000000000000000000000000000000000000000000000000000815260040160405180910390fd5b6113196112b48a611b44565b6040516020016112c49190613e9c565b60405160208183030381529060405260018489896001906021926112ea939291906147be565b906112f5919061480e565b8a8a602190604192611309939291906147be565b90611314919061480e565b61209b565b935050505061150c565b602081111561135e576040517fb5ae13c800000000000000000000000000000000000000000000000000000000815260040160405180910390fd5b5f600582901b60216113709190614899565b905060408161137f9190614899565b8585905010156113bb576040517f52f151d300000000000000000000000000000000000000000000000000000000815260040160405180910390fd5b5f85856001906021926113d0939291906147be565b906113db919061480e565b9050365f6021880191508490506113f48282858e6121d4565b61142a576040517fb05e92fa00000000000000000000000000000000000000000000000000000000815260040160405180910390fd5b50505f5f6114388a8a611fbf565b9150915080611473576040517f52f151d300000000000000000000000000000000000000000000000000000000815260040160405180910390fd5b61150461147f84611f7c565b60405160200161148f9190613e9c565b6040516020818303038152906040526001848b8b899060208b6114b29190614899565b926114bf939291906147be565b906114ca919061480e565b8c8c60208b6114d99190614899565b9060408c6114e79190614899565b926114f4939291906147be565b906114ff919061480e565b61209b565b955050505050505b95945050505050565b5f611542835f01602081019061152b9190613eb5565b838580610100019061153d91906148d8565b611951565b1561154f575f9050611554565b600190505b92915050565b5f5f5f5f8473ffffffffffffffffffffffffffffffffffffffff1673ffffffffffffffffffffffffffffffffffffffff1681526020019081526020015f205f0160010160149054906101000a900460ff1690505f8160ff16146115bd57806115c0565b60015b915050919050565b606061161260015f8473ffffffffffffffffffffffffffffffffffffffff1673ffffffffffffffffffffffffffffffffffffffff1681526020019081526020015f20600101611f5a565b9050919050565b868685858065ffffffffffff1642111561165f576040517fd3c92b0d00000000000000000000000000000000000000000000000000000000815260040160405180910390fd5b5f5f8573ffffffffffffffffffffffffffffffffffffffff1673ffffffffffffffffffffffffffffffffffffffff1681526020019081526020015f206002015f8381526020019081526020015f205f9054906101000a900460ff16156116f1576040517f1fb09b8000000000000000000000000000000000000000000000000000000000815260040160405180910390fd5b5f83141580156117015750468314155b15611738576040517f7a47c9a200000000000000000000000000000000000000000000000000000000815260040160405180910390fd5b60015f5f8673ffffffffffffffffffffffffffffffffffffffff1673ffffffffffffffffffffffffffffffffffffffff1681526020019081526020015f206002015f8481526020019081526020015f205f6101000a81548160ff0219169083151502179055506117ad8b8b8b8b8b8b8b61222a565b5050505050505050505050565b5f5f61180460015f8573ffffffffffffffffffffffffffffffffffffffff1673ffffffffffffffffffffffffffffffffffffffff1681526020019081526020015f20600101611a2c565b119050919050565b5f600182148061181c5750600782145b9050919050565b5f5f5f5f5f5f8673ffffffffffffffffffffffffffffffffffffffff1673ffffffffffffffffffffffffffffffffffffffff1681526020019081526020015f205f019050805f015f9054906101000a900473ffffffffffffffffffffffffffffffffffffffff16816001015f9054906101000a900473ffffffffffffffffffffffffffffffffffffffff168260010160149054906101000a900460ff16935093509350509193909250565b5f6118db33858585611951565b156118ef57631626ba7e60e01b90506118fa565b63ffffffff60e01b90505b949350505050565b5f6119466119418787875f01602081019061191d9190613c58565b886020013589604001358a606001602081019061193a9190614964565b8a8a6122cb565b612349565b905095945050505050565b5f6003838390501015611966575f90506119b8565b5f83835f81811061197a57611979614789565b5b9050013560f81c60f81b60f81c60ff1690505f81036119a75761199f868686866123bd565b9150506119b8565b6119b486868686856124f0565b9150505b949350505050565b8060600160208101906119d39190614964565b15611a02576119fd82825f0160208101906119ee9190613c58565b836020013584604001356126cf565b611a28565b611a2782825f016020810190611a189190613c58565b83602001358460400135611a62565b5b5050565b5f611a3e611a39836128e7565b6128f0565b9050919050565b5f611a5a611a52846128e7565b835f1b61293d565b905092915050565b5f60015f8673ffffffffffffffffffffffffffffffffffffffff1673ffffffffffffffffffffffffffffffffffffffff1681526020019081526020015f2090505f611aaf82600101611a2c565b90505f8103611af557856040517ff91bd6f1000000000000000000000000000000000000000000000000000000008152600401611aec9190614415565b60405180910390fd5b60408110611b2f576040517f7732141400000000000000000000000000000000000000000000000000000000815260040160405180910390fd5b611b3c8287878787611b87565b505050505050565b5f611b80611b7b837f5caa3237acf0e6317d6289a3b5569dc3aacf5a11ba3f1b520dd47ecd239faa11612a4d90919063ffffffff16565b612a61565b9050919050565b611b95825f1c825f1c612add565b611bcb576040517fa2d0fee800000000000000000000000000000000000000000000000000000000815260040160405180910390fd5b5f8361ffff169050611be98187600101612cca90919063ffffffff16565b611c2a57836040517fff60a9fd000000000000000000000000000000000000000000000000000000008152600401611c21919061443d565b60405180910390fd5b604051806040016040528084815260200183815250865f015f8381526020019081526020015f205f820151815f0155602082015181600101559050508361ffff168573ffffffffffffffffffffffffffffffffffffffff167fda884d5d59662b1731710a4f6407c966163e54e01dc2bddd947aab99e95ca2938585604051611cb3929190613d4a565b60405180910390a3505050505050565b60028160ff161115611d01576040517faabd5a0900000000000000000000000000000000000000000000000000000000815260040160405180910390fd5b60028160ff1603611da9575f73ffffffffffffffffffffffffffffffffffffffff168373ffffffffffffffffffffffffffffffffffffffff161480611d7157505f73ffffffffffffffffffffffffffffffffffffffff168273ffffffffffffffffffffffffffffffffffffffff16145b15611da8576040517fc13a2f9c00000000000000000000000000000000000000000000000000000000815260040160405180910390fd5b5b5f5f5f8673ffffffffffffffffffffffffffffffffffffffff1673ffffffffffffffffffffffffffffffffffffffff1681526020019081526020015f205f01905083815f015f6101000a81548173ffffffffffffffffffffffffffffffffffffffff021916908373ffffffffffffffffffffffffffffffffffffffff16021790555082816001015f6101000a81548173ffffffffffffffffffffffffffffffffffffffff021916908373ffffffffffffffffffffffffffffffffffffffff160217905550818160010160146101000a81548160ff021916908360ff1602179055508473ffffffffffffffffffffffffffffffffffffffff167f8c9b95560ebc765223ef2ae107bb7b8c01b56c7d140261f67542da22e4a9471f858585604051611ed4939291906142a4565b60405180910390a25050505050565b6060806040518060400160405280601081526020017f4f6e654175746856616c696461746f720000000000000000000000000000000081525091506040518060400160405280600581526020017f312e302e3000000000000000000000000000000000000000000000000000000081525090509091565b6060611f75611f70611f6b846128e7565b612ce7565b612dae565b9050919050565b5f611fb8611fb3837fa5a505152e3529fa0b604100bdbc62aa67739181383273446e82d3023b082e99612a4d90919063ffffffff16565b612349565b9050919050565b611fc7613957565b5f6046848490501015611fdf57815f91509150612094565b5f8480356080850152602081013560a085015260408101358060f01c604086015261ffff8160e01c16606086015261ffff8160d01c16925050508060466120269190614899565b85859050101561203c57825f9250925050612094565b8481604601850360405183815283604684016020830137808652601f19601f850116602001808201838152838660460186016020830137806020890152601f19601f8501166020018101604052505050505060019150505b9250929050565b5f5f5f6120aa88600180612db8565b90506020860151805160208201604089015160608a01518551600d81017f226368616c6c656e6765223a220000000000000000000000000000000000000060981c8852858482011060228286880101515f1a14168160138a01208286880120141686846014011085851760801c107f2274797065223a22776562617574686e2e67657422000000000000000000000060581c8588015160581c1416169950818852505050508851518a151560021b600117808160218d510151161460208311891616975087156121a65760208b510182810180516020600160208701856020868c8c60025afa60011b5afa5199508082523d6121a257fe5b5050505b505050505082156121c9576121c68287608001518860a001518888612ec2565b92505b505095945050505050565b5f831561221d578360051b8501855b60011561221a578035841160051b8481528135602082185260405f209450602082019150828210612214575061221a565b506121e3565b50505b8282149050949350505050565b5f6122388888888888611902565b90505f5f5f8a73ffffffffffffffffffffffffffffffffffffffff1673ffffffffffffffffffffffffffffffffffffffff1681526020019081526020015f205f0190505f8160010160149054906101000a900460ff16905060018160ff16116122af576122aa8a83858b8b8a8a612f5d565b6122bf565b6122be8a83858b8b8a8a613044565b5b50505050505050505050565b5f61233b7f940ae5f932b9cb11db32984a210a12b57602e8b7b980dbc8bce9539ae0ce9d2c8a73ffffffffffffffffffffffffffffffffffffffff165f1b8a5f1b8a61ffff165f1b8a8a8a612320575f612323565b60015b60ff165f1b8a5f1b8a65ffffffffffff165f1b613374565b905098975050505050505050565b5f5f5f612354611ee3565b915091506040517f91ab3d17e3a50a9d89e63fd30b92be7f5336b03b287bb946787a83a9d62a27665f5282516020840120602052815160208301206040523060605260805f206020526119015f52846040526042601e209350806040525f606052505050919050565b5f5f83836001906003926123d3939291906147be565b906123de91906149ba565b60f01c90505f8161ffff1690505f60015f8973ffffffffffffffffffffffffffffffffffffffff1673ffffffffffffffffffffffffffffffffffffffff1681526020019081526020015f205f015f8381526020019081526020015f206040518060400160405290815f820154815260200160018201548152505090505f5f1b815f015103612471575f93505050506124e8565b5f5f61248e88886003908092612489939291906147be565b611fbf565b91509150806124a4575f955050505050506124e8565b6124e06124b08a611b44565b6040516020016124c09190613e9c565b604051602081830303815290604052600184865f0151876020015161209b565b955050505050505b949350505050565b5f6020821115612502575f90506126c6565b5f600583901b60216125149190614899565b90506002816125239190614899565b858590501015612536575f9150506126c6565b5f858560019060219261254b939291906147be565b90612556919061480e565b9050365f60218801915085905061256f8282858c6121d4565b61257f575f9450505050506126c6565b50505f868684906002866125939190614899565b926125a0939291906147be565b906125ab91906149ba565b60f01c90505f8161ffff1690505f60015f8c73ffffffffffffffffffffffffffffffffffffffff1673ffffffffffffffffffffffffffffffffffffffff1681526020019081526020015f205f015f8381526020019081526020015f206040518060400160405290815f820154815260200160018201548152505090505f5f1b815f015103612640575f955050505050506126c6565b5f5f6126688b8b60028a6126549190614899565b908092612663939291906147be565b611fbf565b9150915080612680575f9750505050505050506126c6565b6126bc61268c87611f7c565b60405160200161269c9190613e9c565b604051602081830303815290604052600184865f0151876020015161209b565b9750505050505050505b95945050505050565b5f60015f8673ffffffffffffffffffffffffffffffffffffffff1673ffffffffffffffffffffffffffffffffffffffff1681526020019081526020015f2090505f61271c82600101611a2c565b90505f810361276257856040517ff91bd6f10000000000000000000000000000000000000000000000000000000081526004016127599190614415565b60405180910390fd5b612770845f1c845f1c612add565b6127a6576040517fa2d0fee800000000000000000000000000000000000000000000000000000000815260040160405180910390fd5b5f8561ffff1690506127c481846001016133c190919063ffffffff16565b61280557856040517fec6a6bda0000000000000000000000000000000000000000000000000000000081526004016127fc919061443d565b60405180910390fd5b604051806040016040528086815260200185815250835f015f8381526020019081526020015f205f820151815f0155602082015181600101559050508561ffff168773ffffffffffffffffffffffffffffffffffffffff167faf333fa2fc1dbe79c8609d693a59ee1a03e0d893e2573e6e5fc6e8fe97c5aed560405160405180910390a38561ffff168773ffffffffffffffffffffffffffffffffffffffff167fda884d5d59662b1731710a4f6407c966163e54e01dc2bddd947aab99e95ca29387876040516128d6929190613d4a565b60405180910390a350505050505050565b5f819050919050565b5f5f6128fb836133de565b90508019548060011c925080612936575f92508282015415612936576001925082820154156129365760029250828201541561293657600392505b5050919050565b5f5f612948846133de565b905068fbb67fda52d4bfb8bf83036129675763f5a267f15f526004601cfd5b826129795768fbb67fda52d4bfb8bf92505b801954600115612a4557806129ee5760019250838254036129b05760018201548255600282015460018301555f6002830155612a45565b836001830154036129d057600282015460018301555f6002830155612a45565b836002830154036129e6575f6002830155612a45565b5f9250612a45565b81602052835f5260405f20805480612a07575050612a45565b60018360011c039250826001820314612a3157828401548060018303860155805f528160405f2055505b60018360011b178419555f82556001945050505b505092915050565b5f825f528160205260405f20905092915050565b5f612a6a6133f5565b15612a7e57612a776133f9565b9050612aba565b7f00000000000000000000000000000000000000000000000000000000000000009050612aa96134c1565b15612ab957612ab66133f9565b90505b5b6719010000000000005f5280601a5281603a52604260182090505f603a52919050565b5f5f831480612aeb57505f82145b80612b1657507fffffffff00000001000000000000000000000000ffffffffffffffffffffffff8310155b80612b4157507fffffffff00000001000000000000000000000000ffffffffffffffffffffffff8210155b15612b4e575f9050612cc4565b5f7fffffffff00000001000000000000000000000000ffffffffffffffffffffffff80612b7e57612b7d614a18565b5b83840990505f7fffffffff00000001000000000000000000000000ffffffffffffffffffffffff80612bb357612bb2614a18565b5b7f5ac635d8aa3a93e7b3ebbd55769886bc651d06b0cc53b0f63bce3c3e27d2604b7fffffffff00000001000000000000000000000000ffffffffffffffffffffffff80612c0357612c02614a18565b5b7fffffffff00000001000000000000000000000000ffffffffffffffffffffffff80612c3257612c31614a18565b5b7fffffffff00000001000000000000000000000000fffffffffffffffffffffffc89097fffffffff00000001000000000000000000000000ffffffffffffffffffffffff80612c8457612c83614a18565b5b897fffffffff00000001000000000000000000000000ffffffffffffffffffffffff80612cb457612cb3614a18565b5b8b8c090908089050808214925050505b92915050565b5f612cdf612cd7846128e7565b835f1b613519565b905092915050565b60605f612cf3836133de565b905068fbb67fda52d4bfb8bf811954604051935083602001600115612d995781612d6a5783548015612d64576001925083811415810282528285015490508015612d63576002925083811415810260208301528285015490508015612d62576003925083811415810260408301525b5b5b50612d99565b8160011c91505f5b82811015612d9757808501548481141581028260051b84015250600181019050612d72565b505b8185528160051b810160405250505050919050565b6060819050919050565b606083518015612eba576003600282010460021b60405192507f4142434445464748494a4b4c4d4e4f505152535455565758595a616263646566601f526106708515027f6768696a6b6c6d6e6f707172737475767778797a303132333435363738392d5f18603f526020830181810183886020010180515f82525b600115612e875760038a0199508951603f8160121c16515f53603f81600c1c1651600153603f8160061c1651600253603f8116516003535f518552600485019450838510612e815750612e87565b50612e33565b8082526020830160405260038606600204613d3d60f01b81860352808915150290505f8186035280860388525050505050505b509392505050565b5f6040518681528560208201528460408201528360608201528260808201525f5f5260205f60a0836101005afa503d612f28576d1ab2e8006fd8b71907bf06a5bdee3b612f275760205f60a0836dd01ea45f9efd5c54f037fa57ea1a5afa612f2657fe5b5b5b5f516001147f7fffffff800000007fffffffffffffffde737d56d38bcf4279dce5617e3192a886111091505095945050505050565b5f365f612f6b898686613642565b925092509250612f7d838984846137c7565b612fb3576040517f07a81bc400000000000000000000000000000000000000000000000000000000815260040160405180910390fd5b612fbd8a886119c0565b865f016020810190612fcf9190613c58565b61ffff168373ffffffffffffffffffffffffffffffffffffffff168b73ffffffffffffffffffffffffffffffffffffffff167fe03b4c30661857d0903939c8f7efa127ae05d3d45b1e8c13a5eda76a84e1e69b896040516130309190613eef565b60405180910390a450505050505050505050565b6002828290501015613082576040517f042a9b6400000000000000000000000000000000000000000000000000000000815260040160405180910390fd5b5f82825f90600292613096939291906147be565b906130a191906149ba565b60f01c61ffff1660026130b49190614899565b9050808383905010156130f3576040517f07a81bc400000000000000000000000000000000000000000000000000000000815260040160405180910390fd5b5f73ffffffffffffffffffffffffffffffffffffffff16875f015f9054906101000a900473ffffffffffffffffffffffffffffffffffffffff1673ffffffffffffffffffffffffffffffffffffffff16148061319d57505f73ffffffffffffffffffffffffffffffffffffffff16876001015f9054906101000a900473ffffffffffffffffffffffffffffffffffffffff1673ffffffffffffffffffffffffffffffffffffffff16145b156131d4576040517fba53e96500000000000000000000000000000000000000000000000000000000815260040160405180910390fd5b613213875f015f9054906101000a900473ffffffffffffffffffffffffffffffffffffffff16878585600290869261320e939291906147be565b6137c7565b613249576040517f07a81bc400000000000000000000000000000000000000000000000000000000815260040160405180910390fd5b613288876001015f9054906101000a900473ffffffffffffffffffffffffffffffffffffffff1687858585908092613283939291906147be565b6137c7565b6132be576040517f07a81bc400000000000000000000000000000000000000000000000000000000815260040160405180910390fd5b5f875f015f9054906101000a900473ffffffffffffffffffffffffffffffffffffffff1690506132ee89876119c0565b855f0160208101906133009190613c58565b61ffff168173ffffffffffffffffffffffffffffffffffffffff168a73ffffffffffffffffffffffffffffffffffffffff167fe03b4c30661857d0903939c8f7efa127ae05d3d45b1e8c13a5eda76a84e1e69b886040516133619190613eef565b60405180910390a4505050505050505050565b5f6040518a81528960208201528860408201528760608201528660808201528560a08201528460c08201528360e08201528261010082015261012081209150509998505050505050505050565b5f6133d66133ce846128e7565b835f1b6138c8565b905092915050565b5f6318fb5864600452815f5260245f209050919050565b5f90565b5f5f6134036133f5565b15613431575f5f613412611ee3565b9150915081805190602001209350808051906020012092505050613478565b7f000000000000000000000000000000000000000000000000000000000000000091507f000000000000000000000000000000000000000000000000000000000000000090505b6040517f8b73c3c69bb8fe3d512ecc4cf759cc79239f7b179b0ffacaa9a75d522b39400f815282602082015281604082015246606082015230608082015260a081209250505090565b5f5f7f000000000000000000000000000000000000000000000000000000000000000090505f7f0000000000000000000000000000000000000000000000000000000000000000905080301482461416159250505090565b5f5f613524846133de565b905068fbb67fda52d4bfb8bf83036135435763f5a267f15f526004601cfd5b826135555768fbb67fda52d4bfb8bf92505b80195460011561363a5781602052806136035781548061357c57848355600193505061363a565b848103613589575061363a565b6001830154806135a45785600185015560019450505061363a565b8581036135b257505061363a565b6002840154806135ce578660028601556001955050505061363a565b8681036135dd5750505061363a565b825f52600160405f2055815f52600260405f2055805f52600360405f2055600793505050505b835f5260405f208054613638578160011c915084828401558160010181558160010160011b600117831955600193505061363a565b505b505092915050565b5f365f5f8585905003613681576040517f042a9b6400000000000000000000000000000000000000000000000000000000815260040160405180910390fd5b5f85855f81811061369557613694614789565b5b9050013560f81c60f81b60f81c9050858560019080926136b7939291906147be565b925092505f8160ff16036136ef57865f015f9054906101000a900473ffffffffffffffffffffffffffffffffffffffff169350613758565b60018160ff160361372557866001015f9054906101000a900473ffffffffffffffffffffffffffffffffffffffff169350613757565b6040517f062e942d00000000000000000000000000000000000000000000000000000000815260040160405180910390fd5b5b5f73ffffffffffffffffffffffffffffffffffffffff168473ffffffffffffffffffffffffffffffffffffffff16036137bd576040517fba53e96500000000000000000000000000000000000000000000000000000000815260040160405180910390fd5b5093509350939050565b5f5f73ffffffffffffffffffffffffffffffffffffffff168573ffffffffffffffffffffffffffffffffffffffff1603156138c0576040516001156138be57853b613880578260408114613823576041811461384757506138be565b6020850135601b8160ff1c0160205285356040528060011b60011c60605250613858565b60408501355f1a6020526040856040375b50845f526020600160805f60015afa5180871860601b3d1192505f60605281604052506138be565b631626ba7e60e01b80825285600483015260248201604081528460448401528486606485013760208160648701858b5afa9350838282511416935050505b505b949350505050565b5f5f6138d3846133de565b905068fbb67fda52d4bfb8bf83036138f25763f5a267f15f526004601cfd5b826139045768fbb67fda52d4bfb8bf92505b6001156139505780195461393f57600191508281540315613950578260018201540315613950578260028201540315613950575f9150613950565b80602052825f5260405f2054151591505b5092915050565b6040518060c0016040528060608152602001606081526020015f81526020015f81526020015f81526020015f81525090565b5f81519050919050565b5f82825260208201905092915050565b8281835e5f83830152505050565b5f601f19601f8301169050919050565b5f6139cb82613989565b6139d58185613993565b93506139e58185602086016139a3565b6139ee816139b1565b840191505092915050565b5f6020820190508181035f830152613a1181846139c1565b905092915050565b5f604051905090565b5f5ffd5b5f5ffd5b5f73ffffffffffffffffffffffffffffffffffffffff82169050919050565b5f613a5382613a2a565b9050919050565b613a6381613a49565b8114613a6d575f5ffd5b50565b5f81359050613a7e81613a5a565b92915050565b5f819050919050565b613a9681613a84565b8114613aa0575f5ffd5b50565b5f81359050613ab181613a8d565b92915050565b5f5ffd5b5f60808284031215613ad057613acf613ab7565b5b81905092915050565b5f65ffffffffffff82169050919050565b613af381613ad9565b8114613afd575f5ffd5b50565b5f81359050613b0e81613aea565b92915050565b5f5ffd5b5f5ffd5b5f5ffd5b5f5f83601f840112613b3557613b34613b14565b5b8235905067ffffffffffffffff811115613b5257613b51613b18565b5b602083019150836001820283011115613b6e57613b6d613b1c565b5b9250929050565b5f5f5f5f5f5f5f610120888a031215613b9157613b90613a22565b5b5f613b9e8a828b01613a70565b9750506020613baf8a828b01613aa3565b9650506040613bc08a828b01613abb565b95505060c0613bd18a828b01613aa3565b94505060e0613be28a828b01613b00565b93505061010088013567ffffffffffffffff811115613c0457613c03613a26565b5b613c108a828b01613b20565b925092505092959891949750929550565b5f61ffff82169050919050565b613c3781613c21565b8114613c41575f5ffd5b50565b5f81359050613c5281613c2e565b92915050565b5f60208284031215613c6d57613c6c613a22565b5b5f613c7a84828501613c44565b91505092915050565b5f5f60408385031215613c9957613c98613a22565b5b5f613ca685828601613a70565b9250506020613cb785828601613aa3565b9150509250929050565b5f8115159050919050565b613cd581613cc1565b82525050565b5f602082019050613cee5f830184613ccc565b92915050565b5f5f60408385031215613d0a57613d09613a22565b5b5f613d1785828601613c44565b9250506020613d2885828601613a70565b9150509250929050565b5f819050919050565b613d4481613d32565b82525050565b5f604082019050613d5d5f830185613d3b565b613d6a6020830184613d3b565b9392505050565b613d7a81613d32565b8114613d84575f5ffd5b50565b5f81359050613d9581613d71565b92915050565b5f5f5f60608486031215613db257613db1613a22565b5b5f613dbf86828701613c44565b9350506020613dd086828701613d87565b9250506040613de186828701613d87565b9150509250925092565b5f60ff82169050919050565b613e0081613deb565b8114613e0a575f5ffd5b50565b5f81359050613e1b81613df7565b92915050565b5f5f5f60608486031215613e3857613e37613a22565b5b5f613e4586828701613a70565b9350506020613e5686828701613a70565b9250506040613e6786828701613e0d565b9150509250925092565b5f60208284031215613e8657613e85613a22565b5b5f613e9384828501613d87565b91505092915050565b5f602082019050613eaf5f830184613d3b565b92915050565b5f60208284031215613eca57613ec9613a22565b5b5f613ed784828501613a70565b91505092915050565b613ee981613a84565b82525050565b5f602082019050613f025f830184613ee0565b92915050565b5f5f60208385031215613f1e57613f1d613a22565b5b5f83013567ffffffffffffffff811115613f3b57613f3a613a26565b5b613f4785828601613b20565b92509250509250929050565b5f7fff0000000000000000000000000000000000000000000000000000000000000082169050919050565b613f8781613f53565b82525050565b613f9681613a49565b82525050565b5f81519050919050565b5f82825260208201905092915050565b5f819050602082019050919050565b613fce81613a84565b82525050565b5f613fdf8383613fc5565b60208301905092915050565b5f602082019050919050565b5f61400182613f9c565b61400b8185613fa6565b935061401683613fb6565b805f5b8381101561404657815161402d8882613fd4565b975061403883613feb565b925050600181019050614019565b5085935050505092915050565b5f60e0820190506140665f83018a613f7e565b818103602083015261407881896139c1565b9050818103604083015261408c81886139c1565b905061409b6060830187613ee0565b6140a86080830186613f8d565b6140b560a0830185613d3b565b81810360c08301526140c78184613ff7565b905098975050505050505050565b5f5f5f5f5f606086880312156140ee576140ed613a22565b5b5f6140fb88828901613d87565b955050602086013567ffffffffffffffff81111561411c5761411b613a26565b5b61412888828901613b20565b9450945050604086013567ffffffffffffffff81111561414b5761414a613a26565b5b61415788828901613b20565b92509250509295509295909350565b5f610120828403121561417c5761417b613ab7565b5b81905092915050565b5f5f6040838503121561419b5761419a613a22565b5b5f83013567ffffffffffffffff8111156141b8576141b7613a26565b5b6141c485828601614166565b92505060206141d585828601613d87565b9150509250929050565b5f819050919050565b5f6142026141fd6141f884613a84565b6141df565b613a84565b9050919050565b614212816141e8565b82525050565b5f60208201905061422b5f830184614209565b92915050565b61423a81613deb565b82525050565b5f6020820190506142535f830184614231565b92915050565b5f6020820190508181035f8301526142718184613ff7565b905092915050565b5f6020828403121561428e5761428d613a22565b5b5f61429b84828501613aa3565b91505092915050565b5f6060820190506142b75f830186613f8d565b6142c46020830185613f8d565b6142d16040830184614231565b949350505050565b5f5f5f5f606085870312156142f1576142f0613a22565b5b5f6142fe87828801613a70565b945050602061430f87828801613d87565b935050604085013567ffffffffffffffff8111156143305761432f613a26565b5b61433c87828801613b20565b925092505092959194509250565b5f7fffffffff0000000000000000000000000000000000000000000000000000000082169050919050565b61437e8161434a565b82525050565b5f6020820190506143975f830184614375565b92915050565b5f5f5f5f5f61010086880312156143b7576143b6613a22565b5b5f6143c488828901613a70565b95505060206143d588828901613aa3565b94505060406143e688828901613abb565b93505060c06143f788828901613aa3565b92505060e061440888828901613b00565b9150509295509295909350565b5f6020820190506144285f830184613f8d565b92915050565b61443781613c21565b82525050565b5f6020820190506144505f83018461442e565b92915050565b7f4e487b71000000000000000000000000000000000000000000000000000000005f52604160045260245ffd5b61448c826139b1565b810181811067ffffffffffffffff821117156144ab576144aa614456565b5b80604052505050565b5f6144bd613a19565b90506144c98282614483565b919050565b5f67ffffffffffffffff8211156144e8576144e7614456565b5b602082029050602081019050919050565b5f61450b614506846144ce565b6144b4565b9050808382526020820190506020840283018581111561452e5761452d613b1c565b5b835b8181101561455757806145438882613c44565b845260208401935050602081019050614530565b5050509392505050565b5f82601f83011261457557614574613b14565b5b81356145858482602086016144f9565b91505092915050565b5f67ffffffffffffffff8211156145a8576145a7614456565b5b602082029050602081019050919050565b5f5ffd5b5f604082840312156145d2576145d16145b9565b5b6145dc60406144b4565b90505f6145eb84828501613d87565b5f8301525060206145fe84828501613d87565b60208301525092915050565b5f61461c6146178461458e565b6144b4565b9050808382526020820190506040840283018581111561463f5761463e613b1c565b5b835b81811015614668578061465488826145bd565b845260208401935050604081019050614641565b5050509392505050565b5f82601f83011261468657614685613b14565b5b813561469684826020860161460a565b91505092915050565b5f6146a982613a2a565b9050919050565b6146b98161469f565b81146146c3575f5ffd5b50565b5f813590506146d4816146b0565b92915050565b5f5f5f5f5f60a086880312156146f3576146f2613a22565b5b5f86013567ffffffffffffffff8111156147105761470f613a26565b5b61471c88828901614561565b955050602086013567ffffffffffffffff81111561473d5761473c613a26565b5b61474988828901614672565b945050604061475a888289016146c6565b935050606061476b888289016146c6565b925050608061477c88828901613e0d565b9150509295509295909350565b7f4e487b71000000000000000000000000000000000000000000000000000000005f52603260045260245ffd5b5f5ffd5b5f5ffd5b5f5f858511156147d1576147d06147b6565b5b838611156147e2576147e16147ba565b5b6001850283019150848603905094509492505050565b5f82905092915050565b5f82821b905092915050565b5f61481983836147f8565b826148248135613d32565b925060208210156148645761485f7fffffffffffffffffffffffffffffffffffffffffffffffffffffffffffffffff83602003600802614802565b831692505b505092915050565b7f4e487b71000000000000000000000000000000000000000000000000000000005f52601160045260245ffd5b5f6148a382613a84565b91506148ae83613a84565b92508282019050808211156148c6576148c561486c565b5b92915050565b5f5ffd5b5f5ffd5b5f5ffd5b5f5f833560016020038436030381126148f4576148f36148cc565b5b80840192508235915067ffffffffffffffff821115614916576149156148d0565b5b602083019250600182023603831315614932576149316148d4565b5b509250929050565b61494381613cc1565b811461494d575f5ffd5b50565b5f8135905061495e8161493a565b92915050565b5f6020828403121561497957614978613a22565b5b5f61498684828501614950565b91505092915050565b5f7fffff00000000000000000000000000000000000000000000000000000000000082169050919050565b5f6149c583836147f8565b826149d0813561498f565b92506002821015614a1057614a0b7fffff00000000000000000000000000000000000000000000000000000000000083600203600802614802565b831692505b505092915050565b7f4e487b71000000000000000000000000000000000000000000000000000000005f52601260045260245ffdfea26469706673582212206cf93e42a42f6b9f6c467595e5166e35fdf027cc44863a4af50c6d1dac1d070c64736f6c634300081c0033","linkReferences":{}},"methodIdentifiers":{"addCredential(uint16,bytes32,bytes32)":"5e84cc61","credentialCount(address)":"69989ffb","eip712Domain()":"84b0196e","getCredKeys(address)":"c89f2403","getCredential(uint16,address)":"3b826b0d","getPasskeyDigest(bytes32)":"65e3371a","getPasskeyMultichain(bytes32)":"9300126d","getRecoverDigest(address,uint256,(uint16,bytes32,bytes32,bool),uint256,uint48)":"fa5565e3","guardianConfig(address)":"ed3262e1","guardianThreshold(address)":"a1cdf4ed","isInitialized(address)":"d60b347f","isModuleType(uint256)":"ecd05961","isValidSignatureWithSender(address,bytes32,bytes)":"f551e2ee","name()":"06fdde03","nonceUsed(address,uint256)":"1647795e","onInstall(bytes)":"6d61fe70","onUninstall(bytes)":"8a91b0e3","recoverWithGuardian(address,uint256,(uint16,bytes32,bytes32,bool),uint256,uint48,bytes)":"d5370a3d","recoverWithPasskey(address,uint256,(uint16,bytes32,bytes32,bool),uint256,uint48,bytes)":"0cc81a93","removeCredential(uint16)":"13c50641","setGuardianConfig(address,address,uint8)":"61a8d623","validateSignatureWithData(bytes32,bytes,bytes)":"940d3840","validateUserOp((address,uint256,bytes,bytes,bytes32,uint256,bytes32,bytes,bytes),bytes32)":"97003203","version()":"54fd4d50"},"id":56}