{"abi":[{"type":"function","name":"addCredential","inputs":[{"name":"keyId","type":"uint16","internalType":"uint16"},{"name":"pubKeyX","type":"bytes32","internalType":"bytes32"},{"name":"pubKeyY","type":"bytes32","internalType":"bytes32"}],"outputs":[],"stateMutability":"nonpayable"},{"type":"function","name":"credentialCount","inputs":[{"name":"account","type":"address","internalType":"address"}],"outputs":[{"name":"","type":"uint256","internalType":"uint256"}],"stateMutability":"view"},{"type":"function","name":"eip712Domain","inputs":[],"outputs":[{"name":"fields","type":"bytes1","internalType":"bytes1"},{"name":"name","type":"string","internalType":"string"},{"name":"version","type":"string","internalType":"string"},{"name":"chainId","type":"uint256","internalType":"uint256"},{"name":"verifyingContract","type":"address","internalType":"address"},{"name":"salt","type":"bytes32","internalType":"bytes32"},{"name":"extensions","type":"uint256[]","internalType":"uint256[]"}],"stateMutability":"view"},{"type":"function","name":"getAccountLeaf","inputs":[{"name":"account","type":"address","internalType":"address"},{"name":"digest","type":"bytes32","internalType":"bytes32"}],"outputs":[{"name":"","type":"bytes32","internalType":"bytes32"}],"stateMutability":"pure"},{"type":"function","name":"getCredKeys","inputs":[{"name":"account","type":"address","internalType":"address"}],"outputs":[{"name":"","type":"uint256[]","internalType":"uint256[]"}],"stateMutability":"view"},{"type":"function","name":"getCredential","inputs":[{"name":"keyId","type":"uint16","internalType":"uint16"},{"name":"account","type":"address","internalType":"address"}],"outputs":[{"name":"pubKeyX","type":"bytes32","internalType":"bytes32"},{"name":"pubKeyY","type":"bytes32","internalType":"bytes32"}],"stateMutability":"view"},{"type":"function","name":"getPasskeyDigest","inputs":[{"name":"account","type":"address","internalType":"address"},{"name":"digest","type":"bytes32","internalType":"bytes32"}],"outputs":[{"name":"","type":"bytes32","internalType":"bytes32"}],"stateMutability":"view"},{"type":"function","name":"getPasskeyMultichain","inputs":[{"name":"root","type":"bytes32","internalType":"bytes32"}],"outputs":[{"name":"","type":"bytes32","internalType":"bytes32"}],"stateMutability":"view"},{"type":"function","name":"getRecoverDigest","inputs":[{"name":"account","type":"address","internalType":"address"},{"name":"chainId","type":"uint256","internalType":"uint256"},{"name":"cred","type":"tuple","internalType":"struct OneAuthRecoveryBase.NewCredential","components":[{"name":"keyId","type":"uint16","internalType":"uint16"},{"name":"pubKeyX","type":"bytes32","internalType":"bytes32"},{"name":"pubKeyY","type":"bytes32","internalType":"bytes32"},{"name":"replace","type":"bool","internalType":"bool"}]},{"name":"nonce","type":"uint256","internalType":"uint256"},{"name":"expiry","type":"uint48","internalType":"uint48"}],"outputs":[{"name":"","type":"bytes32","internalType":"bytes32"}],"stateMutability":"view"},{"type":"function","name":"guardianConfig","inputs":[{"name":"account","type":"address","internalType":"address"}],"outputs":[{"name":"userGuardian","type":"address","internalType":"address"},{"name":"externalGuardian","type":"address","internalType":"address"},{"name":"threshold","type":"uint8","internalType":"uint8"}],"stateMutability":"view"},{"type":"function","name":"guardianThreshold","inputs":[{"name":"account","type":"address","internalType":"address"}],"outputs":[{"name":"","type":"uint8","internalType":"uint8"}],"stateMutability":"view"},{"type":"function","name":"isInitialized","inputs":[{"name":"smartAccount","type":"address","internalType":"address"}],"outputs":[{"name":"","type":"bool","internalType":"bool"}],"stateMutability":"view"},{"type":"function","name":"isModuleType","inputs":[{"name":"typeID","type":"uint256","internalType":"uint256"}],"outputs":[{"name":"","type":"bool","internalType":"bool"}],"stateMutability":"pure"},{"type":"function","name":"isValidSignatureWithSender","inputs":[{"name":"","type":"address","internalType":"address"},{"name":"hash","type":"bytes32","internalType":"bytes32"},{"name":"data","type":"bytes","internalType":"bytes"}],"outputs":[{"name":"","type":"bytes4","internalType":"bytes4"}],"stateMutability":"view"},{"type":"function","name":"name","inputs":[],"outputs":[{"name":"","type":"string","internalType":"string"}],"stateMutability":"pure"},{"type":"function","name":"nonceUsed","inputs":[{"name":"account","type":"address","internalType":"address"},{"name":"nonce","type":"uint256","internalType":"uint256"}],"outputs":[{"name":"","type":"bool","internalType":"bool"}],"stateMutability":"view"},{"type":"function","name":"onInstall","inputs":[{"name":"data","type":"bytes","internalType":"bytes"}],"outputs":[],"stateMutability":"nonpayable"},{"type":"function","name":"onUninstall","inputs":[{"name":"","type":"bytes","internalType":"bytes"}],"outputs":[],"stateMutability":"nonpayable"},{"type":"function","name":"recoverWithGuardian","inputs":[{"name":"account","type":"address","internalType":"address"},{"name":"chainId","type":"uint256","internalType":"uint256"},{"name":"cred","type":"tuple","internalType":"struct OneAuthRecoveryBase.NewCredential","components":[{"name":"keyId","type":"uint16","internalType":"uint16"},{"name":"pubKeyX","type":"bytes32","internalType":"bytes32"},{"name":"pubKeyY","type":"bytes32","internalType":"bytes32"},{"name":"replace","type":"bool","internalType":"bool"}]},{"name":"nonce","type":"uint256","internalType":"uint256"},{"name":"expiry","type":"uint48","internalType":"uint48"},{"name":"guardianSig","type":"bytes","internalType":"bytes"}],"outputs":[],"stateMutability":"nonpayable"},{"type":"function","name":"recoverWithPasskey","inputs":[{"name":"account","type":"address","internalType":"address"},{"name":"chainId","type":"uint256","internalType":"uint256"},{"name":"cred","type":"tuple","internalType":"struct OneAuthRecoveryBase.NewCredential","components":[{"name":"keyId","type":"uint16","internalType":"uint16"},{"name":"pubKeyX","type":"bytes32","internalType":"bytes32"},{"name":"pubKeyY","type":"bytes32","internalType":"bytes32"},{"name":"replace","type":"bool","internalType":"bool"}]},{"name":"nonce","type":"uint256","internalType":"uint256"},{"name":"expiry","type":"uint48","internalType":"uint48"},{"name":"signature","type":"bytes","internalType":"bytes"}],"outputs":[],"stateMutability":"nonpayable"},{"type":"function","name":"removeCredential","inputs":[{"name":"keyId","type":"uint16","internalType":"uint16"}],"outputs":[],"stateMutability":"nonpayable"},{"type":"function","name":"setGuardianConfig","inputs":[{"name":"_userGuardian","type":"address","internalType":"address"},{"name":"_externalGuardian","type":"address","internalType":"address"},{"name":"_threshold","type":"uint8","internalType":"uint8"}],"outputs":[],"stateMutability":"nonpayable"},{"type":"function","name":"validateSignatureForAccount","inputs":[{"name":"account","type":"address","internalType":"address"},{"name":"digest","type":"bytes32","internalType":"bytes32"},{"name":"data","type":"bytes","internalType":"bytes"}],"outputs":[{"name":"","type":"bool","internalType":"bool"}],"stateMutability":"view"},{"type":"function","name":"validateSignatureWithData","inputs":[{"name":"hash","type":"bytes32","internalType":"bytes32"},{"name":"signature","type":"bytes","internalType":"bytes"},{"name":"data","type":"bytes","internalType":"bytes"}],"outputs":[{"name":"","type":"bool","internalType":"bool"}],"stateMutability":"view"},{"type":"function","name":"validateUserOp","inputs":[{"name":"userOp","type":"tuple","internalType":"struct PackedUserOperation","components":[{"name":"sender","type":"address","internalType":"address"},{"name":"nonce","type":"uint256","internalType":"uint256"},{"name":"initCode","type":"bytes","internalType":"bytes"},{"name":"callData","type":"bytes","internalType":"bytes"},{"name":"accountGasLimits","type":"bytes32","internalType":"bytes32"},{"name":"preVerificationGas","type":"uint256","internalType":"uint256"},{"name":"gasFees","type":"bytes32","internalType":"bytes32"},{"name":"paymasterAndData","type":"bytes","internalType":"bytes"},{"name":"signature","type":"bytes","internalType":"bytes"}]},{"name":"userOpHash","type":"bytes32","internalType":"bytes32"}],"outputs":[{"name":"","type":"uint256","internalType":"ERC7579ValidatorBase.ValidationData"}],"stateMutability":"view"},{"type":"function","name":"version","inputs":[],"outputs":[{"name":"","type":"string","internalType":"string"}],"stateMutability":"pure"},{"type":"event","name":"CredentialAdded","inputs":[{"name":"account","type":"address","indexed":true,"internalType":"address"},{"name":"keyId","type":"uint16","indexed":true,"internalType":"uint16"},{"name":"pubKeyX","type":"bytes32","indexed":false,"internalType":"bytes32"},{"name":"pubKeyY","type":"bytes32","indexed":false,"internalType":"bytes32"}],"anonymous":false},{"type":"event","name":"CredentialRemoved","inputs":[{"name":"account","type":"address","indexed":true,"internalType":"address"},{"name":"keyId","type":"uint16","indexed":true,"internalType":"uint16"}],"anonymous":false},{"type":"event","name":"GuardianConfigSet","inputs":[{"name":"account","type":"address","indexed":true,"internalType":"address"},{"name":"userGuardian","type":"address","indexed":false,"internalType":"address"},{"name":"externalGuardian","type":"address","indexed":false,"internalType":"address"},{"name":"threshold","type":"uint8","indexed":false,"internalType":"uint8"}],"anonymous":false},{"type":"event","name":"GuardianRecoveryExecuted","inputs":[{"name":"account","type":"address","indexed":true,"internalType":"address"},{"name":"guardian","type":"address","indexed":true,"internalType":"address"},{"name":"newKeyId","type":"uint16","indexed":true,"internalType":"uint16"},{"name":"nonce","type":"uint256","indexed":false,"internalType":"uint256"}],"anonymous":false},{"type":"event","name":"ModuleInitialized","inputs":[{"name":"account","type":"address","indexed":true,"internalType":"address"}],"anonymous":false},{"type":"event","name":"ModuleUninitialized","inputs":[{"name":"account","type":"address","indexed":true,"internalType":"address"}],"anonymous":false},{"type":"event","name":"PasskeyRecoveryExecuted","inputs":[{"name":"account","type":"address","indexed":true,"internalType":"address"},{"name":"newKeyId","type":"uint16","indexed":true,"internalType":"uint16"},{"name":"nonce","type":"uint256","indexed":false,"internalType":"uint256"}],"anonymous":false},{"type":"error","name":"CannotRemoveLastCredential","inputs":[]},{"type":"error","name":"CredentialNotFound","inputs":[{"name":"keyId","type":"uint16","internalType":"uint16"}]},{"type":"error","name":"EmptyGuardianSignature","inputs":[]},{"type":"error","name":"GuardianNotConfigured","inputs":[]},{"type":"error","name":"InvalidChainId","inputs":[]},{"type":"error","name":"InvalidGuardianSignature","inputs":[]},{"type":"error","name":"InvalidGuardianType","inputs":[]},{"type":"error","name":"InvalidMerkleProof","inputs":[]},{"type":"error","name":"InvalidPublicKey","inputs":[]},{"type":"error","name":"InvalidRecoverySignature","inputs":[]},{"type":"error","name":"InvalidSignatureData","inputs":[]},{"type":"error","name":"InvalidThreshold","inputs":[]},{"type":"error","name":"KeyIdAlreadyExists","inputs":[{"name":"keyId","type":"uint16","internalType":"uint16"}]},{"type":"error","name":"ModuleAlreadyInitialized","inputs":[{"name":"smartAccount","type":"address","internalType":"address"}]},{"type":"error","name":"NonceAlreadyUsed","inputs":[]},{"type":"error","name":"NotInitialized","inputs":[{"name":"smartAccount","type":"address","internalType":"address"}]},{"type":"error","name":"ProofTooLong","inputs":[]},{"type":"error","name":"RecoveryExpired","inputs":[]},{"type":"error","name":"ThresholdRequiresBothGuardians","inputs":[]},{"type":"error","name":"TooManyCredentials","inputs":[]}],"bytecode":{"object":"0x610120604052348015610010575f5ffd5b503073ffffffffffffffffffffffffffffffffffffffff16608081815250504660a0818152505060608061004861012b60201b60201c565b6100635761005a61012f60201b60201c565b80925081935050505b5f61007261012b60201b60201c565b610083578280519060200120610087565b5f5f1b5b90505f61009861012b60201b60201c565b6100a95782805190602001206100ad565b5f5f1b5b90508160c081815250508060e081815250505f6100ce61012b60201b60201c565b610118576040517f8b73c3c69bb8fe3d512ecc4cf759cc79239f7b179b0ffacaa9a75d522b39400f815283602082015282604082015246606082015230608082015260a081209150505b80610100818152505050505050506101a6565b5f90565b6060806040518060400160405280601081526020017f4f6e654175746856616c696461746f720000000000000000000000000000000081525091506040518060400160405280600581526020017f312e302e3000000000000000000000000000000000000000000000000000000081525090509091565b60805160a05160c05160e05161010051614c646101e35f395f612c9201525f6136d601525f6136b301525f61374501525f6137690152614c645ff3fe608060405234801561000f575f5ffd5b506004361061018c575f3560e01c80639300126d116100dc578063c89f240311610095578063ecd059611161006f578063ecd05961146104f5578063ed3262e114610525578063f551e2ee14610557578063fa5565e3146105875761018c565b8063c89f240314610479578063d5370a3d146104a9578063d60b347f146104c55761018c565b80639300126d14610359578063940d38401461038957806394529e97146103b957806397003203146103e9578063a1cdf4ed14610419578063a45efa49146104495761018c565b806354fd4d501161014957806369989ffb1161012357806369989ffb146102cd5780636d61fe70146102fd57806384b0196e146103195780638a91b0e31461033d5761018c565b806354fd4d50146102775780635e84cc611461029557806361a8d623146102b15761018c565b806306fdde03146101905780630cc81a93146101ae57806313c50641146101ca57806316250b16146101e65780631647795e146102165780633b826b0d14610246575b5f5ffd5b6101986105b7565b6040516101a59190613af4565b60405180910390f35b6101c860048036038101906101c39190613c70565b6105f4565b005b6101e460048036038101906101df9190613d53565b610847565b005b61020060048036038101906101fb9190613db1565b6109e8565b60405161020d9190613dfe565b60405180910390f35b610230600480360381019061022b9190613e17565b6109fb565b60405161023d9190613e6f565b60405180910390f35b610260600480360381019061025b9190613e88565b610a5f565b60405161026e929190613ec6565b60405180910390f35b61027f610ad0565b60405161028c9190613af4565b60405180910390f35b6102af60048036038101906102aa9190613eed565b610b0d565b005b6102cb60048036038101906102c69190613f73565b610b1e565b005b6102e760048036038101906102e29190613fc3565b610d4a565b6040516102f49190613ffd565b60405180910390f35b61031760048036038101906103129190614016565b610d9a565b005b610321611032565b6040516103349796959493929190614161565b60405180910390f35b61035760048036038101906103529190614016565b61107d565b005b610373600480360381019061036e91906141e3565b61123e565b6040516103809190613dfe565b60405180910390f35b6103a3600480360381019061039e919061420e565b61124f565b6040516103b09190613e6f565b60405180910390f35b6103d360048036038101906103ce9190613db1565b611602565b6040516103e09190613dfe565b60405180910390f35b61040360048036038101906103fe91906142be565b611634565b6040516104109190614351565b60405180910390f35b610433600480360381019061042e9190613fc3565b611679565b6040516104409190614379565b60405180910390f35b610463600480360381019061045e9190614392565b6116e7565b6040516104709190613e6f565b60405180910390f35b610493600480360381019061048e9190613fc3565b6116fe565b6040516104a09190614403565b60405180910390f35b6104c360048036038101906104be9190613c70565b61174f565b005b6104df60048036038101906104da9190613fc3565b6119c9565b6040516104ec9190613e6f565b60405180910390f35b61050f600480360381019061050a9190614423565b611a1b565b60405161051c9190613e6f565b60405180910390f35b61053f600480360381019061053a9190613fc3565b611a32565b60405161054e9392919061444e565b60405180910390f35b610571600480360381019061056c9190614392565b611add565b60405161057e91906144bd565b60405180910390f35b6105a1600480360381019061059c91906144d6565b611b11565b6040516105ae9190613dfe565b60405180910390f35b60606040518060400160405280601081526020017f4f6e654175746856616c696461746f7200000000000000000000000000000000815250905090565b868685858065ffffffffffff1642111561063a576040517fd3c92b0d00000000000000000000000000000000000000000000000000000000815260040160405180910390fd5b5f5f8573ffffffffffffffffffffffffffffffffffffffff1673ffffffffffffffffffffffffffffffffffffffff1681526020019081526020015f206002015f8381526020019081526020015f205f9054906101000a900460ff16156106cc576040517f1fb09b8000000000000000000000000000000000000000000000000000000000815260040160405180910390fd5b5f83141580156106dc5750468314155b15610713576040517f7a47c9a200000000000000000000000000000000000000000000000000000000815260040160405180910390fd5b60015f5f8673ffffffffffffffffffffffffffffffffffffffff1673ffffffffffffffffffffffffffffffffffffffff1681526020019081526020015f206002015f8481526020019081526020015f205f6101000a81548160ff0219169083151502179055505f6107878c8c8c8c8c611b11565b90506107958c828989611b60565b6107cb576040517f62a281f100000000000000000000000000000000000000000000000000000000815260040160405180910390fd5b6107d58c8b611bcf565b895f0160208101906107e79190613d53565b61ffff168c73ffffffffffffffffffffffffffffffffffffffff167fecca216aa14b66eb6599c0102f4caedc012eeaac8b6caf0446c274defd1e2dd48b6040516108319190613ffd565b60405180910390a3505050505050505050505050565b5f3390505f60015f8373ffffffffffffffffffffffffffffffffffffffff1673ffffffffffffffffffffffffffffffffffffffff1681526020019081526020015f2090505f61089882600101611c3b565b90505f81036108de57826040517ff91bd6f10000000000000000000000000000000000000000000000000000000081526004016108d5919061454e565b60405180910390fd5b60018111610918576040517fd2f2c18b00000000000000000000000000000000000000000000000000000000815260040160405180910390fd5b5f8461ffff1690506109368184600101611c5490919063ffffffff16565b61097757846040517fec6a6bda00000000000000000000000000000000000000000000000000000000815260040161096e9190614576565b60405180910390fd5b825f015f8281526020019081526020015f205f5f82015f9055600182015f905550508461ffff168473ffffffffffffffffffffffffffffffffffffffff167faf333fa2fc1dbe79c8609d693a59ee1a03e0d893e2573e6e5fc6e8fe97c5aed560405160405180910390a35050505050565b5f6109f38383611c71565b905092915050565b5f5f5f8473ffffffffffffffffffffffffffffffffffffffff1673ffffffffffffffffffffffffffffffffffffffff1681526020019081526020015f206002015f8381526020019081526020015f205f9054906101000a900460ff16905092915050565b5f5f5f8461ffff1690505f60015f8673ffffffffffffffffffffffffffffffffffffffff1673ffffffffffffffffffffffffffffffffffffffff1681526020019081526020015f205f015f8381526020019081526020015f209050805f015481600101549350935050509250929050565b60606040518060400160405280600581526020017f312e302e30000000000000000000000000000000000000000000000000000000815250905090565b610b1933848484611ccf565b505050565b5f8160ff161480610b32575060028160ff16115b15610b69576040517faabd5a0900000000000000000000000000000000000000000000000000000000815260040160405180910390fd5b60028160ff1603610c11575f73ffffffffffffffffffffffffffffffffffffffff168373ffffffffffffffffffffffffffffffffffffffff161480610bd957505f73ffffffffffffffffffffffffffffffffffffffff168273ffffffffffffffffffffffffffffffffffffffff16145b15610c10576040517fc13a2f9c00000000000000000000000000000000000000000000000000000000815260040160405180910390fd5b5b5f5f5f3373ffffffffffffffffffffffffffffffffffffffff1673ffffffffffffffffffffffffffffffffffffffff1681526020019081526020015f205f01905083815f015f6101000a81548173ffffffffffffffffffffffffffffffffffffffff021916908373ffffffffffffffffffffffffffffffffffffffff16021790555082816001015f6101000a81548173ffffffffffffffffffffffffffffffffffffffff021916908373ffffffffffffffffffffffffffffffffffffffff160217905550818160010160146101000a81548160ff021916908360ff1602179055503373ffffffffffffffffffffffffffffffffffffffff167f8c9b95560ebc765223ef2ae107bb7b8c01b56c7d140261f67542da22e4a9471f858585604051610d3c9392919061444e565b60405180910390a250505050565b5f610d9360015f8473ffffffffffffffffffffffffffffffffffffffff1673ffffffffffffffffffffffffffffffffffffffff1681526020019081526020015f20600101611c3b565b9050919050565b5f339050610da7816119c9565b15610de957806040517f4d6b9dd3000000000000000000000000000000000000000000000000000000008152600401610de0919061454e565b60405180910390fd5b5f5f5f5f5f8787810190610dfd9190614813565b945094509450945094505f845190505f811480610e1b575085518114155b15610e52576040517fa2d0fee800000000000000000000000000000000000000000000000000000000815260040160405180910390fd5b6040811115610e8d576040517f7732141400000000000000000000000000000000000000000000000000000000815260040160405180910390fd5b5f60015f8973ffffffffffffffffffffffffffffffffffffffff1673ffffffffffffffffffffffffffffffffffffffff1681526020019081526020015f2090505f5b82811015610f4457610f39828a8a8481518110610eef57610eee6148c2565b5b60200260200101518a8581518110610f0a57610f096148c2565b5b60200260200101515f01518b8681518110610f2857610f276148c2565b5b602002602001015160200151611db1565b806001019050610ecf565b505f73ffffffffffffffffffffffffffffffffffffffff168573ffffffffffffffffffffffffffffffffffffffff16141580610fac57505f73ffffffffffffffffffffffffffffffffffffffff168473ffffffffffffffffffffffffffffffffffffffff1614155b80610fba57505f8360ff1614155b15610fe3575f5f8460ff1614610fd05783610fd3565b60015b9050610fe189878784611eed565b505b8773ffffffffffffffffffffffffffffffffffffffff167f27b541a16df0902e262f34789782092ab25125513b8ed73608e802951771b92860405160405180910390a250505050505050505050565b5f6060805f5f5f60607f0f00000000000000000000000000000000000000000000000000000000000000965061106661210d565b809650819750505046935030925090919293949596565b5f3390505f60015f8373ffffffffffffffffffffffffffffffffffffffff1673ffffffffffffffffffffffffffffffffffffffff1681526020019081526020015f2090505f6110ce82600101612184565b90505f5b815181101561115357825f015f8383815181106110f2576110f16148c2565b5b602002602001015181526020019081526020015f205f5f82015f9055600182015f9055505061114782828151811061112d5761112c6148c2565b5b602002602001015184600101611c5490919063ffffffff16565b508060010190506110d2565b505f5f8473ffffffffffffffffffffffffffffffffffffffff1673ffffffffffffffffffffffffffffffffffffffff1681526020019081526020015f205f015f5f82015f6101000a81549073ffffffffffffffffffffffffffffffffffffffff0219169055600182015f6101000a81549073ffffffffffffffffffffffffffffffffffffffff02191690556001820160146101000a81549060ff021916905550508273ffffffffffffffffffffffffffffffffffffffff167f9d00629762554452d03c3b45626436df6ca1c3795d05d04df882f6db481b1be060405160405180910390a25050505050565b5f611248826121a6565b9050919050565b5f601583839050101561128e576040517f52f151d300000000000000000000000000000000000000000000000000000000815260040160405180910390fd5b5f83835f906014926112a2939291906148f7565b906112ad9190614972565b60601c90505f848460148181106112c7576112c66148c2565b5b9050013560f81c60f81b60f81c60ff1690505f81036113e257605585859050101561131e576040517f52f151d300000000000000000000000000000000000000000000000000000000815260040160405180910390fd5b5f5f61132a89896121e9565b9150915080611365576040517f52f151d300000000000000000000000000000000000000000000000000000000815260040160405180910390fd5b6113d7611372858c611c71565b6040516020016113829190613dfe565b6040516020818303038152906040526001848a8a6015906035926113a8939291906148f7565b906113b391906149d0565b8b8b6035906055926113c7939291906148f7565b906113d291906149d0565b6122c5565b9450505050506115f9565b602081111561141d576040517fb5ae13c800000000000000000000000000000000000000000000000000000000815260040160405180910390fd5b5f600582901b603561142f9190614a5b565b905060408161143e9190614a5b565b86869050101561147a576040517f52f151d300000000000000000000000000000000000000000000000000000000815260040160405180910390fd5b5f868660159060359261148f939291906148f7565b9061149a91906149d0565b90505f848b6040516020016114b0929190614a8e565b604051602081830303815290604052805190602001209050365f60358a0191508590506114df828286866123fe565b611515576040517fb05e92fa00000000000000000000000000000000000000000000000000000000815260040160405180910390fd5b5050505f5f6115248b8b6121e9565b915091508061155f576040517f52f151d300000000000000000000000000000000000000000000000000000000815260040160405180910390fd5b6115f061156b846121a6565b60405160200161157b9190613dfe565b6040516020818303038152906040526001848c8c899060208b61159e9190614a5b565b926115ab939291906148f7565b906115b691906149d0565b8d8d60208b6115c59190614a5b565b9060408c6115d39190614a5b565b926115e0939291906148f7565b906115eb91906149d0565b6122c5565b96505050505050505b95945050505050565b5f8282604051602001611616929190614a8e565b60405160208183030381529060405280519060200120905092915050565b5f611661835f01602081019061164a9190613fc3565b838580610100019061165c9190614ac1565b611b60565b1561166e575f9050611673565b600190505b92915050565b5f5f5f5f8473ffffffffffffffffffffffffffffffffffffffff1673ffffffffffffffffffffffffffffffffffffffff1681526020019081526020015f205f0160010160149054906101000a900460ff1690505f8160ff16146116dc57806116df565b60015b915050919050565b5f6116f485858585611b60565b9050949350505050565b606061174860015f8473ffffffffffffffffffffffffffffffffffffffff1673ffffffffffffffffffffffffffffffffffffffff1681526020019081526020015f20600101612184565b9050919050565b868685858065ffffffffffff16421115611795576040517fd3c92b0d00000000000000000000000000000000000000000000000000000000815260040160405180910390fd5b5f5f8573ffffffffffffffffffffffffffffffffffffffff1673ffffffffffffffffffffffffffffffffffffffff1681526020019081526020015f206002015f8381526020019081526020015f205f9054906101000a900460ff1615611827576040517f1fb09b8000000000000000000000000000000000000000000000000000000000815260040160405180910390fd5b5f83141580156118375750468314155b1561186e576040517f7a47c9a200000000000000000000000000000000000000000000000000000000815260040160405180910390fd5b60015f5f8673ffffffffffffffffffffffffffffffffffffffff1673ffffffffffffffffffffffffffffffffffffffff1681526020019081526020015f206002015f8481526020019081526020015f205f6101000a81548160ff0219169083151502179055505f6118e28c8c8c8c8c611b11565b90505f5f5f8e73ffffffffffffffffffffffffffffffffffffffff1673ffffffffffffffffffffffffffffffffffffffff1681526020019081526020015f205f0190505f61193282848b8b612454565b905061193e8e8d611bcf565b8b5f0160208101906119509190613d53565b61ffff168173ffffffffffffffffffffffffffffffffffffffff168f73ffffffffffffffffffffffffffffffffffffffff167fe03b4c30661857d0903939c8f7efa127ae05d3d45b1e8c13a5eda76a84e1e69b8e6040516119b19190613ffd565b60405180910390a45050505050505050505050505050565b5f5f611a1360015f8573ffffffffffffffffffffffffffffffffffffffff1673ffffffffffffffffffffffffffffffffffffffff1681526020019081526020015f20600101611c3b565b119050919050565b5f6001821480611a2b5750600782145b9050919050565b5f5f5f5f5f5f8673ffffffffffffffffffffffffffffffffffffffff1673ffffffffffffffffffffffffffffffffffffffff1681526020019081526020015f205f019050805f015f9054906101000a900473ffffffffffffffffffffffffffffffffffffffff16816001015f9054906101000a900473ffffffffffffffffffffffffffffffffffffffff168260010160149054906101000a900460ff16935093509350509193909250565b5f611aea33858585611b60565b15611afe57631626ba7e60e01b9050611b09565b63ffffffff60e01b90505b949350505050565b5f611b55611b508787875f016020810190611b2c9190613d53565b886020013589604001358a6060016020810190611b499190614b4d565b8a8a6124a1565b61251f565b905095945050505050565b5f6003838390501015611b75575f9050611bc7565b5f83835f818110611b8957611b886148c2565b5b9050013560f81c60f81b60f81c60ff1690505f8103611bb657611bae86868686612593565b915050611bc7565b611bc386868686856126c7565b9150505b949350505050565b806060016020810190611be29190614b4d565b15611c1157611c0c82825f016020810190611bfd9190613d53565b836020013584604001356128d4565b611c37565b611c3682825f016020810190611c279190613d53565b83602001358460400135611ccf565b5b5050565b5f611c4d611c4883612aec565b612af5565b9050919050565b5f611c69611c6184612aec565b835f1b612b42565b905092915050565b5f611cc7611cc28473ffffffffffffffffffffffffffffffffffffffff165f1b847ffb6589b6e5ad7910fb567f4d28fb25cf229f96df6c10eb79e8dd22184cf9e7da612c529092919063ffffffff16565b612c73565b905092915050565b5f60015f8673ffffffffffffffffffffffffffffffffffffffff1673ffffffffffffffffffffffffffffffffffffffff1681526020019081526020015f2090505f611d1c82600101611c3b565b90505f8103611d6257856040517ff91bd6f1000000000000000000000000000000000000000000000000000000008152600401611d59919061454e565b60405180910390fd5b60408110611d9c576040517f7732141400000000000000000000000000000000000000000000000000000000815260040160405180910390fd5b611da98287878787611db1565b505050505050565b611dbf825f1c825f1c612cef565b611df5576040517fa2d0fee800000000000000000000000000000000000000000000000000000000815260040160405180910390fd5b5f8361ffff169050611e138187600101612edc90919063ffffffff16565b611e5457836040517fff60a9fd000000000000000000000000000000000000000000000000000000008152600401611e4b9190614576565b60405180910390fd5b604051806040016040528084815260200183815250865f015f8381526020019081526020015f205f820151815f0155602082015181600101559050508361ffff168573ffffffffffffffffffffffffffffffffffffffff167fda884d5d59662b1731710a4f6407c966163e54e01dc2bddd947aab99e95ca2938585604051611edd929190613ec6565b60405180910390a3505050505050565b60028160ff161115611f2b576040517faabd5a0900000000000000000000000000000000000000000000000000000000815260040160405180910390fd5b60028160ff1603611fd3575f73ffffffffffffffffffffffffffffffffffffffff168373ffffffffffffffffffffffffffffffffffffffff161480611f9b57505f73ffffffffffffffffffffffffffffffffffffffff168273ffffffffffffffffffffffffffffffffffffffff16145b15611fd2576040517fc13a2f9c00000000000000000000000000000000000000000000000000000000815260040160405180910390fd5b5b5f5f5f8673ffffffffffffffffffffffffffffffffffffffff1673ffffffffffffffffffffffffffffffffffffffff1681526020019081526020015f205f01905083815f015f6101000a81548173ffffffffffffffffffffffffffffffffffffffff021916908373ffffffffffffffffffffffffffffffffffffffff16021790555082816001015f6101000a81548173ffffffffffffffffffffffffffffffffffffffff021916908373ffffffffffffffffffffffffffffffffffffffff160217905550818160010160146101000a81548160ff021916908360ff1602179055508473ffffffffffffffffffffffffffffffffffffffff167f8c9b95560ebc765223ef2ae107bb7b8c01b56c7d140261f67542da22e4a9471f8585856040516120fe9392919061444e565b60405180910390a25050505050565b6060806040518060400160405280601081526020017f4f6e654175746856616c696461746f720000000000000000000000000000000081525091506040518060400160405280600581526020017f312e302e3000000000000000000000000000000000000000000000000000000081525090509091565b606061219f61219a61219584612aec565b612ef9565b612fc0565b9050919050565b5f6121e26121dd837fa5a505152e3529fa0b604100bdbc62aa67739181383273446e82d3023b082e99612fca90919063ffffffff16565b61251f565b9050919050565b6121f1613a52565b5f604684849050101561220957815f915091506122be565b5f8480356080850152602081013560a085015260408101358060f01c604086015261ffff8160e01c16606086015261ffff8160d01c16925050508060466122509190614a5b565b85859050101561226657825f92509250506122be565b8481604601850360405183815283604684016020830137808652601f19601f850116602001808201838152838660460186016020830137806020890152601f19601f8501166020018101604052505050505060019150505b9250929050565b5f5f5f6122d488600180612fde565b90506020860151805160208201604089015160608a01518551600d81017f226368616c6c656e6765223a220000000000000000000000000000000000000060981c8852858482011060228286880101515f1a14168160138a01208286880120141686846014011085851760801c107f2274797065223a22776562617574686e2e67657422000000000000000000000060581c8588015160581c1416169950818852505050508851518a151560021b600117808160218d510151161460208311891616975087156123d05760208b510182810180516020600160208701856020868c8c60025afa60011b5afa5199508082523d6123cc57fe5b5050505b505050505082156123f3576123f08287608001518860a0015188886130e8565b92505b505095945050505050565b5f8315612447578360051b8501855b600115612444578035841160051b8481528135602082185260405f20945060208201915082821061243e5750612444565b5061240d565b50505b8282149050949350505050565b5f5f8560010160149054906101000a900460ff16905060018160ff16116124895761248186868686613183565b915050612499565b6124958686868661334b565b9150505b949350505050565b5f6125117f940ae5f932b9cb11db32984a210a12b57602e8b7b980dbc8bce9539ae0ce9d2c8a73ffffffffffffffffffffffffffffffffffffffff165f1b8a5f1b8a61ffff165f1b8a8a8a6124f6575f6124f9565b60015b60ff165f1b8a5f1b8a65ffffffffffff165f1b6135f4565b905098975050505050505050565b5f5f5f61252a61210d565b915091506040517f91ab3d17e3a50a9d89e63fd30b92be7f5336b03b287bb946787a83a9d62a27665f5282516020840120602052815160208301206040523060605260805f206020526119015f52846040526042601e209350806040525f606052505050919050565b5f5f83836001906003926125a9939291906148f7565b906125b49190614ba3565b60f01c90505f8161ffff1690505f60015f8973ffffffffffffffffffffffffffffffffffffffff1673ffffffffffffffffffffffffffffffffffffffff1681526020019081526020015f205f015f8381526020019081526020015f206040518060400160405290815f820154815260200160018201548152505090505f5f1b815f015103612647575f93505050506126bf565b5f5f6126648888600390809261265f939291906148f7565b6121e9565b915091508061267a575f955050505050506126bf565b6126b76126878b8b611c71565b6040516020016126979190613dfe565b604051602081830303815290604052600184865f015187602001516122c5565b955050505050505b949350505050565b5f60208211156126d9575f90506128cb565b5f600583901b60216126eb9190614a5b565b90506002816126fa9190614a5b565b85859050101561270d575f9150506128cb565b5f8585600190602192612722939291906148f7565b9061272d91906149d0565b90505f8888604051602001612743929190614a8e565b604051602081830303815290604052805190602001209050365f602189019150869050612772828286866123fe565b612783575f955050505050506128cb565b5050505f868684906002866127989190614a5b565b926127a5939291906148f7565b906127b09190614ba3565b60f01c90505f8161ffff1690505f60015f8c73ffffffffffffffffffffffffffffffffffffffff1673ffffffffffffffffffffffffffffffffffffffff1681526020019081526020015f205f015f8381526020019081526020015f206040518060400160405290815f820154815260200160018201548152505090505f5f1b815f015103612845575f955050505050506128cb565b5f5f61286d8b8b60028a6128599190614a5b565b908092612868939291906148f7565b6121e9565b9150915080612885575f9750505050505050506128cb565b6128c1612891876121a6565b6040516020016128a19190613dfe565b604051602081830303815290604052600184865f015187602001516122c5565b9750505050505050505b95945050505050565b5f60015f8673ffffffffffffffffffffffffffffffffffffffff1673ffffffffffffffffffffffffffffffffffffffff1681526020019081526020015f2090505f61292182600101611c3b565b90505f810361296757856040517ff91bd6f100000000000000000000000000000000000000000000000000000000815260040161295e919061454e565b60405180910390fd5b612975845f1c845f1c612cef565b6129ab576040517fa2d0fee800000000000000000000000000000000000000000000000000000000815260040160405180910390fd5b5f8561ffff1690506129c9818460010161364190919063ffffffff16565b612a0a57856040517fec6a6bda000000000000000000000000000000000000000000000000000000008152600401612a019190614576565b60405180910390fd5b604051806040016040528086815260200185815250835f015f8381526020019081526020015f205f820151815f0155602082015181600101559050508561ffff168773ffffffffffffffffffffffffffffffffffffffff167faf333fa2fc1dbe79c8609d693a59ee1a03e0d893e2573e6e5fc6e8fe97c5aed560405160405180910390a38561ffff168773ffffffffffffffffffffffffffffffffffffffff167fda884d5d59662b1731710a4f6407c966163e54e01dc2bddd947aab99e95ca2938787604051612adb929190613ec6565b60405180910390a350505050505050565b5f819050919050565b5f5f612b008361365e565b90508019548060011c925080612b3b575f92508282015415612b3b57600192508282015415612b3b57600292508282015415612b3b57600392505b5050919050565b5f5f612b4d8461365e565b905068fbb67fda52d4bfb8bf8303612b6c5763f5a267f15f526004601cfd5b82612b7e5768fbb67fda52d4bfb8bf92505b801954600115612c4a5780612bf3576001925083825403612bb55760018201548255600282015460018301555f6002830155612c4a565b83600183015403612bd557600282015460018301555f6002830155612c4a565b83600283015403612beb575f6002830155612c4a565b5f9250612c4a565b81602052835f5260405f20805480612c0c575050612c4a565b60018360011c039250826001820314612c3657828401548060018303860155805f528160405f2055505b60018360011b178419555f82556001945050505b505092915050565b5f604051848152836020820152826040820152606081209150509392505050565b5f612c7c613675565b15612c9057612c89613679565b9050612ccc565b7f00000000000000000000000000000000000000000000000000000000000000009050612cbb613741565b15612ccb57612cc8613679565b90505b5b6719010000000000005f5280601a5281603a52604260182090505f603a52919050565b5f5f831480612cfd57505f82145b80612d2857507fffffffff00000001000000000000000000000000ffffffffffffffffffffffff8310155b80612d5357507fffffffff00000001000000000000000000000000ffffffffffffffffffffffff8210155b15612d60575f9050612ed6565b5f7fffffffff00000001000000000000000000000000ffffffffffffffffffffffff80612d9057612d8f614c01565b5b83840990505f7fffffffff00000001000000000000000000000000ffffffffffffffffffffffff80612dc557612dc4614c01565b5b7f5ac635d8aa3a93e7b3ebbd55769886bc651d06b0cc53b0f63bce3c3e27d2604b7fffffffff00000001000000000000000000000000ffffffffffffffffffffffff80612e1557612e14614c01565b5b7fffffffff00000001000000000000000000000000ffffffffffffffffffffffff80612e4457612e43614c01565b5b7fffffffff00000001000000000000000000000000fffffffffffffffffffffffc89097fffffffff00000001000000000000000000000000ffffffffffffffffffffffff80612e9657612e95614c01565b5b897fffffffff00000001000000000000000000000000ffffffffffffffffffffffff80612ec657612ec5614c01565b5b8b8c090908089050808214925050505b92915050565b5f612ef1612ee984612aec565b835f1b613799565b905092915050565b60605f612f058361365e565b905068fbb67fda52d4bfb8bf811954604051935083602001600115612fab5781612f7c5783548015612f76576001925083811415810282528285015490508015612f75576002925083811415810260208301528285015490508015612f74576003925083811415810260408301525b5b5b50612fab565b8160011c91505f5b82811015612fa957808501548481141581028260051b84015250600181019050612f84565b505b8185528160051b810160405250505050919050565b6060819050919050565b5f825f528160205260405f20905092915050565b6060835180156130e0576003600282010460021b60405192507f4142434445464748494a4b4c4d4e4f505152535455565758595a616263646566601f526106708515027f6768696a6b6c6d6e6f707172737475767778797a303132333435363738392d5f18603f526020830181810183886020010180515f82525b6001156130ad5760038a0199508951603f8160121c16515f53603f81600c1c1651600153603f8160061c1651600253603f8116516003535f5185526004850194508385106130a757506130ad565b50613059565b8082526020830160405260038606600204613d3d60f01b81860352808915150290505f8186035280860388525050505050505b509392505050565b5f6040518681528560208201528460408201528360608201528260808201525f5f5260205f60a0836101005afa503d61314e576d1ab2e8006fd8b71907bf06a5bdee3b61314d5760205f60a0836dd01ea45f9efd5c54f037fa57ea1a5afa61314c57fe5b5b5b5f516001147f7fffffff800000007fffffffffffffffde737d56d38bcf4279dce5617e3192a886111091505095945050505050565b5f5f83839050036131c0576040517f042a9b6400000000000000000000000000000000000000000000000000000000815260040160405180910390fd5b5f83835f8181106131d4576131d36148c2565b5b9050013560f81c60f81b60f81c9050365f858560019080926131f8939291906148f7565b915091505f8360ff160361323057875f015f9054906101000a900473ffffffffffffffffffffffffffffffffffffffff169350613299565b60018360ff160361326657876001015f9054906101000a900473ffffffffffffffffffffffffffffffffffffffff169350613298565b6040517f062e942d00000000000000000000000000000000000000000000000000000000815260040160405180910390fd5b5b5f73ffffffffffffffffffffffffffffffffffffffff168473ffffffffffffffffffffffffffffffffffffffff16036132fe576040517fba53e96500000000000000000000000000000000000000000000000000000000815260040160405180910390fd5b61330a848884846138c2565b613340576040517f07a81bc400000000000000000000000000000000000000000000000000000000815260040160405180910390fd5b505050949350505050565b5f600283839050101561338a576040517f042a9b6400000000000000000000000000000000000000000000000000000000815260040160405180910390fd5b5f83835f9060029261339e939291906148f7565b906133a99190614ba3565b60f01c61ffff1660026133bc9190614a5b565b9050808484905010156133fb576040517f07a81bc400000000000000000000000000000000000000000000000000000000815260040160405180910390fd5b5f73ffffffffffffffffffffffffffffffffffffffff16865f015f9054906101000a900473ffffffffffffffffffffffffffffffffffffffff1673ffffffffffffffffffffffffffffffffffffffff1614806134a557505f73ffffffffffffffffffffffffffffffffffffffff16866001015f9054906101000a900473ffffffffffffffffffffffffffffffffffffffff1673ffffffffffffffffffffffffffffffffffffffff16145b156134dc576040517fba53e96500000000000000000000000000000000000000000000000000000000815260040160405180910390fd5b61351b865f015f9054906101000a900473ffffffffffffffffffffffffffffffffffffffff168686866002908692613516939291906148f7565b6138c2565b613551576040517f07a81bc400000000000000000000000000000000000000000000000000000000815260040160405180910390fd5b613590866001015f9054906101000a900473ffffffffffffffffffffffffffffffffffffffff168686868590809261358b939291906148f7565b6138c2565b6135c6576040517f07a81bc400000000000000000000000000000000000000000000000000000000815260040160405180910390fd5b855f015f9054906101000a900473ffffffffffffffffffffffffffffffffffffffff16915050949350505050565b5f6040518a81528960208201528860408201528760608201528660808201528560a08201528460c08201528360e08201528261010082015261012081209150509998505050505050505050565b5f61365661364e84612aec565b835f1b6139c3565b905092915050565b5f6318fb5864600452815f5260245f209050919050565b5f90565b5f5f613683613675565b156136b1575f5f61369261210d565b91509150818051906020012093508080519060200120925050506136f8565b7f000000000000000000000000000000000000000000000000000000000000000091507f000000000000000000000000000000000000000000000000000000000000000090505b6040517f8b73c3c69bb8fe3d512ecc4cf759cc79239f7b179b0ffacaa9a75d522b39400f815282602082015281604082015246606082015230608082015260a081209250505090565b5f5f7f000000000000000000000000000000000000000000000000000000000000000090505f7f0000000000000000000000000000000000000000000000000000000000000000905080301482461416159250505090565b5f5f6137a48461365e565b905068fbb67fda52d4bfb8bf83036137c35763f5a267f15f526004601cfd5b826137d55768fbb67fda52d4bfb8bf92505b8019546001156138ba578160205280613883578154806137fc5784835560019350506138ba565b84810361380957506138ba565b600183015480613824578560018501556001945050506138ba565b8581036138325750506138ba565b60028401548061384e57866002860155600195505050506138ba565b86810361385d575050506138ba565b825f52600160405f2055815f52600260405f2055805f52600360405f2055600793505050505b835f5260405f2080546138b8578160011c915084828401558160010181558160010160011b60011783195560019350506138ba565b505b505092915050565b5f5f73ffffffffffffffffffffffffffffffffffffffff168573ffffffffffffffffffffffffffffffffffffffff1603156139bb576040516001156139b957853b61397b57826040811461391e576041811461394257506139b9565b6020850135601b8160ff1c0160205285356040528060011b60011c60605250613953565b60408501355f1a6020526040856040375b50845f526020600160805f60015afa5180871860601b3d1192505f60605281604052506139b9565b631626ba7e60e01b80825285600483015260248201604081528460448401528486606485013760208160648701858b5afa9350838282511416935050505b505b949350505050565b5f5f6139ce8461365e565b905068fbb67fda52d4bfb8bf83036139ed5763f5a267f15f526004601cfd5b826139ff5768fbb67fda52d4bfb8bf92505b600115613a4b57801954613a3a57600191508281540315613a4b578260018201540315613a4b578260028201540315613a4b575f9150613a4b565b80602052825f5260405f2054151591505b5092915050565b6040518060c0016040528060608152602001606081526020015f81526020015f81526020015f81526020015f81525090565b5f81519050919050565b5f82825260208201905092915050565b8281835e5f83830152505050565b5f601f19601f8301169050919050565b5f613ac682613a84565b613ad08185613a8e565b9350613ae0818560208601613a9e565b613ae981613aac565b840191505092915050565b5f6020820190508181035f830152613b0c8184613abc565b905092915050565b5f604051905090565b5f5ffd5b5f5ffd5b5f73ffffffffffffffffffffffffffffffffffffffff82169050919050565b5f613b4e82613b25565b9050919050565b613b5e81613b44565b8114613b68575f5ffd5b50565b5f81359050613b7981613b55565b92915050565b5f819050919050565b613b9181613b7f565b8114613b9b575f5ffd5b50565b5f81359050613bac81613b88565b92915050565b5f5ffd5b5f60808284031215613bcb57613bca613bb2565b5b81905092915050565b5f65ffffffffffff82169050919050565b613bee81613bd4565b8114613bf8575f5ffd5b50565b5f81359050613c0981613be5565b92915050565b5f5ffd5b5f5ffd5b5f5ffd5b5f5f83601f840112613c3057613c2f613c0f565b5b8235905067ffffffffffffffff811115613c4d57613c4c613c13565b5b602083019150836001820283011115613c6957613c68613c17565b5b9250929050565b5f5f5f5f5f5f5f610120888a031215613c8c57613c8b613b1d565b5b5f613c998a828b01613b6b565b9750506020613caa8a828b01613b9e565b9650506040613cbb8a828b01613bb6565b95505060c0613ccc8a828b01613b9e565b94505060e0613cdd8a828b01613bfb565b93505061010088013567ffffffffffffffff811115613cff57613cfe613b21565b5b613d0b8a828b01613c1b565b925092505092959891949750929550565b5f61ffff82169050919050565b613d3281613d1c565b8114613d3c575f5ffd5b50565b5f81359050613d4d81613d29565b92915050565b5f60208284031215613d6857613d67613b1d565b5b5f613d7584828501613d3f565b91505092915050565b5f819050919050565b613d9081613d7e565b8114613d9a575f5ffd5b50565b5f81359050613dab81613d87565b92915050565b5f5f60408385031215613dc757613dc6613b1d565b5b5f613dd485828601613b6b565b9250506020613de585828601613d9d565b9150509250929050565b613df881613d7e565b82525050565b5f602082019050613e115f830184613def565b92915050565b5f5f60408385031215613e2d57613e2c613b1d565b5b5f613e3a85828601613b6b565b9250506020613e4b85828601613b9e565b9150509250929050565b5f8115159050919050565b613e6981613e55565b82525050565b5f602082019050613e825f830184613e60565b92915050565b5f5f60408385031215613e9e57613e9d613b1d565b5b5f613eab85828601613d3f565b9250506020613ebc85828601613b6b565b9150509250929050565b5f604082019050613ed95f830185613def565b613ee66020830184613def565b9392505050565b5f5f5f60608486031215613f0457613f03613b1d565b5b5f613f1186828701613d3f565b9350506020613f2286828701613d9d565b9250506040613f3386828701613d9d565b9150509250925092565b5f60ff82169050919050565b613f5281613f3d565b8114613f5c575f5ffd5b50565b5f81359050613f6d81613f49565b92915050565b5f5f5f60608486031215613f8a57613f89613b1d565b5b5f613f9786828701613b6b565b9350506020613fa886828701613b6b565b9250506040613fb986828701613f5f565b9150509250925092565b5f60208284031215613fd857613fd7613b1d565b5b5f613fe584828501613b6b565b91505092915050565b613ff781613b7f565b82525050565b5f6020820190506140105f830184613fee565b92915050565b5f5f6020838503121561402c5761402b613b1d565b5b5f83013567ffffffffffffffff81111561404957614048613b21565b5b61405585828601613c1b565b92509250509250929050565b5f7fff0000000000000000000000000000000000000000000000000000000000000082169050919050565b61409581614061565b82525050565b6140a481613b44565b82525050565b5f81519050919050565b5f82825260208201905092915050565b5f819050602082019050919050565b6140dc81613b7f565b82525050565b5f6140ed83836140d3565b60208301905092915050565b5f602082019050919050565b5f61410f826140aa565b61411981856140b4565b9350614124836140c4565b805f5b8381101561415457815161413b88826140e2565b9750614146836140f9565b925050600181019050614127565b5085935050505092915050565b5f60e0820190506141745f83018a61408c565b81810360208301526141868189613abc565b9050818103604083015261419a8188613abc565b90506141a96060830187613fee565b6141b6608083018661409b565b6141c360a0830185613def565b81810360c08301526141d58184614105565b905098975050505050505050565b5f602082840312156141f8576141f7613b1d565b5b5f61420584828501613d9d565b91505092915050565b5f5f5f5f5f6060868803121561422757614226613b1d565b5b5f61423488828901613d9d565b955050602086013567ffffffffffffffff81111561425557614254613b21565b5b61426188828901613c1b565b9450945050604086013567ffffffffffffffff81111561428457614283613b21565b5b61429088828901613c1b565b92509250509295509295909350565b5f61012082840312156142b5576142b4613bb2565b5b81905092915050565b5f5f604083850312156142d4576142d3613b1d565b5b5f83013567ffffffffffffffff8111156142f1576142f0613b21565b5b6142fd8582860161429f565b925050602061430e85828601613d9d565b9150509250929050565b5f819050919050565b5f61433b61433661433184613b7f565b614318565b613b7f565b9050919050565b61434b81614321565b82525050565b5f6020820190506143645f830184614342565b92915050565b61437381613f3d565b82525050565b5f60208201905061438c5f83018461436a565b92915050565b5f5f5f5f606085870312156143aa576143a9613b1d565b5b5f6143b787828801613b6b565b94505060206143c887828801613d9d565b935050604085013567ffffffffffffffff8111156143e9576143e8613b21565b5b6143f587828801613c1b565b925092505092959194509250565b5f6020820190508181035f83015261441b8184614105565b905092915050565b5f6020828403121561443857614437613b1d565b5b5f61444584828501613b9e565b91505092915050565b5f6060820190506144615f83018661409b565b61446e602083018561409b565b61447b604083018461436a565b949350505050565b5f7fffffffff0000000000000000000000000000000000000000000000000000000082169050919050565b6144b781614483565b82525050565b5f6020820190506144d05f8301846144ae565b92915050565b5f5f5f5f5f61010086880312156144f0576144ef613b1d565b5b5f6144fd88828901613b6b565b955050602061450e88828901613b9e565b945050604061451f88828901613bb6565b93505060c061453088828901613b9e565b92505060e061454188828901613bfb565b9150509295509295909350565b5f6020820190506145615f83018461409b565b92915050565b61457081613d1c565b82525050565b5f6020820190506145895f830184614567565b92915050565b7f4e487b71000000000000000000000000000000000000000000000000000000005f52604160045260245ffd5b6145c582613aac565b810181811067ffffffffffffffff821117156145e4576145e361458f565b5b80604052505050565b5f6145f6613b14565b905061460282826145bc565b919050565b5f67ffffffffffffffff8211156146215761462061458f565b5b602082029050602081019050919050565b5f61464461463f84614607565b6145ed565b9050808382526020820190506020840283018581111561466757614666613c17565b5b835b81811015614690578061467c8882613d3f565b845260208401935050602081019050614669565b5050509392505050565b5f82601f8301126146ae576146ad613c0f565b5b81356146be848260208601614632565b91505092915050565b5f67ffffffffffffffff8211156146e1576146e061458f565b5b602082029050602081019050919050565b5f5ffd5b5f6040828403121561470b5761470a6146f2565b5b61471560406145ed565b90505f61472484828501613d9d565b5f83015250602061473784828501613d9d565b60208301525092915050565b5f614755614750846146c7565b6145ed565b9050808382526020820190506040840283018581111561477857614777613c17565b5b835b818110156147a1578061478d88826146f6565b84526020840193505060408101905061477a565b5050509392505050565b5f82601f8301126147bf576147be613c0f565b5b81356147cf848260208601614743565b91505092915050565b5f6147e282613b25565b9050919050565b6147f2816147d8565b81146147fc575f5ffd5b50565b5f8135905061480d816147e9565b92915050565b5f5f5f5f5f60a0868803121561482c5761482b613b1d565b5b5f86013567ffffffffffffffff81111561484957614848613b21565b5b6148558882890161469a565b955050602086013567ffffffffffffffff81111561487657614875613b21565b5b614882888289016147ab565b9450506040614893888289016147ff565b93505060606148a4888289016147ff565b92505060806148b588828901613f5f565b9150509295509295909350565b7f4e487b71000000000000000000000000000000000000000000000000000000005f52603260045260245ffd5b5f5ffd5b5f5ffd5b5f5f8585111561490a576149096148ef565b5b8386111561491b5761491a6148f3565b5b6001850283019150848603905094509492505050565b5f82905092915050565b5f7fffffffffffffffffffffffffffffffffffffffff00000000000000000000000082169050919050565b5f82821b905092915050565b5f61497d8383614931565b82614988813561493b565b925060148210156149c8576149c37fffffffffffffffffffffffffffffffffffffffff00000000000000000000000083601403600802614966565b831692505b505092915050565b5f6149db8383614931565b826149e68135613d7e565b92506020821015614a2657614a217fffffffffffffffffffffffffffffffffffffffffffffffffffffffffffffffff83602003600802614966565b831692505b505092915050565b7f4e487b71000000000000000000000000000000000000000000000000000000005f52601160045260245ffd5b5f614a6582613b7f565b9150614a7083613b7f565b9250828201905080821115614a8857614a87614a2e565b5b92915050565b5f604082019050614aa15f83018561409b565b614aae6020830184613def565b9392505050565b5f5ffd5b5f5ffd5b5f5ffd5b5f5f83356001602003843603038112614add57614adc614ab5565b5b80840192508235915067ffffffffffffffff821115614aff57614afe614ab9565b5b602083019250600182023603831315614b1b57614b1a614abd565b5b509250929050565b614b2c81613e55565b8114614b36575f5ffd5b50565b5f81359050614b4781614b23565b92915050565b5f60208284031215614b6257614b61613b1d565b5b5f614b6f84828501614b39565b91505092915050565b5f7fffff00000000000000000000000000000000000000000000000000000000000082169050919050565b5f614bae8383614931565b82614bb98135614b78565b92506002821015614bf957614bf47fffff00000000000000000000000000000000000000000000000000000000000083600203600802614966565b831692505b505092915050565b7f4e487b71000000000000000000000000000000000000000000000000000000005f52601260045260245ffdfea2646970667358221220a369ad431823064a659584f46719f0deebe5a993fce9133c418065645e205ec664736f6c634300081c0033","linkReferences":{}},"methodIdentifiers":{"addCredential(uint16,bytes32,bytes32)":"5e84cc61","credentialCount(address)":"69989ffb","eip712Domain()":"84b0196e","getAccountLeaf(address,bytes32)":"94529e97","getCredKeys(address)":"c89f2403","getCredential(uint16,address)":"3b826b0d","getPasskeyDigest(address,bytes32)":"16250b16","getPasskeyMultichain(bytes32)":"9300126d","getRecoverDigest(address,uint256,(uint16,bytes32,bytes32,bool),uint256,uint48)":"fa5565e3","guardianConfig(address)":"ed3262e1","guardianThreshold(address)":"a1cdf4ed","isInitialized(address)":"d60b347f","isModuleType(uint256)":"ecd05961","isValidSignatureWithSender(address,bytes32,bytes)":"f551e2ee","name()":"06fdde03","nonceUsed(address,uint256)":"1647795e","onInstall(bytes)":"6d61fe70","onUninstall(bytes)":"8a91b0e3","recoverWithGuardian(address,uint256,(uint16,bytes32,bytes32,bool),uint256,uint48,bytes)":"d5370a3d","recoverWithPasskey(address,uint256,(uint16,bytes32,bytes32,bool),uint256,uint48,bytes)":"0cc81a93","removeCredential(uint16)":"13c50641","setGuardianConfig(address,address,uint8)":"61a8d623","validateSignatureForAccount(address,bytes32,bytes)":"a45efa49","validateSignatureWithData(bytes32,bytes,bytes)":"940d3840","validateUserOp((address,uint256,bytes,bytes,bytes32,uint256,bytes32,bytes,bytes),bytes32)":"97003203","version()":"54fd4d50"},"id":225}