{"abi":[{"type":"function","name":"addCredential","inputs":[{"name":"keyId","type":"uint16","internalType":"uint16"},{"name":"pubKeyX","type":"bytes32","internalType":"bytes32"},{"name":"pubKeyY","type":"bytes32","internalType":"bytes32"}],"outputs":[],"stateMutability":"nonpayable"},{"type":"function","name":"cancelGuardianChange","inputs":[],"outputs":[],"stateMutability":"nonpayable"},{"type":"function","name":"confirmGuardian","inputs":[],"outputs":[],"stateMutability":"nonpayable"},{"type":"function","name":"credentialCount","inputs":[{"name":"account","type":"address","internalType":"address"}],"outputs":[{"name":"","type":"uint256","internalType":"uint256"}],"stateMutability":"view"},{"type":"function","name":"eip712Domain","inputs":[],"outputs":[{"name":"fields","type":"bytes1","internalType":"bytes1"},{"name":"name","type":"string","internalType":"string"},{"name":"version","type":"string","internalType":"string"},{"name":"chainId","type":"uint256","internalType":"uint256"},{"name":"verifyingContract","type":"address","internalType":"address"},{"name":"salt","type":"bytes32","internalType":"bytes32"},{"name":"extensions","type":"uint256[]","internalType":"uint256[]"}],"stateMutability":"view"},{"type":"function","name":"externalGuardian","inputs":[{"name":"account","type":"address","internalType":"address"}],"outputs":[{"name":"","type":"address","internalType":"address"}],"stateMutability":"view"},{"type":"function","name":"getCredKeys","inputs":[{"name":"account","type":"address","internalType":"address"}],"outputs":[{"name":"","type":"uint256[]","internalType":"uint256[]"}],"stateMutability":"view"},{"type":"function","name":"getCredential","inputs":[{"name":"keyId","type":"uint16","internalType":"uint16"},{"name":"account","type":"address","internalType":"address"}],"outputs":[{"name":"pubKeyX","type":"bytes32","internalType":"bytes32"},{"name":"pubKeyY","type":"bytes32","internalType":"bytes32"}],"stateMutability":"view"},{"type":"function","name":"getPasskeyDigest","inputs":[{"name":"digest","type":"bytes32","internalType":"bytes32"}],"outputs":[{"name":"","type":"bytes32","internalType":"bytes32"}],"stateMutability":"view"},{"type":"function","name":"getPasskeyMultichain","inputs":[{"name":"root","type":"bytes32","internalType":"bytes32"}],"outputs":[{"name":"","type":"bytes32","internalType":"bytes32"}],"stateMutability":"view"},{"type":"function","name":"getRecoverDigest","inputs":[{"name":"account","type":"address","internalType":"address"},{"name":"chainId","type":"uint256","internalType":"uint256"},{"name":"cred","type":"tuple","internalType":"struct OneAuthRecoveryBase.NewCredential","components":[{"name":"keyId","type":"uint16","internalType":"uint16"},{"name":"pubKeyX","type":"bytes32","internalType":"bytes32"},{"name":"pubKeyY","type":"bytes32","internalType":"bytes32"},{"name":"replace","type":"bool","internalType":"bool"}]},{"name":"nonce","type":"uint256","internalType":"uint256"},{"name":"expiry","type":"uint48","internalType":"uint48"}],"outputs":[{"name":"","type":"bytes32","internalType":"bytes32"}],"stateMutability":"view"},{"type":"function","name":"guardianTimelock","inputs":[{"name":"account","type":"address","internalType":"address"}],"outputs":[{"name":"","type":"uint48","internalType":"uint48"}],"stateMutability":"view"},{"type":"function","name":"isInitialized","inputs":[{"name":"smartAccount","type":"address","internalType":"address"}],"outputs":[{"name":"","type":"bool","internalType":"bool"}],"stateMutability":"view"},{"type":"function","name":"isModuleType","inputs":[{"name":"typeID","type":"uint256","internalType":"uint256"}],"outputs":[{"name":"","type":"bool","internalType":"bool"}],"stateMutability":"pure"},{"type":"function","name":"isValidSignatureWithSender","inputs":[{"name":"","type":"address","internalType":"address"},{"name":"hash","type":"bytes32","internalType":"bytes32"},{"name":"data","type":"bytes","internalType":"bytes"}],"outputs":[{"name":"","type":"bytes4","internalType":"bytes4"}],"stateMutability":"view"},{"type":"function","name":"name","inputs":[],"outputs":[{"name":"","type":"string","internalType":"string"}],"stateMutability":"pure"},{"type":"function","name":"nonceUsed","inputs":[{"name":"account","type":"address","internalType":"address"},{"name":"nonce","type":"uint256","internalType":"uint256"}],"outputs":[{"name":"","type":"bool","internalType":"bool"}],"stateMutability":"view"},{"type":"function","name":"onInstall","inputs":[{"name":"data","type":"bytes","internalType":"bytes"}],"outputs":[],"stateMutability":"nonpayable"},{"type":"function","name":"onUninstall","inputs":[{"name":"","type":"bytes","internalType":"bytes"}],"outputs":[],"stateMutability":"nonpayable"},{"type":"function","name":"pendingGuardianInfo","inputs":[{"name":"account","type":"address","internalType":"address"}],"outputs":[{"name":"pendingGuardian","type":"address","internalType":"address"},{"name":"isExternal","type":"bool","internalType":"bool"},{"name":"activatesAt","type":"uint48","internalType":"uint48"}],"stateMutability":"view"},{"type":"function","name":"recoverWithGuardian","inputs":[{"name":"account","type":"address","internalType":"address"},{"name":"chainId","type":"uint256","internalType":"uint256"},{"name":"cred","type":"tuple","internalType":"struct OneAuthRecoveryBase.NewCredential","components":[{"name":"keyId","type":"uint16","internalType":"uint16"},{"name":"pubKeyX","type":"bytes32","internalType":"bytes32"},{"name":"pubKeyY","type":"bytes32","internalType":"bytes32"},{"name":"replace","type":"bool","internalType":"bool"}]},{"name":"nonce","type":"uint256","internalType":"uint256"},{"name":"expiry","type":"uint48","internalType":"uint48"},{"name":"guardianSig","type":"bytes","internalType":"bytes"}],"outputs":[],"stateMutability":"nonpayable"},{"type":"function","name":"recoverWithPasskey","inputs":[{"name":"account","type":"address","internalType":"address"},{"name":"chainId","type":"uint256","internalType":"uint256"},{"name":"cred","type":"tuple","internalType":"struct OneAuthRecoveryBase.NewCredential","components":[{"name":"keyId","type":"uint16","internalType":"uint16"},{"name":"pubKeyX","type":"bytes32","internalType":"bytes32"},{"name":"pubKeyY","type":"bytes32","internalType":"bytes32"},{"name":"replace","type":"bool","internalType":"bool"}]},{"name":"nonce","type":"uint256","internalType":"uint256"},{"name":"expiry","type":"uint48","internalType":"uint48"},{"name":"signature","type":"bytes","internalType":"bytes"}],"outputs":[],"stateMutability":"nonpayable"},{"type":"function","name":"removeCredential","inputs":[{"name":"keyId","type":"uint16","internalType":"uint16"}],"outputs":[],"stateMutability":"nonpayable"},{"type":"function","name":"setExternalGuardian","inputs":[{"name":"_guardian","type":"address","internalType":"address"}],"outputs":[],"stateMutability":"nonpayable"},{"type":"function","name":"setGuardianTimelock","inputs":[{"name":"duration","type":"uint48","internalType":"uint48"}],"outputs":[],"stateMutability":"nonpayable"},{"type":"function","name":"setUserGuardian","inputs":[{"name":"_guardian","type":"address","internalType":"address"}],"outputs":[],"stateMutability":"nonpayable"},{"type":"function","name":"userGuardian","inputs":[{"name":"account","type":"address","internalType":"address"}],"outputs":[{"name":"","type":"address","internalType":"address"}],"stateMutability":"view"},{"type":"function","name":"validateSignatureWithData","inputs":[{"name":"hash","type":"bytes32","internalType":"bytes32"},{"name":"signature","type":"bytes","internalType":"bytes"},{"name":"data","type":"bytes","internalType":"bytes"}],"outputs":[{"name":"","type":"bool","internalType":"bool"}],"stateMutability":"view"},{"type":"function","name":"validateUserOp","inputs":[{"name":"userOp","type":"tuple","internalType":"struct PackedUserOperation","components":[{"name":"sender","type":"address","internalType":"address"},{"name":"nonce","type":"uint256","internalType":"uint256"},{"name":"initCode","type":"bytes","internalType":"bytes"},{"name":"callData","type":"bytes","internalType":"bytes"},{"name":"accountGasLimits","type":"bytes32","internalType":"bytes32"},{"name":"preVerificationGas","type":"uint256","internalType":"uint256"},{"name":"gasFees","type":"bytes32","internalType":"bytes32"},{"name":"paymasterAndData","type":"bytes","internalType":"bytes"},{"name":"signature","type":"bytes","internalType":"bytes"}]},{"name":"userOpHash","type":"bytes32","internalType":"bytes32"}],"outputs":[{"name":"","type":"uint256","internalType":"ERC7579ValidatorBase.ValidationData"}],"stateMutability":"view"},{"type":"function","name":"version","inputs":[],"outputs":[{"name":"","type":"string","internalType":"string"}],"stateMutability":"pure"},{"type":"event","name":"CredentialAdded","inputs":[{"name":"account","type":"address","indexed":true,"internalType":"address"},{"name":"keyId","type":"uint16","indexed":true,"internalType":"uint16"},{"name":"pubKeyX","type":"bytes32","indexed":false,"internalType":"bytes32"},{"name":"pubKeyY","type":"bytes32","indexed":false,"internalType":"bytes32"}],"anonymous":false},{"type":"event","name":"CredentialRemoved","inputs":[{"name":"account","type":"address","indexed":true,"internalType":"address"},{"name":"keyId","type":"uint16","indexed":true,"internalType":"uint16"}],"anonymous":false},{"type":"event","name":"ExternalGuardianSet","inputs":[{"name":"account","type":"address","indexed":true,"internalType":"address"},{"name":"guardian","type":"address","indexed":true,"internalType":"address"}],"anonymous":false},{"type":"event","name":"GuardianChangeCancelled","inputs":[{"name":"account","type":"address","indexed":true,"internalType":"address"}],"anonymous":false},{"type":"event","name":"GuardianChangeProposed","inputs":[{"name":"account","type":"address","indexed":true,"internalType":"address"},{"name":"newGuardian","type":"address","indexed":true,"internalType":"address"},{"name":"isExternal","type":"bool","indexed":false,"internalType":"bool"},{"name":"activatesAt","type":"uint48","indexed":false,"internalType":"uint48"}],"anonymous":false},{"type":"event","name":"GuardianRecoveryExecuted","inputs":[{"name":"account","type":"address","indexed":true,"internalType":"address"},{"name":"guardian","type":"address","indexed":true,"internalType":"address"},{"name":"newKeyId","type":"uint16","indexed":true,"internalType":"uint16"},{"name":"nonce","type":"uint256","indexed":false,"internalType":"uint256"}],"anonymous":false},{"type":"event","name":"GuardianTimelockSet","inputs":[{"name":"account","type":"address","indexed":true,"internalType":"address"},{"name":"duration","type":"uint48","indexed":false,"internalType":"uint48"}],"anonymous":false},{"type":"event","name":"ModuleInitialized","inputs":[{"name":"account","type":"address","indexed":true,"internalType":"address"}],"anonymous":false},{"type":"event","name":"ModuleUninitialized","inputs":[{"name":"account","type":"address","indexed":true,"internalType":"address"}],"anonymous":false},{"type":"event","name":"PasskeyRecoveryExecuted","inputs":[{"name":"account","type":"address","indexed":true,"internalType":"address"},{"name":"newKeyId","type":"uint16","indexed":true,"internalType":"uint16"},{"name":"nonce","type":"uint256","indexed":false,"internalType":"uint256"}],"anonymous":false},{"type":"event","name":"UserGuardianSet","inputs":[{"name":"account","type":"address","indexed":true,"internalType":"address"},{"name":"guardian","type":"address","indexed":true,"internalType":"address"}],"anonymous":false},{"type":"error","name":"CannotRemoveLastCredential","inputs":[]},{"type":"error","name":"CredentialNotFound","inputs":[{"name":"keyId","type":"uint16","internalType":"uint16"}]},{"type":"error","name":"EmptyGuardianSignature","inputs":[]},{"type":"error","name":"GuardianNotConfigured","inputs":[]},{"type":"error","name":"GuardianTimelockNotElapsed","inputs":[]},{"type":"error","name":"InvalidChainId","inputs":[]},{"type":"error","name":"InvalidGuardianSignature","inputs":[]},{"type":"error","name":"InvalidGuardianType","inputs":[]},{"type":"error","name":"InvalidMerkleProof","inputs":[]},{"type":"error","name":"InvalidPublicKey","inputs":[]},{"type":"error","name":"InvalidRecoverySignature","inputs":[]},{"type":"error","name":"InvalidSignatureData","inputs":[]},{"type":"error","name":"KeyIdAlreadyExists","inputs":[{"name":"keyId","type":"uint16","internalType":"uint16"}]},{"type":"error","name":"ModuleAlreadyInitialized","inputs":[{"name":"smartAccount","type":"address","internalType":"address"}]},{"type":"error","name":"NoPendingGuardianChange","inputs":[]},{"type":"error","name":"NonceAlreadyUsed","inputs":[]},{"type":"error","name":"NotInitialized","inputs":[{"name":"smartAccount","type":"address","internalType":"address"}]},{"type":"error","name":"ProofTooLong","inputs":[]},{"type":"error","name":"RecoveryExpired","inputs":[]},{"type":"error","name":"TooManyCredentials","inputs":[]}],"bytecode":{"object":"0x610120604052348015610010575f5ffd5b503073ffffffffffffffffffffffffffffffffffffffff16608081815250504660a0818152505060608061004861012b60201b60201c565b6100635761005a61012f60201b60201c565b80925081935050505b5f61007261012b60201b60201c565b610083578280519060200120610087565b5f5f1b5b90505f61009861012b60201b60201c565b6100a95782805190602001206100ad565b5f5f1b5b90508160c081815250508060e081815250505f6100ce61012b60201b60201c565b610118576040517f8b73c3c69bb8fe3d512ecc4cf759cc79239f7b179b0ffacaa9a75d522b39400f815283602082015282604082015246606082015230608082015260a081209150505b80610100818152505050505050506101a6565b5f90565b6060806040518060400160405280601081526020017f4f6e654175746856616c696461746f720000000000000000000000000000000081525091506040518060400160405280600581526020017f312e302e3000000000000000000000000000000000000000000000000000000081525090509091565b60805160a05160c05160e0516101005161521a6101e35f395f6135bb01525f613e7601525f613e5301525f613ee501525f613f09015261521a5ff3fe608060405234801561000f575f5ffd5b50600436106101d8575f3560e01c80638a91b0e311610102578063d5370a3d116100a0578063eee07f951161006f578063eee07f95146105c9578063f551e2ee146105e5578063fa5565e314610615578063fb49fe2714610645576101d8565b8063d5370a3d14610531578063d60b347f1461054d578063dc33c67d1461057d578063ecd0596114610599576101d8565b806397003203116100dc578063970032031461046f5780639e9848fe1461049f578063ade81692146104d1578063c89f240314610501576101d8565b80638a91b0e3146103f35780639300126d1461040f578063940d38401461043f576101d8565b80635e84cc611161017a5780636d61fe70116101495780636d61fe701461035357806375ae49761461036f57806384b0196e1461039f57806387680d07146103c3576101d8565b80635e84cc61146102bb57806365e3371a146102d7578063669c841c1461030757806369989ffb14610323576101d8565b80631647795e116101b65780631647795e146102325780631e0ea61e146102625780633b826b0d1461026c57806354fd4d501461029d576101d8565b806306fdde03146101dc5780630cc81a93146101fa57806313c5064114610216575b5f5ffd5b6101e461064f565b6040516101f19190614193565b60405180910390f35b610214600480360381019061020f919061430f565b61068c565b005b610230600480360381019061022b91906143f2565b6108df565b005b61024c6004803603810190610247919061441d565b610a80565b6040516102599190614475565b60405180910390f35b61026a610ae4565b005b6102866004803603810190610281919061448e565b610da6565b6040516102949291906144e4565b60405180910390f35b6102a5610e17565b6040516102b29190614193565b60405180910390f35b6102d560048036038101906102d09190614535565b610e54565b005b6102f160048036038101906102ec9190614585565b610e65565b6040516102fe91906145b0565b60405180910390f35b610321600480360381019061031c91906145c9565b610e76565b005b61033d600480360381019061033891906145c9565b6110e9565b60405161034a9190614603565b60405180910390f35b61036d6004803603810190610368919061461c565b611139565b005b610389600480360381019061038491906145c9565b61146f565b6040516103969190614676565b60405180910390f35b6103a76114d6565b6040516103ba9796959493929190614780565b60405180910390f35b6103dd60048036038101906103d891906145c9565b611521565b6040516103ea9190614676565b60405180910390f35b61040d6004803603810190610408919061461c565b611587565b005b61042960048036038101906104249190614585565b6118c0565b60405161043691906145b0565b60405180910390f35b61045960048036038101906104549190614802565b6118d1565b6040516104669190614475565b60405180910390f35b610489600480360381019061048491906148b2565b611c2f565b6040516104969190614945565b60405180910390f35b6104b960048036038101906104b491906145c9565b611c74565b6040516104c89392919061496d565b60405180910390f35b6104eb60048036038101906104e691906145c9565b611d10565b6040516104f891906149a2565b60405180910390f35b61051b600480360381019061051691906145c9565b611d6a565b60405161052891906149bb565b60405180910390f35b61054b6004803603810190610546919061430f565b611dbb565b005b610567600480360381019061056291906145c9565b611f5c565b6040516105749190614475565b60405180910390f35b610597600480360381019061059291906145c9565b611fae565b005b6105b360048036038101906105ae91906149db565b612225565b6040516105c09190614475565b60405180910390f35b6105e360048036038101906105de9190614a06565b61223c565b005b6105ff60048036038101906105fa9190614a31565b6122ef565b60405161060c9190614adc565b60405180910390f35b61062f600480360381019061062a9190614af5565b612323565b60405161063c91906145b0565b60405180910390f35b61064d612372565b005b60606040518060400160405280601081526020017f4f6e654175746856616c696461746f7200000000000000000000000000000000815250905090565b868685858065ffffffffffff164211156106d2576040517fd3c92b0d00000000000000000000000000000000000000000000000000000000815260040160405180910390fd5b5f5f8573ffffffffffffffffffffffffffffffffffffffff1673ffffffffffffffffffffffffffffffffffffffff1681526020019081526020015f206004015f8381526020019081526020015f205f9054906101000a900460ff1615610764576040517f1fb09b8000000000000000000000000000000000000000000000000000000000815260040160405180910390fd5b5f83141580156107745750468314155b156107ab576040517f7a47c9a200000000000000000000000000000000000000000000000000000000815260040160405180910390fd5b60015f5f8673ffffffffffffffffffffffffffffffffffffffff1673ffffffffffffffffffffffffffffffffffffffff1681526020019081526020015f206004015f8481526020019081526020015f205f6101000a81548160ff0219169083151502179055505f61081f8c8c8c8c8c612323565b905061082d8c8289896124a0565b610863576040517f62a281f100000000000000000000000000000000000000000000000000000000815260040160405180910390fd5b61086d8c8b61250f565b895f01602081019061087f91906143f2565b61ffff168c73ffffffffffffffffffffffffffffffffffffffff167fecca216aa14b66eb6599c0102f4caedc012eeaac8b6caf0446c274defd1e2dd48b6040516108c99190614603565b60405180910390a3505050505050505050505050565b5f3390505f60015f8373ffffffffffffffffffffffffffffffffffffffff1673ffffffffffffffffffffffffffffffffffffffff1681526020019081526020015f2090505f6109308260010161257b565b90505f810361097657826040517ff91bd6f100000000000000000000000000000000000000000000000000000000815260040161096d9190614676565b60405180910390fd5b600181116109b0576040517fd2f2c18b00000000000000000000000000000000000000000000000000000000815260040160405180910390fd5b5f8461ffff1690506109ce818460010161259490919063ffffffff16565b610a0f57846040517fec6a6bda000000000000000000000000000000000000000000000000000000008152600401610a069190614b7c565b60405180910390fd5b825f015f8281526020019081526020015f205f5f82015f9055600182015f905550508461ffff168473ffffffffffffffffffffffffffffffffffffffff167faf333fa2fc1dbe79c8609d693a59ee1a03e0d893e2573e6e5fc6e8fe97c5aed560405160405180910390a35050505050565b5f5f5f8473ffffffffffffffffffffffffffffffffffffffff1673ffffffffffffffffffffffffffffffffffffffff1681526020019081526020015f206004015f8381526020019081526020015f205f9054906101000a900460ff16905092915050565b5f5f5f3373ffffffffffffffffffffffffffffffffffffffff1673ffffffffffffffffffffffffffffffffffffffff1681526020019081526020015f2090505f8160020160149054906101000a900465ffffffffffff1665ffffffffffff1603610b7a576040517fb2d4128a00000000000000000000000000000000000000000000000000000000815260040160405180910390fd5b8060020160149054906101000a900465ffffffffffff1665ffffffffffff16421015610bd1576040517e7ca6c500000000000000000000000000000000000000000000000000000000815260040160405180910390fd5b5f816002015f9054906101000a900473ffffffffffffffffffffffffffffffffffffffff1690505f826003015f9054906101000a900460ff169050826002015f6101000a81549073ffffffffffffffffffffffffffffffffffffffff02191690558260020160146101000a81549065ffffffffffff0219169055826003015f6101000a81549060ff02191690558015610d055781836001015f6101000a81548173ffffffffffffffffffffffffffffffffffffffff021916908373ffffffffffffffffffffffffffffffffffffffff1602179055508173ffffffffffffffffffffffffffffffffffffffff163373ffffffffffffffffffffffffffffffffffffffff167f417868f0f1c21a6c98ca44bc665cf783d41b16caf1fea7a1f7310b802ce27fcf60405160405180910390a3610da1565b81835f015f6101000a81548173ffffffffffffffffffffffffffffffffffffffff021916908373ffffffffffffffffffffffffffffffffffffffff1602179055508173ffffffffffffffffffffffffffffffffffffffff163373ffffffffffffffffffffffffffffffffffffffff167ffe757f855d8004c6d6f87543cfe5aa8f80d9f2d78ae6694ed2d3483bafd0700260405160405180910390a35b505050565b5f5f5f8461ffff1690505f60015f8673ffffffffffffffffffffffffffffffffffffffff1673ffffffffffffffffffffffffffffffffffffffff1681526020019081526020015f205f015f8381526020019081526020015f209050805f015481600101549350935050509250929050565b60606040518060400160405280600581526020017f312e302e30000000000000000000000000000000000000000000000000000000815250905090565b610e60338484846125b1565b505050565b5f610e6f82612693565b9050919050565b5f5f5f3373ffffffffffffffffffffffffffffffffffffffff1673ffffffffffffffffffffffffffffffffffffffff1681526020019081526020015f2090505f81600201601a9054906101000a900465ffffffffffff1690505f8165ffffffffffff161480610f3257505f73ffffffffffffffffffffffffffffffffffffffff16825f015f9054906101000a900473ffffffffffffffffffffffffffffffffffffffff1673ffffffffffffffffffffffffffffffffffffffff16145b15610fd75782825f015f6101000a81548173ffffffffffffffffffffffffffffffffffffffff021916908373ffffffffffffffffffffffffffffffffffffffff1602179055508273ffffffffffffffffffffffffffffffffffffffff163373ffffffffffffffffffffffffffffffffffffffff167ffe757f855d8004c6d6f87543cfe5aa8f80d9f2d78ae6694ed2d3483bafd0700260405160405180910390a36110e4565b82826002015f6101000a81548173ffffffffffffffffffffffffffffffffffffffff021916908373ffffffffffffffffffffffffffffffffffffffff1602179055505f826003015f6101000a81548160ff02191690831515021790555080426110409190614bc2565b8260020160146101000a81548165ffffffffffff021916908365ffffffffffff1602179055508273ffffffffffffffffffffffffffffffffffffffff163373ffffffffffffffffffffffffffffffffffffffff167f3bf3e5cc882416a68a0c2469cf078dbe960d8041f4a4ef594a099b657ac4d3805f8560020160149054906101000a900465ffffffffffff166040516110db929190614bfb565b60405180910390a35b505050565b5f61113260015f8473ffffffffffffffffffffffffffffffffffffffff1673ffffffffffffffffffffffffffffffffffffffff1681526020019081526020015f2060010161257b565b9050919050565b5f33905061114681611f5c565b1561118857806040517f4d6b9dd300000000000000000000000000000000000000000000000000000000815260040161117f9190614676565b60405180910390fd5b5f5f5f5f5f878781019061119c9190614ea6565b945094509450945094505f845190505f8114806111ba575085518114155b156111f1576040517fa2d0fee800000000000000000000000000000000000000000000000000000000815260040160405180910390fd5b604081111561122c576040517f7732141400000000000000000000000000000000000000000000000000000000815260040160405180910390fd5b5f60015f8973ffffffffffffffffffffffffffffffffffffffff1673ffffffffffffffffffffffffffffffffffffffff1681526020019081526020015f2090505f5b828110156112e3576112d8828a8a848151811061128e5761128d614f55565b5b60200260200101518a85815181106112a9576112a8614f55565b5b60200260200101515f01518b86815181106112c7576112c6614f55565b5b6020026020010151602001516126d6565b80600101905061126e565b505f73ffffffffffffffffffffffffffffffffffffffff168573ffffffffffffffffffffffffffffffffffffffff1614611322576113218886612812565b5b5f73ffffffffffffffffffffffffffffffffffffffff168473ffffffffffffffffffffffffffffffffffffffff16146113605761135f88856128ec565b5b5f8365ffffffffffff161461142057825f5f8a73ffffffffffffffffffffffffffffffffffffffff1673ffffffffffffffffffffffffffffffffffffffff1681526020019081526020015f20600201601a6101000a81548165ffffffffffff021916908365ffffffffffff1602179055508773ffffffffffffffffffffffffffffffffffffffff167fcba838d391958f3a34ce6f23d62bad96f9f41d9921a813d0f000b42b476466bf8460405161141791906149a2565b60405180910390a25b8773ffffffffffffffffffffffffffffffffffffffff167f27b541a16df0902e262f34789782092ab25125513b8ed73608e802951771b92860405160405180910390a250505050505050505050565b5f5f5f8373ffffffffffffffffffffffffffffffffffffffff1673ffffffffffffffffffffffffffffffffffffffff1681526020019081526020015f206001015f9054906101000a900473ffffffffffffffffffffffffffffffffffffffff169050919050565b5f6060805f5f5f60607f0f00000000000000000000000000000000000000000000000000000000000000965061150a6129c7565b809650819750505046935030925090919293949596565b5f5f5f8373ffffffffffffffffffffffffffffffffffffffff1673ffffffffffffffffffffffffffffffffffffffff1681526020019081526020015f205f015f9054906101000a900473ffffffffffffffffffffffffffffffffffffffff169050919050565b5f3390505f60015f8373ffffffffffffffffffffffffffffffffffffffff1673ffffffffffffffffffffffffffffffffffffffff1681526020019081526020015f2090505f6115d882600101612a3e565b90505f5b815181101561165d57825f015f8383815181106115fc576115fb614f55565b5b602002602001015181526020019081526020015f205f5f82015f9055600182015f9055505061165182828151811061163757611636614f55565b5b60200260200101518460010161259490919063ffffffff16565b508060010190506115dc565b505f5f8473ffffffffffffffffffffffffffffffffffffffff1673ffffffffffffffffffffffffffffffffffffffff1681526020019081526020015f205f015f6101000a81549073ffffffffffffffffffffffffffffffffffffffff02191690555f5f8473ffffffffffffffffffffffffffffffffffffffff1673ffffffffffffffffffffffffffffffffffffffff1681526020019081526020015f206001015f6101000a81549073ffffffffffffffffffffffffffffffffffffffff02191690555f5f8473ffffffffffffffffffffffffffffffffffffffff1673ffffffffffffffffffffffffffffffffffffffff1681526020019081526020015f206002015f6101000a81549073ffffffffffffffffffffffffffffffffffffffff02191690555f5f8473ffffffffffffffffffffffffffffffffffffffff1673ffffffffffffffffffffffffffffffffffffffff1681526020019081526020015f2060020160146101000a81549065ffffffffffff02191690555f5f8473ffffffffffffffffffffffffffffffffffffffff1673ffffffffffffffffffffffffffffffffffffffff1681526020019081526020015f20600201601a6101000a81549065ffffffffffff02191690555f5f8473ffffffffffffffffffffffffffffffffffffffff1673ffffffffffffffffffffffffffffffffffffffff1681526020019081526020015f206003015f6101000a81549060ff02191690558273ffffffffffffffffffffffffffffffffffffffff167f9d00629762554452d03c3b45626436df6ca1c3795d05d04df882f6db481b1be060405160405180910390a25050505050565b5f6118ca82612a60565b9050919050565b5f6001838390501015611910576040517f52f151d300000000000000000000000000000000000000000000000000000000815260040160405180910390fd5b5f83835f81811061192457611923614f55565b5b9050013560f81c60f81b60f81c60ff1690505f8103611a3d57604184849050101561197b576040517f52f151d300000000000000000000000000000000000000000000000000000000815260040160405180910390fd5b5f5f6119878888612aa3565b91509150806119c2576040517f52f151d300000000000000000000000000000000000000000000000000000000815260040160405180910390fd5b611a336119ce8a612693565b6040516020016119de91906145b0565b6040516020818303038152906040526001848989600190602192611a0493929190614f8a565b90611a0f9190614fda565b8a8a602190604192611a2393929190614f8a565b90611a2e9190614fda565b612b7f565b9350505050611c26565b6020811115611a78576040517fb5ae13c800000000000000000000000000000000000000000000000000000000815260040160405180910390fd5b5f600582901b6021611a8a9190615038565b9050604081611a999190615038565b858590501015611ad5576040517f52f151d300000000000000000000000000000000000000000000000000000000815260040160405180910390fd5b5f8585600190602192611aea93929190614f8a565b90611af59190614fda565b9050365f602188019150849050611b0e8282858e612cb8565b611b44576040517fb05e92fa00000000000000000000000000000000000000000000000000000000815260040160405180910390fd5b50505f5f611b528a8a612aa3565b9150915080611b8d576040517f52f151d300000000000000000000000000000000000000000000000000000000815260040160405180910390fd5b611c1e611b9984612a60565b604051602001611ba991906145b0565b6040516020818303038152906040526001848b8b899060208b611bcc9190615038565b92611bd993929190614f8a565b90611be49190614fda565b8c8c60208b611bf39190615038565b9060408c611c019190615038565b92611c0e93929190614f8a565b90611c199190614fda565b612b7f565b955050505050505b95945050505050565b5f611c5c835f016020810190611c4591906145c9565b8385806101000190611c579190615077565b6124a0565b15611c69575f9050611c6e565b600190505b92915050565b5f5f5f5f5f5f8673ffffffffffffffffffffffffffffffffffffffff1673ffffffffffffffffffffffffffffffffffffffff1681526020019081526020015f209050806002015f9054906101000a900473ffffffffffffffffffffffffffffffffffffffff16816003015f9054906101000a900460ff168260020160149054906101000a900465ffffffffffff16935093509350509193909250565b5f5f5f8373ffffffffffffffffffffffffffffffffffffffff1673ffffffffffffffffffffffffffffffffffffffff1681526020019081526020015f20600201601a9054906101000a900465ffffffffffff169050919050565b6060611db460015f8473ffffffffffffffffffffffffffffffffffffffff1673ffffffffffffffffffffffffffffffffffffffff1681526020019081526020015f20600101612a3e565b9050919050565b868685858065ffffffffffff16421115611e01576040517fd3c92b0d00000000000000000000000000000000000000000000000000000000815260040160405180910390fd5b5f5f8573ffffffffffffffffffffffffffffffffffffffff1673ffffffffffffffffffffffffffffffffffffffff1681526020019081526020015f206004015f8381526020019081526020015f205f9054906101000a900460ff1615611e93576040517f1fb09b8000000000000000000000000000000000000000000000000000000000815260040160405180910390fd5b5f8314158015611ea35750468314155b15611eda576040517f7a47c9a200000000000000000000000000000000000000000000000000000000815260040160405180910390fd5b60015f5f8673ffffffffffffffffffffffffffffffffffffffff1673ffffffffffffffffffffffffffffffffffffffff1681526020019081526020015f206004015f8481526020019081526020015f205f6101000a81548160ff021916908315150217905550611f4f8b8b8b8b8b8b8b612d0e565b5050505050505050505050565b5f5f611fa660015f8573ffffffffffffffffffffffffffffffffffffffff1673ffffffffffffffffffffffffffffffffffffffff1681526020019081526020015f2060010161257b565b119050919050565b5f5f5f3373ffffffffffffffffffffffffffffffffffffffff1673ffffffffffffffffffffffffffffffffffffffff1681526020019081526020015f2090505f81600201601a9054906101000a900465ffffffffffff1690505f8165ffffffffffff16148061206b57505f73ffffffffffffffffffffffffffffffffffffffff16826001015f9054906101000a900473ffffffffffffffffffffffffffffffffffffffff1673ffffffffffffffffffffffffffffffffffffffff16145b156121115782826001015f6101000a81548173ffffffffffffffffffffffffffffffffffffffff021916908373ffffffffffffffffffffffffffffffffffffffff1602179055508273ffffffffffffffffffffffffffffffffffffffff163373ffffffffffffffffffffffffffffffffffffffff167f417868f0f1c21a6c98ca44bc665cf783d41b16caf1fea7a1f7310b802ce27fcf60405160405180910390a3612220565b82826002015f6101000a81548173ffffffffffffffffffffffffffffffffffffffff021916908373ffffffffffffffffffffffffffffffffffffffff1602179055506001826003015f6101000a81548160ff021916908315150217905550804261217b9190614bc2565b8260020160146101000a81548165ffffffffffff021916908365ffffffffffff1602179055508273ffffffffffffffffffffffffffffffffffffffff163373ffffffffffffffffffffffffffffffffffffffff167f3bf3e5cc882416a68a0c2469cf078dbe960d8041f4a4ef594a099b657ac4d38060018560020160149054906101000a900465ffffffffffff16604051612217929190614bfb565b60405180910390a35b505050565b5f60018214806122355750600782145b9050919050565b805f5f3373ffffffffffffffffffffffffffffffffffffffff1673ffffffffffffffffffffffffffffffffffffffff1681526020019081526020015f20600201601a6101000a81548165ffffffffffff021916908365ffffffffffff1602179055503373ffffffffffffffffffffffffffffffffffffffff167fcba838d391958f3a34ce6f23d62bad96f9f41d9921a813d0f000b42b476466bf826040516122e491906149a2565b60405180910390a250565b5f6122fc338585856124a0565b1561231057631626ba7e60e01b905061231b565b63ffffffff60e01b90505b949350505050565b5f6123676123628787875f01602081019061233e91906143f2565b886020013589604001358a606001602081019061235b9190615103565b8a8a612e06565b612e84565b905095945050505050565b5f5f5f3373ffffffffffffffffffffffffffffffffffffffff1673ffffffffffffffffffffffffffffffffffffffff1681526020019081526020015f2090505f8160020160149054906101000a900465ffffffffffff1665ffffffffffff1603612408576040517fb2d4128a00000000000000000000000000000000000000000000000000000000815260040160405180910390fd5b806002015f6101000a81549073ffffffffffffffffffffffffffffffffffffffff02191690558060020160146101000a81549065ffffffffffff0219169055806003015f6101000a81549060ff02191690553373ffffffffffffffffffffffffffffffffffffffff167f5ae227c61b99acf187c3d22024c93e59de6781577dae8a3ba642a5cc1b9d7c4060405160405180910390a250565b5f60038383905010156124b5575f9050612507565b5f83835f8181106124c9576124c8614f55565b5b9050013560f81c60f81b60f81c60ff1690505f81036124f6576124ee86868686612ef8565b915050612507565b612503868686868561302b565b9150505b949350505050565b8060600160208101906125229190615103565b156125515761254c82825f01602081019061253d91906143f2565b8360200135846040013561320a565b612577565b61257682825f01602081019061256791906143f2565b836020013584604001356125b1565b5b5050565b5f61258d61258883613422565b61342b565b9050919050565b5f6125a96125a184613422565b835f1b613478565b905092915050565b5f60015f8673ffffffffffffffffffffffffffffffffffffffff1673ffffffffffffffffffffffffffffffffffffffff1681526020019081526020015f2090505f6125fe8260010161257b565b90505f810361264457856040517ff91bd6f100000000000000000000000000000000000000000000000000000000815260040161263b9190614676565b60405180910390fd5b6040811061267e576040517f7732141400000000000000000000000000000000000000000000000000000000815260040160405180910390fd5b61268b82878787876126d6565b505050505050565b5f6126cf6126ca837f5caa3237acf0e6317d6289a3b5569dc3aacf5a11ba3f1b520dd47ecd239faa1161358890919063ffffffff16565b61359c565b9050919050565b6126e4825f1c825f1c613618565b61271a576040517fa2d0fee800000000000000000000000000000000000000000000000000000000815260040160405180910390fd5b5f8361ffff169050612738818760010161380590919063ffffffff16565b61277957836040517fff60a9fd0000000000000000000000000000000000000000000000000000000081526004016127709190614b7c565b60405180910390fd5b604051806040016040528084815260200183815250865f015f8381526020019081526020015f205f820151815f0155602082015181600101559050508361ffff168573ffffffffffffffffffffffffffffffffffffffff167fda884d5d59662b1731710a4f6407c966163e54e01dc2bddd947aab99e95ca29385856040516128029291906144e4565b60405180910390a3505050505050565b805f5f8473ffffffffffffffffffffffffffffffffffffffff1673ffffffffffffffffffffffffffffffffffffffff1681526020019081526020015f205f015f6101000a81548173ffffffffffffffffffffffffffffffffffffffff021916908373ffffffffffffffffffffffffffffffffffffffff1602179055508073ffffffffffffffffffffffffffffffffffffffff168273ffffffffffffffffffffffffffffffffffffffff167ffe757f855d8004c6d6f87543cfe5aa8f80d9f2d78ae6694ed2d3483bafd0700260405160405180910390a35050565b805f5f8473ffffffffffffffffffffffffffffffffffffffff1673ffffffffffffffffffffffffffffffffffffffff1681526020019081526020015f206001015f6101000a81548173ffffffffffffffffffffffffffffffffffffffff021916908373ffffffffffffffffffffffffffffffffffffffff1602179055508073ffffffffffffffffffffffffffffffffffffffff168273ffffffffffffffffffffffffffffffffffffffff167f417868f0f1c21a6c98ca44bc665cf783d41b16caf1fea7a1f7310b802ce27fcf60405160405180910390a35050565b6060806040518060400160405280601081526020017f4f6e654175746856616c696461746f720000000000000000000000000000000081525091506040518060400160405280600581526020017f312e302e3000000000000000000000000000000000000000000000000000000081525090509091565b6060612a59612a54612a4f84613422565b613822565b6138e9565b9050919050565b5f612a9c612a97837fa5a505152e3529fa0b604100bdbc62aa67739181383273446e82d3023b082e9961358890919063ffffffff16565b612e84565b9050919050565b612aab6140f1565b5f6046848490501015612ac357815f91509150612b78565b5f8480356080850152602081013560a085015260408101358060f01c604086015261ffff8160e01c16606086015261ffff8160d01c1692505050806046612b0a9190615038565b858590501015612b2057825f9250925050612b78565b8481604601850360405183815283604684016020830137808652601f19601f850116602001808201838152838660460186016020830137806020890152601f19601f8501166020018101604052505050505060019150505b9250929050565b5f5f5f612b8e886001806138f3565b90506020860151805160208201604089015160608a01518551600d81017f226368616c6c656e6765223a220000000000000000000000000000000000000060981c8852858482011060228286880101515f1a14168160138a01208286880120141686846014011085851760801c107f2274797065223a22776562617574686e2e67657422000000000000000000000060581c8588015160581c1416169950818852505050508851518a151560021b600117808160218d51015116146020831189161697508715612c8a5760208b510182810180516020600160208701856020868c8c60025afa60011b5afa5199508082523d612c8657fe5b5050505b50505050508215612cad57612caa8287608001518860a0015188886139fd565b92505b505095945050505050565b5f8315612d01578360051b8501855b600115612cfe578035841160051b8481528135602082185260405f209450602082019150828210612cf85750612cfe565b50612cc7565b50505b8282149050949350505050565b5f365f612d1c8a8686613a98565b9250925092505f612d308b8b8b8b8b612323565b9050612d3e84828585613c93565b612d74576040517f07a81bc400000000000000000000000000000000000000000000000000000000815260040160405180910390fd5b612d7e8b8a61250f565b885f016020810190612d9091906143f2565b61ffff168473ffffffffffffffffffffffffffffffffffffffff168c73ffffffffffffffffffffffffffffffffffffffff167fe03b4c30661857d0903939c8f7efa127ae05d3d45b1e8c13a5eda76a84e1e69b8b604051612df19190614603565b60405180910390a45050505050505050505050565b5f612e767f940ae5f932b9cb11db32984a210a12b57602e8b7b980dbc8bce9539ae0ce9d2c8a73ffffffffffffffffffffffffffffffffffffffff165f1b8a5f1b8a61ffff165f1b8a8a8a612e5b575f612e5e565b60015b60ff165f1b8a5f1b8a65ffffffffffff165f1b613d94565b905098975050505050505050565b5f5f5f612e8f6129c7565b915091506040517f91ab3d17e3a50a9d89e63fd30b92be7f5336b03b287bb946787a83a9d62a27665f5282516020840120602052815160208301206040523060605260805f206020526119015f52846040526042601e209350806040525f606052505050919050565b5f5f8383600190600392612f0e93929190614f8a565b90612f199190615159565b60f01c90505f8161ffff1690505f60015f8973ffffffffffffffffffffffffffffffffffffffff1673ffffffffffffffffffffffffffffffffffffffff1681526020019081526020015f205f015f8381526020019081526020015f206040518060400160405290815f820154815260200160018201548152505090505f5f1b815f015103612fac575f9350505050613023565b5f5f612fc988886003908092612fc493929190614f8a565b612aa3565b9150915080612fdf575f95505050505050613023565b61301b612feb8a612693565b604051602001612ffb91906145b0565b604051602081830303815290604052600184865f01518760200151612b7f565b955050505050505b949350505050565b5f602082111561303d575f9050613201565b5f600583901b602161304f9190615038565b905060028161305e9190615038565b858590501015613071575f915050613201565b5f858560019060219261308693929190614f8a565b906130919190614fda565b9050365f6021880191508590506130aa8282858c612cb8565b6130ba575f945050505050613201565b50505f868684906002866130ce9190615038565b926130db93929190614f8a565b906130e69190615159565b60f01c90505f8161ffff1690505f60015f8c73ffffffffffffffffffffffffffffffffffffffff1673ffffffffffffffffffffffffffffffffffffffff1681526020019081526020015f205f015f8381526020019081526020015f206040518060400160405290815f820154815260200160018201548152505090505f5f1b815f01510361317b575f95505050505050613201565b5f5f6131a38b8b60028a61318f9190615038565b90809261319e93929190614f8a565b612aa3565b91509150806131bb575f975050505050505050613201565b6131f76131c787612a60565b6040516020016131d791906145b0565b604051602081830303815290604052600184865f01518760200151612b7f565b9750505050505050505b95945050505050565b5f60015f8673ffffffffffffffffffffffffffffffffffffffff1673ffffffffffffffffffffffffffffffffffffffff1681526020019081526020015f2090505f6132578260010161257b565b90505f810361329d57856040517ff91bd6f10000000000000000000000000000000000000000000000000000000081526004016132949190614676565b60405180910390fd5b6132ab845f1c845f1c613618565b6132e1576040517fa2d0fee800000000000000000000000000000000000000000000000000000000815260040160405180910390fd5b5f8561ffff1690506132ff8184600101613de190919063ffffffff16565b61334057856040517fec6a6bda0000000000000000000000000000000000000000000000000000000081526004016133379190614b7c565b60405180910390fd5b604051806040016040528086815260200185815250835f015f8381526020019081526020015f205f820151815f0155602082015181600101559050508561ffff168773ffffffffffffffffffffffffffffffffffffffff167faf333fa2fc1dbe79c8609d693a59ee1a03e0d893e2573e6e5fc6e8fe97c5aed560405160405180910390a38561ffff168773ffffffffffffffffffffffffffffffffffffffff167fda884d5d59662b1731710a4f6407c966163e54e01dc2bddd947aab99e95ca29387876040516134119291906144e4565b60405180910390a350505050505050565b5f819050919050565b5f5f61343683613dfe565b90508019548060011c925080613471575f92508282015415613471576001925082820154156134715760029250828201541561347157600392505b5050919050565b5f5f61348384613dfe565b905068fbb67fda52d4bfb8bf83036134a25763f5a267f15f526004601cfd5b826134b45768fbb67fda52d4bfb8bf92505b80195460011561358057806135295760019250838254036134eb5760018201548255600282015460018301555f6002830155613580565b8360018301540361350b57600282015460018301555f6002830155613580565b83600283015403613521575f6002830155613580565b5f9250613580565b81602052835f5260405f20805480613542575050613580565b60018360011c03925082600182031461356c57828401548060018303860155805f528160405f2055505b60018360011b178419555f82556001945050505b505092915050565b5f825f528160205260405f20905092915050565b5f6135a5613e15565b156135b9576135b2613e19565b90506135f5565b7f000000000000000000000000000000000000000000000000000000000000000090506135e4613ee1565b156135f4576135f1613e19565b90505b5b6719010000000000005f5280601a5281603a52604260182090505f603a52919050565b5f5f83148061362657505f82145b8061365157507fffffffff00000001000000000000000000000000ffffffffffffffffffffffff8310155b8061367c57507fffffffff00000001000000000000000000000000ffffffffffffffffffffffff8210155b15613689575f90506137ff565b5f7fffffffff00000001000000000000000000000000ffffffffffffffffffffffff806136b9576136b86151b7565b5b83840990505f7fffffffff00000001000000000000000000000000ffffffffffffffffffffffff806136ee576136ed6151b7565b5b7f5ac635d8aa3a93e7b3ebbd55769886bc651d06b0cc53b0f63bce3c3e27d2604b7fffffffff00000001000000000000000000000000ffffffffffffffffffffffff8061373e5761373d6151b7565b5b7fffffffff00000001000000000000000000000000ffffffffffffffffffffffff8061376d5761376c6151b7565b5b7fffffffff00000001000000000000000000000000fffffffffffffffffffffffc89097fffffffff00000001000000000000000000000000ffffffffffffffffffffffff806137bf576137be6151b7565b5b897fffffffff00000001000000000000000000000000ffffffffffffffffffffffff806137ef576137ee6151b7565b5b8b8c090908089050808214925050505b92915050565b5f61381a61381284613422565b835f1b613f39565b905092915050565b60605f61382e83613dfe565b905068fbb67fda52d4bfb8bf8119546040519350836020016001156138d457816138a5578354801561389f57600192508381141581028252828501549050801561389e57600292508381141581026020830152828501549050801561389d576003925083811415810260408301525b5b5b506138d4565b8160011c91505f5b828110156138d257808501548481141581028260051b840152506001810190506138ad565b505b8185528160051b810160405250505050919050565b6060819050919050565b6060835180156139f5576003600282010460021b60405192507f4142434445464748494a4b4c4d4e4f505152535455565758595a616263646566601f526106708515027f6768696a6b6c6d6e6f707172737475767778797a303132333435363738392d5f18603f526020830181810183886020010180515f82525b6001156139c25760038a0199508951603f8160121c16515f53603f81600c1c1651600153603f8160061c1651600253603f8116516003535f5185526004850194508385106139bc57506139c2565b5061396e565b8082526020830160405260038606600204613d3d60f01b81860352808915150290505f8186035280860388525050505050505b509392505050565b5f6040518681528560208201528460408201528360608201528260808201525f5f5260205f60a0836101005afa503d613a63576d1ab2e8006fd8b71907bf06a5bdee3b613a625760205f60a0836dd01ea45f9efd5c54f037fa57ea1a5afa613a6157fe5b5b5b5f516001147f7fffffff800000007fffffffffffffffde737d56d38bcf4279dce5617e3192a886111091505095945050505050565b5f365f5f8585905003613ad7576040517f042a9b6400000000000000000000000000000000000000000000000000000000815260040160405180910390fd5b5f85855f818110613aeb57613aea614f55565b5b9050013560f81c60f81b60f81c905085856001908092613b0d93929190614f8a565b925092505f8160ff1603613b80575f5f8873ffffffffffffffffffffffffffffffffffffffff1673ffffffffffffffffffffffffffffffffffffffff1681526020019081526020015f205f015f9054906101000a900473ffffffffffffffffffffffffffffffffffffffff169350613c24565b60018160ff1603613bf1575f5f8873ffffffffffffffffffffffffffffffffffffffff1673ffffffffffffffffffffffffffffffffffffffff1681526020019081526020015f206001015f9054906101000a900473ffffffffffffffffffffffffffffffffffffffff169350613c23565b6040517f062e942d00000000000000000000000000000000000000000000000000000000815260040160405180910390fd5b5b5f73ffffffffffffffffffffffffffffffffffffffff168473ffffffffffffffffffffffffffffffffffffffff1603613c89576040517fba53e96500000000000000000000000000000000000000000000000000000000815260040160405180910390fd5b5093509350939050565b5f5f73ffffffffffffffffffffffffffffffffffffffff168573ffffffffffffffffffffffffffffffffffffffff160315613d8c57604051600115613d8a57853b613d4c578260408114613cef5760418114613d135750613d8a565b6020850135601b8160ff1c0160205285356040528060011b60011c60605250613d24565b60408501355f1a6020526040856040375b50845f526020600160805f60015afa5180871860601b3d1192505f6060528160405250613d8a565b631626ba7e60e01b80825285600483015260248201604081528460448401528486606485013760208160648701858b5afa9350838282511416935050505b505b949350505050565b5f6040518a81528960208201528860408201528760608201528660808201528560a08201528460c08201528360e08201528261010082015261012081209150509998505050505050505050565b5f613df6613dee84613422565b835f1b614062565b905092915050565b5f6318fb5864600452815f5260245f209050919050565b5f90565b5f5f613e23613e15565b15613e51575f5f613e326129c7565b9150915081805190602001209350808051906020012092505050613e98565b7f000000000000000000000000000000000000000000000000000000000000000091507f000000000000000000000000000000000000000000000000000000000000000090505b6040517f8b73c3c69bb8fe3d512ecc4cf759cc79239f7b179b0ffacaa9a75d522b39400f815282602082015281604082015246606082015230608082015260a081209250505090565b5f5f7f000000000000000000000000000000000000000000000000000000000000000090505f7f0000000000000000000000000000000000000000000000000000000000000000905080301482461416159250505090565b5f5f613f4484613dfe565b905068fbb67fda52d4bfb8bf8303613f635763f5a267f15f526004601cfd5b82613f755768fbb67fda52d4bfb8bf92505b80195460011561405a57816020528061402357815480613f9c57848355600193505061405a565b848103613fa9575061405a565b600183015480613fc45785600185015560019450505061405a565b858103613fd257505061405a565b600284015480613fee578660028601556001955050505061405a565b868103613ffd5750505061405a565b825f52600160405f2055815f52600260405f2055805f52600360405f2055600793505050505b835f5260405f208054614058578160011c915084828401558160010181558160010160011b600117831955600193505061405a565b505b505092915050565b5f5f61406d84613dfe565b905068fbb67fda52d4bfb8bf830361408c5763f5a267f15f526004601cfd5b8261409e5768fbb67fda52d4bfb8bf92505b6001156140ea578019546140d9576001915082815403156140ea5782600182015403156140ea5782600282015403156140ea575f91506140ea565b80602052825f5260405f2054151591505b5092915050565b6040518060c0016040528060608152602001606081526020015f81526020015f81526020015f81526020015f81525090565b5f81519050919050565b5f82825260208201905092915050565b8281835e5f83830152505050565b5f601f19601f8301169050919050565b5f61416582614123565b61416f818561412d565b935061417f81856020860161413d565b6141888161414b565b840191505092915050565b5f6020820190508181035f8301526141ab818461415b565b905092915050565b5f604051905090565b5f5ffd5b5f5ffd5b5f73ffffffffffffffffffffffffffffffffffffffff82169050919050565b5f6141ed826141c4565b9050919050565b6141fd816141e3565b8114614207575f5ffd5b50565b5f81359050614218816141f4565b92915050565b5f819050919050565b6142308161421e565b811461423a575f5ffd5b50565b5f8135905061424b81614227565b92915050565b5f5ffd5b5f6080828403121561426a57614269614251565b5b81905092915050565b5f65ffffffffffff82169050919050565b61428d81614273565b8114614297575f5ffd5b50565b5f813590506142a881614284565b92915050565b5f5ffd5b5f5ffd5b5f5ffd5b5f5f83601f8401126142cf576142ce6142ae565b5b8235905067ffffffffffffffff8111156142ec576142eb6142b2565b5b602083019150836001820283011115614308576143076142b6565b5b9250929050565b5f5f5f5f5f5f5f610120888a03121561432b5761432a6141bc565b5b5f6143388a828b0161420a565b97505060206143498a828b0161423d565b965050604061435a8a828b01614255565b95505060c061436b8a828b0161423d565b94505060e061437c8a828b0161429a565b93505061010088013567ffffffffffffffff81111561439e5761439d6141c0565b5b6143aa8a828b016142ba565b925092505092959891949750929550565b5f61ffff82169050919050565b6143d1816143bb565b81146143db575f5ffd5b50565b5f813590506143ec816143c8565b92915050565b5f60208284031215614407576144066141bc565b5b5f614414848285016143de565b91505092915050565b5f5f60408385031215614433576144326141bc565b5b5f6144408582860161420a565b92505060206144518582860161423d565b9150509250929050565b5f8115159050919050565b61446f8161445b565b82525050565b5f6020820190506144885f830184614466565b92915050565b5f5f604083850312156144a4576144a36141bc565b5b5f6144b1858286016143de565b92505060206144c28582860161420a565b9150509250929050565b5f819050919050565b6144de816144cc565b82525050565b5f6040820190506144f75f8301856144d5565b61450460208301846144d5565b9392505050565b614514816144cc565b811461451e575f5ffd5b50565b5f8135905061452f8161450b565b92915050565b5f5f5f6060848603121561454c5761454b6141bc565b5b5f614559868287016143de565b935050602061456a86828701614521565b925050604061457b86828701614521565b9150509250925092565b5f6020828403121561459a576145996141bc565b5b5f6145a784828501614521565b91505092915050565b5f6020820190506145c35f8301846144d5565b92915050565b5f602082840312156145de576145dd6141bc565b5b5f6145eb8482850161420a565b91505092915050565b6145fd8161421e565b82525050565b5f6020820190506146165f8301846145f4565b92915050565b5f5f60208385031215614632576146316141bc565b5b5f83013567ffffffffffffffff81111561464f5761464e6141c0565b5b61465b858286016142ba565b92509250509250929050565b614670816141e3565b82525050565b5f6020820190506146895f830184614667565b92915050565b5f7fff0000000000000000000000000000000000000000000000000000000000000082169050919050565b6146c38161468f565b82525050565b5f81519050919050565b5f82825260208201905092915050565b5f819050602082019050919050565b6146fb8161421e565b82525050565b5f61470c83836146f2565b60208301905092915050565b5f602082019050919050565b5f61472e826146c9565b61473881856146d3565b9350614743836146e3565b805f5b8381101561477357815161475a8882614701565b975061476583614718565b925050600181019050614746565b5085935050505092915050565b5f60e0820190506147935f83018a6146ba565b81810360208301526147a5818961415b565b905081810360408301526147b9818861415b565b90506147c860608301876145f4565b6147d56080830186614667565b6147e260a08301856144d5565b81810360c08301526147f48184614724565b905098975050505050505050565b5f5f5f5f5f6060868803121561481b5761481a6141bc565b5b5f61482888828901614521565b955050602086013567ffffffffffffffff811115614849576148486141c0565b5b614855888289016142ba565b9450945050604086013567ffffffffffffffff811115614878576148776141c0565b5b614884888289016142ba565b92509250509295509295909350565b5f61012082840312156148a9576148a8614251565b5b81905092915050565b5f5f604083850312156148c8576148c76141bc565b5b5f83013567ffffffffffffffff8111156148e5576148e46141c0565b5b6148f185828601614893565b925050602061490285828601614521565b9150509250929050565b5f819050919050565b5f61492f61492a6149258461421e565b61490c565b61421e565b9050919050565b61493f81614915565b82525050565b5f6020820190506149585f830184614936565b92915050565b61496781614273565b82525050565b5f6060820190506149805f830186614667565b61498d6020830185614466565b61499a604083018461495e565b949350505050565b5f6020820190506149b55f83018461495e565b92915050565b5f6020820190508181035f8301526149d38184614724565b905092915050565b5f602082840312156149f0576149ef6141bc565b5b5f6149fd8482850161423d565b91505092915050565b5f60208284031215614a1b57614a1a6141bc565b5b5f614a288482850161429a565b91505092915050565b5f5f5f5f60608587031215614a4957614a486141bc565b5b5f614a568782880161420a565b9450506020614a6787828801614521565b935050604085013567ffffffffffffffff811115614a8857614a876141c0565b5b614a94878288016142ba565b925092505092959194509250565b5f7fffffffff0000000000000000000000000000000000000000000000000000000082169050919050565b614ad681614aa2565b82525050565b5f602082019050614aef5f830184614acd565b92915050565b5f5f5f5f5f6101008688031215614b0f57614b0e6141bc565b5b5f614b1c8882890161420a565b9550506020614b2d8882890161423d565b9450506040614b3e88828901614255565b93505060c0614b4f8882890161423d565b92505060e0614b608882890161429a565b9150509295509295909350565b614b76816143bb565b82525050565b5f602082019050614b8f5f830184614b6d565b92915050565b7f4e487b71000000000000000000000000000000000000000000000000000000005f52601160045260245ffd5b5f614bcc82614273565b9150614bd783614273565b9250828201905065ffffffffffff811115614bf557614bf4614b95565b5b92915050565b5f604082019050614c0e5f830185614466565b614c1b602083018461495e565b9392505050565b7f4e487b71000000000000000000000000000000000000000000000000000000005f52604160045260245ffd5b614c588261414b565b810181811067ffffffffffffffff82111715614c7757614c76614c22565b5b80604052505050565b5f614c896141b3565b9050614c958282614c4f565b919050565b5f67ffffffffffffffff821115614cb457614cb3614c22565b5b602082029050602081019050919050565b5f614cd7614cd284614c9a565b614c80565b90508083825260208201905060208402830185811115614cfa57614cf96142b6565b5b835b81811015614d235780614d0f88826143de565b845260208401935050602081019050614cfc565b5050509392505050565b5f82601f830112614d4157614d406142ae565b5b8135614d51848260208601614cc5565b91505092915050565b5f67ffffffffffffffff821115614d7457614d73614c22565b5b602082029050602081019050919050565b5f5ffd5b5f60408284031215614d9e57614d9d614d85565b5b614da86040614c80565b90505f614db784828501614521565b5f830152506020614dca84828501614521565b60208301525092915050565b5f614de8614de384614d5a565b614c80565b90508083825260208201905060408402830185811115614e0b57614e0a6142b6565b5b835b81811015614e345780614e208882614d89565b845260208401935050604081019050614e0d565b5050509392505050565b5f82601f830112614e5257614e516142ae565b5b8135614e62848260208601614dd6565b91505092915050565b5f614e75826141c4565b9050919050565b614e8581614e6b565b8114614e8f575f5ffd5b50565b5f81359050614ea081614e7c565b92915050565b5f5f5f5f5f60a08688031215614ebf57614ebe6141bc565b5b5f86013567ffffffffffffffff811115614edc57614edb6141c0565b5b614ee888828901614d2d565b955050602086013567ffffffffffffffff811115614f0957614f086141c0565b5b614f1588828901614e3e565b9450506040614f2688828901614e92565b9350506060614f3788828901614e92565b9250506080614f488882890161429a565b9150509295509295909350565b7f4e487b71000000000000000000000000000000000000000000000000000000005f52603260045260245ffd5b5f5ffd5b5f5ffd5b5f5f85851115614f9d57614f9c614f82565b5b83861115614fae57614fad614f86565b5b6001850283019150848603905094509492505050565b5f82905092915050565b5f82821b905092915050565b5f614fe58383614fc4565b82614ff081356144cc565b925060208210156150305761502b7fffffffffffffffffffffffffffffffffffffffffffffffffffffffffffffffff83602003600802614fce565b831692505b505092915050565b5f6150428261421e565b915061504d8361421e565b925082820190508082111561506557615064614b95565b5b92915050565b5f5ffd5b5f5ffd5b5f5ffd5b5f5f833560016020038436030381126150935761509261506b565b5b80840192508235915067ffffffffffffffff8211156150b5576150b461506f565b5b6020830192506001820236038313156150d1576150d0615073565b5b509250929050565b6150e28161445b565b81146150ec575f5ffd5b50565b5f813590506150fd816150d9565b92915050565b5f60208284031215615118576151176141bc565b5b5f615125848285016150ef565b91505092915050565b5f7fffff00000000000000000000000000000000000000000000000000000000000082169050919050565b5f6151648383614fc4565b8261516f813561512e565b925060028210156151af576151aa7fffff00000000000000000000000000000000000000000000000000000000000083600203600802614fce565b831692505b505092915050565b7f4e487b71000000000000000000000000000000000000000000000000000000005f52601260045260245ffdfea2646970667358221220d9b194d0b5e6854e14c614723274e876bb877b7894d24ff53030d8ef0502c9d264736f6c634300081c0033","linkReferences":{}},"methodIdentifiers":{"addCredential(uint16,bytes32,bytes32)":"5e84cc61","cancelGuardianChange()":"fb49fe27","confirmGuardian()":"1e0ea61e","credentialCount(address)":"69989ffb","eip712Domain()":"84b0196e","externalGuardian(address)":"75ae4976","getCredKeys(address)":"c89f2403","getCredential(uint16,address)":"3b826b0d","getPasskeyDigest(bytes32)":"65e3371a","getPasskeyMultichain(bytes32)":"9300126d","getRecoverDigest(address,uint256,(uint16,bytes32,bytes32,bool),uint256,uint48)":"fa5565e3","guardianTimelock(address)":"ade81692","isInitialized(address)":"d60b347f","isModuleType(uint256)":"ecd05961","isValidSignatureWithSender(address,bytes32,bytes)":"f551e2ee","name()":"06fdde03","nonceUsed(address,uint256)":"1647795e","onInstall(bytes)":"6d61fe70","onUninstall(bytes)":"8a91b0e3","pendingGuardianInfo(address)":"9e9848fe","recoverWithGuardian(address,uint256,(uint16,bytes32,bytes32,bool),uint256,uint48,bytes)":"d5370a3d","recoverWithPasskey(address,uint256,(uint16,bytes32,bytes32,bool),uint256,uint48,bytes)":"0cc81a93","removeCredential(uint16)":"13c50641","setExternalGuardian(address)":"dc33c67d","setGuardianTimelock(uint48)":"eee07f95","setUserGuardian(address)":"669c841c","userGuardian(address)":"87680d07","validateSignatureWithData(bytes32,bytes,bytes)":"940d3840","validateUserOp((address,uint256,bytes,bytes,bytes32,uint256,bytes32,bytes,bytes),bytes32)":"97003203","version()":"54fd4d50"},"id":222}