{"abi":[{"type":"function","name":"addCredential","inputs":[{"name":"keyId","type":"uint16","internalType":"uint16"},{"name":"pubKeyX","type":"bytes32","internalType":"bytes32"},{"name":"pubKeyY","type":"bytes32","internalType":"bytes32"}],"outputs":[],"stateMutability":"nonpayable"},{"type":"function","name":"credentialCount","inputs":[{"name":"account","type":"address","internalType":"address"}],"outputs":[{"name":"","type":"uint256","internalType":"uint256"}],"stateMutability":"view"},{"type":"function","name":"eip712Domain","inputs":[],"outputs":[{"name":"fields","type":"bytes1","internalType":"bytes1"},{"name":"name","type":"string","internalType":"string"},{"name":"version","type":"string","internalType":"string"},{"name":"chainId","type":"uint256","internalType":"uint256"},{"name":"verifyingContract","type":"address","internalType":"address"},{"name":"salt","type":"bytes32","internalType":"bytes32"},{"name":"extensions","type":"uint256[]","internalType":"uint256[]"}],"stateMutability":"view"},{"type":"function","name":"getAccountLeaf","inputs":[{"name":"account","type":"address","internalType":"address"},{"name":"digest","type":"bytes32","internalType":"bytes32"}],"outputs":[{"name":"","type":"bytes32","internalType":"bytes32"}],"stateMutability":"pure"},{"type":"function","name":"getAccountRecoveryIdentifier","inputs":[{"name":"account","type":"address","internalType":"address"}],"outputs":[{"name":"","type":"tuple","internalType":"struct OneAuthRecoveryBase.RecoveryAccountIdentifier","components":[{"name":"identitySalt","type":"bytes32","internalType":"bytes32"},{"name":"identityCommitment","type":"bytes32","internalType":"bytes32"}]}],"stateMutability":"view"},{"type":"function","name":"getCredKeys","inputs":[{"name":"account","type":"address","internalType":"address"}],"outputs":[{"name":"","type":"uint256[]","internalType":"uint256[]"}],"stateMutability":"view"},{"type":"function","name":"getCredential","inputs":[{"name":"keyId","type":"uint16","internalType":"uint16"},{"name":"account","type":"address","internalType":"address"}],"outputs":[{"name":"pubKeyX","type":"bytes32","internalType":"bytes32"},{"name":"pubKeyY","type":"bytes32","internalType":"bytes32"}],"stateMutability":"view"},{"type":"function","name":"getPasskeyDigest","inputs":[{"name":"account","type":"address","internalType":"address"},{"name":"digest","type":"bytes32","internalType":"bytes32"}],"outputs":[{"name":"","type":"bytes32","internalType":"bytes32"}],"stateMutability":"view"},{"type":"function","name":"getPasskeyMultichain","inputs":[{"name":"root","type":"bytes32","internalType":"bytes32"}],"outputs":[{"name":"","type":"bytes32","internalType":"bytes32"}],"stateMutability":"view"},{"type":"function","name":"getRecoverDigest","inputs":[{"name":"account","type":"address","internalType":"address"},{"name":"chainId","type":"uint256","internalType":"uint256"},{"name":"cred","type":"tuple","internalType":"struct OneAuthRecoveryBase.NewCredential","components":[{"name":"keyId","type":"uint16","internalType":"uint16"},{"name":"pubKeyX","type":"bytes32","internalType":"bytes32"},{"name":"pubKeyY","type":"bytes32","internalType":"bytes32"},{"name":"replace","type":"bool","internalType":"bool"}]},{"name":"nonce","type":"uint256","internalType":"uint256"},{"name":"expiry","type":"uint48","internalType":"uint48"}],"outputs":[{"name":"","type":"bytes32","internalType":"bytes32"}],"stateMutability":"view"},{"type":"function","name":"guardianConfig","inputs":[{"name":"account","type":"address","internalType":"address"}],"outputs":[{"name":"userGuardian","type":"address","internalType":"address"},{"name":"externalGuardian","type":"address","internalType":"address"},{"name":"threshold","type":"uint8","internalType":"uint8"}],"stateMutability":"view"},{"type":"function","name":"guardianThreshold","inputs":[{"name":"account","type":"address","internalType":"address"}],"outputs":[{"name":"","type":"uint8","internalType":"uint8"}],"stateMutability":"view"},{"type":"function","name":"isInitialized","inputs":[{"name":"smartAccount","type":"address","internalType":"address"}],"outputs":[{"name":"","type":"bool","internalType":"bool"}],"stateMutability":"view"},{"type":"function","name":"isModuleType","inputs":[{"name":"typeID","type":"uint256","internalType":"uint256"}],"outputs":[{"name":"","type":"bool","internalType":"bool"}],"stateMutability":"pure"},{"type":"function","name":"isValidSignatureWithSender","inputs":[{"name":"","type":"address","internalType":"address"},{"name":"hash","type":"bytes32","internalType":"bytes32"},{"name":"data","type":"bytes","internalType":"bytes"}],"outputs":[{"name":"","type":"bytes4","internalType":"bytes4"}],"stateMutability":"view"},{"type":"function","name":"name","inputs":[],"outputs":[{"name":"","type":"string","internalType":"string"}],"stateMutability":"pure"},{"type":"function","name":"nonceUsed","inputs":[{"name":"account","type":"address","internalType":"address"},{"name":"nonce","type":"uint256","internalType":"uint256"}],"outputs":[{"name":"","type":"bool","internalType":"bool"}],"stateMutability":"view"},{"type":"function","name":"onInstall","inputs":[{"name":"data","type":"bytes","internalType":"bytes"}],"outputs":[],"stateMutability":"nonpayable"},{"type":"function","name":"onUninstall","inputs":[{"name":"","type":"bytes","internalType":"bytes"}],"outputs":[],"stateMutability":"nonpayable"},{"type":"function","name":"recoverWithGuardian","inputs":[{"name":"account","type":"address","internalType":"address"},{"name":"chainId","type":"uint256","internalType":"uint256"},{"name":"cred","type":"tuple","internalType":"struct OneAuthRecoveryBase.NewCredential","components":[{"name":"keyId","type":"uint16","internalType":"uint16"},{"name":"pubKeyX","type":"bytes32","internalType":"bytes32"},{"name":"pubKeyY","type":"bytes32","internalType":"bytes32"},{"name":"replace","type":"bool","internalType":"bool"}]},{"name":"nonce","type":"uint256","internalType":"uint256"},{"name":"expiry","type":"uint48","internalType":"uint48"},{"name":"guardianSig","type":"bytes","internalType":"bytes"}],"outputs":[],"stateMutability":"nonpayable"},{"type":"function","name":"recoverWithPasskey","inputs":[{"name":"account","type":"address","internalType":"address"},{"name":"chainId","type":"uint256","internalType":"uint256"},{"name":"cred","type":"tuple","internalType":"struct OneAuthRecoveryBase.NewCredential","components":[{"name":"keyId","type":"uint16","internalType":"uint16"},{"name":"pubKeyX","type":"bytes32","internalType":"bytes32"},{"name":"pubKeyY","type":"bytes32","internalType":"bytes32"},{"name":"replace","type":"bool","internalType":"bool"}]},{"name":"nonce","type":"uint256","internalType":"uint256"},{"name":"expiry","type":"uint48","internalType":"uint48"},{"name":"signature","type":"bytes","internalType":"bytes"}],"outputs":[],"stateMutability":"nonpayable"},{"type":"function","name":"removeCredential","inputs":[{"name":"keyId","type":"uint16","internalType":"uint16"}],"outputs":[],"stateMutability":"nonpayable"},{"type":"function","name":"setGuardianConfig","inputs":[{"name":"_userGuardian","type":"address","internalType":"address"},{"name":"_externalGuardian","type":"address","internalType":"address"},{"name":"_threshold","type":"uint8","internalType":"uint8"},{"name":"_identifier","type":"tuple","internalType":"struct OneAuthRecoveryBase.RecoveryAccountIdentifier","components":[{"name":"identitySalt","type":"bytes32","internalType":"bytes32"},{"name":"identityCommitment","type":"bytes32","internalType":"bytes32"}]}],"outputs":[],"stateMutability":"nonpayable"},{"type":"function","name":"validateSignatureForAccount","inputs":[{"name":"account","type":"address","internalType":"address"},{"name":"digest","type":"bytes32","internalType":"bytes32"},{"name":"data","type":"bytes","internalType":"bytes"}],"outputs":[{"name":"","type":"bool","internalType":"bool"}],"stateMutability":"view"},{"type":"function","name":"validateSignatureWithData","inputs":[{"name":"hash","type":"bytes32","internalType":"bytes32"},{"name":"signature","type":"bytes","internalType":"bytes"},{"name":"data","type":"bytes","internalType":"bytes"}],"outputs":[{"name":"","type":"bool","internalType":"bool"}],"stateMutability":"view"},{"type":"function","name":"validateUserOp","inputs":[{"name":"userOp","type":"tuple","internalType":"struct PackedUserOperation","components":[{"name":"sender","type":"address","internalType":"address"},{"name":"nonce","type":"uint256","internalType":"uint256"},{"name":"initCode","type":"bytes","internalType":"bytes"},{"name":"callData","type":"bytes","internalType":"bytes"},{"name":"accountGasLimits","type":"bytes32","internalType":"bytes32"},{"name":"preVerificationGas","type":"uint256","internalType":"uint256"},{"name":"gasFees","type":"bytes32","internalType":"bytes32"},{"name":"paymasterAndData","type":"bytes","internalType":"bytes"},{"name":"signature","type":"bytes","internalType":"bytes"}]},{"name":"userOpHash","type":"bytes32","internalType":"bytes32"}],"outputs":[{"name":"","type":"uint256","internalType":"ERC7579ValidatorBase.ValidationData"}],"stateMutability":"view"},{"type":"function","name":"version","inputs":[],"outputs":[{"name":"","type":"string","internalType":"string"}],"stateMutability":"pure"},{"type":"event","name":"CredentialAdded","inputs":[{"name":"account","type":"address","indexed":true,"internalType":"address"},{"name":"keyId","type":"uint16","indexed":true,"internalType":"uint16"},{"name":"pubKeyX","type":"bytes32","indexed":false,"internalType":"bytes32"},{"name":"pubKeyY","type":"bytes32","indexed":false,"internalType":"bytes32"}],"anonymous":false},{"type":"event","name":"CredentialRemoved","inputs":[{"name":"account","type":"address","indexed":true,"internalType":"address"},{"name":"keyId","type":"uint16","indexed":true,"internalType":"uint16"}],"anonymous":false},{"type":"event","name":"GuardianConfigSet","inputs":[{"name":"account","type":"address","indexed":true,"internalType":"address"},{"name":"userGuardian","type":"address","indexed":false,"internalType":"address"},{"name":"externalGuardian","type":"address","indexed":false,"internalType":"address"},{"name":"threshold","type":"uint8","indexed":false,"internalType":"uint8"}],"anonymous":false},{"type":"event","name":"GuardianRecoveryExecuted","inputs":[{"name":"account","type":"address","indexed":true,"internalType":"address"},{"name":"guardian","type":"address","indexed":true,"internalType":"address"},{"name":"newKeyId","type":"uint16","indexed":true,"internalType":"uint16"},{"name":"nonce","type":"uint256","indexed":false,"internalType":"uint256"}],"anonymous":false},{"type":"event","name":"ModuleInitialized","inputs":[{"name":"account","type":"address","indexed":true,"internalType":"address"}],"anonymous":false},{"type":"event","name":"ModuleUninitialized","inputs":[{"name":"account","type":"address","indexed":true,"internalType":"address"}],"anonymous":false},{"type":"event","name":"PasskeyRecoveryExecuted","inputs":[{"name":"account","type":"address","indexed":true,"internalType":"address"},{"name":"newKeyId","type":"uint16","indexed":true,"internalType":"uint16"},{"name":"nonce","type":"uint256","indexed":false,"internalType":"uint256"}],"anonymous":false},{"type":"error","name":"CannotRemoveLastCredential","inputs":[]},{"type":"error","name":"CredentialNotFound","inputs":[{"name":"keyId","type":"uint16","internalType":"uint16"}]},{"type":"error","name":"EmptyGuardianSignature","inputs":[]},{"type":"error","name":"GuardianNotConfigured","inputs":[]},{"type":"error","name":"InvalidChainId","inputs":[]},{"type":"error","name":"InvalidGuardianSignature","inputs":[]},{"type":"error","name":"InvalidGuardianType","inputs":[]},{"type":"error","name":"InvalidMerkleProof","inputs":[]},{"type":"error","name":"InvalidPublicKey","inputs":[]},{"type":"error","name":"InvalidRecoverySignature","inputs":[]},{"type":"error","name":"InvalidSignatureData","inputs":[]},{"type":"error","name":"InvalidThreshold","inputs":[]},{"type":"error","name":"KeyIdAlreadyExists","inputs":[{"name":"keyId","type":"uint16","internalType":"uint16"}]},{"type":"error","name":"ModuleAlreadyInitialized","inputs":[{"name":"smartAccount","type":"address","internalType":"address"}]},{"type":"error","name":"NonceAlreadyUsed","inputs":[]},{"type":"error","name":"NotInitialized","inputs":[{"name":"smartAccount","type":"address","internalType":"address"}]},{"type":"error","name":"ProofTooLong","inputs":[]},{"type":"error","name":"RecoveryExpired","inputs":[]},{"type":"error","name":"ThresholdRequiresBothGuardians","inputs":[]},{"type":"error","name":"TooManyCredentials","inputs":[]}],"bytecode":{"object":"0x610120604052348015610010575f5ffd5b503073ffffffffffffffffffffffffffffffffffffffff16608081815250504660a0818152505060608061004861012b60201b60201c565b6100635761005a61012f60201b60201c565b80925081935050505b5f61007261012b60201b60201c565b610083578280519060200120610087565b5f5f1b5b90505f61009861012b60201b60201c565b6100a95782805190602001206100ad565b5f5f1b5b90508160c081815250508060e081815250505f6100ce61012b60201b60201c565b610118576040517f8b73c3c69bb8fe3d512ecc4cf759cc79239f7b179b0ffacaa9a75d522b39400f815283602082015282604082015246606082015230608082015260a081209150505b80610100818152505050505050506101a6565b5f90565b6060806040518060400160405280601081526020017f4f6e654175746856616c696461746f720000000000000000000000000000000081525091506040518060400160405280600581526020017f312e302e3000000000000000000000000000000000000000000000000000000081525090509091565b60805160a05160c05160e05161010051614e876101e35f395f612db701525f6137fb01525f6137d801525f61386a01525f61388e0152614e875ff3fe608060405234801561000f575f5ffd5b50600436106101a7575f3560e01c80639300126d116100f7578063cbf1ca3211610095578063ecd059611161006f578063ecd0596114610540578063ed3262e114610570578063f551e2ee146105a2578063fa5565e3146105d2576101a7565b8063cbf1ca32146104d8578063d5370a3d146104f4578063d60b347f14610510576101a7565b806397003203116100d15780639700320314610418578063a1cdf4ed14610448578063a45efa4914610478578063c89f2403146104a8576101a7565b80639300126d14610388578063940d3840146103b857806394529e97146103e8576101a7565b806354fd4d50116101645780636d61fe701161013e5780636d61fe70146102fc57806384b0196e1461031857806388fc93fe1461033c5780638a91b0e31461036c576101a7565b806354fd4d50146102925780635e84cc61146102b057806369989ffb146102cc576101a7565b806306fdde03146101ab5780630cc81a93146101c957806313c50641146101e557806316250b16146102015780631647795e146102315780633b826b0d14610261575b5f5ffd5b6101b3610602565b6040516101c09190613c31565b60405180910390f35b6101e360048036038101906101de9190613dad565b61063f565b005b6101ff60048036038101906101fa9190613e90565b610892565b005b61021b60048036038101906102169190613eee565b610a33565b6040516102289190613f3b565b60405180910390f35b61024b60048036038101906102469190613f54565b610a46565b6040516102589190613fac565b60405180910390f35b61027b60048036038101906102769190613fc5565b610aaa565b604051610289929190614003565b60405180910390f35b61029a610b1b565b6040516102a79190613c31565b60405180910390f35b6102ca60048036038101906102c5919061402a565b610b58565b005b6102e660048036038101906102e1919061407a565b610b69565b6040516102f391906140b4565b60405180910390f35b610316600480360381019061031191906140cd565b610bb9565b005b610320610e77565b6040516103339796959493929190614218565b60405180910390f35b6103566004803603810190610351919061407a565b610ec2565b60405161036391906142d6565b60405180910390f35b610386600480360381019061038191906140cd565b610f2e565b005b6103a2600480360381019061039d91906142ef565b6110ef565b6040516103af9190613f3b565b60405180910390f35b6103d260048036038101906103cd919061431a565b611100565b6040516103df9190613fac565b60405180910390f35b61040260048036038101906103fd9190613eee565b6114b3565b60405161040f9190613f3b565b60405180910390f35b610432600480360381019061042d91906143ca565b6114e5565b60405161043f919061445d565b60405180910390f35b610462600480360381019061045d919061407a565b61152a565b60405161046f9190614491565b60405180910390f35b610492600480360381019061048d91906144aa565b611598565b60405161049f9190613fac565b60405180910390f35b6104c260048036038101906104bd919061407a565b6115af565b6040516104cf919061451b565b60405180910390f35b6104f260048036038101906104ed9190614583565b611600565b005b61050e60048036038101906105099190613dad565b611850565b005b61052a6004803603810190610525919061407a565b611aca565b6040516105379190613fac565b60405180910390f35b61055a600480360381019061055591906145e7565b611b1c565b6040516105679190613fac565b60405180910390f35b61058a6004803603810190610585919061407a565b611b33565b60405161059993929190614612565b60405180910390f35b6105bc60048036038101906105b791906144aa565b611bde565b6040516105c99190614681565b60405180910390f35b6105ec60048036038101906105e7919061469a565b611c12565b6040516105f99190613f3b565b60405180910390f35b60606040518060400160405280601081526020017f4f6e654175746856616c696461746f7200000000000000000000000000000000815250905090565b868685858065ffffffffffff16421115610685576040517fd3c92b0d00000000000000000000000000000000000000000000000000000000815260040160405180910390fd5b5f5f8573ffffffffffffffffffffffffffffffffffffffff1673ffffffffffffffffffffffffffffffffffffffff1681526020019081526020015f206002015f8381526020019081526020015f205f9054906101000a900460ff1615610717576040517f1fb09b8000000000000000000000000000000000000000000000000000000000815260040160405180910390fd5b5f83141580156107275750468314155b1561075e576040517f7a47c9a200000000000000000000000000000000000000000000000000000000815260040160405180910390fd5b60015f5f8673ffffffffffffffffffffffffffffffffffffffff1673ffffffffffffffffffffffffffffffffffffffff1681526020019081526020015f206002015f8481526020019081526020015f205f6101000a81548160ff0219169083151502179055505f6107d28c8c8c8c8c611c12565b90506107e08c828989611c61565b610816576040517f62a281f100000000000000000000000000000000000000000000000000000000815260040160405180910390fd5b6108208c8b611cd0565b895f0160208101906108329190613e90565b61ffff168c73ffffffffffffffffffffffffffffffffffffffff167fecca216aa14b66eb6599c0102f4caedc012eeaac8b6caf0446c274defd1e2dd48b60405161087c91906140b4565b60405180910390a3505050505050505050505050565b5f3390505f60015f8373ffffffffffffffffffffffffffffffffffffffff1673ffffffffffffffffffffffffffffffffffffffff1681526020019081526020015f2090505f6108e382600101611d3c565b90505f810361092957826040517ff91bd6f10000000000000000000000000000000000000000000000000000000081526004016109209190614712565b60405180910390fd5b60018111610963576040517fd2f2c18b00000000000000000000000000000000000000000000000000000000815260040160405180910390fd5b5f8461ffff1690506109818184600101611d5590919063ffffffff16565b6109c257846040517fec6a6bda0000000000000000000000000000000000000000000000000000000081526004016109b9919061473a565b60405180910390fd5b825f015f8281526020019081526020015f205f5f82015f9055600182015f905550508461ffff168473ffffffffffffffffffffffffffffffffffffffff167faf333fa2fc1dbe79c8609d693a59ee1a03e0d893e2573e6e5fc6e8fe97c5aed560405160405180910390a35050505050565b5f610a3e8383611d72565b905092915050565b5f5f5f8473ffffffffffffffffffffffffffffffffffffffff1673ffffffffffffffffffffffffffffffffffffffff1681526020019081526020015f206002015f8381526020019081526020015f205f9054906101000a900460ff16905092915050565b5f5f5f8461ffff1690505f60015f8673ffffffffffffffffffffffffffffffffffffffff1673ffffffffffffffffffffffffffffffffffffffff1681526020019081526020015f205f015f8381526020019081526020015f209050805f015481600101549350935050509250929050565b60606040518060400160405280600581526020017f312e302e30000000000000000000000000000000000000000000000000000000815250905090565b610b6433848484611dd0565b505050565b5f610bb260015f8473ffffffffffffffffffffffffffffffffffffffff1673ffffffffffffffffffffffffffffffffffffffff1681526020019081526020015f20600101611d3c565b9050919050565b5f339050610bc681611aca565b15610c0857806040517f4d6b9dd3000000000000000000000000000000000000000000000000000000008152600401610bff9190614712565b60405180910390fd5b5f5f5f5f5f5f8888810190610c1d9190614a24565b9550955095509550955095505f855190505f811480610c3d575086518114155b15610c74576040517fa2d0fee800000000000000000000000000000000000000000000000000000000815260040160405180910390fd5b6040811115610caf576040517f7732141400000000000000000000000000000000000000000000000000000000815260040160405180910390fd5b5f60015f8a73ffffffffffffffffffffffffffffffffffffffff1673ffffffffffffffffffffffffffffffffffffffff1681526020019081526020015f2090505f5b82811015610d6657610d5b828b8b8481518110610d1157610d10614ae5565b5b60200260200101518b8581518110610d2c57610d2b614ae5565b5b60200260200101515f01518c8681518110610d4a57610d49614ae5565b5b602002602001015160200151611eb2565b806001019050610cf1565b505f73ffffffffffffffffffffffffffffffffffffffff168673ffffffffffffffffffffffffffffffffffffffff16141580610dce57505f73ffffffffffffffffffffffffffffffffffffffff168573ffffffffffffffffffffffffffffffffffffffff1614155b80610ddc57505f8460ff1614155b80610dec57505f5f1b835f015114155b80610dfd57505f5f1b836020015114155b15610e27575f5f8560ff1614610e135784610e16565b60015b9050610e258a88888488611fee565b505b8873ffffffffffffffffffffffffffffffffffffffff167f27b541a16df0902e262f34789782092ab25125513b8ed73608e802951771b92860405160405180910390a25050505050505050505050565b5f6060805f5f5f60607f0f000000000000000000000000000000000000000000000000000000000000009650610eab612232565b809650819750505046935030925090919293949596565b610eca613b77565b5f5f8373ffffffffffffffffffffffffffffffffffffffff1673ffffffffffffffffffffffffffffffffffffffff1681526020019081526020015f206003016040518060400160405290815f82015481526020016001820154815250509050919050565b5f3390505f60015f8373ffffffffffffffffffffffffffffffffffffffff1673ffffffffffffffffffffffffffffffffffffffff1681526020019081526020015f2090505f610f7f826001016122a9565b90505f5b815181101561100457825f015f838381518110610fa357610fa2614ae5565b5b602002602001015181526020019081526020015f205f5f82015f9055600182015f90555050610ff8828281518110610fde57610fdd614ae5565b5b602002602001015184600101611d5590919063ffffffff16565b50806001019050610f83565b505f5f8473ffffffffffffffffffffffffffffffffffffffff1673ffffffffffffffffffffffffffffffffffffffff1681526020019081526020015f205f015f5f82015f6101000a81549073ffffffffffffffffffffffffffffffffffffffff0219169055600182015f6101000a81549073ffffffffffffffffffffffffffffffffffffffff02191690556001820160146101000a81549060ff021916905550508273ffffffffffffffffffffffffffffffffffffffff167f9d00629762554452d03c3b45626436df6ca1c3795d05d04df882f6db481b1be060405160405180910390a25050505050565b5f6110f9826122cb565b9050919050565b5f601583839050101561113f576040517f52f151d300000000000000000000000000000000000000000000000000000000815260040160405180910390fd5b5f83835f9060149261115393929190614b1a565b9061115e9190614b95565b60601c90505f8484601481811061117857611177614ae5565b5b9050013560f81c60f81b60f81c60ff1690505f81036112935760558585905010156111cf576040517f52f151d300000000000000000000000000000000000000000000000000000000815260040160405180910390fd5b5f5f6111db898961230e565b9150915080611216576040517f52f151d300000000000000000000000000000000000000000000000000000000815260040160405180910390fd5b611288611223858c611d72565b6040516020016112339190613f3b565b6040516020818303038152906040526001848a8a60159060359261125993929190614b1a565b906112649190614bf3565b8b8b60359060559261127893929190614b1a565b906112839190614bf3565b6123ea565b9450505050506114aa565b60208111156112ce576040517fb5ae13c800000000000000000000000000000000000000000000000000000000815260040160405180910390fd5b5f600582901b60356112e09190614c7e565b90506040816112ef9190614c7e565b86869050101561132b576040517f52f151d300000000000000000000000000000000000000000000000000000000815260040160405180910390fd5b5f868660159060359261134093929190614b1a565b9061134b9190614bf3565b90505f848b604051602001611361929190614cb1565b604051602081830303815290604052805190602001209050365f60358a01915085905061139082828686612523565b6113c6576040517fb05e92fa00000000000000000000000000000000000000000000000000000000815260040160405180910390fd5b5050505f5f6113d58b8b61230e565b9150915080611410576040517f52f151d300000000000000000000000000000000000000000000000000000000815260040160405180910390fd5b6114a161141c846122cb565b60405160200161142c9190613f3b565b6040516020818303038152906040526001848c8c899060208b61144f9190614c7e565b9261145c93929190614b1a565b906114679190614bf3565b8d8d60208b6114769190614c7e565b9060408c6114849190614c7e565b9261149193929190614b1a565b9061149c9190614bf3565b6123ea565b96505050505050505b95945050505050565b5f82826040516020016114c7929190614cb1565b60405160208183030381529060405280519060200120905092915050565b5f611512835f0160208101906114fb919061407a565b838580610100019061150d9190614ce4565b611c61565b1561151f575f9050611524565b600190505b92915050565b5f5f5f5f8473ffffffffffffffffffffffffffffffffffffffff1673ffffffffffffffffffffffffffffffffffffffff1681526020019081526020015f205f0160010160149054906101000a900460ff1690505f8160ff161461158d5780611590565b60015b915050919050565b5f6115a585858585611c61565b9050949350505050565b60606115f960015f8473ffffffffffffffffffffffffffffffffffffffff1673ffffffffffffffffffffffffffffffffffffffff1681526020019081526020015f206001016122a9565b9050919050565b5f8260ff161480611614575060028260ff16115b1561164b576040517faabd5a0900000000000000000000000000000000000000000000000000000000815260040160405180910390fd5b60028260ff16036116f3575f73ffffffffffffffffffffffffffffffffffffffff168473ffffffffffffffffffffffffffffffffffffffff1614806116bb57505f73ffffffffffffffffffffffffffffffffffffffff168373ffffffffffffffffffffffffffffffffffffffff16145b156116f2576040517fc13a2f9c00000000000000000000000000000000000000000000000000000000815260040160405180910390fd5b5b5f5f5f3373ffffffffffffffffffffffffffffffffffffffff1673ffffffffffffffffffffffffffffffffffffffff1681526020019081526020015f2090505f815f01905085815f015f6101000a81548173ffffffffffffffffffffffffffffffffffffffff021916908373ffffffffffffffffffffffffffffffffffffffff16021790555084816001015f6101000a81548173ffffffffffffffffffffffffffffffffffffffff021916908373ffffffffffffffffffffffffffffffffffffffff160217905550838160010160146101000a81548160ff021916908360ff160217905550825f0135826003015f0181905550826020013582600301600101819055503373ffffffffffffffffffffffffffffffffffffffff167f8c9b95560ebc765223ef2ae107bb7b8c01b56c7d140261f67542da22e4a9471f87878760405161184093929190614612565b60405180910390a2505050505050565b868685858065ffffffffffff16421115611896576040517fd3c92b0d00000000000000000000000000000000000000000000000000000000815260040160405180910390fd5b5f5f8573ffffffffffffffffffffffffffffffffffffffff1673ffffffffffffffffffffffffffffffffffffffff1681526020019081526020015f206002015f8381526020019081526020015f205f9054906101000a900460ff1615611928576040517f1fb09b8000000000000000000000000000000000000000000000000000000000815260040160405180910390fd5b5f83141580156119385750468314155b1561196f576040517f7a47c9a200000000000000000000000000000000000000000000000000000000815260040160405180910390fd5b60015f5f8673ffffffffffffffffffffffffffffffffffffffff1673ffffffffffffffffffffffffffffffffffffffff1681526020019081526020015f206002015f8481526020019081526020015f205f6101000a81548160ff0219169083151502179055505f6119e38c8c8c8c8c611c12565b90505f5f5f8e73ffffffffffffffffffffffffffffffffffffffff1673ffffffffffffffffffffffffffffffffffffffff1681526020019081526020015f205f0190505f611a3382848b8b612579565b9050611a3f8e8d611cd0565b8b5f016020810190611a519190613e90565b61ffff168173ffffffffffffffffffffffffffffffffffffffff168f73ffffffffffffffffffffffffffffffffffffffff167fe03b4c30661857d0903939c8f7efa127ae05d3d45b1e8c13a5eda76a84e1e69b8e604051611ab291906140b4565b60405180910390a45050505050505050505050505050565b5f5f611b1460015f8573ffffffffffffffffffffffffffffffffffffffff1673ffffffffffffffffffffffffffffffffffffffff1681526020019081526020015f20600101611d3c565b119050919050565b5f6001821480611b2c5750600782145b9050919050565b5f5f5f5f5f5f8673ffffffffffffffffffffffffffffffffffffffff1673ffffffffffffffffffffffffffffffffffffffff1681526020019081526020015f205f019050805f015f9054906101000a900473ffffffffffffffffffffffffffffffffffffffff16816001015f9054906101000a900473ffffffffffffffffffffffffffffffffffffffff168260010160149054906101000a900460ff16935093509350509193909250565b5f611beb33858585611c61565b15611bff57631626ba7e60e01b9050611c0a565b63ffffffff60e01b90505b949350505050565b5f611c56611c518787875f016020810190611c2d9190613e90565b886020013589604001358a6060016020810190611c4a9190614d70565b8a8a6125c6565b612644565b905095945050505050565b5f6003838390501015611c76575f9050611cc8565b5f83835f818110611c8a57611c89614ae5565b5b9050013560f81c60f81b60f81c60ff1690505f8103611cb757611caf868686866126b8565b915050611cc8565b611cc486868686856127ec565b9150505b949350505050565b806060016020810190611ce39190614d70565b15611d1257611d0d82825f016020810190611cfe9190613e90565b836020013584604001356129f9565b611d38565b611d3782825f016020810190611d289190613e90565b83602001358460400135611dd0565b5b5050565b5f611d4e611d4983612c11565b612c1a565b9050919050565b5f611d6a611d6284612c11565b835f1b612c67565b905092915050565b5f611dc8611dc38473ffffffffffffffffffffffffffffffffffffffff165f1b847ffb6589b6e5ad7910fb567f4d28fb25cf229f96df6c10eb79e8dd22184cf9e7da612d779092919063ffffffff16565b612d98565b905092915050565b5f60015f8673ffffffffffffffffffffffffffffffffffffffff1673ffffffffffffffffffffffffffffffffffffffff1681526020019081526020015f2090505f611e1d82600101611d3c565b90505f8103611e6357856040517ff91bd6f1000000000000000000000000000000000000000000000000000000008152600401611e5a9190614712565b60405180910390fd5b60408110611e9d576040517f7732141400000000000000000000000000000000000000000000000000000000815260040160405180910390fd5b611eaa8287878787611eb2565b505050505050565b611ec0825f1c825f1c612e14565b611ef6576040517fa2d0fee800000000000000000000000000000000000000000000000000000000815260040160405180910390fd5b5f8361ffff169050611f14818760010161300190919063ffffffff16565b611f5557836040517fff60a9fd000000000000000000000000000000000000000000000000000000008152600401611f4c919061473a565b60405180910390fd5b604051806040016040528084815260200183815250865f015f8381526020019081526020015f205f820151815f0155602082015181600101559050508361ffff168573ffffffffffffffffffffffffffffffffffffffff167fda884d5d59662b1731710a4f6407c966163e54e01dc2bddd947aab99e95ca2938585604051611fde929190614003565b60405180910390a3505050505050565b60028260ff16111561202c576040517faabd5a0900000000000000000000000000000000000000000000000000000000815260040160405180910390fd5b60028260ff16036120d4575f73ffffffffffffffffffffffffffffffffffffffff168473ffffffffffffffffffffffffffffffffffffffff16148061209c57505f73ffffffffffffffffffffffffffffffffffffffff168373ffffffffffffffffffffffffffffffffffffffff16145b156120d3576040517fc13a2f9c00000000000000000000000000000000000000000000000000000000815260040160405180910390fd5b5b5f5f5f8773ffffffffffffffffffffffffffffffffffffffff1673ffffffffffffffffffffffffffffffffffffffff1681526020019081526020015f2090505f815f01905085815f015f6101000a81548173ffffffffffffffffffffffffffffffffffffffff021916908373ffffffffffffffffffffffffffffffffffffffff16021790555084816001015f6101000a81548173ffffffffffffffffffffffffffffffffffffffff021916908373ffffffffffffffffffffffffffffffffffffffff160217905550838160010160146101000a81548160ff021916908360ff160217905550825f0151826003015f0181905550826020015182600301600101819055508673ffffffffffffffffffffffffffffffffffffffff167f8c9b95560ebc765223ef2ae107bb7b8c01b56c7d140261f67542da22e4a9471f87878760405161222193929190614612565b60405180910390a250505050505050565b6060806040518060400160405280601081526020017f4f6e654175746856616c696461746f720000000000000000000000000000000081525091506040518060400160405280600581526020017f312e302e3000000000000000000000000000000000000000000000000000000081525090509091565b60606122c46122bf6122ba84612c11565b61301e565b6130e5565b9050919050565b5f612307612302837fa5a505152e3529fa0b604100bdbc62aa67739181383273446e82d3023b082e996130ef90919063ffffffff16565b612644565b9050919050565b612316613b8f565b5f604684849050101561232e57815f915091506123e3565b5f8480356080850152602081013560a085015260408101358060f01c604086015261ffff8160e01c16606086015261ffff8160d01c16925050508060466123759190614c7e565b85859050101561238b57825f92509250506123e3565b8481604601850360405183815283604684016020830137808652601f19601f850116602001808201838152838660460186016020830137806020890152601f19601f8501166020018101604052505050505060019150505b9250929050565b5f5f5f6123f988600180613103565b90506020860151805160208201604089015160608a01518551600d81017f226368616c6c656e6765223a220000000000000000000000000000000000000060981c8852858482011060228286880101515f1a14168160138a01208286880120141686846014011085851760801c107f2274797065223a22776562617574686e2e67657422000000000000000000000060581c8588015160581c1416169950818852505050508851518a151560021b600117808160218d510151161460208311891616975087156124f55760208b510182810180516020600160208701856020868c8c60025afa60011b5afa5199508082523d6124f157fe5b5050505b50505050508215612518576125158287608001518860a00151888861320d565b92505b505095945050505050565b5f831561256c578360051b8501855b600115612569578035841160051b8481528135602082185260405f2094506020820191508282106125635750612569565b50612532565b50505b8282149050949350505050565b5f5f8560010160149054906101000a900460ff16905060018160ff16116125ae576125a6868686866132a8565b9150506125be565b6125ba86868686613470565b9150505b949350505050565b5f6126367f940ae5f932b9cb11db32984a210a12b57602e8b7b980dbc8bce9539ae0ce9d2c8a73ffffffffffffffffffffffffffffffffffffffff165f1b8a5f1b8a61ffff165f1b8a8a8a61261b575f61261e565b60015b60ff165f1b8a5f1b8a65ffffffffffff165f1b613719565b905098975050505050505050565b5f5f5f61264f612232565b915091506040517f91ab3d17e3a50a9d89e63fd30b92be7f5336b03b287bb946787a83a9d62a27665f5282516020840120602052815160208301206040523060605260805f206020526119015f52846040526042601e209350806040525f606052505050919050565b5f5f83836001906003926126ce93929190614b1a565b906126d99190614dc6565b60f01c90505f8161ffff1690505f60015f8973ffffffffffffffffffffffffffffffffffffffff1673ffffffffffffffffffffffffffffffffffffffff1681526020019081526020015f205f015f8381526020019081526020015f206040518060400160405290815f820154815260200160018201548152505090505f5f1b815f01510361276c575f93505050506127e4565b5f5f6127898888600390809261278493929190614b1a565b61230e565b915091508061279f575f955050505050506127e4565b6127dc6127ac8b8b611d72565b6040516020016127bc9190613f3b565b604051602081830303815290604052600184865f015187602001516123ea565b955050505050505b949350505050565b5f60208211156127fe575f90506129f0565b5f600583901b60216128109190614c7e565b905060028161281f9190614c7e565b858590501015612832575f9150506129f0565b5f858560019060219261284793929190614b1a565b906128529190614bf3565b90505f8888604051602001612868929190614cb1565b604051602081830303815290604052805190602001209050365f60218901915086905061289782828686612523565b6128a8575f955050505050506129f0565b5050505f868684906002866128bd9190614c7e565b926128ca93929190614b1a565b906128d59190614dc6565b60f01c90505f8161ffff1690505f60015f8c73ffffffffffffffffffffffffffffffffffffffff1673ffffffffffffffffffffffffffffffffffffffff1681526020019081526020015f205f015f8381526020019081526020015f206040518060400160405290815f820154815260200160018201548152505090505f5f1b815f01510361296a575f955050505050506129f0565b5f5f6129928b8b60028a61297e9190614c7e565b90809261298d93929190614b1a565b61230e565b91509150806129aa575f9750505050505050506129f0565b6129e66129b6876122cb565b6040516020016129c69190613f3b565b604051602081830303815290604052600184865f015187602001516123ea565b9750505050505050505b95945050505050565b5f60015f8673ffffffffffffffffffffffffffffffffffffffff1673ffffffffffffffffffffffffffffffffffffffff1681526020019081526020015f2090505f612a4682600101611d3c565b90505f8103612a8c57856040517ff91bd6f1000000000000000000000000000000000000000000000000000000008152600401612a839190614712565b60405180910390fd5b612a9a845f1c845f1c612e14565b612ad0576040517fa2d0fee800000000000000000000000000000000000000000000000000000000815260040160405180910390fd5b5f8561ffff169050612aee818460010161376690919063ffffffff16565b612b2f57856040517fec6a6bda000000000000000000000000000000000000000000000000000000008152600401612b26919061473a565b60405180910390fd5b604051806040016040528086815260200185815250835f015f8381526020019081526020015f205f820151815f0155602082015181600101559050508561ffff168773ffffffffffffffffffffffffffffffffffffffff167faf333fa2fc1dbe79c8609d693a59ee1a03e0d893e2573e6e5fc6e8fe97c5aed560405160405180910390a38561ffff168773ffffffffffffffffffffffffffffffffffffffff167fda884d5d59662b1731710a4f6407c966163e54e01dc2bddd947aab99e95ca2938787604051612c00929190614003565b60405180910390a350505050505050565b5f819050919050565b5f5f612c2583613783565b90508019548060011c925080612c60575f92508282015415612c6057600192508282015415612c6057600292508282015415612c6057600392505b5050919050565b5f5f612c7284613783565b905068fbb67fda52d4bfb8bf8303612c915763f5a267f15f526004601cfd5b82612ca35768fbb67fda52d4bfb8bf92505b801954600115612d6f5780612d18576001925083825403612cda5760018201548255600282015460018301555f6002830155612d6f565b83600183015403612cfa57600282015460018301555f6002830155612d6f565b83600283015403612d10575f6002830155612d6f565b5f9250612d6f565b81602052835f5260405f20805480612d31575050612d6f565b60018360011c039250826001820314612d5b57828401548060018303860155805f528160405f2055505b60018360011b178419555f82556001945050505b505092915050565b5f604051848152836020820152826040820152606081209150509392505050565b5f612da161379a565b15612db557612dae61379e565b9050612df1565b7f00000000000000000000000000000000000000000000000000000000000000009050612de0613866565b15612df057612ded61379e565b90505b5b6719010000000000005f5280601a5281603a52604260182090505f603a52919050565b5f5f831480612e2257505f82145b80612e4d57507fffffffff00000001000000000000000000000000ffffffffffffffffffffffff8310155b80612e7857507fffffffff00000001000000000000000000000000ffffffffffffffffffffffff8210155b15612e85575f9050612ffb565b5f7fffffffff00000001000000000000000000000000ffffffffffffffffffffffff80612eb557612eb4614e24565b5b83840990505f7fffffffff00000001000000000000000000000000ffffffffffffffffffffffff80612eea57612ee9614e24565b5b7f5ac635d8aa3a93e7b3ebbd55769886bc651d06b0cc53b0f63bce3c3e27d2604b7fffffffff00000001000000000000000000000000ffffffffffffffffffffffff80612f3a57612f39614e24565b5b7fffffffff00000001000000000000000000000000ffffffffffffffffffffffff80612f6957612f68614e24565b5b7fffffffff00000001000000000000000000000000fffffffffffffffffffffffc89097fffffffff00000001000000000000000000000000ffffffffffffffffffffffff80612fbb57612fba614e24565b5b897fffffffff00000001000000000000000000000000ffffffffffffffffffffffff80612feb57612fea614e24565b5b8b8c090908089050808214925050505b92915050565b5f61301661300e84612c11565b835f1b6138be565b905092915050565b60605f61302a83613783565b905068fbb67fda52d4bfb8bf8119546040519350836020016001156130d057816130a1578354801561309b57600192508381141581028252828501549050801561309a576002925083811415810260208301528285015490508015613099576003925083811415810260408301525b5b5b506130d0565b8160011c91505f5b828110156130ce57808501548481141581028260051b840152506001810190506130a9565b505b8185528160051b810160405250505050919050565b6060819050919050565b5f825f528160205260405f20905092915050565b606083518015613205576003600282010460021b60405192507f4142434445464748494a4b4c4d4e4f505152535455565758595a616263646566601f526106708515027f6768696a6b6c6d6e6f707172737475767778797a303132333435363738392d5f18603f526020830181810183886020010180515f82525b6001156131d25760038a0199508951603f8160121c16515f53603f81600c1c1651600153603f8160061c1651600253603f8116516003535f5185526004850194508385106131cc57506131d2565b5061317e565b8082526020830160405260038606600204613d3d60f01b81860352808915150290505f8186035280860388525050505050505b509392505050565b5f6040518681528560208201528460408201528360608201528260808201525f5f5260205f60a0836101005afa503d613273576d1ab2e8006fd8b71907bf06a5bdee3b6132725760205f60a0836dd01ea45f9efd5c54f037fa57ea1a5afa61327157fe5b5b5b5f516001147f7fffffff800000007fffffffffffffffde737d56d38bcf4279dce5617e3192a886111091505095945050505050565b5f5f83839050036132e5576040517f042a9b6400000000000000000000000000000000000000000000000000000000815260040160405180910390fd5b5f83835f8181106132f9576132f8614ae5565b5b9050013560f81c60f81b60f81c9050365f8585600190809261331d93929190614b1a565b915091505f8360ff160361335557875f015f9054906101000a900473ffffffffffffffffffffffffffffffffffffffff1693506133be565b60018360ff160361338b57876001015f9054906101000a900473ffffffffffffffffffffffffffffffffffffffff1693506133bd565b6040517f062e942d00000000000000000000000000000000000000000000000000000000815260040160405180910390fd5b5b5f73ffffffffffffffffffffffffffffffffffffffff168473ffffffffffffffffffffffffffffffffffffffff1603613423576040517fba53e96500000000000000000000000000000000000000000000000000000000815260040160405180910390fd5b61342f848884846139e7565b613465576040517f07a81bc400000000000000000000000000000000000000000000000000000000815260040160405180910390fd5b505050949350505050565b5f60028383905010156134af576040517f042a9b6400000000000000000000000000000000000000000000000000000000815260040160405180910390fd5b5f83835f906002926134c393929190614b1a565b906134ce9190614dc6565b60f01c61ffff1660026134e19190614c7e565b905080848490501015613520576040517f07a81bc400000000000000000000000000000000000000000000000000000000815260040160405180910390fd5b5f73ffffffffffffffffffffffffffffffffffffffff16865f015f9054906101000a900473ffffffffffffffffffffffffffffffffffffffff1673ffffffffffffffffffffffffffffffffffffffff1614806135ca57505f73ffffffffffffffffffffffffffffffffffffffff16866001015f9054906101000a900473ffffffffffffffffffffffffffffffffffffffff1673ffffffffffffffffffffffffffffffffffffffff16145b15613601576040517fba53e96500000000000000000000000000000000000000000000000000000000815260040160405180910390fd5b613640865f015f9054906101000a900473ffffffffffffffffffffffffffffffffffffffff16868686600290869261363b93929190614b1a565b6139e7565b613676576040517f07a81bc400000000000000000000000000000000000000000000000000000000815260040160405180910390fd5b6136b5866001015f9054906101000a900473ffffffffffffffffffffffffffffffffffffffff16868686859080926136b093929190614b1a565b6139e7565b6136eb576040517f07a81bc400000000000000000000000000000000000000000000000000000000815260040160405180910390fd5b855f015f9054906101000a900473ffffffffffffffffffffffffffffffffffffffff16915050949350505050565b5f6040518a81528960208201528860408201528760608201528660808201528560a08201528460c08201528360e08201528261010082015261012081209150509998505050505050505050565b5f61377b61377384612c11565b835f1b613ae8565b905092915050565b5f6318fb5864600452815f5260245f209050919050565b5f90565b5f5f6137a861379a565b156137d6575f5f6137b7612232565b915091508180519060200120935080805190602001209250505061381d565b7f000000000000000000000000000000000000000000000000000000000000000091507f000000000000000000000000000000000000000000000000000000000000000090505b6040517f8b73c3c69bb8fe3d512ecc4cf759cc79239f7b179b0ffacaa9a75d522b39400f815282602082015281604082015246606082015230608082015260a081209250505090565b5f5f7f000000000000000000000000000000000000000000000000000000000000000090505f7f0000000000000000000000000000000000000000000000000000000000000000905080301482461416159250505090565b5f5f6138c984613783565b905068fbb67fda52d4bfb8bf83036138e85763f5a267f15f526004601cfd5b826138fa5768fbb67fda52d4bfb8bf92505b8019546001156139df5781602052806139a8578154806139215784835560019350506139df565b84810361392e57506139df565b600183015480613949578560018501556001945050506139df565b8581036139575750506139df565b60028401548061397357866002860155600195505050506139df565b868103613982575050506139df565b825f52600160405f2055815f52600260405f2055805f52600360405f2055600793505050505b835f5260405f2080546139dd578160011c915084828401558160010181558160010160011b60011783195560019350506139df565b505b505092915050565b5f5f73ffffffffffffffffffffffffffffffffffffffff168573ffffffffffffffffffffffffffffffffffffffff160315613ae057604051600115613ade57853b613aa0578260408114613a435760418114613a675750613ade565b6020850135601b8160ff1c0160205285356040528060011b60011c60605250613a78565b60408501355f1a6020526040856040375b50845f526020600160805f60015afa5180871860601b3d1192505f6060528160405250613ade565b631626ba7e60e01b80825285600483015260248201604081528460448401528486606485013760208160648701858b5afa9350838282511416935050505b505b949350505050565b5f5f613af384613783565b905068fbb67fda52d4bfb8bf8303613b125763f5a267f15f526004601cfd5b82613b245768fbb67fda52d4bfb8bf92505b600115613b7057801954613b5f57600191508281540315613b70578260018201540315613b70578260028201540315613b70575f9150613b70565b80602052825f5260405f2054151591505b5092915050565b60405180604001604052805f81526020015f81525090565b6040518060c0016040528060608152602001606081526020015f81526020015f81526020015f81526020015f81525090565b5f81519050919050565b5f82825260208201905092915050565b8281835e5f83830152505050565b5f601f19601f8301169050919050565b5f613c0382613bc1565b613c0d8185613bcb565b9350613c1d818560208601613bdb565b613c2681613be9565b840191505092915050565b5f6020820190508181035f830152613c498184613bf9565b905092915050565b5f604051905090565b5f5ffd5b5f5ffd5b5f73ffffffffffffffffffffffffffffffffffffffff82169050919050565b5f613c8b82613c62565b9050919050565b613c9b81613c81565b8114613ca5575f5ffd5b50565b5f81359050613cb681613c92565b92915050565b5f819050919050565b613cce81613cbc565b8114613cd8575f5ffd5b50565b5f81359050613ce981613cc5565b92915050565b5f5ffd5b5f60808284031215613d0857613d07613cef565b5b81905092915050565b5f65ffffffffffff82169050919050565b613d2b81613d11565b8114613d35575f5ffd5b50565b5f81359050613d4681613d22565b92915050565b5f5ffd5b5f5ffd5b5f5ffd5b5f5f83601f840112613d6d57613d6c613d4c565b5b8235905067ffffffffffffffff811115613d8a57613d89613d50565b5b602083019150836001820283011115613da657613da5613d54565b5b9250929050565b5f5f5f5f5f5f5f610120888a031215613dc957613dc8613c5a565b5b5f613dd68a828b01613ca8565b9750506020613de78a828b01613cdb565b9650506040613df88a828b01613cf3565b95505060c0613e098a828b01613cdb565b94505060e0613e1a8a828b01613d38565b93505061010088013567ffffffffffffffff811115613e3c57613e3b613c5e565b5b613e488a828b01613d58565b925092505092959891949750929550565b5f61ffff82169050919050565b613e6f81613e59565b8114613e79575f5ffd5b50565b5f81359050613e8a81613e66565b92915050565b5f60208284031215613ea557613ea4613c5a565b5b5f613eb284828501613e7c565b91505092915050565b5f819050919050565b613ecd81613ebb565b8114613ed7575f5ffd5b50565b5f81359050613ee881613ec4565b92915050565b5f5f60408385031215613f0457613f03613c5a565b5b5f613f1185828601613ca8565b9250506020613f2285828601613eda565b9150509250929050565b613f3581613ebb565b82525050565b5f602082019050613f4e5f830184613f2c565b92915050565b5f5f60408385031215613f6a57613f69613c5a565b5b5f613f7785828601613ca8565b9250506020613f8885828601613cdb565b9150509250929050565b5f8115159050919050565b613fa681613f92565b82525050565b5f602082019050613fbf5f830184613f9d565b92915050565b5f5f60408385031215613fdb57613fda613c5a565b5b5f613fe885828601613e7c565b9250506020613ff985828601613ca8565b9150509250929050565b5f6040820190506140165f830185613f2c565b6140236020830184613f2c565b9392505050565b5f5f5f6060848603121561404157614040613c5a565b5b5f61404e86828701613e7c565b935050602061405f86828701613eda565b925050604061407086828701613eda565b9150509250925092565b5f6020828403121561408f5761408e613c5a565b5b5f61409c84828501613ca8565b91505092915050565b6140ae81613cbc565b82525050565b5f6020820190506140c75f8301846140a5565b92915050565b5f5f602083850312156140e3576140e2613c5a565b5b5f83013567ffffffffffffffff811115614100576140ff613c5e565b5b61410c85828601613d58565b92509250509250929050565b5f7fff0000000000000000000000000000000000000000000000000000000000000082169050919050565b61414c81614118565b82525050565b61415b81613c81565b82525050565b5f81519050919050565b5f82825260208201905092915050565b5f819050602082019050919050565b61419381613cbc565b82525050565b5f6141a4838361418a565b60208301905092915050565b5f602082019050919050565b5f6141c682614161565b6141d0818561416b565b93506141db8361417b565b805f5b8381101561420b5781516141f28882614199565b97506141fd836141b0565b9250506001810190506141de565b5085935050505092915050565b5f60e08201905061422b5f83018a614143565b818103602083015261423d8189613bf9565b905081810360408301526142518188613bf9565b905061426060608301876140a5565b61426d6080830186614152565b61427a60a0830185613f2c565b81810360c083015261428c81846141bc565b905098975050505050505050565b6142a381613ebb565b82525050565b604082015f8201516142bd5f85018261429a565b5060208201516142d0602085018261429a565b50505050565b5f6040820190506142e95f8301846142a9565b92915050565b5f6020828403121561430457614303613c5a565b5b5f61431184828501613eda565b91505092915050565b5f5f5f5f5f6060868803121561433357614332613c5a565b5b5f61434088828901613eda565b955050602086013567ffffffffffffffff81111561436157614360613c5e565b5b61436d88828901613d58565b9450945050604086013567ffffffffffffffff8111156143905761438f613c5e565b5b61439c88828901613d58565b92509250509295509295909350565b5f61012082840312156143c1576143c0613cef565b5b81905092915050565b5f5f604083850312156143e0576143df613c5a565b5b5f83013567ffffffffffffffff8111156143fd576143fc613c5e565b5b614409858286016143ab565b925050602061441a85828601613eda565b9150509250929050565b5f819050919050565b5f61444761444261443d84613cbc565b614424565b613cbc565b9050919050565b6144578161442d565b82525050565b5f6020820190506144705f83018461444e565b92915050565b5f60ff82169050919050565b61448b81614476565b82525050565b5f6020820190506144a45f830184614482565b92915050565b5f5f5f5f606085870312156144c2576144c1613c5a565b5b5f6144cf87828801613ca8565b94505060206144e087828801613eda565b935050604085013567ffffffffffffffff81111561450157614500613c5e565b5b61450d87828801613d58565b925092505092959194509250565b5f6020820190508181035f83015261453381846141bc565b905092915050565b61454481614476565b811461454e575f5ffd5b50565b5f8135905061455f8161453b565b92915050565b5f6040828403121561457a57614579613cef565b5b81905092915050565b5f5f5f5f60a0858703121561459b5761459a613c5a565b5b5f6145a887828801613ca8565b94505060206145b987828801613ca8565b93505060406145ca87828801614551565b92505060606145db87828801614565565b91505092959194509250565b5f602082840312156145fc576145fb613c5a565b5b5f61460984828501613cdb565b91505092915050565b5f6060820190506146255f830186614152565b6146326020830185614152565b61463f6040830184614482565b949350505050565b5f7fffffffff0000000000000000000000000000000000000000000000000000000082169050919050565b61467b81614647565b82525050565b5f6020820190506146945f830184614672565b92915050565b5f5f5f5f5f61010086880312156146b4576146b3613c5a565b5b5f6146c188828901613ca8565b95505060206146d288828901613cdb565b94505060406146e388828901613cf3565b93505060c06146f488828901613cdb565b92505060e061470588828901613d38565b9150509295509295909350565b5f6020820190506147255f830184614152565b92915050565b61473481613e59565b82525050565b5f60208201905061474d5f83018461472b565b92915050565b7f4e487b71000000000000000000000000000000000000000000000000000000005f52604160045260245ffd5b61478982613be9565b810181811067ffffffffffffffff821117156147a8576147a7614753565b5b80604052505050565b5f6147ba613c51565b90506147c68282614780565b919050565b5f67ffffffffffffffff8211156147e5576147e4614753565b5b602082029050602081019050919050565b5f614808614803846147cb565b6147b1565b9050808382526020820190506020840283018581111561482b5761482a613d54565b5b835b8181101561485457806148408882613e7c565b84526020840193505060208101905061482d565b5050509392505050565b5f82601f83011261487257614871613d4c565b5b81356148828482602086016147f6565b91505092915050565b5f67ffffffffffffffff8211156148a5576148a4614753565b5b602082029050602081019050919050565b5f5ffd5b5f604082840312156148cf576148ce6148b6565b5b6148d960406147b1565b90505f6148e884828501613eda565b5f8301525060206148fb84828501613eda565b60208301525092915050565b5f6149196149148461488b565b6147b1565b9050808382526020820190506040840283018581111561493c5761493b613d54565b5b835b81811015614965578061495188826148ba565b84526020840193505060408101905061493e565b5050509392505050565b5f82601f83011261498357614982613d4c565b5b8135614993848260208601614907565b91505092915050565b5f6149a682613c62565b9050919050565b6149b68161499c565b81146149c0575f5ffd5b50565b5f813590506149d1816149ad565b92915050565b5f604082840312156149ec576149eb6148b6565b5b6149f660406147b1565b90505f614a0584828501613eda565b5f830152506020614a1884828501613eda565b60208301525092915050565b5f5f5f5f5f5f60e08789031215614a3e57614a3d613c5a565b5b5f87013567ffffffffffffffff811115614a5b57614a5a613c5e565b5b614a6789828a0161485e565b965050602087013567ffffffffffffffff811115614a8857614a87613c5e565b5b614a9489828a0161496f565b9550506040614aa589828a016149c3565b9450506060614ab689828a016149c3565b9350506080614ac789828a01614551565b92505060a0614ad889828a016149d7565b9150509295509295509295565b7f4e487b71000000000000000000000000000000000000000000000000000000005f52603260045260245ffd5b5f5ffd5b5f5ffd5b5f5f85851115614b2d57614b2c614b12565b5b83861115614b3e57614b3d614b16565b5b6001850283019150848603905094509492505050565b5f82905092915050565b5f7fffffffffffffffffffffffffffffffffffffffff00000000000000000000000082169050919050565b5f82821b905092915050565b5f614ba08383614b54565b82614bab8135614b5e565b92506014821015614beb57614be67fffffffffffffffffffffffffffffffffffffffff00000000000000000000000083601403600802614b89565b831692505b505092915050565b5f614bfe8383614b54565b82614c098135613ebb565b92506020821015614c4957614c447fffffffffffffffffffffffffffffffffffffffffffffffffffffffffffffffff83602003600802614b89565b831692505b505092915050565b7f4e487b71000000000000000000000000000000000000000000000000000000005f52601160045260245ffd5b5f614c8882613cbc565b9150614c9383613cbc565b9250828201905080821115614cab57614caa614c51565b5b92915050565b5f604082019050614cc45f830185614152565b614cd16020830184613f2c565b9392505050565b5f5ffd5b5f5ffd5b5f5ffd5b5f5f83356001602003843603038112614d0057614cff614cd8565b5b80840192508235915067ffffffffffffffff821115614d2257614d21614cdc565b5b602083019250600182023603831315614d3e57614d3d614ce0565b5b509250929050565b614d4f81613f92565b8114614d59575f5ffd5b50565b5f81359050614d6a81614d46565b92915050565b5f60208284031215614d8557614d84613c5a565b5b5f614d9284828501614d5c565b91505092915050565b5f7fffff00000000000000000000000000000000000000000000000000000000000082169050919050565b5f614dd18383614b54565b82614ddc8135614d9b565b92506002821015614e1c57614e177fffff00000000000000000000000000000000000000000000000000000000000083600203600802614b89565b831692505b505092915050565b7f4e487b71000000000000000000000000000000000000000000000000000000005f52601260045260245ffdfea2646970667358221220892a7203beb188767c0232e2e814760f0040325ba45392f515145931be22604264736f6c634300081c0033","linkReferences":{}},"methodIdentifiers":{"addCredential(uint16,bytes32,bytes32)":"5e84cc61","credentialCount(address)":"69989ffb","eip712Domain()":"84b0196e","getAccountLeaf(address,bytes32)":"94529e97","getAccountRecoveryIdentifier(address)":"88fc93fe","getCredKeys(address)":"c89f2403","getCredential(uint16,address)":"3b826b0d","getPasskeyDigest(address,bytes32)":"16250b16","getPasskeyMultichain(bytes32)":"9300126d","getRecoverDigest(address,uint256,(uint16,bytes32,bytes32,bool),uint256,uint48)":"fa5565e3","guardianConfig(address)":"ed3262e1","guardianThreshold(address)":"a1cdf4ed","isInitialized(address)":"d60b347f","isModuleType(uint256)":"ecd05961","isValidSignatureWithSender(address,bytes32,bytes)":"f551e2ee","name()":"06fdde03","nonceUsed(address,uint256)":"1647795e","onInstall(bytes)":"6d61fe70","onUninstall(bytes)":"8a91b0e3","recoverWithGuardian(address,uint256,(uint16,bytes32,bytes32,bool),uint256,uint48,bytes)":"d5370a3d","recoverWithPasskey(address,uint256,(uint16,bytes32,bytes32,bool),uint256,uint48,bytes)":"0cc81a93","removeCredential(uint16)":"13c50641","setGuardianConfig(address,address,uint8,(bytes32,bytes32))":"cbf1ca32","validateSignatureForAccount(address,bytes32,bytes)":"a45efa49","validateSignatureWithData(bytes32,bytes,bytes)":"940d3840","validateUserOp((address,uint256,bytes,bytes,bytes32,uint256,bytes32,bytes,bytes),bytes32)":"97003203","version()":"54fd4d50"},"id":59}