{"abi":[{"type":"function","name":"addCredential","inputs":[{"name":"keyId","type":"uint16","internalType":"uint16"},{"name":"pubKeyX","type":"bytes32","internalType":"bytes32"},{"name":"pubKeyY","type":"bytes32","internalType":"bytes32"}],"outputs":[],"stateMutability":"nonpayable"},{"type":"function","name":"credentialCount","inputs":[{"name":"account","type":"address","internalType":"address"}],"outputs":[{"name":"","type":"uint256","internalType":"uint256"}],"stateMutability":"view"},{"type":"function","name":"eip712Domain","inputs":[],"outputs":[{"name":"fields","type":"bytes1","internalType":"bytes1"},{"name":"name","type":"string","internalType":"string"},{"name":"version","type":"string","internalType":"string"},{"name":"chainId","type":"uint256","internalType":"uint256"},{"name":"verifyingContract","type":"address","internalType":"address"},{"name":"salt","type":"bytes32","internalType":"bytes32"},{"name":"extensions","type":"uint256[]","internalType":"uint256[]"}],"stateMutability":"view"},{"type":"function","name":"getAccountLeaf","inputs":[{"name":"account","type":"address","internalType":"address"},{"name":"digest","type":"bytes32","internalType":"bytes32"}],"outputs":[{"name":"","type":"bytes32","internalType":"bytes32"}],"stateMutability":"pure"},{"type":"function","name":"getAccountRecoveryIdentifier","inputs":[{"name":"account","type":"address","internalType":"address"}],"outputs":[{"name":"","type":"tuple","internalType":"struct OneAuthRecoveryBase.RecoveryAccountIdentifier","components":[{"name":"identitySalt","type":"bytes32","internalType":"bytes32"},{"name":"identityCommitment","type":"bytes32","internalType":"bytes32"}]}],"stateMutability":"view"},{"type":"function","name":"getCredKeys","inputs":[{"name":"account","type":"address","internalType":"address"}],"outputs":[{"name":"","type":"uint256[]","internalType":"uint256[]"}],"stateMutability":"view"},{"type":"function","name":"getCredential","inputs":[{"name":"keyId","type":"uint16","internalType":"uint16"},{"name":"account","type":"address","internalType":"address"}],"outputs":[{"name":"pubKeyX","type":"bytes32","internalType":"bytes32"},{"name":"pubKeyY","type":"bytes32","internalType":"bytes32"}],"stateMutability":"view"},{"type":"function","name":"getPasskeyDigest","inputs":[{"name":"account","type":"address","internalType":"address"},{"name":"digest","type":"bytes32","internalType":"bytes32"}],"outputs":[{"name":"","type":"bytes32","internalType":"bytes32"}],"stateMutability":"view"},{"type":"function","name":"getPasskeyMultichain","inputs":[{"name":"root","type":"bytes32","internalType":"bytes32"}],"outputs":[{"name":"","type":"bytes32","internalType":"bytes32"}],"stateMutability":"view"},{"type":"function","name":"getRecoverDigest","inputs":[{"name":"account","type":"address","internalType":"address"},{"name":"chainId","type":"uint256","internalType":"uint256"},{"name":"cred","type":"tuple","internalType":"struct OneAuthRecoveryBase.NewCredential","components":[{"name":"keyId","type":"uint16","internalType":"uint16"},{"name":"pubKeyX","type":"bytes32","internalType":"bytes32"},{"name":"pubKeyY","type":"bytes32","internalType":"bytes32"},{"name":"replace","type":"bool","internalType":"bool"}]},{"name":"nonce","type":"uint256","internalType":"uint256"},{"name":"expiry","type":"uint48","internalType":"uint48"}],"outputs":[{"name":"","type":"bytes32","internalType":"bytes32"}],"stateMutability":"view"},{"type":"function","name":"guardianConfig","inputs":[{"name":"account","type":"address","internalType":"address"}],"outputs":[{"name":"userGuardian","type":"address","internalType":"address"},{"name":"externalGuardian","type":"address","internalType":"address"},{"name":"threshold","type":"uint8","internalType":"uint8"}],"stateMutability":"view"},{"type":"function","name":"guardianThreshold","inputs":[{"name":"account","type":"address","internalType":"address"}],"outputs":[{"name":"","type":"uint8","internalType":"uint8"}],"stateMutability":"view"},{"type":"function","name":"isInitialized","inputs":[{"name":"smartAccount","type":"address","internalType":"address"}],"outputs":[{"name":"","type":"bool","internalType":"bool"}],"stateMutability":"view"},{"type":"function","name":"isModuleType","inputs":[{"name":"typeID","type":"uint256","internalType":"uint256"}],"outputs":[{"name":"","type":"bool","internalType":"bool"}],"stateMutability":"pure"},{"type":"function","name":"isValidSignatureWithSender","inputs":[{"name":"","type":"address","internalType":"address"},{"name":"hash","type":"bytes32","internalType":"bytes32"},{"name":"data","type":"bytes","internalType":"bytes"}],"outputs":[{"name":"","type":"bytes4","internalType":"bytes4"}],"stateMutability":"view"},{"type":"function","name":"name","inputs":[],"outputs":[{"name":"","type":"string","internalType":"string"}],"stateMutability":"pure"},{"type":"function","name":"nonceUsed","inputs":[{"name":"account","type":"address","internalType":"address"},{"name":"nonce","type":"uint256","internalType":"uint256"}],"outputs":[{"name":"","type":"bool","internalType":"bool"}],"stateMutability":"view"},{"type":"function","name":"onInstall","inputs":[{"name":"data","type":"bytes","internalType":"bytes"}],"outputs":[],"stateMutability":"nonpayable"},{"type":"function","name":"onUninstall","inputs":[{"name":"","type":"bytes","internalType":"bytes"}],"outputs":[],"stateMutability":"nonpayable"},{"type":"function","name":"recoverWithGuardian","inputs":[{"name":"account","type":"address","internalType":"address"},{"name":"chainId","type":"uint256","internalType":"uint256"},{"name":"cred","type":"tuple","internalType":"struct OneAuthRecoveryBase.NewCredential","components":[{"name":"keyId","type":"uint16","internalType":"uint16"},{"name":"pubKeyX","type":"bytes32","internalType":"bytes32"},{"name":"pubKeyY","type":"bytes32","internalType":"bytes32"},{"name":"replace","type":"bool","internalType":"bool"}]},{"name":"nonce","type":"uint256","internalType":"uint256"},{"name":"expiry","type":"uint48","internalType":"uint48"},{"name":"guardianSig","type":"bytes","internalType":"bytes"}],"outputs":[],"stateMutability":"nonpayable"},{"type":"function","name":"recoverWithPasskey","inputs":[{"name":"account","type":"address","internalType":"address"},{"name":"chainId","type":"uint256","internalType":"uint256"},{"name":"cred","type":"tuple","internalType":"struct OneAuthRecoveryBase.NewCredential","components":[{"name":"keyId","type":"uint16","internalType":"uint16"},{"name":"pubKeyX","type":"bytes32","internalType":"bytes32"},{"name":"pubKeyY","type":"bytes32","internalType":"bytes32"},{"name":"replace","type":"bool","internalType":"bool"}]},{"name":"nonce","type":"uint256","internalType":"uint256"},{"name":"expiry","type":"uint48","internalType":"uint48"},{"name":"signature","type":"bytes","internalType":"bytes"}],"outputs":[],"stateMutability":"nonpayable"},{"type":"function","name":"removeCredential","inputs":[{"name":"keyId","type":"uint16","internalType":"uint16"}],"outputs":[],"stateMutability":"nonpayable"},{"type":"function","name":"setGuardianConfig","inputs":[{"name":"_userGuardian","type":"address","internalType":"address"},{"name":"_externalGuardian","type":"address","internalType":"address"},{"name":"_threshold","type":"uint8","internalType":"uint8"},{"name":"_identifier","type":"tuple","internalType":"struct OneAuthRecoveryBase.RecoveryAccountIdentifier","components":[{"name":"identitySalt","type":"bytes32","internalType":"bytes32"},{"name":"identityCommitment","type":"bytes32","internalType":"bytes32"}]}],"outputs":[],"stateMutability":"nonpayable"},{"type":"function","name":"validateSignatureForAccount","inputs":[{"name":"account","type":"address","internalType":"address"},{"name":"digest","type":"bytes32","internalType":"bytes32"},{"name":"data","type":"bytes","internalType":"bytes"}],"outputs":[{"name":"","type":"bool","internalType":"bool"}],"stateMutability":"view"},{"type":"function","name":"validateSignatureWithData","inputs":[{"name":"hash","type":"bytes32","internalType":"bytes32"},{"name":"signature","type":"bytes","internalType":"bytes"},{"name":"data","type":"bytes","internalType":"bytes"}],"outputs":[{"name":"","type":"bool","internalType":"bool"}],"stateMutability":"view"},{"type":"function","name":"validateUserOp","inputs":[{"name":"userOp","type":"tuple","internalType":"struct PackedUserOperation","components":[{"name":"sender","type":"address","internalType":"address"},{"name":"nonce","type":"uint256","internalType":"uint256"},{"name":"initCode","type":"bytes","internalType":"bytes"},{"name":"callData","type":"bytes","internalType":"bytes"},{"name":"accountGasLimits","type":"bytes32","internalType":"bytes32"},{"name":"preVerificationGas","type":"uint256","internalType":"uint256"},{"name":"gasFees","type":"bytes32","internalType":"bytes32"},{"name":"paymasterAndData","type":"bytes","internalType":"bytes"},{"name":"signature","type":"bytes","internalType":"bytes"}]},{"name":"userOpHash","type":"bytes32","internalType":"bytes32"}],"outputs":[{"name":"","type":"uint256","internalType":"ERC7579ValidatorBase.ValidationData"}],"stateMutability":"view"},{"type":"function","name":"version","inputs":[],"outputs":[{"name":"","type":"string","internalType":"string"}],"stateMutability":"pure"},{"type":"event","name":"CredentialAdded","inputs":[{"name":"account","type":"address","indexed":true,"internalType":"address"},{"name":"keyId","type":"uint16","indexed":true,"internalType":"uint16"},{"name":"pubKeyX","type":"bytes32","indexed":false,"internalType":"bytes32"},{"name":"pubKeyY","type":"bytes32","indexed":false,"internalType":"bytes32"}],"anonymous":false},{"type":"event","name":"CredentialRemoved","inputs":[{"name":"account","type":"address","indexed":true,"internalType":"address"},{"name":"keyId","type":"uint16","indexed":true,"internalType":"uint16"}],"anonymous":false},{"type":"event","name":"GuardianConfigSet","inputs":[{"name":"account","type":"address","indexed":true,"internalType":"address"},{"name":"userGuardian","type":"address","indexed":false,"internalType":"address"},{"name":"externalGuardian","type":"address","indexed":false,"internalType":"address"},{"name":"threshold","type":"uint8","indexed":false,"internalType":"uint8"}],"anonymous":false},{"type":"event","name":"GuardianRecoveryExecuted","inputs":[{"name":"account","type":"address","indexed":true,"internalType":"address"},{"name":"guardian","type":"address","indexed":true,"internalType":"address"},{"name":"newKeyId","type":"uint16","indexed":true,"internalType":"uint16"},{"name":"nonce","type":"uint256","indexed":false,"internalType":"uint256"}],"anonymous":false},{"type":"event","name":"ModuleInitialized","inputs":[{"name":"account","type":"address","indexed":true,"internalType":"address"}],"anonymous":false},{"type":"event","name":"ModuleUninitialized","inputs":[{"name":"account","type":"address","indexed":true,"internalType":"address"}],"anonymous":false},{"type":"event","name":"PasskeyRecoveryExecuted","inputs":[{"name":"account","type":"address","indexed":true,"internalType":"address"},{"name":"newKeyId","type":"uint16","indexed":true,"internalType":"uint16"},{"name":"nonce","type":"uint256","indexed":false,"internalType":"uint256"}],"anonymous":false},{"type":"error","name":"CannotRemoveLastCredential","inputs":[]},{"type":"error","name":"CredentialNotFound","inputs":[{"name":"keyId","type":"uint16","internalType":"uint16"}]},{"type":"error","name":"EmptyGuardianSignature","inputs":[]},{"type":"error","name":"GuardianNotConfigured","inputs":[]},{"type":"error","name":"InvalidChainId","inputs":[]},{"type":"error","name":"InvalidGuardianSignature","inputs":[]},{"type":"error","name":"InvalidGuardianType","inputs":[]},{"type":"error","name":"InvalidMerkleProof","inputs":[]},{"type":"error","name":"InvalidPublicKey","inputs":[]},{"type":"error","name":"InvalidRecoverySignature","inputs":[]},{"type":"error","name":"InvalidSignatureData","inputs":[]},{"type":"error","name":"InvalidThreshold","inputs":[]},{"type":"error","name":"KeyIdAlreadyExists","inputs":[{"name":"keyId","type":"uint16","internalType":"uint16"}]},{"type":"error","name":"ModuleAlreadyInitialized","inputs":[{"name":"smartAccount","type":"address","internalType":"address"}]},{"type":"error","name":"NonceAlreadyUsed","inputs":[]},{"type":"error","name":"NotInitialized","inputs":[{"name":"smartAccount","type":"address","internalType":"address"}]},{"type":"error","name":"ProofTooLong","inputs":[]},{"type":"error","name":"RecoveryExpired","inputs":[]},{"type":"error","name":"ThresholdRequiresBothGuardians","inputs":[]},{"type":"error","name":"TooManyCredentials","inputs":[]}],"bytecode":{"object":"0x610120604052348015610010575f5ffd5b503073ffffffffffffffffffffffffffffffffffffffff16608081815250504660a0818152505060608061004861012b60201b60201c565b6100635761005a61012f60201b60201c565b80925081935050505b5f61007261012b60201b60201c565b610083578280519060200120610087565b5f5f1b5b90505f61009861012b60201b60201c565b6100a95782805190602001206100ad565b5f5f1b5b90508160c081815250508060e081815250505f6100ce61012b60201b60201c565b610118576040517f8b73c3c69bb8fe3d512ecc4cf759cc79239f7b179b0ffacaa9a75d522b39400f815283602082015282604082015246606082015230608082015260a081209150505b80610100818152505050505050506101a6565b5f90565b6060806040518060400160405280601081526020017f4f6e654175746856616c696461746f720000000000000000000000000000000081525091506040518060400160405280600581526020017f312e302e3000000000000000000000000000000000000000000000000000000081525090509091565b60805160a05160c05160e05161010051614dde6101e35f395f612d6d01525f6137b101525f61378e01525f61382001525f6138440152614dde5ff3fe608060405234801561000f575f5ffd5b50600436106101a7575f3560e01c80639300126d116100f7578063cbf1ca3211610095578063ecd059611161006f578063ecd0596114610540578063ed3262e114610570578063f551e2ee146105a2578063fa5565e3146105d2576101a7565b8063cbf1ca32146104d8578063d5370a3d146104f4578063d60b347f14610510576101a7565b806397003203116100d15780639700320314610418578063a1cdf4ed14610448578063a45efa4914610478578063c89f2403146104a8576101a7565b80639300126d14610388578063940d3840146103b857806394529e97146103e8576101a7565b806354fd4d50116101645780636d61fe701161013e5780636d61fe70146102fc57806384b0196e1461031857806388fc93fe1461033c5780638a91b0e31461036c576101a7565b806354fd4d50146102925780635e84cc61146102b057806369989ffb146102cc576101a7565b806306fdde03146101ab5780630cc81a93146101c957806313c50641146101e557806316250b16146102015780631647795e146102315780633b826b0d14610261575b5f5ffd5b6101b3610602565b6040516101c09190613be7565b60405180910390f35b6101e360048036038101906101de9190613d63565b61063f565b005b6101ff60048036038101906101fa9190613e46565b610892565b005b61021b60048036038101906102169190613ea4565b610a33565b6040516102289190613ef1565b60405180910390f35b61024b60048036038101906102469190613f0a565b610a46565b6040516102589190613f62565b60405180910390f35b61027b60048036038101906102769190613f7b565b610aaa565b604051610289929190613fb9565b60405180910390f35b61029a610b1b565b6040516102a79190613be7565b60405180910390f35b6102ca60048036038101906102c59190613fe0565b610b58565b005b6102e660048036038101906102e19190614030565b610b69565b6040516102f3919061406a565b60405180910390f35b61031660048036038101906103119190614083565b610bb9565b005b610320610e51565b60405161033397969594939291906141ce565b60405180910390f35b61035660048036038101906103519190614030565b610e9c565b604051610363919061428c565b60405180910390f35b61038660048036038101906103819190614083565b610f08565b005b6103a2600480360381019061039d91906142a5565b6110c9565b6040516103af9190613ef1565b60405180910390f35b6103d260048036038101906103cd91906142d0565b6110da565b6040516103df9190613f62565b60405180910390f35b61040260048036038101906103fd9190613ea4565b61148d565b60405161040f9190613ef1565b60405180910390f35b610432600480360381019061042d9190614380565b6114bf565b60405161043f9190614413565b60405180910390f35b610462600480360381019061045d9190614030565b611504565b60405161046f9190614447565b60405180910390f35b610492600480360381019061048d9190614460565b611572565b60405161049f9190613f62565b60405180910390f35b6104c260048036038101906104bd9190614030565b611589565b6040516104cf91906144d1565b60405180910390f35b6104f260048036038101906104ed9190614539565b6115da565b005b61050e60048036038101906105099190613d63565b61182a565b005b61052a60048036038101906105259190614030565b611aa4565b6040516105379190613f62565b60405180910390f35b61055a6004803603810190610555919061459d565b611af6565b6040516105679190613f62565b60405180910390f35b61058a60048036038101906105859190614030565b611b0d565b604051610599939291906145c8565b60405180910390f35b6105bc60048036038101906105b79190614460565b611bb8565b6040516105c99190614637565b60405180910390f35b6105ec60048036038101906105e79190614650565b611bec565b6040516105f99190613ef1565b60405180910390f35b60606040518060400160405280601081526020017f4f6e654175746856616c696461746f7200000000000000000000000000000000815250905090565b868685858065ffffffffffff16421115610685576040517fd3c92b0d00000000000000000000000000000000000000000000000000000000815260040160405180910390fd5b5f5f8573ffffffffffffffffffffffffffffffffffffffff1673ffffffffffffffffffffffffffffffffffffffff1681526020019081526020015f206002015f8381526020019081526020015f205f9054906101000a900460ff1615610717576040517f1fb09b8000000000000000000000000000000000000000000000000000000000815260040160405180910390fd5b5f83141580156107275750468314155b1561075e576040517f7a47c9a200000000000000000000000000000000000000000000000000000000815260040160405180910390fd5b60015f5f8673ffffffffffffffffffffffffffffffffffffffff1673ffffffffffffffffffffffffffffffffffffffff1681526020019081526020015f206002015f8481526020019081526020015f205f6101000a81548160ff0219169083151502179055505f6107d28c8c8c8c8c611bec565b90506107e08c828989611c3b565b610816576040517f62a281f100000000000000000000000000000000000000000000000000000000815260040160405180910390fd5b6108208c8b611caa565b895f0160208101906108329190613e46565b61ffff168c73ffffffffffffffffffffffffffffffffffffffff167fecca216aa14b66eb6599c0102f4caedc012eeaac8b6caf0446c274defd1e2dd48b60405161087c919061406a565b60405180910390a3505050505050505050505050565b5f3390505f60015f8373ffffffffffffffffffffffffffffffffffffffff1673ffffffffffffffffffffffffffffffffffffffff1681526020019081526020015f2090505f6108e382600101611d16565b90505f810361092957826040517ff91bd6f100000000000000000000000000000000000000000000000000000000815260040161092091906146c8565b60405180910390fd5b60018111610963576040517fd2f2c18b00000000000000000000000000000000000000000000000000000000815260040160405180910390fd5b5f8461ffff1690506109818184600101611d2f90919063ffffffff16565b6109c257846040517fec6a6bda0000000000000000000000000000000000000000000000000000000081526004016109b991906146f0565b60405180910390fd5b825f015f8281526020019081526020015f205f5f82015f9055600182015f905550508461ffff168473ffffffffffffffffffffffffffffffffffffffff167faf333fa2fc1dbe79c8609d693a59ee1a03e0d893e2573e6e5fc6e8fe97c5aed560405160405180910390a35050505050565b5f610a3e8383611d4c565b905092915050565b5f5f5f8473ffffffffffffffffffffffffffffffffffffffff1673ffffffffffffffffffffffffffffffffffffffff1681526020019081526020015f206002015f8381526020019081526020015f205f9054906101000a900460ff16905092915050565b5f5f5f8461ffff1690505f60015f8673ffffffffffffffffffffffffffffffffffffffff1673ffffffffffffffffffffffffffffffffffffffff1681526020019081526020015f205f015f8381526020019081526020015f209050805f015481600101549350935050509250929050565b60606040518060400160405280600581526020017f312e302e30000000000000000000000000000000000000000000000000000000815250905090565b610b6433848484611daa565b505050565b5f610bb260015f8473ffffffffffffffffffffffffffffffffffffffff1673ffffffffffffffffffffffffffffffffffffffff1681526020019081526020015f20600101611d16565b9050919050565b5f339050610bc681611aa4565b15610c0857806040517f4d6b9dd3000000000000000000000000000000000000000000000000000000008152600401610bff91906146c8565b60405180910390fd5b5f5f5f5f5f8787810190610c1c919061498d565b945094509450945094505f845190505f811480610c3a575085518114155b15610c71576040517fa2d0fee800000000000000000000000000000000000000000000000000000000815260040160405180910390fd5b6040811115610cac576040517f7732141400000000000000000000000000000000000000000000000000000000815260040160405180910390fd5b5f60015f8973ffffffffffffffffffffffffffffffffffffffff1673ffffffffffffffffffffffffffffffffffffffff1681526020019081526020015f2090505f5b82811015610d6357610d58828a8a8481518110610d0e57610d0d614a3c565b5b60200260200101518a8581518110610d2957610d28614a3c565b5b60200260200101515f01518b8681518110610d4757610d46614a3c565b5b602002602001015160200151611e8c565b806001019050610cee565b505f73ffffffffffffffffffffffffffffffffffffffff168573ffffffffffffffffffffffffffffffffffffffff16141580610dcb57505f73ffffffffffffffffffffffffffffffffffffffff168473ffffffffffffffffffffffffffffffffffffffff1614155b80610dd957505f8360ff1614155b15610e02575f5f8460ff1614610def5783610df2565b60015b9050610e0089878784611fc8565b505b8773ffffffffffffffffffffffffffffffffffffffff167f27b541a16df0902e262f34789782092ab25125513b8ed73608e802951771b92860405160405180910390a250505050505050505050565b5f6060805f5f5f60607f0f000000000000000000000000000000000000000000000000000000000000009650610e856121e8565b809650819750505046935030925090919293949596565b610ea4613b2d565b5f5f8373ffffffffffffffffffffffffffffffffffffffff1673ffffffffffffffffffffffffffffffffffffffff1681526020019081526020015f206003016040518060400160405290815f82015481526020016001820154815250509050919050565b5f3390505f60015f8373ffffffffffffffffffffffffffffffffffffffff1673ffffffffffffffffffffffffffffffffffffffff1681526020019081526020015f2090505f610f598260010161225f565b90505f5b8151811015610fde57825f015f838381518110610f7d57610f7c614a3c565b5b602002602001015181526020019081526020015f205f5f82015f9055600182015f90555050610fd2828281518110610fb857610fb7614a3c565b5b602002602001015184600101611d2f90919063ffffffff16565b50806001019050610f5d565b505f5f8473ffffffffffffffffffffffffffffffffffffffff1673ffffffffffffffffffffffffffffffffffffffff1681526020019081526020015f205f015f5f82015f6101000a81549073ffffffffffffffffffffffffffffffffffffffff0219169055600182015f6101000a81549073ffffffffffffffffffffffffffffffffffffffff02191690556001820160146101000a81549060ff021916905550508273ffffffffffffffffffffffffffffffffffffffff167f9d00629762554452d03c3b45626436df6ca1c3795d05d04df882f6db481b1be060405160405180910390a25050505050565b5f6110d382612281565b9050919050565b5f6015838390501015611119576040517f52f151d300000000000000000000000000000000000000000000000000000000815260040160405180910390fd5b5f83835f9060149261112d93929190614a71565b906111389190614aec565b60601c90505f8484601481811061115257611151614a3c565b5b9050013560f81c60f81b60f81c60ff1690505f810361126d5760558585905010156111a9576040517f52f151d300000000000000000000000000000000000000000000000000000000815260040160405180910390fd5b5f5f6111b589896122c4565b91509150806111f0576040517f52f151d300000000000000000000000000000000000000000000000000000000815260040160405180910390fd5b6112626111fd858c611d4c565b60405160200161120d9190613ef1565b6040516020818303038152906040526001848a8a60159060359261123393929190614a71565b9061123e9190614b4a565b8b8b60359060559261125293929190614a71565b9061125d9190614b4a565b6123a0565b945050505050611484565b60208111156112a8576040517fb5ae13c800000000000000000000000000000000000000000000000000000000815260040160405180910390fd5b5f600582901b60356112ba9190614bd5565b90506040816112c99190614bd5565b868690501015611305576040517f52f151d300000000000000000000000000000000000000000000000000000000815260040160405180910390fd5b5f868660159060359261131a93929190614a71565b906113259190614b4a565b90505f848b60405160200161133b929190614c08565b604051602081830303815290604052805190602001209050365f60358a01915085905061136a828286866124d9565b6113a0576040517fb05e92fa00000000000000000000000000000000000000000000000000000000815260040160405180910390fd5b5050505f5f6113af8b8b6122c4565b91509150806113ea576040517f52f151d300000000000000000000000000000000000000000000000000000000815260040160405180910390fd5b61147b6113f684612281565b6040516020016114069190613ef1565b6040516020818303038152906040526001848c8c899060208b6114299190614bd5565b9261143693929190614a71565b906114419190614b4a565b8d8d60208b6114509190614bd5565b9060408c61145e9190614bd5565b9261146b93929190614a71565b906114769190614b4a565b6123a0565b96505050505050505b95945050505050565b5f82826040516020016114a1929190614c08565b60405160208183030381529060405280519060200120905092915050565b5f6114ec835f0160208101906114d59190614030565b83858061010001906114e79190614c3b565b611c3b565b156114f9575f90506114fe565b600190505b92915050565b5f5f5f5f8473ffffffffffffffffffffffffffffffffffffffff1673ffffffffffffffffffffffffffffffffffffffff1681526020019081526020015f205f0160010160149054906101000a900460ff1690505f8160ff1614611567578061156a565b60015b915050919050565b5f61157f85858585611c3b565b9050949350505050565b60606115d360015f8473ffffffffffffffffffffffffffffffffffffffff1673ffffffffffffffffffffffffffffffffffffffff1681526020019081526020015f2060010161225f565b9050919050565b5f8260ff1614806115ee575060028260ff16115b15611625576040517faabd5a0900000000000000000000000000000000000000000000000000000000815260040160405180910390fd5b60028260ff16036116cd575f73ffffffffffffffffffffffffffffffffffffffff168473ffffffffffffffffffffffffffffffffffffffff16148061169557505f73ffffffffffffffffffffffffffffffffffffffff168373ffffffffffffffffffffffffffffffffffffffff16145b156116cc576040517fc13a2f9c00000000000000000000000000000000000000000000000000000000815260040160405180910390fd5b5b5f5f5f3373ffffffffffffffffffffffffffffffffffffffff1673ffffffffffffffffffffffffffffffffffffffff1681526020019081526020015f2090505f815f01905085815f015f6101000a81548173ffffffffffffffffffffffffffffffffffffffff021916908373ffffffffffffffffffffffffffffffffffffffff16021790555084816001015f6101000a81548173ffffffffffffffffffffffffffffffffffffffff021916908373ffffffffffffffffffffffffffffffffffffffff160217905550838160010160146101000a81548160ff021916908360ff160217905550825f0135826003015f0181905550826020013582600301600101819055503373ffffffffffffffffffffffffffffffffffffffff167f8c9b95560ebc765223ef2ae107bb7b8c01b56c7d140261f67542da22e4a9471f87878760405161181a939291906145c8565b60405180910390a2505050505050565b868685858065ffffffffffff16421115611870576040517fd3c92b0d00000000000000000000000000000000000000000000000000000000815260040160405180910390fd5b5f5f8573ffffffffffffffffffffffffffffffffffffffff1673ffffffffffffffffffffffffffffffffffffffff1681526020019081526020015f206002015f8381526020019081526020015f205f9054906101000a900460ff1615611902576040517f1fb09b8000000000000000000000000000000000000000000000000000000000815260040160405180910390fd5b5f83141580156119125750468314155b15611949576040517f7a47c9a200000000000000000000000000000000000000000000000000000000815260040160405180910390fd5b60015f5f8673ffffffffffffffffffffffffffffffffffffffff1673ffffffffffffffffffffffffffffffffffffffff1681526020019081526020015f206002015f8481526020019081526020015f205f6101000a81548160ff0219169083151502179055505f6119bd8c8c8c8c8c611bec565b90505f5f5f8e73ffffffffffffffffffffffffffffffffffffffff1673ffffffffffffffffffffffffffffffffffffffff1681526020019081526020015f205f0190505f611a0d82848b8b61252f565b9050611a198e8d611caa565b8b5f016020810190611a2b9190613e46565b61ffff168173ffffffffffffffffffffffffffffffffffffffff168f73ffffffffffffffffffffffffffffffffffffffff167fe03b4c30661857d0903939c8f7efa127ae05d3d45b1e8c13a5eda76a84e1e69b8e604051611a8c919061406a565b60405180910390a45050505050505050505050505050565b5f5f611aee60015f8573ffffffffffffffffffffffffffffffffffffffff1673ffffffffffffffffffffffffffffffffffffffff1681526020019081526020015f20600101611d16565b119050919050565b5f6001821480611b065750600782145b9050919050565b5f5f5f5f5f5f8673ffffffffffffffffffffffffffffffffffffffff1673ffffffffffffffffffffffffffffffffffffffff1681526020019081526020015f205f019050805f015f9054906101000a900473ffffffffffffffffffffffffffffffffffffffff16816001015f9054906101000a900473ffffffffffffffffffffffffffffffffffffffff168260010160149054906101000a900460ff16935093509350509193909250565b5f611bc533858585611c3b565b15611bd957631626ba7e60e01b9050611be4565b63ffffffff60e01b90505b949350505050565b5f611c30611c2b8787875f016020810190611c079190613e46565b886020013589604001358a6060016020810190611c249190614cc7565b8a8a61257c565b6125fa565b905095945050505050565b5f6003838390501015611c50575f9050611ca2565b5f83835f818110611c6457611c63614a3c565b5b9050013560f81c60f81b60f81c60ff1690505f8103611c9157611c898686868661266e565b915050611ca2565b611c9e86868686856127a2565b9150505b949350505050565b806060016020810190611cbd9190614cc7565b15611cec57611ce782825f016020810190611cd89190613e46565b836020013584604001356129af565b611d12565b611d1182825f016020810190611d029190613e46565b83602001358460400135611daa565b5b5050565b5f611d28611d2383612bc7565b612bd0565b9050919050565b5f611d44611d3c84612bc7565b835f1b612c1d565b905092915050565b5f611da2611d9d8473ffffffffffffffffffffffffffffffffffffffff165f1b847ffb6589b6e5ad7910fb567f4d28fb25cf229f96df6c10eb79e8dd22184cf9e7da612d2d9092919063ffffffff16565b612d4e565b905092915050565b5f60015f8673ffffffffffffffffffffffffffffffffffffffff1673ffffffffffffffffffffffffffffffffffffffff1681526020019081526020015f2090505f611df782600101611d16565b90505f8103611e3d57856040517ff91bd6f1000000000000000000000000000000000000000000000000000000008152600401611e3491906146c8565b60405180910390fd5b60408110611e77576040517f7732141400000000000000000000000000000000000000000000000000000000815260040160405180910390fd5b611e848287878787611e8c565b505050505050565b611e9a825f1c825f1c612dca565b611ed0576040517fa2d0fee800000000000000000000000000000000000000000000000000000000815260040160405180910390fd5b5f8361ffff169050611eee8187600101612fb790919063ffffffff16565b611f2f57836040517fff60a9fd000000000000000000000000000000000000000000000000000000008152600401611f2691906146f0565b60405180910390fd5b604051806040016040528084815260200183815250865f015f8381526020019081526020015f205f820151815f0155602082015181600101559050508361ffff168573ffffffffffffffffffffffffffffffffffffffff167fda884d5d59662b1731710a4f6407c966163e54e01dc2bddd947aab99e95ca2938585604051611fb8929190613fb9565b60405180910390a3505050505050565b60028160ff161115612006576040517faabd5a0900000000000000000000000000000000000000000000000000000000815260040160405180910390fd5b60028160ff16036120ae575f73ffffffffffffffffffffffffffffffffffffffff168373ffffffffffffffffffffffffffffffffffffffff16148061207657505f73ffffffffffffffffffffffffffffffffffffffff168273ffffffffffffffffffffffffffffffffffffffff16145b156120ad576040517fc13a2f9c00000000000000000000000000000000000000000000000000000000815260040160405180910390fd5b5b5f5f5f8673ffffffffffffffffffffffffffffffffffffffff1673ffffffffffffffffffffffffffffffffffffffff1681526020019081526020015f205f01905083815f015f6101000a81548173ffffffffffffffffffffffffffffffffffffffff021916908373ffffffffffffffffffffffffffffffffffffffff16021790555082816001015f6101000a81548173ffffffffffffffffffffffffffffffffffffffff021916908373ffffffffffffffffffffffffffffffffffffffff160217905550818160010160146101000a81548160ff021916908360ff1602179055508473ffffffffffffffffffffffffffffffffffffffff167f8c9b95560ebc765223ef2ae107bb7b8c01b56c7d140261f67542da22e4a9471f8585856040516121d9939291906145c8565b60405180910390a25050505050565b6060806040518060400160405280601081526020017f4f6e654175746856616c696461746f720000000000000000000000000000000081525091506040518060400160405280600581526020017f312e302e3000000000000000000000000000000000000000000000000000000081525090509091565b606061227a61227561227084612bc7565b612fd4565b61309b565b9050919050565b5f6122bd6122b8837fa5a505152e3529fa0b604100bdbc62aa67739181383273446e82d3023b082e996130a590919063ffffffff16565b6125fa565b9050919050565b6122cc613b45565b5f60468484905010156122e457815f91509150612399565b5f8480356080850152602081013560a085015260408101358060f01c604086015261ffff8160e01c16606086015261ffff8160d01c169250505080604661232b9190614bd5565b85859050101561234157825f9250925050612399565b8481604601850360405183815283604684016020830137808652601f19601f850116602001808201838152838660460186016020830137806020890152601f19601f8501166020018101604052505050505060019150505b9250929050565b5f5f5f6123af886001806130b9565b90506020860151805160208201604089015160608a01518551600d81017f226368616c6c656e6765223a220000000000000000000000000000000000000060981c8852858482011060228286880101515f1a14168160138a01208286880120141686846014011085851760801c107f2274797065223a22776562617574686e2e67657422000000000000000000000060581c8588015160581c1416169950818852505050508851518a151560021b600117808160218d510151161460208311891616975087156124ab5760208b510182810180516020600160208701856020868c8c60025afa60011b5afa5199508082523d6124a757fe5b5050505b505050505082156124ce576124cb8287608001518860a0015188886131c3565b92505b505095945050505050565b5f8315612522578360051b8501855b60011561251f578035841160051b8481528135602082185260405f209450602082019150828210612519575061251f565b506124e8565b50505b8282149050949350505050565b5f5f8560010160149054906101000a900460ff16905060018160ff16116125645761255c8686868661325e565b915050612574565b61257086868686613426565b9150505b949350505050565b5f6125ec7f940ae5f932b9cb11db32984a210a12b57602e8b7b980dbc8bce9539ae0ce9d2c8a73ffffffffffffffffffffffffffffffffffffffff165f1b8a5f1b8a61ffff165f1b8a8a8a6125d1575f6125d4565b60015b60ff165f1b8a5f1b8a65ffffffffffff165f1b6136cf565b905098975050505050505050565b5f5f5f6126056121e8565b915091506040517f91ab3d17e3a50a9d89e63fd30b92be7f5336b03b287bb946787a83a9d62a27665f5282516020840120602052815160208301206040523060605260805f206020526119015f52846040526042601e209350806040525f606052505050919050565b5f5f838360019060039261268493929190614a71565b9061268f9190614d1d565b60f01c90505f8161ffff1690505f60015f8973ffffffffffffffffffffffffffffffffffffffff1673ffffffffffffffffffffffffffffffffffffffff1681526020019081526020015f205f015f8381526020019081526020015f206040518060400160405290815f820154815260200160018201548152505090505f5f1b815f015103612722575f935050505061279a565b5f5f61273f8888600390809261273a93929190614a71565b6122c4565b9150915080612755575f9550505050505061279a565b6127926127628b8b611d4c565b6040516020016127729190613ef1565b604051602081830303815290604052600184865f015187602001516123a0565b955050505050505b949350505050565b5f60208211156127b4575f90506129a6565b5f600583901b60216127c69190614bd5565b90506002816127d59190614bd5565b8585905010156127e8575f9150506129a6565b5f85856001906021926127fd93929190614a71565b906128089190614b4a565b90505f888860405160200161281e929190614c08565b604051602081830303815290604052805190602001209050365f60218901915086905061284d828286866124d9565b61285e575f955050505050506129a6565b5050505f868684906002866128739190614bd5565b9261288093929190614a71565b9061288b9190614d1d565b60f01c90505f8161ffff1690505f60015f8c73ffffffffffffffffffffffffffffffffffffffff1673ffffffffffffffffffffffffffffffffffffffff1681526020019081526020015f205f015f8381526020019081526020015f206040518060400160405290815f820154815260200160018201548152505090505f5f1b815f015103612920575f955050505050506129a6565b5f5f6129488b8b60028a6129349190614bd5565b90809261294393929190614a71565b6122c4565b9150915080612960575f9750505050505050506129a6565b61299c61296c87612281565b60405160200161297c9190613ef1565b604051602081830303815290604052600184865f015187602001516123a0565b9750505050505050505b95945050505050565b5f60015f8673ffffffffffffffffffffffffffffffffffffffff1673ffffffffffffffffffffffffffffffffffffffff1681526020019081526020015f2090505f6129fc82600101611d16565b90505f8103612a4257856040517ff91bd6f1000000000000000000000000000000000000000000000000000000008152600401612a3991906146c8565b60405180910390fd5b612a50845f1c845f1c612dca565b612a86576040517fa2d0fee800000000000000000000000000000000000000000000000000000000815260040160405180910390fd5b5f8561ffff169050612aa4818460010161371c90919063ffffffff16565b612ae557856040517fec6a6bda000000000000000000000000000000000000000000000000000000008152600401612adc91906146f0565b60405180910390fd5b604051806040016040528086815260200185815250835f015f8381526020019081526020015f205f820151815f0155602082015181600101559050508561ffff168773ffffffffffffffffffffffffffffffffffffffff167faf333fa2fc1dbe79c8609d693a59ee1a03e0d893e2573e6e5fc6e8fe97c5aed560405160405180910390a38561ffff168773ffffffffffffffffffffffffffffffffffffffff167fda884d5d59662b1731710a4f6407c966163e54e01dc2bddd947aab99e95ca2938787604051612bb6929190613fb9565b60405180910390a350505050505050565b5f819050919050565b5f5f612bdb83613739565b90508019548060011c925080612c16575f92508282015415612c1657600192508282015415612c1657600292508282015415612c1657600392505b5050919050565b5f5f612c2884613739565b905068fbb67fda52d4bfb8bf8303612c475763f5a267f15f526004601cfd5b82612c595768fbb67fda52d4bfb8bf92505b801954600115612d255780612cce576001925083825403612c905760018201548255600282015460018301555f6002830155612d25565b83600183015403612cb057600282015460018301555f6002830155612d25565b83600283015403612cc6575f6002830155612d25565b5f9250612d25565b81602052835f5260405f20805480612ce7575050612d25565b60018360011c039250826001820314612d1157828401548060018303860155805f528160405f2055505b60018360011b178419555f82556001945050505b505092915050565b5f604051848152836020820152826040820152606081209150509392505050565b5f612d57613750565b15612d6b57612d64613754565b9050612da7565b7f00000000000000000000000000000000000000000000000000000000000000009050612d9661381c565b15612da657612da3613754565b90505b5b6719010000000000005f5280601a5281603a52604260182090505f603a52919050565b5f5f831480612dd857505f82145b80612e0357507fffffffff00000001000000000000000000000000ffffffffffffffffffffffff8310155b80612e2e57507fffffffff00000001000000000000000000000000ffffffffffffffffffffffff8210155b15612e3b575f9050612fb1565b5f7fffffffff00000001000000000000000000000000ffffffffffffffffffffffff80612e6b57612e6a614d7b565b5b83840990505f7fffffffff00000001000000000000000000000000ffffffffffffffffffffffff80612ea057612e9f614d7b565b5b7f5ac635d8aa3a93e7b3ebbd55769886bc651d06b0cc53b0f63bce3c3e27d2604b7fffffffff00000001000000000000000000000000ffffffffffffffffffffffff80612ef057612eef614d7b565b5b7fffffffff00000001000000000000000000000000ffffffffffffffffffffffff80612f1f57612f1e614d7b565b5b7fffffffff00000001000000000000000000000000fffffffffffffffffffffffc89097fffffffff00000001000000000000000000000000ffffffffffffffffffffffff80612f7157612f70614d7b565b5b897fffffffff00000001000000000000000000000000ffffffffffffffffffffffff80612fa157612fa0614d7b565b5b8b8c090908089050808214925050505b92915050565b5f612fcc612fc484612bc7565b835f1b613874565b905092915050565b60605f612fe083613739565b905068fbb67fda52d4bfb8bf8119546040519350836020016001156130865781613057578354801561305157600192508381141581028252828501549050801561305057600292508381141581026020830152828501549050801561304f576003925083811415810260408301525b5b5b50613086565b8160011c91505f5b8281101561308457808501548481141581028260051b8401525060018101905061305f565b505b8185528160051b810160405250505050919050565b6060819050919050565b5f825f528160205260405f20905092915050565b6060835180156131bb576003600282010460021b60405192507f4142434445464748494a4b4c4d4e4f505152535455565758595a616263646566601f526106708515027f6768696a6b6c6d6e6f707172737475767778797a303132333435363738392d5f18603f526020830181810183886020010180515f82525b6001156131885760038a0199508951603f8160121c16515f53603f81600c1c1651600153603f8160061c1651600253603f8116516003535f5185526004850194508385106131825750613188565b50613134565b8082526020830160405260038606600204613d3d60f01b81860352808915150290505f8186035280860388525050505050505b509392505050565b5f6040518681528560208201528460408201528360608201528260808201525f5f5260205f60a0836101005afa503d613229576d1ab2e8006fd8b71907bf06a5bdee3b6132285760205f60a0836dd01ea45f9efd5c54f037fa57ea1a5afa61322757fe5b5b5b5f516001147f7fffffff800000007fffffffffffffffde737d56d38bcf4279dce5617e3192a886111091505095945050505050565b5f5f838390500361329b576040517f042a9b6400000000000000000000000000000000000000000000000000000000815260040160405180910390fd5b5f83835f8181106132af576132ae614a3c565b5b9050013560f81c60f81b60f81c9050365f858560019080926132d393929190614a71565b915091505f8360ff160361330b57875f015f9054906101000a900473ffffffffffffffffffffffffffffffffffffffff169350613374565b60018360ff160361334157876001015f9054906101000a900473ffffffffffffffffffffffffffffffffffffffff169350613373565b6040517f062e942d00000000000000000000000000000000000000000000000000000000815260040160405180910390fd5b5b5f73ffffffffffffffffffffffffffffffffffffffff168473ffffffffffffffffffffffffffffffffffffffff16036133d9576040517fba53e96500000000000000000000000000000000000000000000000000000000815260040160405180910390fd5b6133e58488848461399d565b61341b576040517f07a81bc400000000000000000000000000000000000000000000000000000000815260040160405180910390fd5b505050949350505050565b5f6002838390501015613465576040517f042a9b6400000000000000000000000000000000000000000000000000000000815260040160405180910390fd5b5f83835f9060029261347993929190614a71565b906134849190614d1d565b60f01c61ffff1660026134979190614bd5565b9050808484905010156134d6576040517f07a81bc400000000000000000000000000000000000000000000000000000000815260040160405180910390fd5b5f73ffffffffffffffffffffffffffffffffffffffff16865f015f9054906101000a900473ffffffffffffffffffffffffffffffffffffffff1673ffffffffffffffffffffffffffffffffffffffff16148061358057505f73ffffffffffffffffffffffffffffffffffffffff16866001015f9054906101000a900473ffffffffffffffffffffffffffffffffffffffff1673ffffffffffffffffffffffffffffffffffffffff16145b156135b7576040517fba53e96500000000000000000000000000000000000000000000000000000000815260040160405180910390fd5b6135f6865f015f9054906101000a900473ffffffffffffffffffffffffffffffffffffffff1686868660029086926135f193929190614a71565b61399d565b61362c576040517f07a81bc400000000000000000000000000000000000000000000000000000000815260040160405180910390fd5b61366b866001015f9054906101000a900473ffffffffffffffffffffffffffffffffffffffff168686868590809261366693929190614a71565b61399d565b6136a1576040517f07a81bc400000000000000000000000000000000000000000000000000000000815260040160405180910390fd5b855f015f9054906101000a900473ffffffffffffffffffffffffffffffffffffffff16915050949350505050565b5f6040518a81528960208201528860408201528760608201528660808201528560a08201528460c08201528360e08201528261010082015261012081209150509998505050505050505050565b5f61373161372984612bc7565b835f1b613a9e565b905092915050565b5f6318fb5864600452815f5260245f209050919050565b5f90565b5f5f61375e613750565b1561378c575f5f61376d6121e8565b91509150818051906020012093508080519060200120925050506137d3565b7f000000000000000000000000000000000000000000000000000000000000000091507f000000000000000000000000000000000000000000000000000000000000000090505b6040517f8b73c3c69bb8fe3d512ecc4cf759cc79239f7b179b0ffacaa9a75d522b39400f815282602082015281604082015246606082015230608082015260a081209250505090565b5f5f7f000000000000000000000000000000000000000000000000000000000000000090505f7f0000000000000000000000000000000000000000000000000000000000000000905080301482461416159250505090565b5f5f61387f84613739565b905068fbb67fda52d4bfb8bf830361389e5763f5a267f15f526004601cfd5b826138b05768fbb67fda52d4bfb8bf92505b80195460011561399557816020528061395e578154806138d7578483556001935050613995565b8481036138e45750613995565b6001830154806138ff57856001850155600194505050613995565b85810361390d575050613995565b6002840154806139295786600286015560019550505050613995565b86810361393857505050613995565b825f52600160405f2055815f52600260405f2055805f52600360405f2055600793505050505b835f5260405f208054613993578160011c915084828401558160010181558160010160011b6001178319556001935050613995565b505b505092915050565b5f5f73ffffffffffffffffffffffffffffffffffffffff168573ffffffffffffffffffffffffffffffffffffffff160315613a9657604051600115613a9457853b613a565782604081146139f95760418114613a1d5750613a94565b6020850135601b8160ff1c0160205285356040528060011b60011c60605250613a2e565b60408501355f1a6020526040856040375b50845f526020600160805f60015afa5180871860601b3d1192505f6060528160405250613a94565b631626ba7e60e01b80825285600483015260248201604081528460448401528486606485013760208160648701858b5afa9350838282511416935050505b505b949350505050565b5f5f613aa984613739565b905068fbb67fda52d4bfb8bf8303613ac85763f5a267f15f526004601cfd5b82613ada5768fbb67fda52d4bfb8bf92505b600115613b2657801954613b1557600191508281540315613b26578260018201540315613b26578260028201540315613b26575f9150613b26565b80602052825f5260405f2054151591505b5092915050565b60405180604001604052805f81526020015f81525090565b6040518060c0016040528060608152602001606081526020015f81526020015f81526020015f81526020015f81525090565b5f81519050919050565b5f82825260208201905092915050565b8281835e5f83830152505050565b5f601f19601f8301169050919050565b5f613bb982613b77565b613bc38185613b81565b9350613bd3818560208601613b91565b613bdc81613b9f565b840191505092915050565b5f6020820190508181035f830152613bff8184613baf565b905092915050565b5f604051905090565b5f5ffd5b5f5ffd5b5f73ffffffffffffffffffffffffffffffffffffffff82169050919050565b5f613c4182613c18565b9050919050565b613c5181613c37565b8114613c5b575f5ffd5b50565b5f81359050613c6c81613c48565b92915050565b5f819050919050565b613c8481613c72565b8114613c8e575f5ffd5b50565b5f81359050613c9f81613c7b565b92915050565b5f5ffd5b5f60808284031215613cbe57613cbd613ca5565b5b81905092915050565b5f65ffffffffffff82169050919050565b613ce181613cc7565b8114613ceb575f5ffd5b50565b5f81359050613cfc81613cd8565b92915050565b5f5ffd5b5f5ffd5b5f5ffd5b5f5f83601f840112613d2357613d22613d02565b5b8235905067ffffffffffffffff811115613d4057613d3f613d06565b5b602083019150836001820283011115613d5c57613d5b613d0a565b5b9250929050565b5f5f5f5f5f5f5f610120888a031215613d7f57613d7e613c10565b5b5f613d8c8a828b01613c5e565b9750506020613d9d8a828b01613c91565b9650506040613dae8a828b01613ca9565b95505060c0613dbf8a828b01613c91565b94505060e0613dd08a828b01613cee565b93505061010088013567ffffffffffffffff811115613df257613df1613c14565b5b613dfe8a828b01613d0e565b925092505092959891949750929550565b5f61ffff82169050919050565b613e2581613e0f565b8114613e2f575f5ffd5b50565b5f81359050613e4081613e1c565b92915050565b5f60208284031215613e5b57613e5a613c10565b5b5f613e6884828501613e32565b91505092915050565b5f819050919050565b613e8381613e71565b8114613e8d575f5ffd5b50565b5f81359050613e9e81613e7a565b92915050565b5f5f60408385031215613eba57613eb9613c10565b5b5f613ec785828601613c5e565b9250506020613ed885828601613e90565b9150509250929050565b613eeb81613e71565b82525050565b5f602082019050613f045f830184613ee2565b92915050565b5f5f60408385031215613f2057613f1f613c10565b5b5f613f2d85828601613c5e565b9250506020613f3e85828601613c91565b9150509250929050565b5f8115159050919050565b613f5c81613f48565b82525050565b5f602082019050613f755f830184613f53565b92915050565b5f5f60408385031215613f9157613f90613c10565b5b5f613f9e85828601613e32565b9250506020613faf85828601613c5e565b9150509250929050565b5f604082019050613fcc5f830185613ee2565b613fd96020830184613ee2565b9392505050565b5f5f5f60608486031215613ff757613ff6613c10565b5b5f61400486828701613e32565b935050602061401586828701613e90565b925050604061402686828701613e90565b9150509250925092565b5f6020828403121561404557614044613c10565b5b5f61405284828501613c5e565b91505092915050565b61406481613c72565b82525050565b5f60208201905061407d5f83018461405b565b92915050565b5f5f6020838503121561409957614098613c10565b5b5f83013567ffffffffffffffff8111156140b6576140b5613c14565b5b6140c285828601613d0e565b92509250509250929050565b5f7fff0000000000000000000000000000000000000000000000000000000000000082169050919050565b614102816140ce565b82525050565b61411181613c37565b82525050565b5f81519050919050565b5f82825260208201905092915050565b5f819050602082019050919050565b61414981613c72565b82525050565b5f61415a8383614140565b60208301905092915050565b5f602082019050919050565b5f61417c82614117565b6141868185614121565b935061419183614131565b805f5b838110156141c15781516141a8888261414f565b97506141b383614166565b925050600181019050614194565b5085935050505092915050565b5f60e0820190506141e15f83018a6140f9565b81810360208301526141f38189613baf565b905081810360408301526142078188613baf565b9050614216606083018761405b565b6142236080830186614108565b61423060a0830185613ee2565b81810360c08301526142428184614172565b905098975050505050505050565b61425981613e71565b82525050565b604082015f8201516142735f850182614250565b5060208201516142866020850182614250565b50505050565b5f60408201905061429f5f83018461425f565b92915050565b5f602082840312156142ba576142b9613c10565b5b5f6142c784828501613e90565b91505092915050565b5f5f5f5f5f606086880312156142e9576142e8613c10565b5b5f6142f688828901613e90565b955050602086013567ffffffffffffffff81111561431757614316613c14565b5b61432388828901613d0e565b9450945050604086013567ffffffffffffffff81111561434657614345613c14565b5b61435288828901613d0e565b92509250509295509295909350565b5f610120828403121561437757614376613ca5565b5b81905092915050565b5f5f6040838503121561439657614395613c10565b5b5f83013567ffffffffffffffff8111156143b3576143b2613c14565b5b6143bf85828601614361565b92505060206143d085828601613e90565b9150509250929050565b5f819050919050565b5f6143fd6143f86143f384613c72565b6143da565b613c72565b9050919050565b61440d816143e3565b82525050565b5f6020820190506144265f830184614404565b92915050565b5f60ff82169050919050565b6144418161442c565b82525050565b5f60208201905061445a5f830184614438565b92915050565b5f5f5f5f6060858703121561447857614477613c10565b5b5f61448587828801613c5e565b945050602061449687828801613e90565b935050604085013567ffffffffffffffff8111156144b7576144b6613c14565b5b6144c387828801613d0e565b925092505092959194509250565b5f6020820190508181035f8301526144e98184614172565b905092915050565b6144fa8161442c565b8114614504575f5ffd5b50565b5f81359050614515816144f1565b92915050565b5f604082840312156145305761452f613ca5565b5b81905092915050565b5f5f5f5f60a0858703121561455157614550613c10565b5b5f61455e87828801613c5e565b945050602061456f87828801613c5e565b935050604061458087828801614507565b92505060606145918782880161451b565b91505092959194509250565b5f602082840312156145b2576145b1613c10565b5b5f6145bf84828501613c91565b91505092915050565b5f6060820190506145db5f830186614108565b6145e86020830185614108565b6145f56040830184614438565b949350505050565b5f7fffffffff0000000000000000000000000000000000000000000000000000000082169050919050565b614631816145fd565b82525050565b5f60208201905061464a5f830184614628565b92915050565b5f5f5f5f5f610100868803121561466a57614669613c10565b5b5f61467788828901613c5e565b955050602061468888828901613c91565b945050604061469988828901613ca9565b93505060c06146aa88828901613c91565b92505060e06146bb88828901613cee565b9150509295509295909350565b5f6020820190506146db5f830184614108565b92915050565b6146ea81613e0f565b82525050565b5f6020820190506147035f8301846146e1565b92915050565b7f4e487b71000000000000000000000000000000000000000000000000000000005f52604160045260245ffd5b61473f82613b9f565b810181811067ffffffffffffffff8211171561475e5761475d614709565b5b80604052505050565b5f614770613c07565b905061477c8282614736565b919050565b5f67ffffffffffffffff82111561479b5761479a614709565b5b602082029050602081019050919050565b5f6147be6147b984614781565b614767565b905080838252602082019050602084028301858111156147e1576147e0613d0a565b5b835b8181101561480a57806147f68882613e32565b8452602084019350506020810190506147e3565b5050509392505050565b5f82601f83011261482857614827613d02565b5b81356148388482602086016147ac565b91505092915050565b5f67ffffffffffffffff82111561485b5761485a614709565b5b602082029050602081019050919050565b5f5ffd5b5f604082840312156148855761488461486c565b5b61488f6040614767565b90505f61489e84828501613e90565b5f8301525060206148b184828501613e90565b60208301525092915050565b5f6148cf6148ca84614841565b614767565b905080838252602082019050604084028301858111156148f2576148f1613d0a565b5b835b8181101561491b57806149078882614870565b8452602084019350506040810190506148f4565b5050509392505050565b5f82601f83011261493957614938613d02565b5b81356149498482602086016148bd565b91505092915050565b5f61495c82613c18565b9050919050565b61496c81614952565b8114614976575f5ffd5b50565b5f8135905061498781614963565b92915050565b5f5f5f5f5f60a086880312156149a6576149a5613c10565b5b5f86013567ffffffffffffffff8111156149c3576149c2613c14565b5b6149cf88828901614814565b955050602086013567ffffffffffffffff8111156149f0576149ef613c14565b5b6149fc88828901614925565b9450506040614a0d88828901614979565b9350506060614a1e88828901614979565b9250506080614a2f88828901614507565b9150509295509295909350565b7f4e487b71000000000000000000000000000000000000000000000000000000005f52603260045260245ffd5b5f5ffd5b5f5ffd5b5f5f85851115614a8457614a83614a69565b5b83861115614a9557614a94614a6d565b5b6001850283019150848603905094509492505050565b5f82905092915050565b5f7fffffffffffffffffffffffffffffffffffffffff00000000000000000000000082169050919050565b5f82821b905092915050565b5f614af78383614aab565b82614b028135614ab5565b92506014821015614b4257614b3d7fffffffffffffffffffffffffffffffffffffffff00000000000000000000000083601403600802614ae0565b831692505b505092915050565b5f614b558383614aab565b82614b608135613e71565b92506020821015614ba057614b9b7fffffffffffffffffffffffffffffffffffffffffffffffffffffffffffffffff83602003600802614ae0565b831692505b505092915050565b7f4e487b71000000000000000000000000000000000000000000000000000000005f52601160045260245ffd5b5f614bdf82613c72565b9150614bea83613c72565b9250828201905080821115614c0257614c01614ba8565b5b92915050565b5f604082019050614c1b5f830185614108565b614c286020830184613ee2565b9392505050565b5f5ffd5b5f5ffd5b5f5ffd5b5f5f83356001602003843603038112614c5757614c56614c2f565b5b80840192508235915067ffffffffffffffff821115614c7957614c78614c33565b5b602083019250600182023603831315614c9557614c94614c37565b5b509250929050565b614ca681613f48565b8114614cb0575f5ffd5b50565b5f81359050614cc181614c9d565b92915050565b5f60208284031215614cdc57614cdb613c10565b5b5f614ce984828501614cb3565b91505092915050565b5f7fffff00000000000000000000000000000000000000000000000000000000000082169050919050565b5f614d288383614aab565b82614d338135614cf2565b92506002821015614d7357614d6e7fffff00000000000000000000000000000000000000000000000000000000000083600203600802614ae0565b831692505b505092915050565b7f4e487b71000000000000000000000000000000000000000000000000000000005f52601260045260245ffdfea2646970667358221220e489f1b5fe7c8d1fcd47bcd3ffc71d4830c6baf611dd4510a35ee02e10ce0e3a64736f6c634300081c0033","linkReferences":{}},"methodIdentifiers":{"addCredential(uint16,bytes32,bytes32)":"5e84cc61","credentialCount(address)":"69989ffb","eip712Domain()":"84b0196e","getAccountLeaf(address,bytes32)":"94529e97","getAccountRecoveryIdentifier(address)":"88fc93fe","getCredKeys(address)":"c89f2403","getCredential(uint16,address)":"3b826b0d","getPasskeyDigest(address,bytes32)":"16250b16","getPasskeyMultichain(bytes32)":"9300126d","getRecoverDigest(address,uint256,(uint16,bytes32,bytes32,bool),uint256,uint48)":"fa5565e3","guardianConfig(address)":"ed3262e1","guardianThreshold(address)":"a1cdf4ed","isInitialized(address)":"d60b347f","isModuleType(uint256)":"ecd05961","isValidSignatureWithSender(address,bytes32,bytes)":"f551e2ee","name()":"06fdde03","nonceUsed(address,uint256)":"1647795e","onInstall(bytes)":"6d61fe70","onUninstall(bytes)":"8a91b0e3","recoverWithGuardian(address,uint256,(uint16,bytes32,bytes32,bool),uint256,uint48,bytes)":"d5370a3d","recoverWithPasskey(address,uint256,(uint16,bytes32,bytes32,bool),uint256,uint48,bytes)":"0cc81a93","removeCredential(uint16)":"13c50641","setGuardianConfig(address,address,uint8,(bytes32,bytes32))":"cbf1ca32","validateSignatureForAccount(address,bytes32,bytes)":"a45efa49","validateSignatureWithData(bytes32,bytes,bytes)":"940d3840","validateUserOp((address,uint256,bytes,bytes,bytes32,uint256,bytes32,bytes,bytes),bytes32)":"97003203","version()":"54fd4d50"},"id":79}