{"abi":[{"type":"function","name":"addCredential","inputs":[{"name":"keyId","type":"uint16","internalType":"uint16"},{"name":"pubKeyX","type":"bytes32","internalType":"bytes32"},{"name":"pubKeyY","type":"bytes32","internalType":"bytes32"}],"outputs":[],"stateMutability":"nonpayable"},{"type":"function","name":"credentialCount","inputs":[{"name":"account","type":"address","internalType":"address"}],"outputs":[{"name":"","type":"uint256","internalType":"uint256"}],"stateMutability":"view"},{"type":"function","name":"eip712Domain","inputs":[],"outputs":[{"name":"fields","type":"bytes1","internalType":"bytes1"},{"name":"name","type":"string","internalType":"string"},{"name":"version","type":"string","internalType":"string"},{"name":"chainId","type":"uint256","internalType":"uint256"},{"name":"verifyingContract","type":"address","internalType":"address"},{"name":"salt","type":"bytes32","internalType":"bytes32"},{"name":"extensions","type":"uint256[]","internalType":"uint256[]"}],"stateMutability":"view"},{"type":"function","name":"getCredKeys","inputs":[{"name":"account","type":"address","internalType":"address"}],"outputs":[{"name":"","type":"uint256[]","internalType":"uint256[]"}],"stateMutability":"view"},{"type":"function","name":"getCredential","inputs":[{"name":"keyId","type":"uint16","internalType":"uint16"},{"name":"account","type":"address","internalType":"address"}],"outputs":[{"name":"pubKeyX","type":"bytes32","internalType":"bytes32"},{"name":"pubKeyY","type":"bytes32","internalType":"bytes32"}],"stateMutability":"view"},{"type":"function","name":"getPasskeyDigest","inputs":[{"name":"digest","type":"bytes32","internalType":"bytes32"}],"outputs":[{"name":"","type":"bytes32","internalType":"bytes32"}],"stateMutability":"view"},{"type":"function","name":"getPasskeyMultichain","inputs":[{"name":"root","type":"bytes32","internalType":"bytes32"}],"outputs":[{"name":"","type":"bytes32","internalType":"bytes32"}],"stateMutability":"view"},{"type":"function","name":"getRecoverDigest","inputs":[{"name":"account","type":"address","internalType":"address"},{"name":"chainId","type":"uint256","internalType":"uint256"},{"name":"cred","type":"tuple","internalType":"struct OneAuthRecoveryBase.NewCredential","components":[{"name":"keyId","type":"uint16","internalType":"uint16"},{"name":"pubKeyX","type":"bytes32","internalType":"bytes32"},{"name":"pubKeyY","type":"bytes32","internalType":"bytes32"},{"name":"replace","type":"bool","internalType":"bool"}]},{"name":"nonce","type":"uint256","internalType":"uint256"},{"name":"expiry","type":"uint48","internalType":"uint48"}],"outputs":[{"name":"","type":"bytes32","internalType":"bytes32"}],"stateMutability":"view"},{"type":"function","name":"guardianConfig","inputs":[{"name":"account","type":"address","internalType":"address"}],"outputs":[{"name":"userGuardian","type":"address","internalType":"address"},{"name":"externalGuardian","type":"address","internalType":"address"},{"name":"threshold","type":"uint8","internalType":"uint8"}],"stateMutability":"view"},{"type":"function","name":"guardianThreshold","inputs":[{"name":"account","type":"address","internalType":"address"}],"outputs":[{"name":"","type":"uint8","internalType":"uint8"}],"stateMutability":"view"},{"type":"function","name":"isInitialized","inputs":[{"name":"smartAccount","type":"address","internalType":"address"}],"outputs":[{"name":"","type":"bool","internalType":"bool"}],"stateMutability":"view"},{"type":"function","name":"isModuleType","inputs":[{"name":"typeID","type":"uint256","internalType":"uint256"}],"outputs":[{"name":"","type":"bool","internalType":"bool"}],"stateMutability":"pure"},{"type":"function","name":"isValidSignatureWithSender","inputs":[{"name":"","type":"address","internalType":"address"},{"name":"hash","type":"bytes32","internalType":"bytes32"},{"name":"data","type":"bytes","internalType":"bytes"}],"outputs":[{"name":"","type":"bytes4","internalType":"bytes4"}],"stateMutability":"view"},{"type":"function","name":"name","inputs":[],"outputs":[{"name":"","type":"string","internalType":"string"}],"stateMutability":"pure"},{"type":"function","name":"nonceUsed","inputs":[{"name":"account","type":"address","internalType":"address"},{"name":"nonce","type":"uint256","internalType":"uint256"}],"outputs":[{"name":"","type":"bool","internalType":"bool"}],"stateMutability":"view"},{"type":"function","name":"onInstall","inputs":[{"name":"data","type":"bytes","internalType":"bytes"}],"outputs":[],"stateMutability":"nonpayable"},{"type":"function","name":"onUninstall","inputs":[{"name":"","type":"bytes","internalType":"bytes"}],"outputs":[],"stateMutability":"nonpayable"},{"type":"function","name":"recoverWithGuardian","inputs":[{"name":"account","type":"address","internalType":"address"},{"name":"chainId","type":"uint256","internalType":"uint256"},{"name":"cred","type":"tuple","internalType":"struct OneAuthRecoveryBase.NewCredential","components":[{"name":"keyId","type":"uint16","internalType":"uint16"},{"name":"pubKeyX","type":"bytes32","internalType":"bytes32"},{"name":"pubKeyY","type":"bytes32","internalType":"bytes32"},{"name":"replace","type":"bool","internalType":"bool"}]},{"name":"nonce","type":"uint256","internalType":"uint256"},{"name":"expiry","type":"uint48","internalType":"uint48"},{"name":"guardianSig","type":"bytes","internalType":"bytes"}],"outputs":[],"stateMutability":"nonpayable"},{"type":"function","name":"recoverWithPasskey","inputs":[{"name":"account","type":"address","internalType":"address"},{"name":"chainId","type":"uint256","internalType":"uint256"},{"name":"cred","type":"tuple","internalType":"struct OneAuthRecoveryBase.NewCredential","components":[{"name":"keyId","type":"uint16","internalType":"uint16"},{"name":"pubKeyX","type":"bytes32","internalType":"bytes32"},{"name":"pubKeyY","type":"bytes32","internalType":"bytes32"},{"name":"replace","type":"bool","internalType":"bool"}]},{"name":"nonce","type":"uint256","internalType":"uint256"},{"name":"expiry","type":"uint48","internalType":"uint48"},{"name":"signature","type":"bytes","internalType":"bytes"}],"outputs":[],"stateMutability":"nonpayable"},{"type":"function","name":"removeCredential","inputs":[{"name":"keyId","type":"uint16","internalType":"uint16"}],"outputs":[],"stateMutability":"nonpayable"},{"type":"function","name":"setGuardianConfig","inputs":[{"name":"_userGuardian","type":"address","internalType":"address"},{"name":"_externalGuardian","type":"address","internalType":"address"},{"name":"_threshold","type":"uint8","internalType":"uint8"}],"outputs":[],"stateMutability":"nonpayable"},{"type":"function","name":"validateSignatureForAccount","inputs":[{"name":"account","type":"address","internalType":"address"},{"name":"digest","type":"bytes32","internalType":"bytes32"},{"name":"data","type":"bytes","internalType":"bytes"}],"outputs":[{"name":"","type":"bool","internalType":"bool"}],"stateMutability":"view"},{"type":"function","name":"validateSignatureWithData","inputs":[{"name":"hash","type":"bytes32","internalType":"bytes32"},{"name":"signature","type":"bytes","internalType":"bytes"},{"name":"data","type":"bytes","internalType":"bytes"}],"outputs":[{"name":"","type":"bool","internalType":"bool"}],"stateMutability":"view"},{"type":"function","name":"validateUserOp","inputs":[{"name":"userOp","type":"tuple","internalType":"struct PackedUserOperation","components":[{"name":"sender","type":"address","internalType":"address"},{"name":"nonce","type":"uint256","internalType":"uint256"},{"name":"initCode","type":"bytes","internalType":"bytes"},{"name":"callData","type":"bytes","internalType":"bytes"},{"name":"accountGasLimits","type":"bytes32","internalType":"bytes32"},{"name":"preVerificationGas","type":"uint256","internalType":"uint256"},{"name":"gasFees","type":"bytes32","internalType":"bytes32"},{"name":"paymasterAndData","type":"bytes","internalType":"bytes"},{"name":"signature","type":"bytes","internalType":"bytes"}]},{"name":"userOpHash","type":"bytes32","internalType":"bytes32"}],"outputs":[{"name":"","type":"uint256","internalType":"ERC7579ValidatorBase.ValidationData"}],"stateMutability":"view"},{"type":"function","name":"version","inputs":[],"outputs":[{"name":"","type":"string","internalType":"string"}],"stateMutability":"pure"},{"type":"event","name":"CredentialAdded","inputs":[{"name":"account","type":"address","indexed":true,"internalType":"address"},{"name":"keyId","type":"uint16","indexed":true,"internalType":"uint16"},{"name":"pubKeyX","type":"bytes32","indexed":false,"internalType":"bytes32"},{"name":"pubKeyY","type":"bytes32","indexed":false,"internalType":"bytes32"}],"anonymous":false},{"type":"event","name":"CredentialRemoved","inputs":[{"name":"account","type":"address","indexed":true,"internalType":"address"},{"name":"keyId","type":"uint16","indexed":true,"internalType":"uint16"}],"anonymous":false},{"type":"event","name":"GuardianConfigSet","inputs":[{"name":"account","type":"address","indexed":true,"internalType":"address"},{"name":"userGuardian","type":"address","indexed":false,"internalType":"address"},{"name":"externalGuardian","type":"address","indexed":false,"internalType":"address"},{"name":"threshold","type":"uint8","indexed":false,"internalType":"uint8"}],"anonymous":false},{"type":"event","name":"GuardianRecoveryExecuted","inputs":[{"name":"account","type":"address","indexed":true,"internalType":"address"},{"name":"guardian","type":"address","indexed":true,"internalType":"address"},{"name":"newKeyId","type":"uint16","indexed":true,"internalType":"uint16"},{"name":"nonce","type":"uint256","indexed":false,"internalType":"uint256"}],"anonymous":false},{"type":"event","name":"ModuleInitialized","inputs":[{"name":"account","type":"address","indexed":true,"internalType":"address"}],"anonymous":false},{"type":"event","name":"ModuleUninitialized","inputs":[{"name":"account","type":"address","indexed":true,"internalType":"address"}],"anonymous":false},{"type":"event","name":"PasskeyRecoveryExecuted","inputs":[{"name":"account","type":"address","indexed":true,"internalType":"address"},{"name":"newKeyId","type":"uint16","indexed":true,"internalType":"uint16"},{"name":"nonce","type":"uint256","indexed":false,"internalType":"uint256"}],"anonymous":false},{"type":"error","name":"CannotRemoveLastCredential","inputs":[]},{"type":"error","name":"CredentialNotFound","inputs":[{"name":"keyId","type":"uint16","internalType":"uint16"}]},{"type":"error","name":"EmptyGuardianSignature","inputs":[]},{"type":"error","name":"GuardianNotConfigured","inputs":[]},{"type":"error","name":"InvalidChainId","inputs":[]},{"type":"error","name":"InvalidGuardianSignature","inputs":[]},{"type":"error","name":"InvalidGuardianType","inputs":[]},{"type":"error","name":"InvalidMerkleProof","inputs":[]},{"type":"error","name":"InvalidPublicKey","inputs":[]},{"type":"error","name":"InvalidRecoverySignature","inputs":[]},{"type":"error","name":"InvalidSignatureData","inputs":[]},{"type":"error","name":"InvalidThreshold","inputs":[]},{"type":"error","name":"KeyIdAlreadyExists","inputs":[{"name":"keyId","type":"uint16","internalType":"uint16"}]},{"type":"error","name":"ModuleAlreadyInitialized","inputs":[{"name":"smartAccount","type":"address","internalType":"address"}]},{"type":"error","name":"NonceAlreadyUsed","inputs":[]},{"type":"error","name":"NotInitialized","inputs":[{"name":"smartAccount","type":"address","internalType":"address"}]},{"type":"error","name":"ProofTooLong","inputs":[]},{"type":"error","name":"RecoveryExpired","inputs":[]},{"type":"error","name":"ThresholdRequiresBothGuardians","inputs":[]},{"type":"error","name":"TooManyCredentials","inputs":[]}],"bytecode":{"object":"0x610120604052348015610010575f5ffd5b503073ffffffffffffffffffffffffffffffffffffffff16608081815250504660a0818152505060608061004861012b60201b60201c565b6100635761005a61012f60201b60201c565b80925081935050505b5f61007261012b60201b60201c565b610083578280519060200120610087565b5f5f1b5b90505f61009861012b60201b60201c565b6100a95782805190602001206100ad565b5f5f1b5b90508160c081815250508060e081815250505f6100ce61012b60201b60201c565b610118576040517f8b73c3c69bb8fe3d512ecc4cf759cc79239f7b179b0ffacaa9a75d522b39400f815283602082015282604082015246606082015230608082015260a081209150505b80610100818152505050505050506101a6565b5f90565b6060806040518060400160405280601081526020017f4f6e654175746856616c696461746f720000000000000000000000000000000081525091506040518060400160405280600581526020017f312e302e3000000000000000000000000000000000000000000000000000000081525090509091565b60805160a05160c05160e05161010051614a376101e35f395f612b6701525f61359701525f61357401525f61360601525f61362a0152614a375ff3fe608060405234801561000f575f5ffd5b5060043610610171575f3560e01c80638a91b0e3116100dc578063c89f240311610095578063ecd059611161006f578063ecd05961146104aa578063ed3262e1146104da578063f551e2ee1461050c578063fa5565e31461053c57610171565b8063c89f24031461042e578063d5370a3d1461045e578063d60b347f1461047a57610171565b80638a91b0e3146103225780639300126d1461033e578063940d38401461036e578063970032031461039e578063a1cdf4ed146103ce578063a45efa49146103fe57610171565b80635e84cc611161012e5780635e84cc611461024a57806361a8d6231461026657806365e3371a1461028257806369989ffb146102b25780636d61fe70146102e257806384b0196e146102fe57610171565b806306fdde03146101755780630cc81a931461019357806313c50641146101af5780631647795e146101cb5780633b826b0d146101fb57806354fd4d501461022c575b5f5ffd5b61017d61056c565b60405161018a91906139b5565b60405180910390f35b6101ad60048036038101906101a89190613b31565b6105a9565b005b6101c960048036038101906101c49190613c14565b6107fc565b005b6101e560048036038101906101e09190613c3f565b61099d565b6040516101f29190613c97565b60405180910390f35b61021560048036038101906102109190613cb0565b610a01565b604051610223929190613d06565b60405180910390f35b610234610a72565b60405161024191906139b5565b60405180910390f35b610264600480360381019061025f9190613d57565b610aaf565b005b610280600480360381019061027b9190613ddd565b610ac0565b005b61029c60048036038101906102979190613e2d565b610cec565b6040516102a99190613e58565b60405180910390f35b6102cc60048036038101906102c79190613e71565b610cfd565b6040516102d99190613eab565b60405180910390f35b6102fc60048036038101906102f79190613ec4565b610d4d565b005b610306610fe5565b604051610319979695949392919061400f565b60405180910390f35b61033c60048036038101906103379190613ec4565b611030565b005b61035860048036038101906103539190613e2d565b6111f1565b6040516103659190613e58565b60405180910390f35b61038860048036038101906103839190614091565b611202565b6040516103959190613c97565b60405180910390f35b6103b860048036038101906103b39190614141565b611560565b6040516103c591906141d4565b60405180910390f35b6103e860048036038101906103e39190613e71565b6115a5565b6040516103f591906141fc565b60405180910390f35b61041860048036038101906104139190614215565b611613565b6040516104259190613c97565b60405180910390f35b61044860048036038101906104439190613e71565b61162a565b6040516104559190614286565b60405180910390f35b61047860048036038101906104739190613b31565b61167b565b005b610494600480360381019061048f9190613e71565b6118f5565b6040516104a19190613c97565b60405180910390f35b6104c460048036038101906104bf91906142a6565b611947565b6040516104d19190613c97565b60405180910390f35b6104f460048036038101906104ef9190613e71565b61195e565b604051610503939291906142d1565b60405180910390f35b61052660048036038101906105219190614215565b611a09565b6040516105339190614340565b60405180910390f35b61055660048036038101906105519190614359565b611a3d565b6040516105639190613e58565b60405180910390f35b60606040518060400160405280601081526020017f4f6e654175746856616c696461746f7200000000000000000000000000000000815250905090565b868685858065ffffffffffff164211156105ef576040517fd3c92b0d00000000000000000000000000000000000000000000000000000000815260040160405180910390fd5b5f5f8573ffffffffffffffffffffffffffffffffffffffff1673ffffffffffffffffffffffffffffffffffffffff1681526020019081526020015f206002015f8381526020019081526020015f205f9054906101000a900460ff1615610681576040517f1fb09b8000000000000000000000000000000000000000000000000000000000815260040160405180910390fd5b5f83141580156106915750468314155b156106c8576040517f7a47c9a200000000000000000000000000000000000000000000000000000000815260040160405180910390fd5b60015f5f8673ffffffffffffffffffffffffffffffffffffffff1673ffffffffffffffffffffffffffffffffffffffff1681526020019081526020015f206002015f8481526020019081526020015f205f6101000a81548160ff0219169083151502179055505f61073c8c8c8c8c8c611a3d565b905061074a8c828989611a8c565b610780576040517f62a281f100000000000000000000000000000000000000000000000000000000815260040160405180910390fd5b61078a8c8b611afb565b895f01602081019061079c9190613c14565b61ffff168c73ffffffffffffffffffffffffffffffffffffffff167fecca216aa14b66eb6599c0102f4caedc012eeaac8b6caf0446c274defd1e2dd48b6040516107e69190613eab565b60405180910390a3505050505050505050505050565b5f3390505f60015f8373ffffffffffffffffffffffffffffffffffffffff1673ffffffffffffffffffffffffffffffffffffffff1681526020019081526020015f2090505f61084d82600101611b67565b90505f810361089357826040517ff91bd6f100000000000000000000000000000000000000000000000000000000815260040161088a91906143d1565b60405180910390fd5b600181116108cd576040517fd2f2c18b00000000000000000000000000000000000000000000000000000000815260040160405180910390fd5b5f8461ffff1690506108eb8184600101611b8090919063ffffffff16565b61092c57846040517fec6a6bda00000000000000000000000000000000000000000000000000000000815260040161092391906143f9565b60405180910390fd5b825f015f8281526020019081526020015f205f5f82015f9055600182015f905550508461ffff168473ffffffffffffffffffffffffffffffffffffffff167faf333fa2fc1dbe79c8609d693a59ee1a03e0d893e2573e6e5fc6e8fe97c5aed560405160405180910390a35050505050565b5f5f5f8473ffffffffffffffffffffffffffffffffffffffff1673ffffffffffffffffffffffffffffffffffffffff1681526020019081526020015f206002015f8381526020019081526020015f205f9054906101000a900460ff16905092915050565b5f5f5f8461ffff1690505f60015f8673ffffffffffffffffffffffffffffffffffffffff1673ffffffffffffffffffffffffffffffffffffffff1681526020019081526020015f205f015f8381526020019081526020015f209050805f015481600101549350935050509250929050565b60606040518060400160405280600581526020017f312e302e30000000000000000000000000000000000000000000000000000000815250905090565b610abb33848484611b9d565b505050565b5f8160ff161480610ad4575060028160ff16115b15610b0b576040517faabd5a0900000000000000000000000000000000000000000000000000000000815260040160405180910390fd5b60028160ff1603610bb3575f73ffffffffffffffffffffffffffffffffffffffff168373ffffffffffffffffffffffffffffffffffffffff161480610b7b57505f73ffffffffffffffffffffffffffffffffffffffff168273ffffffffffffffffffffffffffffffffffffffff16145b15610bb2576040517fc13a2f9c00000000000000000000000000000000000000000000000000000000815260040160405180910390fd5b5b5f5f5f3373ffffffffffffffffffffffffffffffffffffffff1673ffffffffffffffffffffffffffffffffffffffff1681526020019081526020015f205f01905083815f015f6101000a81548173ffffffffffffffffffffffffffffffffffffffff021916908373ffffffffffffffffffffffffffffffffffffffff16021790555082816001015f6101000a81548173ffffffffffffffffffffffffffffffffffffffff021916908373ffffffffffffffffffffffffffffffffffffffff160217905550818160010160146101000a81548160ff021916908360ff1602179055503373ffffffffffffffffffffffffffffffffffffffff167f8c9b95560ebc765223ef2ae107bb7b8c01b56c7d140261f67542da22e4a9471f858585604051610cde939291906142d1565b60405180910390a250505050565b5f610cf682611c7f565b9050919050565b5f610d4660015f8473ffffffffffffffffffffffffffffffffffffffff1673ffffffffffffffffffffffffffffffffffffffff1681526020019081526020015f20600101611b67565b9050919050565b5f339050610d5a816118f5565b15610d9c57806040517f4d6b9dd3000000000000000000000000000000000000000000000000000000008152600401610d9391906143d1565b60405180910390fd5b5f5f5f5f5f8787810190610db09190614696565b945094509450945094505f845190505f811480610dce575085518114155b15610e05576040517fa2d0fee800000000000000000000000000000000000000000000000000000000815260040160405180910390fd5b6040811115610e40576040517f7732141400000000000000000000000000000000000000000000000000000000815260040160405180910390fd5b5f60015f8973ffffffffffffffffffffffffffffffffffffffff1673ffffffffffffffffffffffffffffffffffffffff1681526020019081526020015f2090505f5b82811015610ef757610eec828a8a8481518110610ea257610ea1614745565b5b60200260200101518a8581518110610ebd57610ebc614745565b5b60200260200101515f01518b8681518110610edb57610eda614745565b5b602002602001015160200151611cc2565b806001019050610e82565b505f73ffffffffffffffffffffffffffffffffffffffff168573ffffffffffffffffffffffffffffffffffffffff16141580610f5f57505f73ffffffffffffffffffffffffffffffffffffffff168473ffffffffffffffffffffffffffffffffffffffff1614155b80610f6d57505f8360ff1614155b15610f96575f5f8460ff1614610f835783610f86565b60015b9050610f9489878784611dfe565b505b8773ffffffffffffffffffffffffffffffffffffffff167f27b541a16df0902e262f34789782092ab25125513b8ed73608e802951771b92860405160405180910390a250505050505050505050565b5f6060805f5f5f60607f0f00000000000000000000000000000000000000000000000000000000000000965061101961201e565b809650819750505046935030925090919293949596565b5f3390505f60015f8373ffffffffffffffffffffffffffffffffffffffff1673ffffffffffffffffffffffffffffffffffffffff1681526020019081526020015f2090505f61108182600101612095565b90505f5b815181101561110657825f015f8383815181106110a5576110a4614745565b5b602002602001015181526020019081526020015f205f5f82015f9055600182015f905550506110fa8282815181106110e0576110df614745565b5b602002602001015184600101611b8090919063ffffffff16565b50806001019050611085565b505f5f8473ffffffffffffffffffffffffffffffffffffffff1673ffffffffffffffffffffffffffffffffffffffff1681526020019081526020015f205f015f5f82015f6101000a81549073ffffffffffffffffffffffffffffffffffffffff0219169055600182015f6101000a81549073ffffffffffffffffffffffffffffffffffffffff02191690556001820160146101000a81549060ff021916905550508273ffffffffffffffffffffffffffffffffffffffff167f9d00629762554452d03c3b45626436df6ca1c3795d05d04df882f6db481b1be060405160405180910390a25050505050565b5f6111fb826120b7565b9050919050565b5f6001838390501015611241576040517f52f151d300000000000000000000000000000000000000000000000000000000815260040160405180910390fd5b5f83835f81811061125557611254614745565b5b9050013560f81c60f81b60f81c60ff1690505f810361136e5760418484905010156112ac576040517f52f151d300000000000000000000000000000000000000000000000000000000815260040160405180910390fd5b5f5f6112b888886120fa565b91509150806112f3576040517f52f151d300000000000000000000000000000000000000000000000000000000815260040160405180910390fd5b6113646112ff8a611c7f565b60405160200161130f9190613e58565b60405160208183030381529060405260018489896001906021926113359392919061477a565b9061134091906147ca565b8a8a6021906041926113549392919061477a565b9061135f91906147ca565b6121d6565b9350505050611557565b60208111156113a9576040517fb5ae13c800000000000000000000000000000000000000000000000000000000815260040160405180910390fd5b5f600582901b60216113bb9190614855565b90506040816113ca9190614855565b858590501015611406576040517f52f151d300000000000000000000000000000000000000000000000000000000815260040160405180910390fd5b5f858560019060219261141b9392919061477a565b9061142691906147ca565b9050365f60218801915084905061143f8282858e61230f565b611475576040517fb05e92fa00000000000000000000000000000000000000000000000000000000815260040160405180910390fd5b50505f5f6114838a8a6120fa565b91509150806114be576040517f52f151d300000000000000000000000000000000000000000000000000000000815260040160405180910390fd5b61154f6114ca846120b7565b6040516020016114da9190613e58565b6040516020818303038152906040526001848b8b899060208b6114fd9190614855565b9261150a9392919061477a565b9061151591906147ca565b8c8c60208b6115249190614855565b9060408c6115329190614855565b9261153f9392919061477a565b9061154a91906147ca565b6121d6565b955050505050505b95945050505050565b5f61158d835f0160208101906115769190613e71565b83858061010001906115889190614894565b611a8c565b1561159a575f905061159f565b600190505b92915050565b5f5f5f5f8473ffffffffffffffffffffffffffffffffffffffff1673ffffffffffffffffffffffffffffffffffffffff1681526020019081526020015f205f0160010160149054906101000a900460ff1690505f8160ff1614611608578061160b565b60015b915050919050565b5f61162085858585611a8c565b9050949350505050565b606061167460015f8473ffffffffffffffffffffffffffffffffffffffff1673ffffffffffffffffffffffffffffffffffffffff1681526020019081526020015f20600101612095565b9050919050565b868685858065ffffffffffff164211156116c1576040517fd3c92b0d00000000000000000000000000000000000000000000000000000000815260040160405180910390fd5b5f5f8573ffffffffffffffffffffffffffffffffffffffff1673ffffffffffffffffffffffffffffffffffffffff1681526020019081526020015f206002015f8381526020019081526020015f205f9054906101000a900460ff1615611753576040517f1fb09b8000000000000000000000000000000000000000000000000000000000815260040160405180910390fd5b5f83141580156117635750468314155b1561179a576040517f7a47c9a200000000000000000000000000000000000000000000000000000000815260040160405180910390fd5b60015f5f8673ffffffffffffffffffffffffffffffffffffffff1673ffffffffffffffffffffffffffffffffffffffff1681526020019081526020015f206002015f8481526020019081526020015f205f6101000a81548160ff0219169083151502179055505f61180e8c8c8c8c8c611a3d565b90505f5f5f8e73ffffffffffffffffffffffffffffffffffffffff1673ffffffffffffffffffffffffffffffffffffffff1681526020019081526020015f205f0190505f61185e82848b8b612365565b905061186a8e8d611afb565b8b5f01602081019061187c9190613c14565b61ffff168173ffffffffffffffffffffffffffffffffffffffff168f73ffffffffffffffffffffffffffffffffffffffff167fe03b4c30661857d0903939c8f7efa127ae05d3d45b1e8c13a5eda76a84e1e69b8e6040516118dd9190613eab565b60405180910390a45050505050505050505050505050565b5f5f61193f60015f8573ffffffffffffffffffffffffffffffffffffffff1673ffffffffffffffffffffffffffffffffffffffff1681526020019081526020015f20600101611b67565b119050919050565b5f60018214806119575750600782145b9050919050565b5f5f5f5f5f5f8673ffffffffffffffffffffffffffffffffffffffff1673ffffffffffffffffffffffffffffffffffffffff1681526020019081526020015f205f019050805f015f9054906101000a900473ffffffffffffffffffffffffffffffffffffffff16816001015f9054906101000a900473ffffffffffffffffffffffffffffffffffffffff168260010160149054906101000a900460ff16935093509350509193909250565b5f611a1633858585611a8c565b15611a2a57631626ba7e60e01b9050611a35565b63ffffffff60e01b90505b949350505050565b5f611a81611a7c8787875f016020810190611a589190613c14565b886020013589604001358a6060016020810190611a759190614920565b8a8a6123b2565b612430565b905095945050505050565b5f6003838390501015611aa1575f9050611af3565b5f83835f818110611ab557611ab4614745565b5b9050013560f81c60f81b60f81c60ff1690505f8103611ae257611ada868686866124a4565b915050611af3565b611aef86868686856125d7565b9150505b949350505050565b806060016020810190611b0e9190614920565b15611b3d57611b3882825f016020810190611b299190613c14565b836020013584604001356127b6565b611b63565b611b6282825f016020810190611b539190613c14565b83602001358460400135611b9d565b5b5050565b5f611b79611b74836129ce565b6129d7565b9050919050565b5f611b95611b8d846129ce565b835f1b612a24565b905092915050565b5f60015f8673ffffffffffffffffffffffffffffffffffffffff1673ffffffffffffffffffffffffffffffffffffffff1681526020019081526020015f2090505f611bea82600101611b67565b90505f8103611c3057856040517ff91bd6f1000000000000000000000000000000000000000000000000000000008152600401611c2791906143d1565b60405180910390fd5b60408110611c6a576040517f7732141400000000000000000000000000000000000000000000000000000000815260040160405180910390fd5b611c778287878787611cc2565b505050505050565b5f611cbb611cb6837f5caa3237acf0e6317d6289a3b5569dc3aacf5a11ba3f1b520dd47ecd239faa11612b3490919063ffffffff16565b612b48565b9050919050565b611cd0825f1c825f1c612bc4565b611d06576040517fa2d0fee800000000000000000000000000000000000000000000000000000000815260040160405180910390fd5b5f8361ffff169050611d248187600101612db190919063ffffffff16565b611d6557836040517fff60a9fd000000000000000000000000000000000000000000000000000000008152600401611d5c91906143f9565b60405180910390fd5b604051806040016040528084815260200183815250865f015f8381526020019081526020015f205f820151815f0155602082015181600101559050508361ffff168573ffffffffffffffffffffffffffffffffffffffff167fda884d5d59662b1731710a4f6407c966163e54e01dc2bddd947aab99e95ca2938585604051611dee929190613d06565b60405180910390a3505050505050565b60028160ff161115611e3c576040517faabd5a0900000000000000000000000000000000000000000000000000000000815260040160405180910390fd5b60028160ff1603611ee4575f73ffffffffffffffffffffffffffffffffffffffff168373ffffffffffffffffffffffffffffffffffffffff161480611eac57505f73ffffffffffffffffffffffffffffffffffffffff168273ffffffffffffffffffffffffffffffffffffffff16145b15611ee3576040517fc13a2f9c00000000000000000000000000000000000000000000000000000000815260040160405180910390fd5b5b5f5f5f8673ffffffffffffffffffffffffffffffffffffffff1673ffffffffffffffffffffffffffffffffffffffff1681526020019081526020015f205f01905083815f015f6101000a81548173ffffffffffffffffffffffffffffffffffffffff021916908373ffffffffffffffffffffffffffffffffffffffff16021790555082816001015f6101000a81548173ffffffffffffffffffffffffffffffffffffffff021916908373ffffffffffffffffffffffffffffffffffffffff160217905550818160010160146101000a81548160ff021916908360ff1602179055508473ffffffffffffffffffffffffffffffffffffffff167f8c9b95560ebc765223ef2ae107bb7b8c01b56c7d140261f67542da22e4a9471f85858560405161200f939291906142d1565b60405180910390a25050505050565b6060806040518060400160405280601081526020017f4f6e654175746856616c696461746f720000000000000000000000000000000081525091506040518060400160405280600581526020017f312e302e3000000000000000000000000000000000000000000000000000000081525090509091565b60606120b06120ab6120a6846129ce565b612dce565b612e95565b9050919050565b5f6120f36120ee837fa5a505152e3529fa0b604100bdbc62aa67739181383273446e82d3023b082e99612b3490919063ffffffff16565b612430565b9050919050565b612102613913565b5f604684849050101561211a57815f915091506121cf565b5f8480356080850152602081013560a085015260408101358060f01c604086015261ffff8160e01c16606086015261ffff8160d01c16925050508060466121619190614855565b85859050101561217757825f92509250506121cf565b8481604601850360405183815283604684016020830137808652601f19601f850116602001808201838152838660460186016020830137806020890152601f19601f8501166020018101604052505050505060019150505b9250929050565b5f5f5f6121e588600180612e9f565b90506020860151805160208201604089015160608a01518551600d81017f226368616c6c656e6765223a220000000000000000000000000000000000000060981c8852858482011060228286880101515f1a14168160138a01208286880120141686846014011085851760801c107f2274797065223a22776562617574686e2e67657422000000000000000000000060581c8588015160581c1416169950818852505050508851518a151560021b600117808160218d510151161460208311891616975087156122e15760208b510182810180516020600160208701856020868c8c60025afa60011b5afa5199508082523d6122dd57fe5b5050505b50505050508215612304576123018287608001518860a001518888612fa9565b92505b505095945050505050565b5f8315612358578360051b8501855b600115612355578035841160051b8481528135602082185260405f20945060208201915082821061234f5750612355565b5061231e565b50505b8282149050949350505050565b5f5f8560010160149054906101000a900460ff16905060018160ff161161239a5761239286868686613044565b9150506123aa565b6123a68686868661320c565b9150505b949350505050565b5f6124227f940ae5f932b9cb11db32984a210a12b57602e8b7b980dbc8bce9539ae0ce9d2c8a73ffffffffffffffffffffffffffffffffffffffff165f1b8a5f1b8a61ffff165f1b8a8a8a612407575f61240a565b60015b60ff165f1b8a5f1b8a65ffffffffffff165f1b6134b5565b905098975050505050505050565b5f5f5f61243b61201e565b915091506040517f91ab3d17e3a50a9d89e63fd30b92be7f5336b03b287bb946787a83a9d62a27665f5282516020840120602052815160208301206040523060605260805f206020526119015f52846040526042601e209350806040525f606052505050919050565b5f5f83836001906003926124ba9392919061477a565b906124c59190614976565b60f01c90505f8161ffff1690505f60015f8973ffffffffffffffffffffffffffffffffffffffff1673ffffffffffffffffffffffffffffffffffffffff1681526020019081526020015f205f015f8381526020019081526020015f206040518060400160405290815f820154815260200160018201548152505090505f5f1b815f015103612558575f93505050506125cf565b5f5f612575888860039080926125709392919061477a565b6120fa565b915091508061258b575f955050505050506125cf565b6125c76125978a611c7f565b6040516020016125a79190613e58565b604051602081830303815290604052600184865f015187602001516121d6565b955050505050505b949350505050565b5f60208211156125e9575f90506127ad565b5f600583901b60216125fb9190614855565b905060028161260a9190614855565b85859050101561261d575f9150506127ad565b5f85856001906021926126329392919061477a565b9061263d91906147ca565b9050365f6021880191508590506126568282858c61230f565b612666575f9450505050506127ad565b50505f8686849060028661267a9190614855565b926126879392919061477a565b906126929190614976565b60f01c90505f8161ffff1690505f60015f8c73ffffffffffffffffffffffffffffffffffffffff1673ffffffffffffffffffffffffffffffffffffffff1681526020019081526020015f205f015f8381526020019081526020015f206040518060400160405290815f820154815260200160018201548152505090505f5f1b815f015103612727575f955050505050506127ad565b5f5f61274f8b8b60028a61273b9190614855565b90809261274a9392919061477a565b6120fa565b9150915080612767575f9750505050505050506127ad565b6127a3612773876120b7565b6040516020016127839190613e58565b604051602081830303815290604052600184865f015187602001516121d6565b9750505050505050505b95945050505050565b5f60015f8673ffffffffffffffffffffffffffffffffffffffff1673ffffffffffffffffffffffffffffffffffffffff1681526020019081526020015f2090505f61280382600101611b67565b90505f810361284957856040517ff91bd6f100000000000000000000000000000000000000000000000000000000815260040161284091906143d1565b60405180910390fd5b612857845f1c845f1c612bc4565b61288d576040517fa2d0fee800000000000000000000000000000000000000000000000000000000815260040160405180910390fd5b5f8561ffff1690506128ab818460010161350290919063ffffffff16565b6128ec57856040517fec6a6bda0000000000000000000000000000000000000000000000000000000081526004016128e391906143f9565b60405180910390fd5b604051806040016040528086815260200185815250835f015f8381526020019081526020015f205f820151815f0155602082015181600101559050508561ffff168773ffffffffffffffffffffffffffffffffffffffff167faf333fa2fc1dbe79c8609d693a59ee1a03e0d893e2573e6e5fc6e8fe97c5aed560405160405180910390a38561ffff168773ffffffffffffffffffffffffffffffffffffffff167fda884d5d59662b1731710a4f6407c966163e54e01dc2bddd947aab99e95ca29387876040516129bd929190613d06565b60405180910390a350505050505050565b5f819050919050565b5f5f6129e28361351f565b90508019548060011c925080612a1d575f92508282015415612a1d57600192508282015415612a1d57600292508282015415612a1d57600392505b5050919050565b5f5f612a2f8461351f565b905068fbb67fda52d4bfb8bf8303612a4e5763f5a267f15f526004601cfd5b82612a605768fbb67fda52d4bfb8bf92505b801954600115612b2c5780612ad5576001925083825403612a975760018201548255600282015460018301555f6002830155612b2c565b83600183015403612ab757600282015460018301555f6002830155612b2c565b83600283015403612acd575f6002830155612b2c565b5f9250612b2c565b81602052835f5260405f20805480612aee575050612b2c565b60018360011c039250826001820314612b1857828401548060018303860155805f528160405f2055505b60018360011b178419555f82556001945050505b505092915050565b5f825f528160205260405f20905092915050565b5f612b51613536565b15612b6557612b5e61353a565b9050612ba1565b7f00000000000000000000000000000000000000000000000000000000000000009050612b90613602565b15612ba057612b9d61353a565b90505b5b6719010000000000005f5280601a5281603a52604260182090505f603a52919050565b5f5f831480612bd257505f82145b80612bfd57507fffffffff00000001000000000000000000000000ffffffffffffffffffffffff8310155b80612c2857507fffffffff00000001000000000000000000000000ffffffffffffffffffffffff8210155b15612c35575f9050612dab565b5f7fffffffff00000001000000000000000000000000ffffffffffffffffffffffff80612c6557612c646149d4565b5b83840990505f7fffffffff00000001000000000000000000000000ffffffffffffffffffffffff80612c9a57612c996149d4565b5b7f5ac635d8aa3a93e7b3ebbd55769886bc651d06b0cc53b0f63bce3c3e27d2604b7fffffffff00000001000000000000000000000000ffffffffffffffffffffffff80612cea57612ce96149d4565b5b7fffffffff00000001000000000000000000000000ffffffffffffffffffffffff80612d1957612d186149d4565b5b7fffffffff00000001000000000000000000000000fffffffffffffffffffffffc89097fffffffff00000001000000000000000000000000ffffffffffffffffffffffff80612d6b57612d6a6149d4565b5b897fffffffff00000001000000000000000000000000ffffffffffffffffffffffff80612d9b57612d9a6149d4565b5b8b8c090908089050808214925050505b92915050565b5f612dc6612dbe846129ce565b835f1b61365a565b905092915050565b60605f612dda8361351f565b905068fbb67fda52d4bfb8bf811954604051935083602001600115612e805781612e515783548015612e4b576001925083811415810282528285015490508015612e4a576002925083811415810260208301528285015490508015612e49576003925083811415810260408301525b5b5b50612e80565b8160011c91505f5b82811015612e7e57808501548481141581028260051b84015250600181019050612e59565b505b8185528160051b810160405250505050919050565b6060819050919050565b606083518015612fa1576003600282010460021b60405192507f4142434445464748494a4b4c4d4e4f505152535455565758595a616263646566601f526106708515027f6768696a6b6c6d6e6f707172737475767778797a303132333435363738392d5f18603f526020830181810183886020010180515f82525b600115612f6e5760038a0199508951603f8160121c16515f53603f81600c1c1651600153603f8160061c1651600253603f8116516003535f518552600485019450838510612f685750612f6e565b50612f1a565b8082526020830160405260038606600204613d3d60f01b81860352808915150290505f8186035280860388525050505050505b509392505050565b5f6040518681528560208201528460408201528360608201528260808201525f5f5260205f60a0836101005afa503d61300f576d1ab2e8006fd8b71907bf06a5bdee3b61300e5760205f60a0836dd01ea45f9efd5c54f037fa57ea1a5afa61300d57fe5b5b5b5f516001147f7fffffff800000007fffffffffffffffde737d56d38bcf4279dce5617e3192a886111091505095945050505050565b5f5f8383905003613081576040517f042a9b6400000000000000000000000000000000000000000000000000000000815260040160405180910390fd5b5f83835f81811061309557613094614745565b5b9050013560f81c60f81b60f81c9050365f858560019080926130b99392919061477a565b915091505f8360ff16036130f157875f015f9054906101000a900473ffffffffffffffffffffffffffffffffffffffff16935061315a565b60018360ff160361312757876001015f9054906101000a900473ffffffffffffffffffffffffffffffffffffffff169350613159565b6040517f062e942d00000000000000000000000000000000000000000000000000000000815260040160405180910390fd5b5b5f73ffffffffffffffffffffffffffffffffffffffff168473ffffffffffffffffffffffffffffffffffffffff16036131bf576040517fba53e96500000000000000000000000000000000000000000000000000000000815260040160405180910390fd5b6131cb84888484613783565b613201576040517f07a81bc400000000000000000000000000000000000000000000000000000000815260040160405180910390fd5b505050949350505050565b5f600283839050101561324b576040517f042a9b6400000000000000000000000000000000000000000000000000000000815260040160405180910390fd5b5f83835f9060029261325f9392919061477a565b9061326a9190614976565b60f01c61ffff16600261327d9190614855565b9050808484905010156132bc576040517f07a81bc400000000000000000000000000000000000000000000000000000000815260040160405180910390fd5b5f73ffffffffffffffffffffffffffffffffffffffff16865f015f9054906101000a900473ffffffffffffffffffffffffffffffffffffffff1673ffffffffffffffffffffffffffffffffffffffff16148061336657505f73ffffffffffffffffffffffffffffffffffffffff16866001015f9054906101000a900473ffffffffffffffffffffffffffffffffffffffff1673ffffffffffffffffffffffffffffffffffffffff16145b1561339d576040517fba53e96500000000000000000000000000000000000000000000000000000000815260040160405180910390fd5b6133dc865f015f9054906101000a900473ffffffffffffffffffffffffffffffffffffffff1686868660029086926133d79392919061477a565b613783565b613412576040517f07a81bc400000000000000000000000000000000000000000000000000000000815260040160405180910390fd5b613451866001015f9054906101000a900473ffffffffffffffffffffffffffffffffffffffff168686868590809261344c9392919061477a565b613783565b613487576040517f07a81bc400000000000000000000000000000000000000000000000000000000815260040160405180910390fd5b855f015f9054906101000a900473ffffffffffffffffffffffffffffffffffffffff16915050949350505050565b5f6040518a81528960208201528860408201528760608201528660808201528560a08201528460c08201528360e08201528261010082015261012081209150509998505050505050505050565b5f61351761350f846129ce565b835f1b613884565b905092915050565b5f6318fb5864600452815f5260245f209050919050565b5f90565b5f5f613544613536565b15613572575f5f61355361201e565b91509150818051906020012093508080519060200120925050506135b9565b7f000000000000000000000000000000000000000000000000000000000000000091507f000000000000000000000000000000000000000000000000000000000000000090505b6040517f8b73c3c69bb8fe3d512ecc4cf759cc79239f7b179b0ffacaa9a75d522b39400f815282602082015281604082015246606082015230608082015260a081209250505090565b5f5f7f000000000000000000000000000000000000000000000000000000000000000090505f7f0000000000000000000000000000000000000000000000000000000000000000905080301482461416159250505090565b5f5f6136658461351f565b905068fbb67fda52d4bfb8bf83036136845763f5a267f15f526004601cfd5b826136965768fbb67fda52d4bfb8bf92505b80195460011561377b578160205280613744578154806136bd57848355600193505061377b565b8481036136ca575061377b565b6001830154806136e55785600185015560019450505061377b565b8581036136f357505061377b565b60028401548061370f578660028601556001955050505061377b565b86810361371e5750505061377b565b825f52600160405f2055815f52600260405f2055805f52600360405f2055600793505050505b835f5260405f208054613779578160011c915084828401558160010181558160010160011b600117831955600193505061377b565b505b505092915050565b5f5f73ffffffffffffffffffffffffffffffffffffffff168573ffffffffffffffffffffffffffffffffffffffff16031561387c5760405160011561387a57853b61383c5782604081146137df5760418114613803575061387a565b6020850135601b8160ff1c0160205285356040528060011b60011c60605250613814565b60408501355f1a6020526040856040375b50845f526020600160805f60015afa5180871860601b3d1192505f606052816040525061387a565b631626ba7e60e01b80825285600483015260248201604081528460448401528486606485013760208160648701858b5afa9350838282511416935050505b505b949350505050565b5f5f61388f8461351f565b905068fbb67fda52d4bfb8bf83036138ae5763f5a267f15f526004601cfd5b826138c05768fbb67fda52d4bfb8bf92505b60011561390c578019546138fb5760019150828154031561390c57826001820154031561390c57826002820154031561390c575f915061390c565b80602052825f5260405f2054151591505b5092915050565b6040518060c0016040528060608152602001606081526020015f81526020015f81526020015f81526020015f81525090565b5f81519050919050565b5f82825260208201905092915050565b8281835e5f83830152505050565b5f601f19601f8301169050919050565b5f61398782613945565b613991818561394f565b93506139a181856020860161395f565b6139aa8161396d565b840191505092915050565b5f6020820190508181035f8301526139cd818461397d565b905092915050565b5f604051905090565b5f5ffd5b5f5ffd5b5f73ffffffffffffffffffffffffffffffffffffffff82169050919050565b5f613a0f826139e6565b9050919050565b613a1f81613a05565b8114613a29575f5ffd5b50565b5f81359050613a3a81613a16565b92915050565b5f819050919050565b613a5281613a40565b8114613a5c575f5ffd5b50565b5f81359050613a6d81613a49565b92915050565b5f5ffd5b5f60808284031215613a8c57613a8b613a73565b5b81905092915050565b5f65ffffffffffff82169050919050565b613aaf81613a95565b8114613ab9575f5ffd5b50565b5f81359050613aca81613aa6565b92915050565b5f5ffd5b5f5ffd5b5f5ffd5b5f5f83601f840112613af157613af0613ad0565b5b8235905067ffffffffffffffff811115613b0e57613b0d613ad4565b5b602083019150836001820283011115613b2a57613b29613ad8565b5b9250929050565b5f5f5f5f5f5f5f610120888a031215613b4d57613b4c6139de565b5b5f613b5a8a828b01613a2c565b9750506020613b6b8a828b01613a5f565b9650506040613b7c8a828b01613a77565b95505060c0613b8d8a828b01613a5f565b94505060e0613b9e8a828b01613abc565b93505061010088013567ffffffffffffffff811115613bc057613bbf6139e2565b5b613bcc8a828b01613adc565b925092505092959891949750929550565b5f61ffff82169050919050565b613bf381613bdd565b8114613bfd575f5ffd5b50565b5f81359050613c0e81613bea565b92915050565b5f60208284031215613c2957613c286139de565b5b5f613c3684828501613c00565b91505092915050565b5f5f60408385031215613c5557613c546139de565b5b5f613c6285828601613a2c565b9250506020613c7385828601613a5f565b9150509250929050565b5f8115159050919050565b613c9181613c7d565b82525050565b5f602082019050613caa5f830184613c88565b92915050565b5f5f60408385031215613cc657613cc56139de565b5b5f613cd385828601613c00565b9250506020613ce485828601613a2c565b9150509250929050565b5f819050919050565b613d0081613cee565b82525050565b5f604082019050613d195f830185613cf7565b613d266020830184613cf7565b9392505050565b613d3681613cee565b8114613d40575f5ffd5b50565b5f81359050613d5181613d2d565b92915050565b5f5f5f60608486031215613d6e57613d6d6139de565b5b5f613d7b86828701613c00565b9350506020613d8c86828701613d43565b9250506040613d9d86828701613d43565b9150509250925092565b5f60ff82169050919050565b613dbc81613da7565b8114613dc6575f5ffd5b50565b5f81359050613dd781613db3565b92915050565b5f5f5f60608486031215613df457613df36139de565b5b5f613e0186828701613a2c565b9350506020613e1286828701613a2c565b9250506040613e2386828701613dc9565b9150509250925092565b5f60208284031215613e4257613e416139de565b5b5f613e4f84828501613d43565b91505092915050565b5f602082019050613e6b5f830184613cf7565b92915050565b5f60208284031215613e8657613e856139de565b5b5f613e9384828501613a2c565b91505092915050565b613ea581613a40565b82525050565b5f602082019050613ebe5f830184613e9c565b92915050565b5f5f60208385031215613eda57613ed96139de565b5b5f83013567ffffffffffffffff811115613ef757613ef66139e2565b5b613f0385828601613adc565b92509250509250929050565b5f7fff0000000000000000000000000000000000000000000000000000000000000082169050919050565b613f4381613f0f565b82525050565b613f5281613a05565b82525050565b5f81519050919050565b5f82825260208201905092915050565b5f819050602082019050919050565b613f8a81613a40565b82525050565b5f613f9b8383613f81565b60208301905092915050565b5f602082019050919050565b5f613fbd82613f58565b613fc78185613f62565b9350613fd283613f72565b805f5b83811015614002578151613fe98882613f90565b9750613ff483613fa7565b925050600181019050613fd5565b5085935050505092915050565b5f60e0820190506140225f83018a613f3a565b8181036020830152614034818961397d565b90508181036040830152614048818861397d565b90506140576060830187613e9c565b6140646080830186613f49565b61407160a0830185613cf7565b81810360c08301526140838184613fb3565b905098975050505050505050565b5f5f5f5f5f606086880312156140aa576140a96139de565b5b5f6140b788828901613d43565b955050602086013567ffffffffffffffff8111156140d8576140d76139e2565b5b6140e488828901613adc565b9450945050604086013567ffffffffffffffff811115614107576141066139e2565b5b61411388828901613adc565b92509250509295509295909350565b5f610120828403121561413857614137613a73565b5b81905092915050565b5f5f60408385031215614157576141566139de565b5b5f83013567ffffffffffffffff811115614174576141736139e2565b5b61418085828601614122565b925050602061419185828601613d43565b9150509250929050565b5f819050919050565b5f6141be6141b96141b484613a40565b61419b565b613a40565b9050919050565b6141ce816141a4565b82525050565b5f6020820190506141e75f8301846141c5565b92915050565b6141f681613da7565b82525050565b5f60208201905061420f5f8301846141ed565b92915050565b5f5f5f5f6060858703121561422d5761422c6139de565b5b5f61423a87828801613a2c565b945050602061424b87828801613d43565b935050604085013567ffffffffffffffff81111561426c5761426b6139e2565b5b61427887828801613adc565b925092505092959194509250565b5f6020820190508181035f83015261429e8184613fb3565b905092915050565b5f602082840312156142bb576142ba6139de565b5b5f6142c884828501613a5f565b91505092915050565b5f6060820190506142e45f830186613f49565b6142f16020830185613f49565b6142fe60408301846141ed565b949350505050565b5f7fffffffff0000000000000000000000000000000000000000000000000000000082169050919050565b61433a81614306565b82525050565b5f6020820190506143535f830184614331565b92915050565b5f5f5f5f5f6101008688031215614373576143726139de565b5b5f61438088828901613a2c565b955050602061439188828901613a5f565b94505060406143a288828901613a77565b93505060c06143b388828901613a5f565b92505060e06143c488828901613abc565b9150509295509295909350565b5f6020820190506143e45f830184613f49565b92915050565b6143f381613bdd565b82525050565b5f60208201905061440c5f8301846143ea565b92915050565b7f4e487b71000000000000000000000000000000000000000000000000000000005f52604160045260245ffd5b6144488261396d565b810181811067ffffffffffffffff8211171561446757614466614412565b5b80604052505050565b5f6144796139d5565b9050614485828261443f565b919050565b5f67ffffffffffffffff8211156144a4576144a3614412565b5b602082029050602081019050919050565b5f6144c76144c28461448a565b614470565b905080838252602082019050602084028301858111156144ea576144e9613ad8565b5b835b8181101561451357806144ff8882613c00565b8452602084019350506020810190506144ec565b5050509392505050565b5f82601f83011261453157614530613ad0565b5b81356145418482602086016144b5565b91505092915050565b5f67ffffffffffffffff82111561456457614563614412565b5b602082029050602081019050919050565b5f5ffd5b5f6040828403121561458e5761458d614575565b5b6145986040614470565b90505f6145a784828501613d43565b5f8301525060206145ba84828501613d43565b60208301525092915050565b5f6145d86145d38461454a565b614470565b905080838252602082019050604084028301858111156145fb576145fa613ad8565b5b835b8181101561462457806146108882614579565b8452602084019350506040810190506145fd565b5050509392505050565b5f82601f83011261464257614641613ad0565b5b81356146528482602086016145c6565b91505092915050565b5f614665826139e6565b9050919050565b6146758161465b565b811461467f575f5ffd5b50565b5f813590506146908161466c565b92915050565b5f5f5f5f5f60a086880312156146af576146ae6139de565b5b5f86013567ffffffffffffffff8111156146cc576146cb6139e2565b5b6146d88882890161451d565b955050602086013567ffffffffffffffff8111156146f9576146f86139e2565b5b6147058882890161462e565b945050604061471688828901614682565b935050606061472788828901614682565b925050608061473888828901613dc9565b9150509295509295909350565b7f4e487b71000000000000000000000000000000000000000000000000000000005f52603260045260245ffd5b5f5ffd5b5f5ffd5b5f5f8585111561478d5761478c614772565b5b8386111561479e5761479d614776565b5b6001850283019150848603905094509492505050565b5f82905092915050565b5f82821b905092915050565b5f6147d583836147b4565b826147e08135613cee565b925060208210156148205761481b7fffffffffffffffffffffffffffffffffffffffffffffffffffffffffffffffff836020036008026147be565b831692505b505092915050565b7f4e487b71000000000000000000000000000000000000000000000000000000005f52601160045260245ffd5b5f61485f82613a40565b915061486a83613a40565b925082820190508082111561488257614881614828565b5b92915050565b5f5ffd5b5f5ffd5b5f5ffd5b5f5f833560016020038436030381126148b0576148af614888565b5b80840192508235915067ffffffffffffffff8211156148d2576148d161488c565b5b6020830192506001820236038313156148ee576148ed614890565b5b509250929050565b6148ff81613c7d565b8114614909575f5ffd5b50565b5f8135905061491a816148f6565b92915050565b5f60208284031215614935576149346139de565b5b5f6149428482850161490c565b91505092915050565b5f7fffff00000000000000000000000000000000000000000000000000000000000082169050919050565b5f61498183836147b4565b8261498c813561494b565b925060028210156149cc576149c77fffff000000000000000000000000000000000000000000000000000000000000836002036008026147be565b831692505b505092915050565b7f4e487b71000000000000000000000000000000000000000000000000000000005f52601260045260245ffdfea264697066735822122066dd0e254ce329328cc7c9f3f1112584ba1b1377e287f01465a4ff7ba749695164736f6c634300081c0033","linkReferences":{}},"methodIdentifiers":{"addCredential(uint16,bytes32,bytes32)":"5e84cc61","credentialCount(address)":"69989ffb","eip712Domain()":"84b0196e","getCredKeys(address)":"c89f2403","getCredential(uint16,address)":"3b826b0d","getPasskeyDigest(bytes32)":"65e3371a","getPasskeyMultichain(bytes32)":"9300126d","getRecoverDigest(address,uint256,(uint16,bytes32,bytes32,bool),uint256,uint48)":"fa5565e3","guardianConfig(address)":"ed3262e1","guardianThreshold(address)":"a1cdf4ed","isInitialized(address)":"d60b347f","isModuleType(uint256)":"ecd05961","isValidSignatureWithSender(address,bytes32,bytes)":"f551e2ee","name()":"06fdde03","nonceUsed(address,uint256)":"1647795e","onInstall(bytes)":"6d61fe70","onUninstall(bytes)":"8a91b0e3","recoverWithGuardian(address,uint256,(uint16,bytes32,bytes32,bool),uint256,uint48,bytes)":"d5370a3d","recoverWithPasskey(address,uint256,(uint16,bytes32,bytes32,bool),uint256,uint48,bytes)":"0cc81a93","removeCredential(uint16)":"13c50641","setGuardianConfig(address,address,uint8)":"61a8d623","validateSignatureForAccount(address,bytes32,bytes)":"a45efa49","validateSignatureWithData(bytes32,bytes,bytes)":"940d3840","validateUserOp((address,uint256,bytes,bytes,bytes32,uint256,bytes32,bytes,bytes),bytes32)":"97003203","version()":"54fd4d50"},"id":90}