{"abi":[{"type":"function","name":"addCredential","inputs":[{"name":"keyId","type":"uint16","internalType":"uint16"},{"name":"pubKeyX","type":"bytes32","internalType":"bytes32"},{"name":"pubKeyY","type":"bytes32","internalType":"bytes32"}],"outputs":[],"stateMutability":"nonpayable"},{"type":"function","name":"cancelGuardianChange","inputs":[],"outputs":[],"stateMutability":"nonpayable"},{"type":"function","name":"confirmGuardian","inputs":[],"outputs":[],"stateMutability":"nonpayable"},{"type":"function","name":"credentialCount","inputs":[{"name":"account","type":"address","internalType":"address"}],"outputs":[{"name":"","type":"uint256","internalType":"uint256"}],"stateMutability":"view"},{"type":"function","name":"eip712Domain","inputs":[],"outputs":[{"name":"fields","type":"bytes1","internalType":"bytes1"},{"name":"name","type":"string","internalType":"string"},{"name":"version","type":"string","internalType":"string"},{"name":"chainId","type":"uint256","internalType":"uint256"},{"name":"verifyingContract","type":"address","internalType":"address"},{"name":"salt","type":"bytes32","internalType":"bytes32"},{"name":"extensions","type":"uint256[]","internalType":"uint256[]"}],"stateMutability":"view"},{"type":"function","name":"getCredKeys","inputs":[{"name":"account","type":"address","internalType":"address"}],"outputs":[{"name":"","type":"uint256[]","internalType":"uint256[]"}],"stateMutability":"view"},{"type":"function","name":"getCredential","inputs":[{"name":"keyId","type":"uint16","internalType":"uint16"},{"name":"account","type":"address","internalType":"address"}],"outputs":[{"name":"pubKeyX","type":"bytes32","internalType":"bytes32"},{"name":"pubKeyY","type":"bytes32","internalType":"bytes32"}],"stateMutability":"view"},{"type":"function","name":"getPasskeyDigest","inputs":[{"name":"digest","type":"bytes32","internalType":"bytes32"}],"outputs":[{"name":"","type":"bytes32","internalType":"bytes32"}],"stateMutability":"view"},{"type":"function","name":"getPasskeyMultichain","inputs":[{"name":"root","type":"bytes32","internalType":"bytes32"}],"outputs":[{"name":"","type":"bytes32","internalType":"bytes32"}],"stateMutability":"view"},{"type":"function","name":"getRecoverDigest","inputs":[{"name":"account","type":"address","internalType":"address"},{"name":"chainId","type":"uint256","internalType":"uint256"},{"name":"cred","type":"tuple","internalType":"struct OneAuthRecoveryBase.NewCredential","components":[{"name":"keyId","type":"uint16","internalType":"uint16"},{"name":"pubKeyX","type":"bytes32","internalType":"bytes32"},{"name":"pubKeyY","type":"bytes32","internalType":"bytes32"},{"name":"replace","type":"bool","internalType":"bool"}]},{"name":"nonce","type":"uint256","internalType":"uint256"},{"name":"expiry","type":"uint48","internalType":"uint48"}],"outputs":[{"name":"","type":"bytes32","internalType":"bytes32"}],"stateMutability":"view"},{"type":"function","name":"guardian","inputs":[{"name":"account","type":"address","internalType":"address"}],"outputs":[{"name":"","type":"address","internalType":"address"}],"stateMutability":"view"},{"type":"function","name":"guardianTimelock","inputs":[{"name":"account","type":"address","internalType":"address"}],"outputs":[{"name":"","type":"uint48","internalType":"uint48"}],"stateMutability":"view"},{"type":"function","name":"isInitialized","inputs":[{"name":"smartAccount","type":"address","internalType":"address"}],"outputs":[{"name":"","type":"bool","internalType":"bool"}],"stateMutability":"view"},{"type":"function","name":"isModuleType","inputs":[{"name":"typeID","type":"uint256","internalType":"uint256"}],"outputs":[{"name":"","type":"bool","internalType":"bool"}],"stateMutability":"pure"},{"type":"function","name":"isValidSignatureWithSender","inputs":[{"name":"","type":"address","internalType":"address"},{"name":"hash","type":"bytes32","internalType":"bytes32"},{"name":"data","type":"bytes","internalType":"bytes"}],"outputs":[{"name":"","type":"bytes4","internalType":"bytes4"}],"stateMutability":"view"},{"type":"function","name":"name","inputs":[],"outputs":[{"name":"","type":"string","internalType":"string"}],"stateMutability":"pure"},{"type":"function","name":"nonceUsed","inputs":[{"name":"account","type":"address","internalType":"address"},{"name":"nonce","type":"uint256","internalType":"uint256"}],"outputs":[{"name":"","type":"bool","internalType":"bool"}],"stateMutability":"view"},{"type":"function","name":"onInstall","inputs":[{"name":"data","type":"bytes","internalType":"bytes"}],"outputs":[],"stateMutability":"nonpayable"},{"type":"function","name":"onUninstall","inputs":[{"name":"","type":"bytes","internalType":"bytes"}],"outputs":[],"stateMutability":"nonpayable"},{"type":"function","name":"pendingGuardianInfo","inputs":[{"name":"account","type":"address","internalType":"address"}],"outputs":[{"name":"pendingGuardian","type":"address","internalType":"address"},{"name":"activatesAt","type":"uint48","internalType":"uint48"}],"stateMutability":"view"},{"type":"function","name":"proposeGuardian","inputs":[{"name":"_guardian","type":"address","internalType":"address"}],"outputs":[],"stateMutability":"nonpayable"},{"type":"function","name":"recoverWithGuardian","inputs":[{"name":"account","type":"address","internalType":"address"},{"name":"chainId","type":"uint256","internalType":"uint256"},{"name":"cred","type":"tuple","internalType":"struct OneAuthRecoveryBase.NewCredential","components":[{"name":"keyId","type":"uint16","internalType":"uint16"},{"name":"pubKeyX","type":"bytes32","internalType":"bytes32"},{"name":"pubKeyY","type":"bytes32","internalType":"bytes32"},{"name":"replace","type":"bool","internalType":"bool"}]},{"name":"nonce","type":"uint256","internalType":"uint256"},{"name":"expiry","type":"uint48","internalType":"uint48"},{"name":"guardianSig","type":"bytes","internalType":"bytes"}],"outputs":[],"stateMutability":"nonpayable"},{"type":"function","name":"recoverWithPasskey","inputs":[{"name":"account","type":"address","internalType":"address"},{"name":"chainId","type":"uint256","internalType":"uint256"},{"name":"cred","type":"tuple","internalType":"struct OneAuthRecoveryBase.NewCredential","components":[{"name":"keyId","type":"uint16","internalType":"uint16"},{"name":"pubKeyX","type":"bytes32","internalType":"bytes32"},{"name":"pubKeyY","type":"bytes32","internalType":"bytes32"},{"name":"replace","type":"bool","internalType":"bool"}]},{"name":"nonce","type":"uint256","internalType":"uint256"},{"name":"expiry","type":"uint48","internalType":"uint48"},{"name":"signature","type":"bytes","internalType":"bytes"}],"outputs":[],"stateMutability":"nonpayable"},{"type":"function","name":"removeCredential","inputs":[{"name":"keyId","type":"uint16","internalType":"uint16"}],"outputs":[],"stateMutability":"nonpayable"},{"type":"function","name":"setGuardianTimelock","inputs":[{"name":"duration","type":"uint48","internalType":"uint48"}],"outputs":[],"stateMutability":"nonpayable"},{"type":"function","name":"validateSignatureWithData","inputs":[{"name":"hash","type":"bytes32","internalType":"bytes32"},{"name":"signature","type":"bytes","internalType":"bytes"},{"name":"data","type":"bytes","internalType":"bytes"}],"outputs":[{"name":"","type":"bool","internalType":"bool"}],"stateMutability":"view"},{"type":"function","name":"validateUserOp","inputs":[{"name":"userOp","type":"tuple","internalType":"struct PackedUserOperation","components":[{"name":"sender","type":"address","internalType":"address"},{"name":"nonce","type":"uint256","internalType":"uint256"},{"name":"initCode","type":"bytes","internalType":"bytes"},{"name":"callData","type":"bytes","internalType":"bytes"},{"name":"accountGasLimits","type":"bytes32","internalType":"bytes32"},{"name":"preVerificationGas","type":"uint256","internalType":"uint256"},{"name":"gasFees","type":"bytes32","internalType":"bytes32"},{"name":"paymasterAndData","type":"bytes","internalType":"bytes"},{"name":"signature","type":"bytes","internalType":"bytes"}]},{"name":"userOpHash","type":"bytes32","internalType":"bytes32"}],"outputs":[{"name":"","type":"uint256","internalType":"ERC7579ValidatorBase.ValidationData"}],"stateMutability":"view"},{"type":"function","name":"version","inputs":[],"outputs":[{"name":"","type":"string","internalType":"string"}],"stateMutability":"pure"},{"type":"event","name":"CredentialAdded","inputs":[{"name":"account","type":"address","indexed":true,"internalType":"address"},{"name":"keyId","type":"uint16","indexed":true,"internalType":"uint16"},{"name":"pubKeyX","type":"bytes32","indexed":false,"internalType":"bytes32"},{"name":"pubKeyY","type":"bytes32","indexed":false,"internalType":"bytes32"}],"anonymous":false},{"type":"event","name":"CredentialRemoved","inputs":[{"name":"account","type":"address","indexed":true,"internalType":"address"},{"name":"keyId","type":"uint16","indexed":true,"internalType":"uint16"}],"anonymous":false},{"type":"event","name":"GuardianChangeCancelled","inputs":[{"name":"account","type":"address","indexed":true,"internalType":"address"}],"anonymous":false},{"type":"event","name":"GuardianChangeProposed","inputs":[{"name":"account","type":"address","indexed":true,"internalType":"address"},{"name":"newGuardian","type":"address","indexed":true,"internalType":"address"},{"name":"activatesAt","type":"uint48","indexed":false,"internalType":"uint48"}],"anonymous":false},{"type":"event","name":"GuardianRecoveryExecuted","inputs":[{"name":"account","type":"address","indexed":true,"internalType":"address"},{"name":"guardian","type":"address","indexed":true,"internalType":"address"},{"name":"newKeyId","type":"uint16","indexed":true,"internalType":"uint16"},{"name":"nonce","type":"uint256","indexed":false,"internalType":"uint256"}],"anonymous":false},{"type":"event","name":"GuardianSet","inputs":[{"name":"account","type":"address","indexed":true,"internalType":"address"},{"name":"guardian","type":"address","indexed":true,"internalType":"address"}],"anonymous":false},{"type":"event","name":"GuardianTimelockSet","inputs":[{"name":"account","type":"address","indexed":true,"internalType":"address"},{"name":"duration","type":"uint48","indexed":false,"internalType":"uint48"}],"anonymous":false},{"type":"event","name":"ModuleInitialized","inputs":[{"name":"account","type":"address","indexed":true,"internalType":"address"}],"anonymous":false},{"type":"event","name":"ModuleUninitialized","inputs":[{"name":"account","type":"address","indexed":true,"internalType":"address"}],"anonymous":false},{"type":"event","name":"PasskeyRecoveryExecuted","inputs":[{"name":"account","type":"address","indexed":true,"internalType":"address"},{"name":"newKeyId","type":"uint16","indexed":true,"internalType":"uint16"},{"name":"nonce","type":"uint256","indexed":false,"internalType":"uint256"}],"anonymous":false},{"type":"error","name":"CannotRemoveLastCredential","inputs":[]},{"type":"error","name":"CredentialNotFound","inputs":[{"name":"keyId","type":"uint16","internalType":"uint16"}]},{"type":"error","name":"GuardianNotConfigured","inputs":[]},{"type":"error","name":"GuardianTimelockNotElapsed","inputs":[]},{"type":"error","name":"InvalidChainId","inputs":[]},{"type":"error","name":"InvalidGuardianSignature","inputs":[]},{"type":"error","name":"InvalidMerkleProof","inputs":[]},{"type":"error","name":"InvalidPublicKey","inputs":[]},{"type":"error","name":"InvalidRecoverySignature","inputs":[]},{"type":"error","name":"InvalidSignatureData","inputs":[]},{"type":"error","name":"KeyIdAlreadyExists","inputs":[{"name":"keyId","type":"uint16","internalType":"uint16"}]},{"type":"error","name":"ModuleAlreadyInitialized","inputs":[{"name":"smartAccount","type":"address","internalType":"address"}]},{"type":"error","name":"NoPendingGuardianChange","inputs":[]},{"type":"error","name":"NonceAlreadyUsed","inputs":[]},{"type":"error","name":"NotInitialized","inputs":[{"name":"smartAccount","type":"address","internalType":"address"}]},{"type":"error","name":"ProofTooLong","inputs":[]},{"type":"error","name":"RecoveryExpired","inputs":[]},{"type":"error","name":"TooManyCredentials","inputs":[]}],"bytecode":{"object":"0x610120604052348015610010575f5ffd5b503073ffffffffffffffffffffffffffffffffffffffff16608081815250504660a0818152505060608061004861012b60201b60201c565b6100635761005a61012f60201b60201c565b80925081935050505b5f61007261012b60201b60201c565b610083578280519060200120610087565b5f5f1b5b90505f61009861012b60201b60201c565b6100a95782805190602001206100ad565b5f5f1b5b90508160c081815250508060e081815250505f6100ce61012b60201b60201c565b610118576040517f8b73c3c69bb8fe3d512ecc4cf759cc79239f7b179b0ffacaa9a75d522b39400f815283602082015282604082015246606082015230608082015260a081209150505b80610100818152505050505050506101a6565b5f90565b6060806040518060400160405280601081526020017f4f6e654175746856616c696461746f720000000000000000000000000000000081525091506040518060400160405280600581526020017f312e302e3000000000000000000000000000000000000000000000000000000081525090509091565b60805160a05160c05160e05161010051614a106101e35f395f6130f501525f6136b401525f61369101525f61372301525f6137470152614a105ff3fe608060405234801561000f575f5ffd5b50600436106101c2575f3560e01c8063940d3840116100f7578063d60b347f11610095578063f29e22361161006f578063f29e223614610552578063f551e2ee14610582578063fa5565e3146105b2578063fb49fe27146105e2576101c2565b8063d60b347f146104d6578063ecd0596114610506578063eee07f9514610536576101c2565b8063ade81692116100d1578063ade816921461043e578063c304555f1461046e578063c89f24031461048a578063d5370a3d146104ba576101c2565b8063940d3840146103ad57806397003203146103dd5780639e9848fe1461040d576101c2565b80635e84cc61116101645780636d61fe701161013e5780636d61fe701461032157806384b0196e1461033d5780638a91b0e3146103615780639300126d1461037d576101c2565b80635e84cc61146102a557806365e3371a146102c157806369989ffb146102f1576101c2565b80631647795e116101a05780631647795e1461021c5780631e0ea61e1461024c5780633b826b0d1461025657806354fd4d5014610287576101c2565b806306fdde03146101c65780630cc81a93146101e457806313c5064114610200575b5f5ffd5b6101ce6105ec565b6040516101db91906139d1565b60405180910390f35b6101fe60048036038101906101f99190613b4d565b610629565b005b61021a60048036038101906102159190613c30565b61087c565b005b61023660048036038101906102319190613c5b565b610a1d565b6040516102439190613cb3565b60405180910390f35b610254610a81565b005b610270600480360381019061026b9190613ccc565b610c90565b60405161027e929190613d22565b60405180910390f35b61028f610d01565b60405161029c91906139d1565b60405180910390f35b6102bf60048036038101906102ba9190613d73565b610d3e565b005b6102db60048036038101906102d69190613dc3565b610d4f565b6040516102e89190613dee565b60405180910390f35b61030b60048036038101906103069190613e07565b610d60565b6040516103189190613e41565b60405180910390f35b61033b60048036038101906103369190613e5a565b610db0565b005b6103456110a4565b6040516103589796959493929190613fa5565b60405180910390f35b61037b60048036038101906103769190613e5a565b6110ef565b005b61039760048036038101906103929190613dc3565b611379565b6040516103a49190613dee565b60405180910390f35b6103c760048036038101906103c29190614027565b61138a565b6040516103d49190613cb3565b60405180910390f35b6103f760048036038101906103f291906140d7565b6116e8565b604051610404919061416a565b60405180910390f35b61042760048036038101906104229190613e07565b61172d565b604051610435929190614192565b60405180910390f35b61045860048036038101906104539190613e07565b6117b3565b60405161046591906141b9565b60405180910390f35b61048860048036038101906104839190613e07565b61180d565b005b6104a4600480360381019061049f9190613e07565b611a0a565b6040516104b191906141d2565b60405180910390f35b6104d460048036038101906104cf9190613b4d565b611a5b565b005b6104f060048036038101906104eb9190613e07565b611d8c565b6040516104fd9190613cb3565b60405180910390f35b610520600480360381019061051b91906141f2565b611dde565b60405161052d9190613cb3565b60405180910390f35b610550600480360381019061054b919061421d565b611df5565b005b61056c60048036038101906105679190613e07565b611ea8565b6040516105799190614248565b60405180910390f35b61059c60048036038101906105979190614261565b611f0e565b6040516105a9919061430c565b60405180910390f35b6105cc60048036038101906105c79190614325565b611f42565b6040516105d99190613dee565b60405180910390f35b6105ea611f91565b005b60606040518060400160405280601081526020017f4f6e654175746856616c696461746f7200000000000000000000000000000000815250905090565b868685858065ffffffffffff1642111561066f576040517fd3c92b0d00000000000000000000000000000000000000000000000000000000815260040160405180910390fd5b5f5f8573ffffffffffffffffffffffffffffffffffffffff1673ffffffffffffffffffffffffffffffffffffffff1681526020019081526020015f206002015f8381526020019081526020015f205f9054906101000a900460ff1615610701576040517f1fb09b8000000000000000000000000000000000000000000000000000000000815260040160405180910390fd5b5f83141580156107115750468314155b15610748576040517f7a47c9a200000000000000000000000000000000000000000000000000000000815260040160405180910390fd5b60015f5f8673ffffffffffffffffffffffffffffffffffffffff1673ffffffffffffffffffffffffffffffffffffffff1681526020019081526020015f206002015f8481526020019081526020015f205f6101000a81548160ff0219169083151502179055505f6107bc8c8c8c8c8c611f42565b90506107ca8c8289896120ac565b610800576040517f62a281f100000000000000000000000000000000000000000000000000000000815260040160405180910390fd5b61080a8c8b61211b565b895f01602081019061081c9190613c30565b61ffff168c73ffffffffffffffffffffffffffffffffffffffff167fecca216aa14b66eb6599c0102f4caedc012eeaac8b6caf0446c274defd1e2dd48b6040516108669190613e41565b60405180910390a3505050505050505050505050565b5f3390505f60015f8373ffffffffffffffffffffffffffffffffffffffff1673ffffffffffffffffffffffffffffffffffffffff1681526020019081526020015f2090505f6108cd82600101612187565b90505f810361091357826040517ff91bd6f100000000000000000000000000000000000000000000000000000000815260040161090a9190614248565b60405180910390fd5b6001811161094d576040517fd2f2c18b00000000000000000000000000000000000000000000000000000000815260040160405180910390fd5b5f8461ffff16905061096b81846001016121a090919063ffffffff16565b6109ac57846040517fec6a6bda0000000000000000000000000000000000000000000000000000000081526004016109a391906143ac565b60405180910390fd5b825f015f8281526020019081526020015f205f5f82015f9055600182015f905550508461ffff168473ffffffffffffffffffffffffffffffffffffffff167faf333fa2fc1dbe79c8609d693a59ee1a03e0d893e2573e6e5fc6e8fe97c5aed560405160405180910390a35050505050565b5f5f5f8473ffffffffffffffffffffffffffffffffffffffff1673ffffffffffffffffffffffffffffffffffffffff1681526020019081526020015f206002015f8381526020019081526020015f205f9054906101000a900460ff16905092915050565b5f5f5f3373ffffffffffffffffffffffffffffffffffffffff1673ffffffffffffffffffffffffffffffffffffffff1681526020019081526020015f2090505f8160010160149054906101000a900465ffffffffffff1665ffffffffffff1603610b17576040517fb2d4128a00000000000000000000000000000000000000000000000000000000815260040160405180910390fd5b8060010160149054906101000a900465ffffffffffff1665ffffffffffff16421015610b6e576040517e7ca6c500000000000000000000000000000000000000000000000000000000815260040160405180910390fd5b806001015f9054906101000a900473ffffffffffffffffffffffffffffffffffffffff16815f015f6101000a81548173ffffffffffffffffffffffffffffffffffffffff021916908373ffffffffffffffffffffffffffffffffffffffff160217905550806001015f6101000a81549073ffffffffffffffffffffffffffffffffffffffff02191690558060010160146101000a81549065ffffffffffff0219169055805f015f9054906101000a900473ffffffffffffffffffffffffffffffffffffffff1673ffffffffffffffffffffffffffffffffffffffff163373ffffffffffffffffffffffffffffffffffffffff167fc3ce29e3ab42e524b6f6f1b4d3674898d503ee3577a64ac87b555904ebc1413860405160405180910390a350565b5f5f5f8461ffff1690505f60015f8673ffffffffffffffffffffffffffffffffffffffff1673ffffffffffffffffffffffffffffffffffffffff1681526020019081526020015f205f015f8381526020019081526020015f209050805f015481600101549350935050509250929050565b60606040518060400160405280600581526020017f312e302e30000000000000000000000000000000000000000000000000000000815250905090565b610d4a338484846121bd565b505050565b5f610d598261229f565b9050919050565b5f610da960015f8473ffffffffffffffffffffffffffffffffffffffff1673ffffffffffffffffffffffffffffffffffffffff1681526020019081526020015f20600101612187565b9050919050565b5f339050610dbd81611d8c565b15610dff57806040517f4d6b9dd3000000000000000000000000000000000000000000000000000000008152600401610df69190614248565b60405180910390fd5b5f5f5f5f8686810190610e129190614649565b93509350935093505f835190505f811480610e2e575084518114155b15610e65576040517fa2d0fee800000000000000000000000000000000000000000000000000000000815260040160405180910390fd5b6040811115610ea0576040517f7732141400000000000000000000000000000000000000000000000000000000815260040160405180910390fd5b5f60015f8873ffffffffffffffffffffffffffffffffffffffff1673ffffffffffffffffffffffffffffffffffffffff1681526020019081526020015f2090505f5b82811015610f5757610f4c8289898481518110610f0257610f016146e5565b5b6020026020010151898581518110610f1d57610f1c6146e5565b5b60200260200101515f01518a8681518110610f3b57610f3a6146e5565b5b6020026020010151602001516122e2565b806001019050610ee2565b505f73ffffffffffffffffffffffffffffffffffffffff168473ffffffffffffffffffffffffffffffffffffffff1614610f9657610f95878561241e565b5b5f8365ffffffffffff161461105657825f5f8973ffffffffffffffffffffffffffffffffffffffff1673ffffffffffffffffffffffffffffffffffffffff1681526020019081526020015f20600101601a6101000a81548165ffffffffffff021916908365ffffffffffff1602179055508673ffffffffffffffffffffffffffffffffffffffff167fcba838d391958f3a34ce6f23d62bad96f9f41d9921a813d0f000b42b476466bf8460405161104d91906141b9565b60405180910390a25b8673ffffffffffffffffffffffffffffffffffffffff167f27b541a16df0902e262f34789782092ab25125513b8ed73608e802951771b92860405160405180910390a2505050505050505050565b5f6060805f5f5f60607f0f0000000000000000000000000000000000000000000000000000000000000096506110d86124f8565b809650819750505046935030925090919293949596565b5f3390505f60015f8373ffffffffffffffffffffffffffffffffffffffff1673ffffffffffffffffffffffffffffffffffffffff1681526020019081526020015f2090505f6111408260010161256f565b90505f5b81518110156111c557825f015f838381518110611164576111636146e5565b5b602002602001015181526020019081526020015f205f5f82015f9055600182015f905550506111b982828151811061119f5761119e6146e5565b5b6020026020010151846001016121a090919063ffffffff16565b50806001019050611144565b505f5f8473ffffffffffffffffffffffffffffffffffffffff1673ffffffffffffffffffffffffffffffffffffffff1681526020019081526020015f205f015f6101000a81549073ffffffffffffffffffffffffffffffffffffffff02191690555f5f8473ffffffffffffffffffffffffffffffffffffffff1673ffffffffffffffffffffffffffffffffffffffff1681526020019081526020015f206001015f6101000a81549073ffffffffffffffffffffffffffffffffffffffff02191690555f5f8473ffffffffffffffffffffffffffffffffffffffff1673ffffffffffffffffffffffffffffffffffffffff1681526020019081526020015f2060010160146101000a81549065ffffffffffff02191690555f5f8473ffffffffffffffffffffffffffffffffffffffff1673ffffffffffffffffffffffffffffffffffffffff1681526020019081526020015f20600101601a6101000a81549065ffffffffffff02191690558273ffffffffffffffffffffffffffffffffffffffff167f9d00629762554452d03c3b45626436df6ca1c3795d05d04df882f6db481b1be060405160405180910390a25050505050565b5f61138382612591565b9050919050565b5f60018383905010156113c9576040517f52f151d300000000000000000000000000000000000000000000000000000000815260040160405180910390fd5b5f83835f8181106113dd576113dc6146e5565b5b9050013560f81c60f81b60f81c60ff1690505f81036114f6576041848490501015611434576040517f52f151d300000000000000000000000000000000000000000000000000000000815260040160405180910390fd5b5f5f61144088886125d4565b915091508061147b576040517f52f151d300000000000000000000000000000000000000000000000000000000815260040160405180910390fd5b6114ec6114878a61229f565b6040516020016114979190613dee565b60405160208183030381529060405260018489896001906021926114bd9392919061471a565b906114c8919061476a565b8a8a6021906041926114dc9392919061471a565b906114e7919061476a565b6126b0565b93505050506116df565b6020811115611531576040517fb5ae13c800000000000000000000000000000000000000000000000000000000815260040160405180910390fd5b5f600582901b602161154391906147f5565b905060408161155291906147f5565b85859050101561158e576040517f52f151d300000000000000000000000000000000000000000000000000000000815260040160405180910390fd5b5f85856001906021926115a39392919061471a565b906115ae919061476a565b9050365f6021880191508490506115c78282858e6127e9565b6115fd576040517fb05e92fa00000000000000000000000000000000000000000000000000000000815260040160405180910390fd5b50505f5f61160b8a8a6125d4565b9150915080611646576040517f52f151d300000000000000000000000000000000000000000000000000000000815260040160405180910390fd5b6116d761165284612591565b6040516020016116629190613dee565b6040516020818303038152906040526001848b8b899060208b61168591906147f5565b926116929392919061471a565b9061169d919061476a565b8c8c60208b6116ac91906147f5565b9060408c6116ba91906147f5565b926116c79392919061471a565b906116d2919061476a565b6126b0565b955050505050505b95945050505050565b5f611715835f0160208101906116fe9190613e07565b83858061010001906117109190614834565b6120ac565b15611722575f9050611727565b600190505b92915050565b5f5f5f5f5f8573ffffffffffffffffffffffffffffffffffffffff1673ffffffffffffffffffffffffffffffffffffffff1681526020019081526020015f209050806001015f9054906101000a900473ffffffffffffffffffffffffffffffffffffffff168160010160149054906101000a900465ffffffffffff169250925050915091565b5f5f5f8373ffffffffffffffffffffffffffffffffffffffff1673ffffffffffffffffffffffffffffffffffffffff1681526020019081526020015f20600101601a9054906101000a900465ffffffffffff169050919050565b5f5f5f3373ffffffffffffffffffffffffffffffffffffffff1673ffffffffffffffffffffffffffffffffffffffff1681526020019081526020015f2090505f81600101601a9054906101000a900465ffffffffffff1690505f8165ffffffffffff16036119155782825f015f6101000a81548173ffffffffffffffffffffffffffffffffffffffff021916908373ffffffffffffffffffffffffffffffffffffffff1602179055508273ffffffffffffffffffffffffffffffffffffffff163373ffffffffffffffffffffffffffffffffffffffff167fc3ce29e3ab42e524b6f6f1b4d3674898d503ee3577a64ac87b555904ebc1413860405160405180910390a3611a05565b82826001015f6101000a81548173ffffffffffffffffffffffffffffffffffffffff021916908373ffffffffffffffffffffffffffffffffffffffff16021790555080426119639190614896565b8260010160146101000a81548165ffffffffffff021916908365ffffffffffff1602179055508273ffffffffffffffffffffffffffffffffffffffff163373ffffffffffffffffffffffffffffffffffffffff167f6de9bf47b5f33555aaff7b6b7ab4108a3b2480aa5cef8d7b24b82fef66bee9c28460010160149054906101000a900465ffffffffffff166040516119fc91906141b9565b60405180910390a35b505050565b6060611a5460015f8473ffffffffffffffffffffffffffffffffffffffff1673ffffffffffffffffffffffffffffffffffffffff1681526020019081526020015f2060010161256f565b9050919050565b868685858065ffffffffffff16421115611aa1576040517fd3c92b0d00000000000000000000000000000000000000000000000000000000815260040160405180910390fd5b5f5f8573ffffffffffffffffffffffffffffffffffffffff1673ffffffffffffffffffffffffffffffffffffffff1681526020019081526020015f206002015f8381526020019081526020015f205f9054906101000a900460ff1615611b33576040517f1fb09b8000000000000000000000000000000000000000000000000000000000815260040160405180910390fd5b5f8314158015611b435750468314155b15611b7a576040517f7a47c9a200000000000000000000000000000000000000000000000000000000815260040160405180910390fd5b60015f5f8673ffffffffffffffffffffffffffffffffffffffff1673ffffffffffffffffffffffffffffffffffffffff1681526020019081526020015f206002015f8481526020019081526020015f205f6101000a81548160ff0219169083151502179055505f5f5f8d73ffffffffffffffffffffffffffffffffffffffff1673ffffffffffffffffffffffffffffffffffffffff1681526020019081526020015f205f015f9054906101000a900473ffffffffffffffffffffffffffffffffffffffff1690505f73ffffffffffffffffffffffffffffffffffffffff168173ffffffffffffffffffffffffffffffffffffffff1603611ca6576040517fba53e96500000000000000000000000000000000000000000000000000000000815260040160405180910390fd5b5f611cb48d8d8d8d8d611f42565b9050611cc282828a8a61283f565b611cf8576040517f07a81bc400000000000000000000000000000000000000000000000000000000815260040160405180910390fd5b611d028d8c61211b565b8a5f016020810190611d149190613c30565b61ffff168273ffffffffffffffffffffffffffffffffffffffff168e73ffffffffffffffffffffffffffffffffffffffff167fe03b4c30661857d0903939c8f7efa127ae05d3d45b1e8c13a5eda76a84e1e69b8d604051611d759190613e41565b60405180910390a450505050505050505050505050565b5f5f611dd660015f8573ffffffffffffffffffffffffffffffffffffffff1673ffffffffffffffffffffffffffffffffffffffff1681526020019081526020015f20600101612187565b119050919050565b5f6001821480611dee5750600782145b9050919050565b805f5f3373ffffffffffffffffffffffffffffffffffffffff1673ffffffffffffffffffffffffffffffffffffffff1681526020019081526020015f20600101601a6101000a81548165ffffffffffff021916908365ffffffffffff1602179055503373ffffffffffffffffffffffffffffffffffffffff167fcba838d391958f3a34ce6f23d62bad96f9f41d9921a813d0f000b42b476466bf82604051611e9d91906141b9565b60405180910390a250565b5f5f5f8373ffffffffffffffffffffffffffffffffffffffff1673ffffffffffffffffffffffffffffffffffffffff1681526020019081526020015f205f015f9054906101000a900473ffffffffffffffffffffffffffffffffffffffff169050919050565b5f611f1b338585856120ac565b15611f2f57631626ba7e60e01b9050611f3a565b63ffffffff60e01b90505b949350505050565b5f611f86611f818787875f016020810190611f5d9190613c30565b886020013589604001358a6060016020810190611f7a91906148f9565b8a8a612940565b6129be565b905095945050505050565b5f5f5f3373ffffffffffffffffffffffffffffffffffffffff1673ffffffffffffffffffffffffffffffffffffffff1681526020019081526020015f2090505f8160010160149054906101000a900465ffffffffffff1665ffffffffffff1603612027576040517fb2d4128a00000000000000000000000000000000000000000000000000000000815260040160405180910390fd5b806001015f6101000a81549073ffffffffffffffffffffffffffffffffffffffff02191690558060010160146101000a81549065ffffffffffff02191690553373ffffffffffffffffffffffffffffffffffffffff167f5ae227c61b99acf187c3d22024c93e59de6781577dae8a3ba642a5cc1b9d7c4060405160405180910390a250565b5f60038383905010156120c1575f9050612113565b5f83835f8181106120d5576120d46146e5565b5b9050013560f81c60f81b60f81c60ff1690505f8103612102576120fa86868686612a32565b915050612113565b61210f8686868685612b65565b9150505b949350505050565b80606001602081019061212e91906148f9565b1561215d5761215882825f0160208101906121499190613c30565b83602001358460400135612d44565b612183565b61218282825f0160208101906121739190613c30565b836020013584604001356121bd565b5b5050565b5f61219961219483612f5c565b612f65565b9050919050565b5f6121b56121ad84612f5c565b835f1b612fb2565b905092915050565b5f60015f8673ffffffffffffffffffffffffffffffffffffffff1673ffffffffffffffffffffffffffffffffffffffff1681526020019081526020015f2090505f61220a82600101612187565b90505f810361225057856040517ff91bd6f10000000000000000000000000000000000000000000000000000000081526004016122479190614248565b60405180910390fd5b6040811061228a576040517f7732141400000000000000000000000000000000000000000000000000000000815260040160405180910390fd5b61229782878787876122e2565b505050505050565b5f6122db6122d6837f5caa3237acf0e6317d6289a3b5569dc3aacf5a11ba3f1b520dd47ecd239faa116130c290919063ffffffff16565b6130d6565b9050919050565b6122f0825f1c825f1c613152565b612326576040517fa2d0fee800000000000000000000000000000000000000000000000000000000815260040160405180910390fd5b5f8361ffff169050612344818760010161333f90919063ffffffff16565b61238557836040517fff60a9fd00000000000000000000000000000000000000000000000000000000815260040161237c91906143ac565b60405180910390fd5b604051806040016040528084815260200183815250865f015f8381526020019081526020015f205f820151815f0155602082015181600101559050508361ffff168573ffffffffffffffffffffffffffffffffffffffff167fda884d5d59662b1731710a4f6407c966163e54e01dc2bddd947aab99e95ca293858560405161240e929190613d22565b60405180910390a3505050505050565b805f5f8473ffffffffffffffffffffffffffffffffffffffff1673ffffffffffffffffffffffffffffffffffffffff1681526020019081526020015f205f015f6101000a81548173ffffffffffffffffffffffffffffffffffffffff021916908373ffffffffffffffffffffffffffffffffffffffff1602179055508073ffffffffffffffffffffffffffffffffffffffff168273ffffffffffffffffffffffffffffffffffffffff167fc3ce29e3ab42e524b6f6f1b4d3674898d503ee3577a64ac87b555904ebc1413860405160405180910390a35050565b6060806040518060400160405280601081526020017f4f6e654175746856616c696461746f720000000000000000000000000000000081525091506040518060400160405280600581526020017f312e302e3000000000000000000000000000000000000000000000000000000081525090509091565b606061258a61258561258084612f5c565b61335c565b613423565b9050919050565b5f6125cd6125c8837fa5a505152e3529fa0b604100bdbc62aa67739181383273446e82d3023b082e996130c290919063ffffffff16565b6129be565b9050919050565b6125dc61392f565b5f60468484905010156125f457815f915091506126a9565b5f8480356080850152602081013560a085015260408101358060f01c604086015261ffff8160e01c16606086015261ffff8160d01c169250505080604661263b91906147f5565b85859050101561265157825f92509250506126a9565b8481604601850360405183815283604684016020830137808652601f19601f850116602001808201838152838660460186016020830137806020890152601f19601f8501166020018101604052505050505060019150505b9250929050565b5f5f5f6126bf8860018061342d565b90506020860151805160208201604089015160608a01518551600d81017f226368616c6c656e6765223a220000000000000000000000000000000000000060981c8852858482011060228286880101515f1a14168160138a01208286880120141686846014011085851760801c107f2274797065223a22776562617574686e2e67657422000000000000000000000060581c8588015160581c1416169950818852505050508851518a151560021b600117808160218d510151161460208311891616975087156127bb5760208b510182810180516020600160208701856020868c8c60025afa60011b5afa5199508082523d6127b757fe5b5050505b505050505082156127de576127db8287608001518860a001518888613537565b92505b505095945050505050565b5f8315612832578360051b8501855b60011561282f578035841160051b8481528135602082185260405f209450602082019150828210612829575061282f565b506127f8565b50505b8282149050949350505050565b5f5f73ffffffffffffffffffffffffffffffffffffffff168573ffffffffffffffffffffffffffffffffffffffff1603156129385760405160011561293657853b6128f857826040811461289b57604181146128bf5750612936565b6020850135601b8160ff1c0160205285356040528060011b60011c606052506128d0565b60408501355f1a6020526040856040375b50845f526020600160805f60015afa5180871860601b3d1192505f6060528160405250612936565b631626ba7e60e01b80825285600483015260248201604081528460448401528486606485013760208160648701858b5afa9350838282511416935050505b505b949350505050565b5f6129b07f940ae5f932b9cb11db32984a210a12b57602e8b7b980dbc8bce9539ae0ce9d2c8a73ffffffffffffffffffffffffffffffffffffffff165f1b8a5f1b8a61ffff165f1b8a8a8a612995575f612998565b60015b60ff165f1b8a5f1b8a65ffffffffffff165f1b6135d2565b905098975050505050505050565b5f5f5f6129c96124f8565b915091506040517f91ab3d17e3a50a9d89e63fd30b92be7f5336b03b287bb946787a83a9d62a27665f5282516020840120602052815160208301206040523060605260805f206020526119015f52846040526042601e209350806040525f606052505050919050565b5f5f8383600190600392612a489392919061471a565b90612a53919061494f565b60f01c90505f8161ffff1690505f60015f8973ffffffffffffffffffffffffffffffffffffffff1673ffffffffffffffffffffffffffffffffffffffff1681526020019081526020015f205f015f8381526020019081526020015f206040518060400160405290815f820154815260200160018201548152505090505f5f1b815f015103612ae6575f9350505050612b5d565b5f5f612b0388886003908092612afe9392919061471a565b6125d4565b9150915080612b19575f95505050505050612b5d565b612b55612b258a61229f565b604051602001612b359190613dee565b604051602081830303815290604052600184865f015187602001516126b0565b955050505050505b949350505050565b5f6020821115612b77575f9050612d3b565b5f600583901b6021612b8991906147f5565b9050600281612b9891906147f5565b858590501015612bab575f915050612d3b565b5f8585600190602192612bc09392919061471a565b90612bcb919061476a565b9050365f602188019150859050612be48282858c6127e9565b612bf4575f945050505050612d3b565b50505f86868490600286612c0891906147f5565b92612c159392919061471a565b90612c20919061494f565b60f01c90505f8161ffff1690505f60015f8c73ffffffffffffffffffffffffffffffffffffffff1673ffffffffffffffffffffffffffffffffffffffff1681526020019081526020015f205f015f8381526020019081526020015f206040518060400160405290815f820154815260200160018201548152505090505f5f1b815f015103612cb5575f95505050505050612d3b565b5f5f612cdd8b8b60028a612cc991906147f5565b908092612cd89392919061471a565b6125d4565b9150915080612cf5575f975050505050505050612d3b565b612d31612d0187612591565b604051602001612d119190613dee565b604051602081830303815290604052600184865f015187602001516126b0565b9750505050505050505b95945050505050565b5f60015f8673ffffffffffffffffffffffffffffffffffffffff1673ffffffffffffffffffffffffffffffffffffffff1681526020019081526020015f2090505f612d9182600101612187565b90505f8103612dd757856040517ff91bd6f1000000000000000000000000000000000000000000000000000000008152600401612dce9190614248565b60405180910390fd5b612de5845f1c845f1c613152565b612e1b576040517fa2d0fee800000000000000000000000000000000000000000000000000000000815260040160405180910390fd5b5f8561ffff169050612e39818460010161361f90919063ffffffff16565b612e7a57856040517fec6a6bda000000000000000000000000000000000000000000000000000000008152600401612e7191906143ac565b60405180910390fd5b604051806040016040528086815260200185815250835f015f8381526020019081526020015f205f820151815f0155602082015181600101559050508561ffff168773ffffffffffffffffffffffffffffffffffffffff167faf333fa2fc1dbe79c8609d693a59ee1a03e0d893e2573e6e5fc6e8fe97c5aed560405160405180910390a38561ffff168773ffffffffffffffffffffffffffffffffffffffff167fda884d5d59662b1731710a4f6407c966163e54e01dc2bddd947aab99e95ca2938787604051612f4b929190613d22565b60405180910390a350505050505050565b5f819050919050565b5f5f612f708361363c565b90508019548060011c925080612fab575f92508282015415612fab57600192508282015415612fab57600292508282015415612fab57600392505b5050919050565b5f5f612fbd8461363c565b905068fbb67fda52d4bfb8bf8303612fdc5763f5a267f15f526004601cfd5b82612fee5768fbb67fda52d4bfb8bf92505b8019546001156130ba57806130635760019250838254036130255760018201548255600282015460018301555f60028301556130ba565b8360018301540361304557600282015460018301555f60028301556130ba565b8360028301540361305b575f60028301556130ba565b5f92506130ba565b81602052835f5260405f2080548061307c5750506130ba565b60018360011c0392508260018203146130a657828401548060018303860155805f528160405f2055505b60018360011b178419555f82556001945050505b505092915050565b5f825f528160205260405f20905092915050565b5f6130df613653565b156130f3576130ec613657565b905061312f565b7f0000000000000000000000000000000000000000000000000000000000000000905061311e61371f565b1561312e5761312b613657565b90505b5b6719010000000000005f5280601a5281603a52604260182090505f603a52919050565b5f5f83148061316057505f82145b8061318b57507fffffffff00000001000000000000000000000000ffffffffffffffffffffffff8310155b806131b657507fffffffff00000001000000000000000000000000ffffffffffffffffffffffff8210155b156131c3575f9050613339565b5f7fffffffff00000001000000000000000000000000ffffffffffffffffffffffff806131f3576131f26149ad565b5b83840990505f7fffffffff00000001000000000000000000000000ffffffffffffffffffffffff80613228576132276149ad565b5b7f5ac635d8aa3a93e7b3ebbd55769886bc651d06b0cc53b0f63bce3c3e27d2604b7fffffffff00000001000000000000000000000000ffffffffffffffffffffffff80613278576132776149ad565b5b7fffffffff00000001000000000000000000000000ffffffffffffffffffffffff806132a7576132a66149ad565b5b7fffffffff00000001000000000000000000000000fffffffffffffffffffffffc89097fffffffff00000001000000000000000000000000ffffffffffffffffffffffff806132f9576132f86149ad565b5b897fffffffff00000001000000000000000000000000ffffffffffffffffffffffff80613329576133286149ad565b5b8b8c090908089050808214925050505b92915050565b5f61335461334c84612f5c565b835f1b613777565b905092915050565b60605f6133688361363c565b905068fbb67fda52d4bfb8bf81195460405193508360200160011561340e57816133df57835480156133d95760019250838114158102825282850154905080156133d85760029250838114158102602083015282850154905080156133d7576003925083811415810260408301525b5b5b5061340e565b8160011c91505f5b8281101561340c57808501548481141581028260051b840152506001810190506133e7565b505b8185528160051b810160405250505050919050565b6060819050919050565b60608351801561352f576003600282010460021b60405192507f4142434445464748494a4b4c4d4e4f505152535455565758595a616263646566601f526106708515027f6768696a6b6c6d6e6f707172737475767778797a303132333435363738392d5f18603f526020830181810183886020010180515f82525b6001156134fc5760038a0199508951603f8160121c16515f53603f81600c1c1651600153603f8160061c1651600253603f8116516003535f5185526004850194508385106134f657506134fc565b506134a8565b8082526020830160405260038606600204613d3d60f01b81860352808915150290505f8186035280860388525050505050505b509392505050565b5f6040518681528560208201528460408201528360608201528260808201525f5f5260205f60a0836101005afa503d61359d576d1ab2e8006fd8b71907bf06a5bdee3b61359c5760205f60a0836dd01ea45f9efd5c54f037fa57ea1a5afa61359b57fe5b5b5b5f516001147f7fffffff800000007fffffffffffffffde737d56d38bcf4279dce5617e3192a886111091505095945050505050565b5f6040518a81528960208201528860408201528760608201528660808201528560a08201528460c08201528360e08201528261010082015261012081209150509998505050505050505050565b5f61363461362c84612f5c565b835f1b6138a0565b905092915050565b5f6318fb5864600452815f5260245f209050919050565b5f90565b5f5f613661613653565b1561368f575f5f6136706124f8565b91509150818051906020012093508080519060200120925050506136d6565b7f000000000000000000000000000000000000000000000000000000000000000091507f000000000000000000000000000000000000000000000000000000000000000090505b6040517f8b73c3c69bb8fe3d512ecc4cf759cc79239f7b179b0ffacaa9a75d522b39400f815282602082015281604082015246606082015230608082015260a081209250505090565b5f5f7f000000000000000000000000000000000000000000000000000000000000000090505f7f0000000000000000000000000000000000000000000000000000000000000000905080301482461416159250505090565b5f5f6137828461363c565b905068fbb67fda52d4bfb8bf83036137a15763f5a267f15f526004601cfd5b826137b35768fbb67fda52d4bfb8bf92505b801954600115613898578160205280613861578154806137da578483556001935050613898565b8481036137e75750613898565b60018301548061380257856001850155600194505050613898565b858103613810575050613898565b60028401548061382c5786600286015560019550505050613898565b86810361383b57505050613898565b825f52600160405f2055815f52600260405f2055805f52600360405f2055600793505050505b835f5260405f208054613896578160011c915084828401558160010181558160010160011b6001178319556001935050613898565b505b505092915050565b5f5f6138ab8461363c565b905068fbb67fda52d4bfb8bf83036138ca5763f5a267f15f526004601cfd5b826138dc5768fbb67fda52d4bfb8bf92505b6001156139285780195461391757600191508281540315613928578260018201540315613928578260028201540315613928575f9150613928565b80602052825f5260405f2054151591505b5092915050565b6040518060c0016040528060608152602001606081526020015f81526020015f81526020015f81526020015f81525090565b5f81519050919050565b5f82825260208201905092915050565b8281835e5f83830152505050565b5f601f19601f8301169050919050565b5f6139a382613961565b6139ad818561396b565b93506139bd81856020860161397b565b6139c681613989565b840191505092915050565b5f6020820190508181035f8301526139e98184613999565b905092915050565b5f604051905090565b5f5ffd5b5f5ffd5b5f73ffffffffffffffffffffffffffffffffffffffff82169050919050565b5f613a2b82613a02565b9050919050565b613a3b81613a21565b8114613a45575f5ffd5b50565b5f81359050613a5681613a32565b92915050565b5f819050919050565b613a6e81613a5c565b8114613a78575f5ffd5b50565b5f81359050613a8981613a65565b92915050565b5f5ffd5b5f60808284031215613aa857613aa7613a8f565b5b81905092915050565b5f65ffffffffffff82169050919050565b613acb81613ab1565b8114613ad5575f5ffd5b50565b5f81359050613ae681613ac2565b92915050565b5f5ffd5b5f5ffd5b5f5ffd5b5f5f83601f840112613b0d57613b0c613aec565b5b8235905067ffffffffffffffff811115613b2a57613b29613af0565b5b602083019150836001820283011115613b4657613b45613af4565b5b9250929050565b5f5f5f5f5f5f5f610120888a031215613b6957613b686139fa565b5b5f613b768a828b01613a48565b9750506020613b878a828b01613a7b565b9650506040613b988a828b01613a93565b95505060c0613ba98a828b01613a7b565b94505060e0613bba8a828b01613ad8565b93505061010088013567ffffffffffffffff811115613bdc57613bdb6139fe565b5b613be88a828b01613af8565b925092505092959891949750929550565b5f61ffff82169050919050565b613c0f81613bf9565b8114613c19575f5ffd5b50565b5f81359050613c2a81613c06565b92915050565b5f60208284031215613c4557613c446139fa565b5b5f613c5284828501613c1c565b91505092915050565b5f5f60408385031215613c7157613c706139fa565b5b5f613c7e85828601613a48565b9250506020613c8f85828601613a7b565b9150509250929050565b5f8115159050919050565b613cad81613c99565b82525050565b5f602082019050613cc65f830184613ca4565b92915050565b5f5f60408385031215613ce257613ce16139fa565b5b5f613cef85828601613c1c565b9250506020613d0085828601613a48565b9150509250929050565b5f819050919050565b613d1c81613d0a565b82525050565b5f604082019050613d355f830185613d13565b613d426020830184613d13565b9392505050565b613d5281613d0a565b8114613d5c575f5ffd5b50565b5f81359050613d6d81613d49565b92915050565b5f5f5f60608486031215613d8a57613d896139fa565b5b5f613d9786828701613c1c565b9350506020613da886828701613d5f565b9250506040613db986828701613d5f565b9150509250925092565b5f60208284031215613dd857613dd76139fa565b5b5f613de584828501613d5f565b91505092915050565b5f602082019050613e015f830184613d13565b92915050565b5f60208284031215613e1c57613e1b6139fa565b5b5f613e2984828501613a48565b91505092915050565b613e3b81613a5c565b82525050565b5f602082019050613e545f830184613e32565b92915050565b5f5f60208385031215613e7057613e6f6139fa565b5b5f83013567ffffffffffffffff811115613e8d57613e8c6139fe565b5b613e9985828601613af8565b92509250509250929050565b5f7fff0000000000000000000000000000000000000000000000000000000000000082169050919050565b613ed981613ea5565b82525050565b613ee881613a21565b82525050565b5f81519050919050565b5f82825260208201905092915050565b5f819050602082019050919050565b613f2081613a5c565b82525050565b5f613f318383613f17565b60208301905092915050565b5f602082019050919050565b5f613f5382613eee565b613f5d8185613ef8565b9350613f6883613f08565b805f5b83811015613f98578151613f7f8882613f26565b9750613f8a83613f3d565b925050600181019050613f6b565b5085935050505092915050565b5f60e082019050613fb85f83018a613ed0565b8181036020830152613fca8189613999565b90508181036040830152613fde8188613999565b9050613fed6060830187613e32565b613ffa6080830186613edf565b61400760a0830185613d13565b81810360c08301526140198184613f49565b905098975050505050505050565b5f5f5f5f5f606086880312156140405761403f6139fa565b5b5f61404d88828901613d5f565b955050602086013567ffffffffffffffff81111561406e5761406d6139fe565b5b61407a88828901613af8565b9450945050604086013567ffffffffffffffff81111561409d5761409c6139fe565b5b6140a988828901613af8565b92509250509295509295909350565b5f61012082840312156140ce576140cd613a8f565b5b81905092915050565b5f5f604083850312156140ed576140ec6139fa565b5b5f83013567ffffffffffffffff81111561410a576141096139fe565b5b614116858286016140b8565b925050602061412785828601613d5f565b9150509250929050565b5f819050919050565b5f61415461414f61414a84613a5c565b614131565b613a5c565b9050919050565b6141648161413a565b82525050565b5f60208201905061417d5f83018461415b565b92915050565b61418c81613ab1565b82525050565b5f6040820190506141a55f830185613edf565b6141b26020830184614183565b9392505050565b5f6020820190506141cc5f830184614183565b92915050565b5f6020820190508181035f8301526141ea8184613f49565b905092915050565b5f60208284031215614207576142066139fa565b5b5f61421484828501613a7b565b91505092915050565b5f60208284031215614232576142316139fa565b5b5f61423f84828501613ad8565b91505092915050565b5f60208201905061425b5f830184613edf565b92915050565b5f5f5f5f60608587031215614279576142786139fa565b5b5f61428687828801613a48565b945050602061429787828801613d5f565b935050604085013567ffffffffffffffff8111156142b8576142b76139fe565b5b6142c487828801613af8565b925092505092959194509250565b5f7fffffffff0000000000000000000000000000000000000000000000000000000082169050919050565b614306816142d2565b82525050565b5f60208201905061431f5f8301846142fd565b92915050565b5f5f5f5f5f610100868803121561433f5761433e6139fa565b5b5f61434c88828901613a48565b955050602061435d88828901613a7b565b945050604061436e88828901613a93565b93505060c061437f88828901613a7b565b92505060e061439088828901613ad8565b9150509295509295909350565b6143a681613bf9565b82525050565b5f6020820190506143bf5f83018461439d565b92915050565b7f4e487b71000000000000000000000000000000000000000000000000000000005f52604160045260245ffd5b6143fb82613989565b810181811067ffffffffffffffff8211171561441a576144196143c5565b5b80604052505050565b5f61442c6139f1565b905061443882826143f2565b919050565b5f67ffffffffffffffff821115614457576144566143c5565b5b602082029050602081019050919050565b5f61447a6144758461443d565b614423565b9050808382526020820190506020840283018581111561449d5761449c613af4565b5b835b818110156144c657806144b28882613c1c565b84526020840193505060208101905061449f565b5050509392505050565b5f82601f8301126144e4576144e3613aec565b5b81356144f4848260208601614468565b91505092915050565b5f67ffffffffffffffff821115614517576145166143c5565b5b602082029050602081019050919050565b5f5ffd5b5f6040828403121561454157614540614528565b5b61454b6040614423565b90505f61455a84828501613d5f565b5f83015250602061456d84828501613d5f565b60208301525092915050565b5f61458b614586846144fd565b614423565b905080838252602082019050604084028301858111156145ae576145ad613af4565b5b835b818110156145d757806145c3888261452c565b8452602084019350506040810190506145b0565b5050509392505050565b5f82601f8301126145f5576145f4613aec565b5b8135614605848260208601614579565b91505092915050565b5f61461882613a02565b9050919050565b6146288161460e565b8114614632575f5ffd5b50565b5f813590506146438161461f565b92915050565b5f5f5f5f60808587031215614661576146606139fa565b5b5f85013567ffffffffffffffff81111561467e5761467d6139fe565b5b61468a878288016144d0565b945050602085013567ffffffffffffffff8111156146ab576146aa6139fe565b5b6146b7878288016145e1565b93505060406146c887828801614635565b92505060606146d987828801613ad8565b91505092959194509250565b7f4e487b71000000000000000000000000000000000000000000000000000000005f52603260045260245ffd5b5f5ffd5b5f5ffd5b5f5f8585111561472d5761472c614712565b5b8386111561473e5761473d614716565b5b6001850283019150848603905094509492505050565b5f82905092915050565b5f82821b905092915050565b5f6147758383614754565b826147808135613d0a565b925060208210156147c0576147bb7fffffffffffffffffffffffffffffffffffffffffffffffffffffffffffffffff8360200360080261475e565b831692505b505092915050565b7f4e487b71000000000000000000000000000000000000000000000000000000005f52601160045260245ffd5b5f6147ff82613a5c565b915061480a83613a5c565b9250828201905080821115614822576148216147c8565b5b92915050565b5f5ffd5b5f5ffd5b5f5ffd5b5f5f833560016020038436030381126148505761484f614828565b5b80840192508235915067ffffffffffffffff8211156148725761487161482c565b5b60208301925060018202360383131561488e5761488d614830565b5b509250929050565b5f6148a082613ab1565b91506148ab83613ab1565b9250828201905065ffffffffffff8111156148c9576148c86147c8565b5b92915050565b6148d881613c99565b81146148e2575f5ffd5b50565b5f813590506148f3816148cf565b92915050565b5f6020828403121561490e5761490d6139fa565b5b5f61491b848285016148e5565b91505092915050565b5f7fffff00000000000000000000000000000000000000000000000000000000000082169050919050565b5f61495a8383614754565b826149658135614924565b925060028210156149a5576149a07fffff0000000000000000000000000000000000000000000000000000000000008360020360080261475e565b831692505b505092915050565b7f4e487b71000000000000000000000000000000000000000000000000000000005f52601260045260245ffdfea2646970667358221220ed688018df7e891e6ef4859443e825d96b271a7a64b9b9f70b50186933c199cc64736f6c634300081c0033","linkReferences":{}},"methodIdentifiers":{"addCredential(uint16,bytes32,bytes32)":"5e84cc61","cancelGuardianChange()":"fb49fe27","confirmGuardian()":"1e0ea61e","credentialCount(address)":"69989ffb","eip712Domain()":"84b0196e","getCredKeys(address)":"c89f2403","getCredential(uint16,address)":"3b826b0d","getPasskeyDigest(bytes32)":"65e3371a","getPasskeyMultichain(bytes32)":"9300126d","getRecoverDigest(address,uint256,(uint16,bytes32,bytes32,bool),uint256,uint48)":"fa5565e3","guardian(address)":"f29e2236","guardianTimelock(address)":"ade81692","isInitialized(address)":"d60b347f","isModuleType(uint256)":"ecd05961","isValidSignatureWithSender(address,bytes32,bytes)":"f551e2ee","name()":"06fdde03","nonceUsed(address,uint256)":"1647795e","onInstall(bytes)":"6d61fe70","onUninstall(bytes)":"8a91b0e3","pendingGuardianInfo(address)":"9e9848fe","proposeGuardian(address)":"c304555f","recoverWithGuardian(address,uint256,(uint16,bytes32,bytes32,bool),uint256,uint48,bytes)":"d5370a3d","recoverWithPasskey(address,uint256,(uint16,bytes32,bytes32,bool),uint256,uint48,bytes)":"0cc81a93","removeCredential(uint16)":"13c50641","setGuardianTimelock(uint48)":"eee07f95","validateSignatureWithData(bytes32,bytes,bytes)":"940d3840","validateUserOp((address,uint256,bytes,bytes,bytes32,uint256,bytes32,bytes,bytes),bytes32)":"97003203","version()":"54fd4d50"},"id":56}