{"abi":[{"type":"constructor","inputs":[{"name":"usdc","type":"address","internalType":"contract IERC20"},{"name":"rwaToken","type":"address","internalType":"contract MockRWA"},{"name":"beneficiary","type":"address","internalType":"address"},{"name":"initialPrice","type":"uint256","internalType":"uint256"},{"name":"initialJitter","type":"uint256","internalType":"uint256"},{"name":"owner_","type":"address","internalType":"address"}],"stateMutability":"nonpayable"},{"type":"function","name":"BENEFICIARY","inputs":[],"outputs":[{"name":"","type":"address","internalType":"address"}],"stateMutability":"view"},{"type":"function","name":"DRIFT_BPS","inputs":[],"outputs":[{"name":"","type":"uint256","internalType":"uint256"}],"stateMutability":"view"},{"type":"function","name":"DRIFT_BUCKET_MULTIPLIER","inputs":[],"outputs":[{"name":"","type":"uint256","internalType":"uint256"}],"stateMutability":"view"},{"type":"function","name":"JITTER_BUCKET_SECONDS","inputs":[],"outputs":[{"name":"","type":"uint256","internalType":"uint256"}],"stateMutability":"view"},{"type":"function","name":"RWA_TOKEN","inputs":[],"outputs":[{"name":"","type":"address","internalType":"contract MockRWA"}],"stateMutability":"view"},{"type":"function","name":"USDC","inputs":[],"outputs":[{"name":"","type":"address","internalType":"contract IERC20"}],"stateMutability":"view"},{"type":"function","name":"getPrice","inputs":[],"outputs":[{"name":"price","type":"uint256","internalType":"uint256"}],"stateMutability":"view"},{"type":"function","name":"jitterRange","inputs":[],"outputs":[{"name":"","type":"uint256","internalType":"uint256"}],"stateMutability":"view"},{"type":"function","name":"owner","inputs":[],"outputs":[{"name":"","type":"address","internalType":"address"}],"stateMutability":"view"},{"type":"function","name":"pricePerShare","inputs":[],"outputs":[{"name":"","type":"uint256","internalType":"uint256"}],"stateMutability":"view"},{"type":"function","name":"quote","inputs":[{"name":"usdcIn","type":"uint256","internalType":"uint256"}],"outputs":[{"name":"rwaOut","type":"uint256","internalType":"uint256"}],"stateMutability":"view"},{"type":"function","name":"renounceOwnership","inputs":[],"outputs":[],"stateMutability":"nonpayable"},{"type":"function","name":"setJitter","inputs":[{"name":"newRange","type":"uint256","internalType":"uint256"}],"outputs":[],"stateMutability":"nonpayable"},{"type":"function","name":"setPrice","inputs":[{"name":"newPrice","type":"uint256","internalType":"uint256"}],"outputs":[],"stateMutability":"nonpayable"},{"type":"function","name":"swap","inputs":[{"name":"usdcIn","type":"uint256","internalType":"uint256"},{"name":"minRwaOut","type":"uint256","internalType":"uint256"},{"name":"recipient","type":"address","internalType":"address"}],"outputs":[{"name":"rwaOut","type":"uint256","internalType":"uint256"}],"stateMutability":"nonpayable"},{"type":"function","name":"transferOwnership","inputs":[{"name":"newOwner","type":"address","internalType":"address"}],"outputs":[],"stateMutability":"nonpayable"},{"type":"function","name":"withdraw","inputs":[{"name":"token","type":"address","internalType":"contract IERC20"},{"name":"amount","type":"uint256","internalType":"uint256"},{"name":"to","type":"address","internalType":"address"}],"outputs":[],"stateMutability":"nonpayable"},{"type":"event","name":"JitterRangeUpdated","inputs":[{"name":"oldRange","type":"uint256","indexed":false,"internalType":"uint256"},{"name":"newRange","type":"uint256","indexed":false,"internalType":"uint256"}],"anonymous":false},{"type":"event","name":"OwnershipTransferred","inputs":[{"name":"previousOwner","type":"address","indexed":true,"internalType":"address"},{"name":"newOwner","type":"address","indexed":true,"internalType":"address"}],"anonymous":false},{"type":"event","name":"PriceUpdated","inputs":[{"name":"oldPrice","type":"uint256","indexed":false,"internalType":"uint256"},{"name":"newPrice","type":"uint256","indexed":false,"internalType":"uint256"}],"anonymous":false},{"type":"event","name":"Swapped","inputs":[{"name":"user","type":"address","indexed":true,"internalType":"address"},{"name":"recipient","type":"address","indexed":true,"internalType":"address"},{"name":"usdcIn","type":"uint256","indexed":false,"internalType":"uint256"},{"name":"rwaOut","type":"uint256","indexed":false,"internalType":"uint256"},{"name":"price","type":"uint256","indexed":false,"internalType":"uint256"}],"anonymous":false},{"type":"error","name":"InsufficientLiquidity","inputs":[{"name":"requested","type":"uint256","internalType":"uint256"},{"name":"available","type":"uint256","internalType":"uint256"}]},{"type":"error","name":"InvalidJitter","inputs":[]},{"type":"error","name":"InvalidPrice","inputs":[]},{"type":"error","name":"OwnableInvalidOwner","inputs":[{"name":"owner","type":"address","internalType":"address"}]},{"type":"error","name":"OwnableUnauthorizedAccount","inputs":[{"name":"account","type":"address","internalType":"address"}]},{"type":"error","name":"SafeERC20FailedOperation","inputs":[{"name":"token","type":"address","internalType":"address"}]},{"type":"error","name":"SlippageExceeded","inputs":[{"name":"rwaOut","type":"uint256","internalType":"uint256"},{"name":"minRwaOut","type":"uint256","internalType":"uint256"}]},{"type":"error","name":"ZeroAmount","inputs":[]},{"type":"error","name":"ZeroRecipient","inputs":[]}],"bytecode":{"object":"0x60e060405234801561000f575f5ffd5b5060405161194638038061194683398181016040528101906100319190610405565b805f73ffffffffffffffffffffffffffffffffffffffff168173ffffffffffffffffffffffffffffffffffffffff16036100a2575f6040517f1e4fbdf7000000000000000000000000000000000000000000000000000000008152600401610099919061049d565b60405180910390fd5b6100b18161023d60201b60201c565b505f73ffffffffffffffffffffffffffffffffffffffff168473ffffffffffffffffffffffffffffffffffffffff1603610117576040517fd27b444300000000000000000000000000000000000000000000000000000000815260040160405180910390fd5b5f830361014f576040517ebfc92100000000000000000000000000000000000000000000000000000000815260040160405180910390fd5b828210610188576040517fe2677e3300000000000000000000000000000000000000000000000000000000815260040160405180910390fd5b8573ffffffffffffffffffffffffffffffffffffffff1660808173ffffffffffffffffffffffffffffffffffffffff16815250508473ffffffffffffffffffffffffffffffffffffffff1660a08173ffffffffffffffffffffffffffffffffffffffff16815250508373ffffffffffffffffffffffffffffffffffffffff1660c08173ffffffffffffffffffffffffffffffffffffffff168152505082600181905550816002819055505050505050506104b6565b5f5f5f9054906101000a900473ffffffffffffffffffffffffffffffffffffffff169050815f5f6101000a81548173ffffffffffffffffffffffffffffffffffffffff021916908373ffffffffffffffffffffffffffffffffffffffff1602179055508173ffffffffffffffffffffffffffffffffffffffff168173ffffffffffffffffffffffffffffffffffffffff167f8be0079c531659141344cd1fd0a4f28419497f9722a3daafe3b4186f6b6457e060405160405180910390a35050565b5f5ffd5b5f73ffffffffffffffffffffffffffffffffffffffff82169050919050565b5f61032b82610302565b9050919050565b5f61033c82610321565b9050919050565b61034c81610332565b8114610356575f5ffd5b50565b5f8151905061036781610343565b92915050565b5f61037782610321565b9050919050565b6103878161036d565b8114610391575f5ffd5b50565b5f815190506103a28161037e565b92915050565b6103b181610321565b81146103bb575f5ffd5b50565b5f815190506103cc816103a8565b92915050565b5f819050919050565b6103e4816103d2565b81146103ee575f5ffd5b50565b5f815190506103ff816103db565b92915050565b5f5f5f5f5f5f60c0878903121561041f5761041e6102fe565b5b5f61042c89828a01610359565b965050602061043d89828a01610394565b955050604061044e89828a016103be565b945050606061045f89828a016103f1565b935050608061047089828a016103f1565b92505060a061048189828a016103be565b9150509295509295509295565b61049781610321565b82525050565b5f6020820190506104b05f83018461048e565b92915050565b60805160a05160c05161144a6104fc5f395f818161031501526105f701525f818161051201528181610665015261094401525f81816106190152610730015261144a5ff3fe608060405234801561000f575f5ffd5b5060043610610109575f3560e01c806391b7f5ed116100a0578063a5629da41161006f578063a5629da41461026d578063cb0e3a271461028b578063ed1bd76c146102a9578063f2fde38b146102d9578063fcb1e641146102f557610109565b806391b7f5ed146101f757806398d5fdca1461021357806399530b06146102315780639f2416f21461024f57610109565b80636d9a640a116100dc5780636d9a640a14610181578063715018a6146101b157806389a30271146101bb5780638da5cb5b146101d957610109565b80632f99c6cc1461010d57806337faedb61461012b57806352415d8d1461014957806369328dec14610165575b5f5ffd5b610115610313565b6040516101229190610d9a565b60405180910390f35b610133610337565b6040516101409190610dcb565b60405180910390f35b610163600480360381019061015e9190610e12565b61033d565b005b61017f600480360381019061017a9190610ea2565b6103c5565b005b61019b60048036038101906101969190610ef2565b6103fd565b6040516101a89190610dcb565b60405180910390f35b6101b961071b565b005b6101c361072e565b6040516101d09190610f9d565b60405180910390f35b6101e1610752565b6040516101ee9190610d9a565b60405180910390f35b610211600480360381019061020c9190610e12565b610779565b005b61021b610839565b6040516102289190610dcb565b60405180910390f35b610239610937565b6040516102469190610dcb565b60405180910390f35b61025761093d565b6040516102649190610dcb565b60405180910390f35b610275610942565b6040516102829190610fd6565b60405180910390f35b610293610966565b6040516102a09190610dcb565b60405180910390f35b6102c360048036038101906102be9190610e12565b61096b565b6040516102d09190610dcb565b60405180910390f35b6102f360048036038101906102ee9190610fef565b610999565b005b6102fd610a1d565b60405161030a9190610dcb565b60405180910390f35b7f000000000000000000000000000000000000000000000000000000000000000081565b611b5881565b610345610a23565b6001548110610380576040517fe2677e3300000000000000000000000000000000000000000000000000000000815260040160405180910390fd5b7f58b82dc4f4b19c992eeb3c80a0753b707f42b2a57f34beae7837d5701b804859600254826040516103b392919061101a565b60405180910390a18060028190555050565b6103cd610a23565b6103f881838573ffffffffffffffffffffffffffffffffffffffff16610aaa9092919063ffffffff16565b505050565b5f5f8403610437576040517f1f2a200500000000000000000000000000000000000000000000000000000000815260040160405180910390fd5b5f73ffffffffffffffffffffffffffffffffffffffff168273ffffffffffffffffffffffffffffffffffffffff160361049c576040517fd27b444300000000000000000000000000000000000000000000000000000000815260040160405180910390fd5b5f6104a5610839565b905080670de0b6b3a7640000866104bc919061106e565b6104c691906110dc565b91508382101561050f5781846040517f71c4efed00000000000000000000000000000000000000000000000000000000815260040161050692919061101a565b60405180910390fd5b5f7f000000000000000000000000000000000000000000000000000000000000000073ffffffffffffffffffffffffffffffffffffffff166370a08231306040518263ffffffff1660e01b81526004016105699190610d9a565b602060405180830381865afa158015610584573d5f5f3e3d5ffd5b505050506040513d601f19601f820116820180604052508101906105a89190611120565b9050808311156105f15782816040517fa17e11d50000000000000000000000000000000000000000000000000000000081526004016105e892919061101a565b60405180910390fd5b61065e337f0000000000000000000000000000000000000000000000000000000000000000887f000000000000000000000000000000000000000000000000000000000000000073ffffffffffffffffffffffffffffffffffffffff16610b29909392919063ffffffff16565b6106a984847f000000000000000000000000000000000000000000000000000000000000000073ffffffffffffffffffffffffffffffffffffffff16610aaa9092919063ffffffff16565b8373ffffffffffffffffffffffffffffffffffffffff163373ffffffffffffffffffffffffffffffffffffffff167fa54201e99d8e1488291e015a3af88c7a169bcf4932617ecd9536e1f1ad43511088868660405161070a9392919061114b565b60405180910390a350509392505050565b610723610a23565b61072c5f610bab565b565b7f000000000000000000000000000000000000000000000000000000000000000081565b5f5f5f9054906101000a900473ffffffffffffffffffffffffffffffffffffffff16905090565b610781610a23565b5f81036107b9576040517ebfc92100000000000000000000000000000000000000000000000000000000815260040160405180910390fd5b80600254106107f4576040517fe2677e3300000000000000000000000000000000000000000000000000000000815260040160405180910390fd5b7f945c1c4e99aa89f648fbfe3df471b916f719e16d960fcec0737d4d56bd6968386001548260405161082792919061101a565b60405180910390a18060018190555050565b5f5f60015490505f60025490505f8103610857578192505050610934565b5f60054261086591906110dc565b90505f612710611b5884610879919061106e565b61088391906110dc565b90505f81846108929190611180565b90505f600c846108a291906110dc565b90505f6108d982306040516020016108bb92919061120d565b604051602081830303815290604052805190602001205f1c85610c6c565b90505f61091086306040516020016108f2929190611291565b604051602081830303815290604052805190602001205f1c85610c6c565b905080828961091f91906112d4565b61092991906112d4565b985050505050505050505b90565b60015481565b600581565b7f000000000000000000000000000000000000000000000000000000000000000081565b600c81565b5f610974610839565b670de0b6b3a764000083610988919061106e565b61099291906110dc565b9050919050565b6109a1610a23565b5f73ffffffffffffffffffffffffffffffffffffffff168173ffffffffffffffffffffffffffffffffffffffff1603610a11575f6040517f1e4fbdf7000000000000000000000000000000000000000000000000000000008152600401610a089190610d9a565b60405180910390fd5b610a1a81610bab565b50565b60025481565b610a2b610cb9565b73ffffffffffffffffffffffffffffffffffffffff16610a49610752565b73ffffffffffffffffffffffffffffffffffffffff1614610aa857610a6c610cb9565b6040517f118cdaa7000000000000000000000000000000000000000000000000000000008152600401610a9f9190610d9a565b60405180910390fd5b565b610b24838473ffffffffffffffffffffffffffffffffffffffff1663a9059cbb8585604051602401610add929190611315565b604051602081830303815290604052915060e01b6020820180517bffffffffffffffffffffffffffffffffffffffffffffffffffffffff8381831617835250505050610cc0565b505050565b610ba5848573ffffffffffffffffffffffffffffffffffffffff166323b872dd868686604051602401610b5e9392919061133c565b604051602081830303815290604052915060e01b6020820180517bffffffffffffffffffffffffffffffffffffffffffffffffffffffff8381831617835250505050610cc0565b50505050565b5f5f5f9054906101000a900473ffffffffffffffffffffffffffffffffffffffff169050815f5f6101000a81548173ffffffffffffffffffffffffffffffffffffffff021916908373ffffffffffffffffffffffffffffffffffffffff1602179055508173ffffffffffffffffffffffffffffffffffffffff168173ffffffffffffffffffffffffffffffffffffffff167f8be0079c531659141344cd1fd0a4f28419497f9722a3daafe3b4186f6b6457e060405160405180910390a35050565b5f5f8203610c7c575f9050610cb3565b5f6001836002610c8c919061106e565b610c969190611371565b84610ca191906113a4565b90508281610caf91906113d4565b9150505b92915050565b5f33905090565b5f5f60205f8451602086015f885af180610cdf576040513d5f823e3d81fd5b3d92505f519150505f8214610cf8576001811415610d13565b5f8473ffffffffffffffffffffffffffffffffffffffff163b145b15610d5557836040517f5274afe7000000000000000000000000000000000000000000000000000000008152600401610d4c9190610d9a565b60405180910390fd5b50505050565b5f73ffffffffffffffffffffffffffffffffffffffff82169050919050565b5f610d8482610d5b565b9050919050565b610d9481610d7a565b82525050565b5f602082019050610dad5f830184610d8b565b92915050565b5f819050919050565b610dc581610db3565b82525050565b5f602082019050610dde5f830184610dbc565b92915050565b5f5ffd5b610df181610db3565b8114610dfb575f5ffd5b50565b5f81359050610e0c81610de8565b92915050565b5f60208284031215610e2757610e26610de4565b5b5f610e3484828501610dfe565b91505092915050565b5f610e4782610d7a565b9050919050565b610e5781610e3d565b8114610e61575f5ffd5b50565b5f81359050610e7281610e4e565b92915050565b610e8181610d7a565b8114610e8b575f5ffd5b50565b5f81359050610e9c81610e78565b92915050565b5f5f5f60608486031215610eb957610eb8610de4565b5b5f610ec686828701610e64565b9350506020610ed786828701610dfe565b9250506040610ee886828701610e8e565b9150509250925092565b5f5f5f60608486031215610f0957610f08610de4565b5b5f610f1686828701610dfe565b9350506020610f2786828701610dfe565b9250506040610f3886828701610e8e565b9150509250925092565b5f819050919050565b5f610f65610f60610f5b84610d5b565b610f42565b610d5b565b9050919050565b5f610f7682610f4b565b9050919050565b5f610f8782610f6c565b9050919050565b610f9781610f7d565b82525050565b5f602082019050610fb05f830184610f8e565b92915050565b5f610fc082610f6c565b9050919050565b610fd081610fb6565b82525050565b5f602082019050610fe95f830184610fc7565b92915050565b5f6020828403121561100457611003610de4565b5b5f61101184828501610e8e565b91505092915050565b5f60408201905061102d5f830185610dbc565b61103a6020830184610dbc565b9392505050565b7f4e487b71000000000000000000000000000000000000000000000000000000005f52601160045260245ffd5b5f61107882610db3565b915061108383610db3565b925082820261109181610db3565b915082820484148315176110a8576110a7611041565b5b5092915050565b7f4e487b71000000000000000000000000000000000000000000000000000000005f52601260045260245ffd5b5f6110e682610db3565b91506110f183610db3565b925082611101576111006110af565b5b828204905092915050565b5f8151905061111a81610de8565b92915050565b5f6020828403121561113557611134610de4565b5b5f6111428482850161110c565b91505092915050565b5f60608201905061115e5f830186610dbc565b61116b6020830185610dbc565b6111786040830184610dbc565b949350505050565b5f61118a82610db3565b915061119583610db3565b92508282039050818111156111ad576111ac611041565b5b92915050565b5f82825260208201905092915050565b7f64726966740000000000000000000000000000000000000000000000000000005f82015250565b5f6111f76005836111b3565b9150611202826111c3565b602082019050919050565b5f6060820190508181035f830152611224816111eb565b90506112336020830185610dbc565b6112406040830184610d8b565b9392505050565b7f6e6f6973650000000000000000000000000000000000000000000000000000005f82015250565b5f61127b6005836111b3565b915061128682611247565b602082019050919050565b5f6060820190508181035f8301526112a88161126f565b90506112b76020830185610dbc565b6112c46040830184610d8b565b9392505050565b5f819050919050565b5f6112de826112cb565b91506112e9836112cb565b92508282019050828112155f8312168382125f84121516171561130f5761130e611041565b5b92915050565b5f6040820190506113285f830185610d8b565b6113356020830184610dbc565b9392505050565b5f60608201905061134f5f830186610d8b565b61135c6020830185610d8b565b6113696040830184610dbc565b949350505050565b5f61137b82610db3565b915061138683610db3565b925082820190508082111561139e5761139d611041565b5b92915050565b5f6113ae82610db3565b91506113b983610db3565b9250826113c9576113c86110af565b5b828206905092915050565b5f6113de826112cb565b91506113e9836112cb565b925082820390508181125f8412168282135f85121516171561140e5761140d611041565b5b9291505056fea26469706673582212208c280a4384fc559888f7009a79e8926f844cb31d1d36c136dd6a228682f3d5dc64736f6c634300081c0033","linkReferences":{}},"methodIdentifiers":{"BENEFICIARY()":"2f99c6cc","DRIFT_BPS()":"37faedb6","DRIFT_BUCKET_MULTIPLIER()":"cb0e3a27","JITTER_BUCKET_SECONDS()":"9f2416f2","RWA_TOKEN()":"a5629da4","USDC()":"89a30271","getPrice()":"98d5fdca","jitterRange()":"fcb1e641","owner()":"8da5cb5b","pricePerShare()":"99530b06","quote(uint256)":"ed1bd76c","renounceOwnership()":"715018a6","setJitter(uint256)":"52415d8d","setPrice(uint256)":"91b7f5ed","swap(uint256,uint256,address)":"6d9a640a","transferOwnership(address)":"f2fde38b","withdraw(address,uint256,address)":"69328dec"},"id":31}