{"abi":[{"type":"constructor","inputs":[{"name":"usdc","type":"address","internalType":"contract IERC20"},{"name":"rwaToken","type":"address","internalType":"contract MockRWA"},{"name":"initialPrice","type":"uint256","internalType":"uint256"},{"name":"owner_","type":"address","internalType":"address"}],"stateMutability":"nonpayable"},{"type":"function","name":"RWA_TOKEN","inputs":[],"outputs":[{"name":"","type":"address","internalType":"contract MockRWA"}],"stateMutability":"view"},{"type":"function","name":"USDC","inputs":[],"outputs":[{"name":"","type":"address","internalType":"contract IERC20"}],"stateMutability":"view"},{"type":"function","name":"owner","inputs":[],"outputs":[{"name":"","type":"address","internalType":"address"}],"stateMutability":"view"},{"type":"function","name":"pricePerShare","inputs":[],"outputs":[{"name":"","type":"uint256","internalType":"uint256"}],"stateMutability":"view"},{"type":"function","name":"quote","inputs":[{"name":"usdcIn","type":"uint256","internalType":"uint256"}],"outputs":[{"name":"rwaOut","type":"uint256","internalType":"uint256"}],"stateMutability":"view"},{"type":"function","name":"renounceOwnership","inputs":[],"outputs":[],"stateMutability":"nonpayable"},{"type":"function","name":"setPrice","inputs":[{"name":"newPrice","type":"uint256","internalType":"uint256"}],"outputs":[],"stateMutability":"nonpayable"},{"type":"function","name":"swap","inputs":[{"name":"usdcIn","type":"uint256","internalType":"uint256"},{"name":"minRwaOut","type":"uint256","internalType":"uint256"},{"name":"recipient","type":"address","internalType":"address"}],"outputs":[{"name":"rwaOut","type":"uint256","internalType":"uint256"}],"stateMutability":"nonpayable"},{"type":"function","name":"transferOwnership","inputs":[{"name":"newOwner","type":"address","internalType":"address"}],"outputs":[],"stateMutability":"nonpayable"},{"type":"function","name":"withdraw","inputs":[{"name":"token","type":"address","internalType":"contract IERC20"},{"name":"amount","type":"uint256","internalType":"uint256"},{"name":"to","type":"address","internalType":"address"}],"outputs":[],"stateMutability":"nonpayable"},{"type":"event","name":"OwnershipTransferred","inputs":[{"name":"previousOwner","type":"address","indexed":true,"internalType":"address"},{"name":"newOwner","type":"address","indexed":true,"internalType":"address"}],"anonymous":false},{"type":"event","name":"PriceUpdated","inputs":[{"name":"oldPrice","type":"uint256","indexed":false,"internalType":"uint256"},{"name":"newPrice","type":"uint256","indexed":false,"internalType":"uint256"}],"anonymous":false},{"type":"event","name":"Swapped","inputs":[{"name":"user","type":"address","indexed":true,"internalType":"address"},{"name":"recipient","type":"address","indexed":true,"internalType":"address"},{"name":"usdcIn","type":"uint256","indexed":false,"internalType":"uint256"},{"name":"rwaOut","type":"uint256","indexed":false,"internalType":"uint256"},{"name":"price","type":"uint256","indexed":false,"internalType":"uint256"}],"anonymous":false},{"type":"error","name":"InsufficientLiquidity","inputs":[{"name":"requested","type":"uint256","internalType":"uint256"},{"name":"available","type":"uint256","internalType":"uint256"}]},{"type":"error","name":"InvalidPrice","inputs":[]},{"type":"error","name":"OwnableInvalidOwner","inputs":[{"name":"owner","type":"address","internalType":"address"}]},{"type":"error","name":"OwnableUnauthorizedAccount","inputs":[{"name":"account","type":"address","internalType":"address"}]},{"type":"error","name":"SafeERC20FailedOperation","inputs":[{"name":"token","type":"address","internalType":"address"}]},{"type":"error","name":"SlippageExceeded","inputs":[{"name":"rwaOut","type":"uint256","internalType":"uint256"},{"name":"minRwaOut","type":"uint256","internalType":"uint256"}]},{"type":"error","name":"ZeroAmount","inputs":[]},{"type":"error","name":"ZeroRecipient","inputs":[]}],"bytecode":{"object":"0x60c060405234801561000f575f5ffd5b5060405161124f38038061124f8339818101604052810190610031919061032a565b805f73ffffffffffffffffffffffffffffffffffffffff168173ffffffffffffffffffffffffffffffffffffffff16036100a2575f6040517f1e4fbdf7000000000000000000000000000000000000000000000000000000008152600401610099919061039d565b60405180910390fd5b6100b18161016260201b60201c565b505f82036100ea576040517ebfc92100000000000000000000000000000000000000000000000000000000815260040160405180910390fd5b8373ffffffffffffffffffffffffffffffffffffffff1660808173ffffffffffffffffffffffffffffffffffffffff16815250508273ffffffffffffffffffffffffffffffffffffffff1660a08173ffffffffffffffffffffffffffffffffffffffff168152505081600181905550505050506103b6565b5f5f5f9054906101000a900473ffffffffffffffffffffffffffffffffffffffff169050815f5f6101000a81548173ffffffffffffffffffffffffffffffffffffffff021916908373ffffffffffffffffffffffffffffffffffffffff1602179055508173ffffffffffffffffffffffffffffffffffffffff168173ffffffffffffffffffffffffffffffffffffffff167f8be0079c531659141344cd1fd0a4f28419497f9722a3daafe3b4186f6b6457e060405160405180910390a35050565b5f5ffd5b5f73ffffffffffffffffffffffffffffffffffffffff82169050919050565b5f61025082610227565b9050919050565b5f61026182610246565b9050919050565b61027181610257565b811461027b575f5ffd5b50565b5f8151905061028c81610268565b92915050565b5f61029c82610246565b9050919050565b6102ac81610292565b81146102b6575f5ffd5b50565b5f815190506102c7816102a3565b92915050565b5f819050919050565b6102df816102cd565b81146102e9575f5ffd5b50565b5f815190506102fa816102d6565b92915050565b61030981610246565b8114610313575f5ffd5b50565b5f8151905061032481610300565b92915050565b5f5f5f5f6080858703121561034257610341610223565b5b5f61034f8782880161027e565b9450506020610360878288016102b9565b9350506040610371878288016102ec565b925050606061038287828801610316565b91505092959194509250565b61039781610246565b82525050565b5f6020820190506103b05f83018461038e565b92915050565b60805160a051610e636103ec5f395f818161031e0152818161045101526105f201525f8181610405015261051c0152610e635ff3fe608060405234801561000f575f5ffd5b506004361061009c575f3560e01c806391b7f5ed1161006457806391b7f5ed1461013257806399530b061461014e578063a5629da41461016c578063ed1bd76c1461018a578063f2fde38b146101ba5761009c565b806369328dec146100a05780636d9a640a146100bc578063715018a6146100ec57806389a30271146100f65780638da5cb5b14610114575b5f5ffd5b6100ba60048036038101906100b59190610a78565b6101d6565b005b6100d660048036038101906100d19190610ac8565b61020e565b6040516100e39190610b27565b60405180910390f35b6100f4610507565b005b6100fe61051a565b60405161010b9190610b9b565b60405180910390f35b61011c61053e565b6040516101299190610bc3565b60405180910390f35b61014c60048036038101906101479190610bdc565b610565565b005b6101566105ea565b6040516101639190610b27565b60405180910390f35b6101746105f0565b6040516101819190610c27565b60405180910390f35b6101a4600480360381019061019f9190610bdc565b610614565b6040516101b19190610b27565b60405180910390f35b6101d460048036038101906101cf9190610c40565b61063d565b005b6101de6106c1565b61020981838573ffffffffffffffffffffffffffffffffffffffff166107489092919063ffffffff16565b505050565b5f5f8403610248576040517f1f2a200500000000000000000000000000000000000000000000000000000000815260040160405180910390fd5b5f73ffffffffffffffffffffffffffffffffffffffff168273ffffffffffffffffffffffffffffffffffffffff16036102ad576040517fd27b444300000000000000000000000000000000000000000000000000000000815260040160405180910390fd5b5f600154905080670de0b6b3a7640000866102c89190610c98565b6102d29190610d06565b91508382101561031b5781846040517f71c4efed000000000000000000000000000000000000000000000000000000008152600401610312929190610d36565b60405180910390fd5b5f7f000000000000000000000000000000000000000000000000000000000000000073ffffffffffffffffffffffffffffffffffffffff166370a08231306040518263ffffffff1660e01b81526004016103759190610bc3565b602060405180830381865afa158015610390573d5f5f3e3d5ffd5b505050506040513d601f19601f820116820180604052508101906103b49190610d71565b9050808311156103fd5782816040517fa17e11d50000000000000000000000000000000000000000000000000000000081526004016103f4929190610d36565b60405180910390fd5b61044a3330887f000000000000000000000000000000000000000000000000000000000000000073ffffffffffffffffffffffffffffffffffffffff166107c7909392919063ffffffff16565b61049584847f000000000000000000000000000000000000000000000000000000000000000073ffffffffffffffffffffffffffffffffffffffff166107489092919063ffffffff16565b8373ffffffffffffffffffffffffffffffffffffffff163373ffffffffffffffffffffffffffffffffffffffff167fa54201e99d8e1488291e015a3af88c7a169bcf4932617ecd9536e1f1ad4351108886866040516104f693929190610d9c565b60405180910390a350509392505050565b61050f6106c1565b6105185f610849565b565b7f000000000000000000000000000000000000000000000000000000000000000081565b5f5f5f9054906101000a900473ffffffffffffffffffffffffffffffffffffffff16905090565b61056d6106c1565b5f81036105a5576040517ebfc92100000000000000000000000000000000000000000000000000000000815260040160405180910390fd5b7f945c1c4e99aa89f648fbfe3df471b916f719e16d960fcec0737d4d56bd696838600154826040516105d8929190610d36565b60405180910390a18060018190555050565b60015481565b7f000000000000000000000000000000000000000000000000000000000000000081565b5f600154670de0b6b3a76400008361062c9190610c98565b6106369190610d06565b9050919050565b6106456106c1565b5f73ffffffffffffffffffffffffffffffffffffffff168173ffffffffffffffffffffffffffffffffffffffff16036106b5575f6040517f1e4fbdf70000000000000000000000000000000000000000000000000000000081526004016106ac9190610bc3565b60405180910390fd5b6106be81610849565b50565b6106c961090a565b73ffffffffffffffffffffffffffffffffffffffff166106e761053e565b73ffffffffffffffffffffffffffffffffffffffff16146107465761070a61090a565b6040517f118cdaa700000000000000000000000000000000000000000000000000000000815260040161073d9190610bc3565b60405180910390fd5b565b6107c2838473ffffffffffffffffffffffffffffffffffffffff1663a9059cbb858560405160240161077b929190610dd1565b604051602081830303815290604052915060e01b6020820180517bffffffffffffffffffffffffffffffffffffffffffffffffffffffff8381831617835250505050610911565b505050565b610843848573ffffffffffffffffffffffffffffffffffffffff166323b872dd8686866040516024016107fc93929190610df8565b604051602081830303815290604052915060e01b6020820180517bffffffffffffffffffffffffffffffffffffffffffffffffffffffff8381831617835250505050610911565b50505050565b5f5f5f9054906101000a900473ffffffffffffffffffffffffffffffffffffffff169050815f5f6101000a81548173ffffffffffffffffffffffffffffffffffffffff021916908373ffffffffffffffffffffffffffffffffffffffff1602179055508173ffffffffffffffffffffffffffffffffffffffff168173ffffffffffffffffffffffffffffffffffffffff167f8be0079c531659141344cd1fd0a4f28419497f9722a3daafe3b4186f6b6457e060405160405180910390a35050565b5f33905090565b5f5f60205f8451602086015f885af180610930576040513d5f823e3d81fd5b3d92505f519150505f8214610949576001811415610964565b5f8473ffffffffffffffffffffffffffffffffffffffff163b145b156109a657836040517f5274afe700000000000000000000000000000000000000000000000000000000815260040161099d9190610bc3565b60405180910390fd5b50505050565b5f5ffd5b5f73ffffffffffffffffffffffffffffffffffffffff82169050919050565b5f6109d9826109b0565b9050919050565b5f6109ea826109cf565b9050919050565b6109fa816109e0565b8114610a04575f5ffd5b50565b5f81359050610a15816109f1565b92915050565b5f819050919050565b610a2d81610a1b565b8114610a37575f5ffd5b50565b5f81359050610a4881610a24565b92915050565b610a57816109cf565b8114610a61575f5ffd5b50565b5f81359050610a7281610a4e565b92915050565b5f5f5f60608486031215610a8f57610a8e6109ac565b5b5f610a9c86828701610a07565b9350506020610aad86828701610a3a565b9250506040610abe86828701610a64565b9150509250925092565b5f5f5f60608486031215610adf57610ade6109ac565b5b5f610aec86828701610a3a565b9350506020610afd86828701610a3a565b9250506040610b0e86828701610a64565b9150509250925092565b610b2181610a1b565b82525050565b5f602082019050610b3a5f830184610b18565b92915050565b5f819050919050565b5f610b63610b5e610b59846109b0565b610b40565b6109b0565b9050919050565b5f610b7482610b49565b9050919050565b5f610b8582610b6a565b9050919050565b610b9581610b7b565b82525050565b5f602082019050610bae5f830184610b8c565b92915050565b610bbd816109cf565b82525050565b5f602082019050610bd65f830184610bb4565b92915050565b5f60208284031215610bf157610bf06109ac565b5b5f610bfe84828501610a3a565b91505092915050565b5f610c1182610b6a565b9050919050565b610c2181610c07565b82525050565b5f602082019050610c3a5f830184610c18565b92915050565b5f60208284031215610c5557610c546109ac565b5b5f610c6284828501610a64565b91505092915050565b7f4e487b71000000000000000000000000000000000000000000000000000000005f52601160045260245ffd5b5f610ca282610a1b565b9150610cad83610a1b565b9250828202610cbb81610a1b565b91508282048414831517610cd257610cd1610c6b565b5b5092915050565b7f4e487b71000000000000000000000000000000000000000000000000000000005f52601260045260245ffd5b5f610d1082610a1b565b9150610d1b83610a1b565b925082610d2b57610d2a610cd9565b5b828204905092915050565b5f604082019050610d495f830185610b18565b610d566020830184610b18565b9392505050565b5f81519050610d6b81610a24565b92915050565b5f60208284031215610d8657610d856109ac565b5b5f610d9384828501610d5d565b91505092915050565b5f606082019050610daf5f830186610b18565b610dbc6020830185610b18565b610dc96040830184610b18565b949350505050565b5f604082019050610de45f830185610bb4565b610df16020830184610b18565b9392505050565b5f606082019050610e0b5f830186610bb4565b610e186020830185610bb4565b610e256040830184610b18565b94935050505056fea2646970667358221220b522c36e94df176a08cf8b55d19d3a1a9b8917160055eb53629aa63024f6003f64736f6c634300081c0033","linkReferences":{}},"methodIdentifiers":{"RWA_TOKEN()":"a5629da4","USDC()":"89a30271","owner()":"8da5cb5b","pricePerShare()":"99530b06","quote(uint256)":"ed1bd76c","renounceOwnership()":"715018a6","setPrice(uint256)":"91b7f5ed","swap(uint256,uint256,address)":"6d9a640a","transferOwnership(address)":"f2fde38b","withdraw(address,uint256,address)":"69328dec"},"id":31}