{"abi":[{"type":"constructor","inputs":[{"name":"usdc","type":"address","internalType":"contract IERC20"},{"name":"rwaToken","type":"address","internalType":"contract MockRWA"},{"name":"beneficiary","type":"address","internalType":"address"},{"name":"initialPrice","type":"uint256","internalType":"uint256"},{"name":"initialJitter","type":"uint256","internalType":"uint256"},{"name":"owner_","type":"address","internalType":"address"}],"stateMutability":"nonpayable"},{"type":"function","name":"BENEFICIARY","inputs":[],"outputs":[{"name":"","type":"address","internalType":"address"}],"stateMutability":"view"},{"type":"function","name":"JITTER_BUCKET_SECONDS","inputs":[],"outputs":[{"name":"","type":"uint256","internalType":"uint256"}],"stateMutability":"view"},{"type":"function","name":"RWA_TOKEN","inputs":[],"outputs":[{"name":"","type":"address","internalType":"contract MockRWA"}],"stateMutability":"view"},{"type":"function","name":"USDC","inputs":[],"outputs":[{"name":"","type":"address","internalType":"contract IERC20"}],"stateMutability":"view"},{"type":"function","name":"getPrice","inputs":[],"outputs":[{"name":"price","type":"uint256","internalType":"uint256"}],"stateMutability":"view"},{"type":"function","name":"jitterRange","inputs":[],"outputs":[{"name":"","type":"uint256","internalType":"uint256"}],"stateMutability":"view"},{"type":"function","name":"owner","inputs":[],"outputs":[{"name":"","type":"address","internalType":"address"}],"stateMutability":"view"},{"type":"function","name":"pricePerShare","inputs":[],"outputs":[{"name":"","type":"uint256","internalType":"uint256"}],"stateMutability":"view"},{"type":"function","name":"quote","inputs":[{"name":"usdcIn","type":"uint256","internalType":"uint256"}],"outputs":[{"name":"rwaOut","type":"uint256","internalType":"uint256"}],"stateMutability":"view"},{"type":"function","name":"renounceOwnership","inputs":[],"outputs":[],"stateMutability":"nonpayable"},{"type":"function","name":"setJitter","inputs":[{"name":"newRange","type":"uint256","internalType":"uint256"}],"outputs":[],"stateMutability":"nonpayable"},{"type":"function","name":"setPrice","inputs":[{"name":"newPrice","type":"uint256","internalType":"uint256"}],"outputs":[],"stateMutability":"nonpayable"},{"type":"function","name":"swap","inputs":[{"name":"usdcIn","type":"uint256","internalType":"uint256"},{"name":"minRwaOut","type":"uint256","internalType":"uint256"},{"name":"recipient","type":"address","internalType":"address"}],"outputs":[{"name":"rwaOut","type":"uint256","internalType":"uint256"}],"stateMutability":"nonpayable"},{"type":"function","name":"transferOwnership","inputs":[{"name":"newOwner","type":"address","internalType":"address"}],"outputs":[],"stateMutability":"nonpayable"},{"type":"function","name":"withdraw","inputs":[{"name":"token","type":"address","internalType":"contract IERC20"},{"name":"amount","type":"uint256","internalType":"uint256"},{"name":"to","type":"address","internalType":"address"}],"outputs":[],"stateMutability":"nonpayable"},{"type":"event","name":"JitterRangeUpdated","inputs":[{"name":"oldRange","type":"uint256","indexed":false,"internalType":"uint256"},{"name":"newRange","type":"uint256","indexed":false,"internalType":"uint256"}],"anonymous":false},{"type":"event","name":"OwnershipTransferred","inputs":[{"name":"previousOwner","type":"address","indexed":true,"internalType":"address"},{"name":"newOwner","type":"address","indexed":true,"internalType":"address"}],"anonymous":false},{"type":"event","name":"PriceUpdated","inputs":[{"name":"oldPrice","type":"uint256","indexed":false,"internalType":"uint256"},{"name":"newPrice","type":"uint256","indexed":false,"internalType":"uint256"}],"anonymous":false},{"type":"event","name":"Swapped","inputs":[{"name":"user","type":"address","indexed":true,"internalType":"address"},{"name":"recipient","type":"address","indexed":true,"internalType":"address"},{"name":"usdcIn","type":"uint256","indexed":false,"internalType":"uint256"},{"name":"rwaOut","type":"uint256","indexed":false,"internalType":"uint256"},{"name":"price","type":"uint256","indexed":false,"internalType":"uint256"}],"anonymous":false},{"type":"error","name":"InsufficientLiquidity","inputs":[{"name":"requested","type":"uint256","internalType":"uint256"},{"name":"available","type":"uint256","internalType":"uint256"}]},{"type":"error","name":"InvalidJitter","inputs":[]},{"type":"error","name":"InvalidPrice","inputs":[]},{"type":"error","name":"OwnableInvalidOwner","inputs":[{"name":"owner","type":"address","internalType":"address"}]},{"type":"error","name":"OwnableUnauthorizedAccount","inputs":[{"name":"account","type":"address","internalType":"address"}]},{"type":"error","name":"SafeERC20FailedOperation","inputs":[{"name":"token","type":"address","internalType":"address"}]},{"type":"error","name":"SlippageExceeded","inputs":[{"name":"rwaOut","type":"uint256","internalType":"uint256"},{"name":"minRwaOut","type":"uint256","internalType":"uint256"}]},{"type":"error","name":"ZeroAmount","inputs":[]},{"type":"error","name":"ZeroRecipient","inputs":[]}],"bytecode":{"object":"0x60e060405234801561000f575f5ffd5b506040516116c83803806116c883398181016040528101906100319190610405565b805f73ffffffffffffffffffffffffffffffffffffffff168173ffffffffffffffffffffffffffffffffffffffff16036100a2575f6040517f1e4fbdf7000000000000000000000000000000000000000000000000000000008152600401610099919061049d565b60405180910390fd5b6100b18161023d60201b60201c565b505f73ffffffffffffffffffffffffffffffffffffffff168473ffffffffffffffffffffffffffffffffffffffff1603610117576040517fd27b444300000000000000000000000000000000000000000000000000000000815260040160405180910390fd5b5f830361014f576040517ebfc92100000000000000000000000000000000000000000000000000000000815260040160405180910390fd5b828210610188576040517fe2677e3300000000000000000000000000000000000000000000000000000000815260040160405180910390fd5b8573ffffffffffffffffffffffffffffffffffffffff1660808173ffffffffffffffffffffffffffffffffffffffff16815250508473ffffffffffffffffffffffffffffffffffffffff1660a08173ffffffffffffffffffffffffffffffffffffffff16815250508373ffffffffffffffffffffffffffffffffffffffff1660c08173ffffffffffffffffffffffffffffffffffffffff168152505082600181905550816002819055505050505050506104b6565b5f5f5f9054906101000a900473ffffffffffffffffffffffffffffffffffffffff169050815f5f6101000a81548173ffffffffffffffffffffffffffffffffffffffff021916908373ffffffffffffffffffffffffffffffffffffffff1602179055508173ffffffffffffffffffffffffffffffffffffffff168173ffffffffffffffffffffffffffffffffffffffff167f8be0079c531659141344cd1fd0a4f28419497f9722a3daafe3b4186f6b6457e060405160405180910390a35050565b5f5ffd5b5f73ffffffffffffffffffffffffffffffffffffffff82169050919050565b5f61032b82610302565b9050919050565b5f61033c82610321565b9050919050565b61034c81610332565b8114610356575f5ffd5b50565b5f8151905061036781610343565b92915050565b5f61037782610321565b9050919050565b6103878161036d565b8114610391575f5ffd5b50565b5f815190506103a28161037e565b92915050565b6103b181610321565b81146103bb575f5ffd5b50565b5f815190506103cc816103a8565b92915050565b5f819050919050565b6103e4816103d2565b81146103ee575f5ffd5b50565b5f815190506103ff816103db565b92915050565b5f5f5f5f5f5f60c0878903121561041f5761041e6102fe565b5b5f61042c89828a01610359565b965050602061043d89828a01610394565b955050604061044e89828a016103be565b945050606061045f89828a016103f1565b935050608061047089828a016103f1565b92505060a061048189828a016103be565b9150509295509295509295565b61049781610321565b82525050565b5f6020820190506104b05f83018461048e565b92915050565b60805160a05160c0516111cc6104fc5f395f81816102c3015261059f01525f81816104ba0152818161060d015261089301525f81816105c101526106d801526111cc5ff3fe608060405234801561000f575f5ffd5b50600436106100f3575f3560e01c806391b7f5ed11610095578063a5629da411610064578063a5629da414610239578063ed1bd76c14610257578063f2fde38b14610287578063fcb1e641146102a3576100f3565b806391b7f5ed146101c357806398d5fdca146101df57806399530b06146101fd5780639f2416f21461021b576100f3565b80636d9a640a116100d15780636d9a640a1461014d578063715018a61461017d57806389a30271146101875780638da5cb5b146101a5576100f3565b80632f99c6cc146100f757806352415d8d1461011557806369328dec14610131575b5f5ffd5b6100ff6102c1565b60405161010c9190610c97565b60405180910390f35b61012f600480360381019061012a9190610ce7565b6102e5565b005b61014b60048036038101906101469190610d77565b61036d565b005b61016760048036038101906101629190610dc7565b6103a5565b6040516101749190610e26565b60405180910390f35b6101856106c3565b005b61018f6106d6565b60405161019c9190610e9a565b60405180910390f35b6101ad6106fa565b6040516101ba9190610c97565b60405180910390f35b6101dd60048036038101906101d89190610ce7565b610721565b005b6101e76107e1565b6040516101f49190610e26565b60405180910390f35b610205610886565b6040516102129190610e26565b60405180910390f35b61022361088c565b6040516102309190610e26565b60405180910390f35b610241610891565b60405161024e9190610ed3565b60405180910390f35b610271600480360381019061026c9190610ce7565b6108b5565b60405161027e9190610e26565b60405180910390f35b6102a1600480360381019061029c9190610eec565b6108e3565b005b6102ab610967565b6040516102b89190610e26565b60405180910390f35b7f000000000000000000000000000000000000000000000000000000000000000081565b6102ed61096d565b6001548110610328576040517fe2677e3300000000000000000000000000000000000000000000000000000000815260040160405180910390fd5b7f58b82dc4f4b19c992eeb3c80a0753b707f42b2a57f34beae7837d5701b8048596002548260405161035b929190610f17565b60405180910390a18060028190555050565b61037561096d565b6103a081838573ffffffffffffffffffffffffffffffffffffffff166109f49092919063ffffffff16565b505050565b5f5f84036103df576040517f1f2a200500000000000000000000000000000000000000000000000000000000815260040160405180910390fd5b5f73ffffffffffffffffffffffffffffffffffffffff168273ffffffffffffffffffffffffffffffffffffffff1603610444576040517fd27b444300000000000000000000000000000000000000000000000000000000815260040160405180910390fd5b5f61044d6107e1565b905080670de0b6b3a7640000866104649190610f6b565b61046e9190610fd9565b9150838210156104b75781846040517f71c4efed0000000000000000000000000000000000000000000000000000000081526004016104ae929190610f17565b60405180910390fd5b5f7f000000000000000000000000000000000000000000000000000000000000000073ffffffffffffffffffffffffffffffffffffffff166370a08231306040518263ffffffff1660e01b81526004016105119190610c97565b602060405180830381865afa15801561052c573d5f5f3e3d5ffd5b505050506040513d601f19601f82011682018060405250810190610550919061101d565b9050808311156105995782816040517fa17e11d5000000000000000000000000000000000000000000000000000000008152600401610590929190610f17565b60405180910390fd5b610606337f0000000000000000000000000000000000000000000000000000000000000000887f000000000000000000000000000000000000000000000000000000000000000073ffffffffffffffffffffffffffffffffffffffff16610a73909392919063ffffffff16565b61065184847f000000000000000000000000000000000000000000000000000000000000000073ffffffffffffffffffffffffffffffffffffffff166109f49092919063ffffffff16565b8373ffffffffffffffffffffffffffffffffffffffff163373ffffffffffffffffffffffffffffffffffffffff167fa54201e99d8e1488291e015a3af88c7a169bcf4932617ecd9536e1f1ad4351108886866040516106b293929190611048565b60405180910390a350509392505050565b6106cb61096d565b6106d45f610af5565b565b7f000000000000000000000000000000000000000000000000000000000000000081565b5f5f5f9054906101000a900473ffffffffffffffffffffffffffffffffffffffff16905090565b61072961096d565b5f8103610761576040517ebfc92100000000000000000000000000000000000000000000000000000000815260040160405180910390fd5b806002541061079c576040517fe2677e3300000000000000000000000000000000000000000000000000000000815260040160405180910390fd5b7f945c1c4e99aa89f648fbfe3df471b916f719e16d960fcec0737d4d56bd696838600154826040516107cf929190610f17565b60405180910390a18060018190555050565b5f5f60015490505f60025490505f81036107ff578192505050610883565b5f60054261080d9190610fd9565b90505f813060405160200161082392919061107d565b604051602081830303815290604052805190602001205f1c90505f600184600261084d9190610f6b565b61085791906110a4565b8261086291906110d7565b905083818661087191906110a4565b61087b9190611107565b955050505050505b90565b60015481565b600581565b7f000000000000000000000000000000000000000000000000000000000000000081565b5f6108be6107e1565b670de0b6b3a7640000836108d29190610f6b565b6108dc9190610fd9565b9050919050565b6108eb61096d565b5f73ffffffffffffffffffffffffffffffffffffffff168173ffffffffffffffffffffffffffffffffffffffff160361095b575f6040517f1e4fbdf70000000000000000000000000000000000000000000000000000000081526004016109529190610c97565b60405180910390fd5b61096481610af5565b50565b60025481565b610975610bb6565b73ffffffffffffffffffffffffffffffffffffffff166109936106fa565b73ffffffffffffffffffffffffffffffffffffffff16146109f2576109b6610bb6565b6040517f118cdaa70000000000000000000000000000000000000000000000000000000081526004016109e99190610c97565b60405180910390fd5b565b610a6e838473ffffffffffffffffffffffffffffffffffffffff1663a9059cbb8585604051602401610a2792919061113a565b604051602081830303815290604052915060e01b6020820180517bffffffffffffffffffffffffffffffffffffffffffffffffffffffff8381831617835250505050610bbd565b505050565b610aef848573ffffffffffffffffffffffffffffffffffffffff166323b872dd868686604051602401610aa893929190611161565b604051602081830303815290604052915060e01b6020820180517bffffffffffffffffffffffffffffffffffffffffffffffffffffffff8381831617835250505050610bbd565b50505050565b5f5f5f9054906101000a900473ffffffffffffffffffffffffffffffffffffffff169050815f5f6101000a81548173ffffffffffffffffffffffffffffffffffffffff021916908373ffffffffffffffffffffffffffffffffffffffff1602179055508173ffffffffffffffffffffffffffffffffffffffff168173ffffffffffffffffffffffffffffffffffffffff167f8be0079c531659141344cd1fd0a4f28419497f9722a3daafe3b4186f6b6457e060405160405180910390a35050565b5f33905090565b5f5f60205f8451602086015f885af180610bdc576040513d5f823e3d81fd5b3d92505f519150505f8214610bf5576001811415610c10565b5f8473ffffffffffffffffffffffffffffffffffffffff163b145b15610c5257836040517f5274afe7000000000000000000000000000000000000000000000000000000008152600401610c499190610c97565b60405180910390fd5b50505050565b5f73ffffffffffffffffffffffffffffffffffffffff82169050919050565b5f610c8182610c58565b9050919050565b610c9181610c77565b82525050565b5f602082019050610caa5f830184610c88565b92915050565b5f5ffd5b5f819050919050565b610cc681610cb4565b8114610cd0575f5ffd5b50565b5f81359050610ce181610cbd565b92915050565b5f60208284031215610cfc57610cfb610cb0565b5b5f610d0984828501610cd3565b91505092915050565b5f610d1c82610c77565b9050919050565b610d2c81610d12565b8114610d36575f5ffd5b50565b5f81359050610d4781610d23565b92915050565b610d5681610c77565b8114610d60575f5ffd5b50565b5f81359050610d7181610d4d565b92915050565b5f5f5f60608486031215610d8e57610d8d610cb0565b5b5f610d9b86828701610d39565b9350506020610dac86828701610cd3565b9250506040610dbd86828701610d63565b9150509250925092565b5f5f5f60608486031215610dde57610ddd610cb0565b5b5f610deb86828701610cd3565b9350506020610dfc86828701610cd3565b9250506040610e0d86828701610d63565b9150509250925092565b610e2081610cb4565b82525050565b5f602082019050610e395f830184610e17565b92915050565b5f819050919050565b5f610e62610e5d610e5884610c58565b610e3f565b610c58565b9050919050565b5f610e7382610e48565b9050919050565b5f610e8482610e69565b9050919050565b610e9481610e7a565b82525050565b5f602082019050610ead5f830184610e8b565b92915050565b5f610ebd82610e69565b9050919050565b610ecd81610eb3565b82525050565b5f602082019050610ee65f830184610ec4565b92915050565b5f60208284031215610f0157610f00610cb0565b5b5f610f0e84828501610d63565b91505092915050565b5f604082019050610f2a5f830185610e17565b610f376020830184610e17565b9392505050565b7f4e487b71000000000000000000000000000000000000000000000000000000005f52601160045260245ffd5b5f610f7582610cb4565b9150610f8083610cb4565b9250828202610f8e81610cb4565b91508282048414831517610fa557610fa4610f3e565b5b5092915050565b7f4e487b71000000000000000000000000000000000000000000000000000000005f52601260045260245ffd5b5f610fe382610cb4565b9150610fee83610cb4565b925082610ffe57610ffd610fac565b5b828204905092915050565b5f8151905061101781610cbd565b92915050565b5f6020828403121561103257611031610cb0565b5b5f61103f84828501611009565b91505092915050565b5f60608201905061105b5f830186610e17565b6110686020830185610e17565b6110756040830184610e17565b949350505050565b5f6040820190506110905f830185610e17565b61109d6020830184610c88565b9392505050565b5f6110ae82610cb4565b91506110b983610cb4565b92508282019050808211156110d1576110d0610f3e565b5b92915050565b5f6110e182610cb4565b91506110ec83610cb4565b9250826110fc576110fb610fac565b5b828206905092915050565b5f61111182610cb4565b915061111c83610cb4565b925082820390508181111561113457611133610f3e565b5b92915050565b5f60408201905061114d5f830185610c88565b61115a6020830184610e17565b9392505050565b5f6060820190506111745f830186610c88565b6111816020830185610c88565b61118e6040830184610e17565b94935050505056fea2646970667358221220eed199be0f1cc6fd203b632b511d0d407e5f61c587f3ff08004bbf3d08f6a87f64736f6c634300081c0033","linkReferences":{}},"methodIdentifiers":{"BENEFICIARY()":"2f99c6cc","JITTER_BUCKET_SECONDS()":"9f2416f2","RWA_TOKEN()":"a5629da4","USDC()":"89a30271","getPrice()":"98d5fdca","jitterRange()":"fcb1e641","owner()":"8da5cb5b","pricePerShare()":"99530b06","quote(uint256)":"ed1bd76c","renounceOwnership()":"715018a6","setJitter(uint256)":"52415d8d","setPrice(uint256)":"91b7f5ed","swap(uint256,uint256,address)":"6d9a640a","transferOwnership(address)":"f2fde38b","withdraw(address,uint256,address)":"69328dec"},"id":31}