{"abi":[{"type":"constructor","inputs":[{"name":"usdc","type":"address","internalType":"contract IERC20"},{"name":"rwaToken","type":"address","internalType":"contract MockRWA"},{"name":"initialPrice","type":"uint256","internalType":"uint256"},{"name":"initialJitter","type":"uint256","internalType":"uint256"},{"name":"owner_","type":"address","internalType":"address"}],"stateMutability":"nonpayable"},{"type":"function","name":"JITTER_BUCKET_SECONDS","inputs":[],"outputs":[{"name":"","type":"uint256","internalType":"uint256"}],"stateMutability":"view"},{"type":"function","name":"RWA_TOKEN","inputs":[],"outputs":[{"name":"","type":"address","internalType":"contract MockRWA"}],"stateMutability":"view"},{"type":"function","name":"USDC","inputs":[],"outputs":[{"name":"","type":"address","internalType":"contract IERC20"}],"stateMutability":"view"},{"type":"function","name":"getPrice","inputs":[],"outputs":[{"name":"price","type":"uint256","internalType":"uint256"}],"stateMutability":"view"},{"type":"function","name":"jitterRange","inputs":[],"outputs":[{"name":"","type":"uint256","internalType":"uint256"}],"stateMutability":"view"},{"type":"function","name":"owner","inputs":[],"outputs":[{"name":"","type":"address","internalType":"address"}],"stateMutability":"view"},{"type":"function","name":"pricePerShare","inputs":[],"outputs":[{"name":"","type":"uint256","internalType":"uint256"}],"stateMutability":"view"},{"type":"function","name":"quote","inputs":[{"name":"usdcIn","type":"uint256","internalType":"uint256"}],"outputs":[{"name":"rwaOut","type":"uint256","internalType":"uint256"}],"stateMutability":"view"},{"type":"function","name":"renounceOwnership","inputs":[],"outputs":[],"stateMutability":"nonpayable"},{"type":"function","name":"setJitter","inputs":[{"name":"newRange","type":"uint256","internalType":"uint256"}],"outputs":[],"stateMutability":"nonpayable"},{"type":"function","name":"setPrice","inputs":[{"name":"newPrice","type":"uint256","internalType":"uint256"}],"outputs":[],"stateMutability":"nonpayable"},{"type":"function","name":"swap","inputs":[{"name":"usdcIn","type":"uint256","internalType":"uint256"},{"name":"minRwaOut","type":"uint256","internalType":"uint256"},{"name":"recipient","type":"address","internalType":"address"}],"outputs":[{"name":"rwaOut","type":"uint256","internalType":"uint256"}],"stateMutability":"nonpayable"},{"type":"function","name":"transferOwnership","inputs":[{"name":"newOwner","type":"address","internalType":"address"}],"outputs":[],"stateMutability":"nonpayable"},{"type":"function","name":"withdraw","inputs":[{"name":"token","type":"address","internalType":"contract IERC20"},{"name":"amount","type":"uint256","internalType":"uint256"},{"name":"to","type":"address","internalType":"address"}],"outputs":[],"stateMutability":"nonpayable"},{"type":"event","name":"JitterRangeUpdated","inputs":[{"name":"oldRange","type":"uint256","indexed":false,"internalType":"uint256"},{"name":"newRange","type":"uint256","indexed":false,"internalType":"uint256"}],"anonymous":false},{"type":"event","name":"OwnershipTransferred","inputs":[{"name":"previousOwner","type":"address","indexed":true,"internalType":"address"},{"name":"newOwner","type":"address","indexed":true,"internalType":"address"}],"anonymous":false},{"type":"event","name":"PriceUpdated","inputs":[{"name":"oldPrice","type":"uint256","indexed":false,"internalType":"uint256"},{"name":"newPrice","type":"uint256","indexed":false,"internalType":"uint256"}],"anonymous":false},{"type":"event","name":"Swapped","inputs":[{"name":"user","type":"address","indexed":true,"internalType":"address"},{"name":"recipient","type":"address","indexed":true,"internalType":"address"},{"name":"usdcIn","type":"uint256","indexed":false,"internalType":"uint256"},{"name":"rwaOut","type":"uint256","indexed":false,"internalType":"uint256"},{"name":"price","type":"uint256","indexed":false,"internalType":"uint256"}],"anonymous":false},{"type":"error","name":"InsufficientLiquidity","inputs":[{"name":"requested","type":"uint256","internalType":"uint256"},{"name":"available","type":"uint256","internalType":"uint256"}]},{"type":"error","name":"InvalidJitter","inputs":[]},{"type":"error","name":"InvalidPrice","inputs":[]},{"type":"error","name":"OwnableInvalidOwner","inputs":[{"name":"owner","type":"address","internalType":"address"}]},{"type":"error","name":"OwnableUnauthorizedAccount","inputs":[{"name":"account","type":"address","internalType":"address"}]},{"type":"error","name":"SafeERC20FailedOperation","inputs":[{"name":"token","type":"address","internalType":"address"}]},{"type":"error","name":"SlippageExceeded","inputs":[{"name":"rwaOut","type":"uint256","internalType":"uint256"},{"name":"minRwaOut","type":"uint256","internalType":"uint256"}]},{"type":"error","name":"ZeroAmount","inputs":[]},{"type":"error","name":"ZeroRecipient","inputs":[]}],"bytecode":{"object":"0x60c060405234801561000f575f5ffd5b5060405161159f38038061159f8339818101604052810190610031919061036b565b805f73ffffffffffffffffffffffffffffffffffffffff168173ffffffffffffffffffffffffffffffffffffffff16036100a2575f6040517f1e4fbdf700000000000000000000000000000000000000000000000000000000815260040161009991906103f1565b60405180910390fd5b6100b1816101a360201b60201c565b505f83036100ea576040517ebfc92100000000000000000000000000000000000000000000000000000000815260040160405180910390fd5b828210610123576040517fe2677e3300000000000000000000000000000000000000000000000000000000815260040160405180910390fd5b8473ffffffffffffffffffffffffffffffffffffffff1660808173ffffffffffffffffffffffffffffffffffffffff16815250508373ffffffffffffffffffffffffffffffffffffffff1660a08173ffffffffffffffffffffffffffffffffffffffff16815250508260018190555081600281905550505050505061040a565b5f5f5f9054906101000a900473ffffffffffffffffffffffffffffffffffffffff169050815f5f6101000a81548173ffffffffffffffffffffffffffffffffffffffff021916908373ffffffffffffffffffffffffffffffffffffffff1602179055508173ffffffffffffffffffffffffffffffffffffffff168173ffffffffffffffffffffffffffffffffffffffff167f8be0079c531659141344cd1fd0a4f28419497f9722a3daafe3b4186f6b6457e060405160405180910390a35050565b5f5ffd5b5f73ffffffffffffffffffffffffffffffffffffffff82169050919050565b5f61029182610268565b9050919050565b5f6102a282610287565b9050919050565b6102b281610298565b81146102bc575f5ffd5b50565b5f815190506102cd816102a9565b92915050565b5f6102dd82610287565b9050919050565b6102ed816102d3565b81146102f7575f5ffd5b50565b5f81519050610308816102e4565b92915050565b5f819050919050565b6103208161030e565b811461032a575f5ffd5b50565b5f8151905061033b81610317565b92915050565b61034a81610287565b8114610354575f5ffd5b50565b5f8151905061036581610341565b92915050565b5f5f5f5f5f60a0868803121561038457610383610264565b5b5f610391888289016102bf565b95505060206103a2888289016102fa565b94505060406103b38882890161032d565b93505060606103c48882890161032d565b92505060806103d588828901610357565b9150509295509295909350565b6103eb81610287565b82525050565b5f6020820190506104045f8301846103e2565b92915050565b60805160a05161115f6104405f395f818161046d015281816105a0015261082601525f8181610554015261066b015261115f5ff3fe608060405234801561000f575f5ffd5b50600436106100e8575f3560e01c806398d5fdca1161008a578063a5629da411610064578063a5629da414610210578063ed1bd76c1461022e578063f2fde38b1461025e578063fcb1e6411461027a576100e8565b806398d5fdca146101b657806399530b06146101d45780639f2416f2146101f2576100e8565b8063715018a6116100c6578063715018a61461015457806389a302711461015e5780638da5cb5b1461017c57806391b7f5ed1461019a576100e8565b806352415d8d146100ec57806369328dec146101085780636d9a640a14610124575b5f5ffd5b61010660048036038101906101019190610c22565b610298565b005b610122600480360381019061011d9190610ce2565b610320565b005b61013e60048036038101906101399190610d32565b610358565b60405161014b9190610d91565b60405180910390f35b61015c610656565b005b610166610669565b6040516101739190610e05565b60405180910390f35b61018461068d565b6040516101919190610e2d565b60405180910390f35b6101b460048036038101906101af9190610c22565b6106b4565b005b6101be610774565b6040516101cb9190610d91565b60405180910390f35b6101dc610819565b6040516101e99190610d91565b60405180910390f35b6101fa61081f565b6040516102079190610d91565b60405180910390f35b610218610824565b6040516102259190610e66565b60405180910390f35b61024860048036038101906102439190610c22565b610848565b6040516102559190610d91565b60405180910390f35b61027860048036038101906102739190610e7f565b610876565b005b6102826108fa565b60405161028f9190610d91565b60405180910390f35b6102a0610900565b60015481106102db576040517fe2677e3300000000000000000000000000000000000000000000000000000000815260040160405180910390fd5b7f58b82dc4f4b19c992eeb3c80a0753b707f42b2a57f34beae7837d5701b8048596002548260405161030e929190610eaa565b60405180910390a18060028190555050565b610328610900565b61035381838573ffffffffffffffffffffffffffffffffffffffff166109879092919063ffffffff16565b505050565b5f5f8403610392576040517f1f2a200500000000000000000000000000000000000000000000000000000000815260040160405180910390fd5b5f73ffffffffffffffffffffffffffffffffffffffff168273ffffffffffffffffffffffffffffffffffffffff16036103f7576040517fd27b444300000000000000000000000000000000000000000000000000000000815260040160405180910390fd5b5f610400610774565b905080670de0b6b3a7640000866104179190610efe565b6104219190610f6c565b91508382101561046a5781846040517f71c4efed000000000000000000000000000000000000000000000000000000008152600401610461929190610eaa565b60405180910390fd5b5f7f000000000000000000000000000000000000000000000000000000000000000073ffffffffffffffffffffffffffffffffffffffff166370a08231306040518263ffffffff1660e01b81526004016104c49190610e2d565b602060405180830381865afa1580156104df573d5f5f3e3d5ffd5b505050506040513d601f19601f820116820180604052508101906105039190610fb0565b90508083111561054c5782816040517fa17e11d5000000000000000000000000000000000000000000000000000000008152600401610543929190610eaa565b60405180910390fd5b6105993330887f000000000000000000000000000000000000000000000000000000000000000073ffffffffffffffffffffffffffffffffffffffff16610a06909392919063ffffffff16565b6105e484847f000000000000000000000000000000000000000000000000000000000000000073ffffffffffffffffffffffffffffffffffffffff166109879092919063ffffffff16565b8373ffffffffffffffffffffffffffffffffffffffff163373ffffffffffffffffffffffffffffffffffffffff167fa54201e99d8e1488291e015a3af88c7a169bcf4932617ecd9536e1f1ad43511088868660405161064593929190610fdb565b60405180910390a350509392505050565b61065e610900565b6106675f610a88565b565b7f000000000000000000000000000000000000000000000000000000000000000081565b5f5f5f9054906101000a900473ffffffffffffffffffffffffffffffffffffffff16905090565b6106bc610900565b5f81036106f4576040517ebfc92100000000000000000000000000000000000000000000000000000000815260040160405180910390fd5b806002541061072f576040517fe2677e3300000000000000000000000000000000000000000000000000000000815260040160405180910390fd5b7f945c1c4e99aa89f648fbfe3df471b916f719e16d960fcec0737d4d56bd69683860015482604051610762929190610eaa565b60405180910390a18060018190555050565b5f5f60015490505f60025490505f8103610792578192505050610816565b5f6005426107a09190610f6c565b90505f81306040516020016107b6929190611010565b604051602081830303815290604052805190602001205f1c90505f60018460026107e09190610efe565b6107ea9190611037565b826107f5919061106a565b90508381866108049190611037565b61080e919061109a565b955050505050505b90565b60015481565b600581565b7f000000000000000000000000000000000000000000000000000000000000000081565b5f610851610774565b670de0b6b3a7640000836108659190610efe565b61086f9190610f6c565b9050919050565b61087e610900565b5f73ffffffffffffffffffffffffffffffffffffffff168173ffffffffffffffffffffffffffffffffffffffff16036108ee575f6040517f1e4fbdf70000000000000000000000000000000000000000000000000000000081526004016108e59190610e2d565b60405180910390fd5b6108f781610a88565b50565b60025481565b610908610b49565b73ffffffffffffffffffffffffffffffffffffffff1661092661068d565b73ffffffffffffffffffffffffffffffffffffffff161461098557610949610b49565b6040517f118cdaa700000000000000000000000000000000000000000000000000000000815260040161097c9190610e2d565b60405180910390fd5b565b610a01838473ffffffffffffffffffffffffffffffffffffffff1663a9059cbb85856040516024016109ba9291906110cd565b604051602081830303815290604052915060e01b6020820180517bffffffffffffffffffffffffffffffffffffffffffffffffffffffff8381831617835250505050610b50565b505050565b610a82848573ffffffffffffffffffffffffffffffffffffffff166323b872dd868686604051602401610a3b939291906110f4565b604051602081830303815290604052915060e01b6020820180517bffffffffffffffffffffffffffffffffffffffffffffffffffffffff8381831617835250505050610b50565b50505050565b5f5f5f9054906101000a900473ffffffffffffffffffffffffffffffffffffffff169050815f5f6101000a81548173ffffffffffffffffffffffffffffffffffffffff021916908373ffffffffffffffffffffffffffffffffffffffff1602179055508173ffffffffffffffffffffffffffffffffffffffff168173ffffffffffffffffffffffffffffffffffffffff167f8be0079c531659141344cd1fd0a4f28419497f9722a3daafe3b4186f6b6457e060405160405180910390a35050565b5f33905090565b5f5f60205f8451602086015f885af180610b6f576040513d5f823e3d81fd5b3d92505f519150505f8214610b88576001811415610ba3565b5f8473ffffffffffffffffffffffffffffffffffffffff163b145b15610be557836040517f5274afe7000000000000000000000000000000000000000000000000000000008152600401610bdc9190610e2d565b60405180910390fd5b50505050565b5f5ffd5b5f819050919050565b610c0181610bef565b8114610c0b575f5ffd5b50565b5f81359050610c1c81610bf8565b92915050565b5f60208284031215610c3757610c36610beb565b5b5f610c4484828501610c0e565b91505092915050565b5f73ffffffffffffffffffffffffffffffffffffffff82169050919050565b5f610c7682610c4d565b9050919050565b5f610c8782610c6c565b9050919050565b610c9781610c7d565b8114610ca1575f5ffd5b50565b5f81359050610cb281610c8e565b92915050565b610cc181610c6c565b8114610ccb575f5ffd5b50565b5f81359050610cdc81610cb8565b92915050565b5f5f5f60608486031215610cf957610cf8610beb565b5b5f610d0686828701610ca4565b9350506020610d1786828701610c0e565b9250506040610d2886828701610cce565b9150509250925092565b5f5f5f60608486031215610d4957610d48610beb565b5b5f610d5686828701610c0e565b9350506020610d6786828701610c0e565b9250506040610d7886828701610cce565b9150509250925092565b610d8b81610bef565b82525050565b5f602082019050610da45f830184610d82565b92915050565b5f819050919050565b5f610dcd610dc8610dc384610c4d565b610daa565b610c4d565b9050919050565b5f610dde82610db3565b9050919050565b5f610def82610dd4565b9050919050565b610dff81610de5565b82525050565b5f602082019050610e185f830184610df6565b92915050565b610e2781610c6c565b82525050565b5f602082019050610e405f830184610e1e565b92915050565b5f610e5082610dd4565b9050919050565b610e6081610e46565b82525050565b5f602082019050610e795f830184610e57565b92915050565b5f60208284031215610e9457610e93610beb565b5b5f610ea184828501610cce565b91505092915050565b5f604082019050610ebd5f830185610d82565b610eca6020830184610d82565b9392505050565b7f4e487b71000000000000000000000000000000000000000000000000000000005f52601160045260245ffd5b5f610f0882610bef565b9150610f1383610bef565b9250828202610f2181610bef565b91508282048414831517610f3857610f37610ed1565b5b5092915050565b7f4e487b71000000000000000000000000000000000000000000000000000000005f52601260045260245ffd5b5f610f7682610bef565b9150610f8183610bef565b925082610f9157610f90610f3f565b5b828204905092915050565b5f81519050610faa81610bf8565b92915050565b5f60208284031215610fc557610fc4610beb565b5b5f610fd284828501610f9c565b91505092915050565b5f606082019050610fee5f830186610d82565b610ffb6020830185610d82565b6110086040830184610d82565b949350505050565b5f6040820190506110235f830185610d82565b6110306020830184610e1e565b9392505050565b5f61104182610bef565b915061104c83610bef565b925082820190508082111561106457611063610ed1565b5b92915050565b5f61107482610bef565b915061107f83610bef565b92508261108f5761108e610f3f565b5b828206905092915050565b5f6110a482610bef565b91506110af83610bef565b92508282039050818111156110c7576110c6610ed1565b5b92915050565b5f6040820190506110e05f830185610e1e565b6110ed6020830184610d82565b9392505050565b5f6060820190506111075f830186610e1e565b6111146020830185610e1e565b6111216040830184610d82565b94935050505056fea2646970667358221220f80ba18d1aa30320a7828bd704d2161d184cbf4eb8f70bfaa2aa4360f9994e3064736f6c634300081c0033","linkReferences":{}},"methodIdentifiers":{"JITTER_BUCKET_SECONDS()":"9f2416f2","RWA_TOKEN()":"a5629da4","USDC()":"89a30271","getPrice()":"98d5fdca","jitterRange()":"fcb1e641","owner()":"8da5cb5b","pricePerShare()":"99530b06","quote(uint256)":"ed1bd76c","renounceOwnership()":"715018a6","setJitter(uint256)":"52415d8d","setPrice(uint256)":"91b7f5ed","swap(uint256,uint256,address)":"6d9a640a","transferOwnership(address)":"f2fde38b","withdraw(address,uint256,address)":"69328dec"},"id":31}