{"abi":[{"type":"constructor","inputs":[{"name":"usdc","type":"address","internalType":"contract IERC20"},{"name":"beneficiary","type":"address","internalType":"address"},{"name":"baseUri","type":"string","internalType":"string"},{"name":"owner_","type":"address","internalType":"address"}],"stateMutability":"nonpayable"},{"type":"function","name":"BENEFICIARY","inputs":[],"outputs":[{"name":"","type":"address","internalType":"address"}],"stateMutability":"view"},{"type":"function","name":"USDC","inputs":[],"outputs":[{"name":"","type":"address","internalType":"contract IERC20"}],"stateMutability":"view"},{"type":"function","name":"balanceOf","inputs":[{"name":"account","type":"address","internalType":"address"},{"name":"id","type":"uint256","internalType":"uint256"}],"outputs":[{"name":"","type":"uint256","internalType":"uint256"}],"stateMutability":"view"},{"type":"function","name":"balanceOfBatch","inputs":[{"name":"accounts","type":"address[]","internalType":"address[]"},{"name":"ids","type":"uint256[]","internalType":"uint256[]"}],"outputs":[{"name":"","type":"uint256[]","internalType":"uint256[]"}],"stateMutability":"view"},{"type":"function","name":"buy","inputs":[{"name":"id","type":"uint256","internalType":"uint256"},{"name":"amount","type":"uint256","internalType":"uint256"},{"name":"recipient","type":"address","internalType":"address"}],"outputs":[{"name":"totalPrice","type":"uint256","internalType":"uint256"}],"stateMutability":"nonpayable"},{"type":"function","name":"isApprovedForAll","inputs":[{"name":"account","type":"address","internalType":"address"},{"name":"operator","type":"address","internalType":"address"}],"outputs":[{"name":"","type":"bool","internalType":"bool"}],"stateMutability":"view"},{"type":"function","name":"mint","inputs":[{"name":"to","type":"address","internalType":"address"},{"name":"id","type":"uint256","internalType":"uint256"},{"name":"amount","type":"uint256","internalType":"uint256"}],"outputs":[],"stateMutability":"nonpayable"},{"type":"function","name":"owner","inputs":[],"outputs":[{"name":"","type":"address","internalType":"address"}],"stateMutability":"view"},{"type":"function","name":"priceOf","inputs":[{"name":"id","type":"uint256","internalType":"uint256"}],"outputs":[{"name":"priceUsdc","type":"uint256","internalType":"uint256"}],"stateMutability":"view"},{"type":"function","name":"renounceOwnership","inputs":[],"outputs":[],"stateMutability":"nonpayable"},{"type":"function","name":"safeBatchTransferFrom","inputs":[{"name":"from","type":"address","internalType":"address"},{"name":"to","type":"address","internalType":"address"},{"name":"ids","type":"uint256[]","internalType":"uint256[]"},{"name":"values","type":"uint256[]","internalType":"uint256[]"},{"name":"data","type":"bytes","internalType":"bytes"}],"outputs":[],"stateMutability":"nonpayable"},{"type":"function","name":"safeTransferFrom","inputs":[{"name":"from","type":"address","internalType":"address"},{"name":"to","type":"address","internalType":"address"},{"name":"id","type":"uint256","internalType":"uint256"},{"name":"value","type":"uint256","internalType":"uint256"},{"name":"data","type":"bytes","internalType":"bytes"}],"outputs":[],"stateMutability":"nonpayable"},{"type":"function","name":"setApprovalForAll","inputs":[{"name":"operator","type":"address","internalType":"address"},{"name":"approved","type":"bool","internalType":"bool"}],"outputs":[],"stateMutability":"nonpayable"},{"type":"function","name":"setPrice","inputs":[{"name":"id","type":"uint256","internalType":"uint256"},{"name":"priceUsdc","type":"uint256","internalType":"uint256"}],"outputs":[],"stateMutability":"nonpayable"},{"type":"function","name":"setURI","inputs":[{"name":"newUri","type":"string","internalType":"string"}],"outputs":[],"stateMutability":"nonpayable"},{"type":"function","name":"supportsInterface","inputs":[{"name":"interfaceId","type":"bytes4","internalType":"bytes4"}],"outputs":[{"name":"","type":"bool","internalType":"bool"}],"stateMutability":"view"},{"type":"function","name":"transferOwnership","inputs":[{"name":"newOwner","type":"address","internalType":"address"}],"outputs":[],"stateMutability":"nonpayable"},{"type":"function","name":"uri","inputs":[{"name":"","type":"uint256","internalType":"uint256"}],"outputs":[{"name":"","type":"string","internalType":"string"}],"stateMutability":"view"},{"type":"event","name":"ApprovalForAll","inputs":[{"name":"account","type":"address","indexed":true,"internalType":"address"},{"name":"operator","type":"address","indexed":true,"internalType":"address"},{"name":"approved","type":"bool","indexed":false,"internalType":"bool"}],"anonymous":false},{"type":"event","name":"OwnershipTransferred","inputs":[{"name":"previousOwner","type":"address","indexed":true,"internalType":"address"},{"name":"newOwner","type":"address","indexed":true,"internalType":"address"}],"anonymous":false},{"type":"event","name":"PriceUpdated","inputs":[{"name":"id","type":"uint256","indexed":true,"internalType":"uint256"},{"name":"oldPrice","type":"uint256","indexed":false,"internalType":"uint256"},{"name":"newPrice","type":"uint256","indexed":false,"internalType":"uint256"}],"anonymous":false},{"type":"event","name":"Purchased","inputs":[{"name":"buyer","type":"address","indexed":true,"internalType":"address"},{"name":"recipient","type":"address","indexed":true,"internalType":"address"},{"name":"id","type":"uint256","indexed":true,"internalType":"uint256"},{"name":"amount","type":"uint256","indexed":false,"internalType":"uint256"},{"name":"totalPrice","type":"uint256","indexed":false,"internalType":"uint256"}],"anonymous":false},{"type":"event","name":"TransferBatch","inputs":[{"name":"operator","type":"address","indexed":true,"internalType":"address"},{"name":"from","type":"address","indexed":true,"internalType":"address"},{"name":"to","type":"address","indexed":true,"internalType":"address"},{"name":"ids","type":"uint256[]","indexed":false,"internalType":"uint256[]"},{"name":"values","type":"uint256[]","indexed":false,"internalType":"uint256[]"}],"anonymous":false},{"type":"event","name":"TransferSingle","inputs":[{"name":"operator","type":"address","indexed":true,"internalType":"address"},{"name":"from","type":"address","indexed":true,"internalType":"address"},{"name":"to","type":"address","indexed":true,"internalType":"address"},{"name":"id","type":"uint256","indexed":false,"internalType":"uint256"},{"name":"value","type":"uint256","indexed":false,"internalType":"uint256"}],"anonymous":false},{"type":"event","name":"URI","inputs":[{"name":"value","type":"string","indexed":false,"internalType":"string"},{"name":"id","type":"uint256","indexed":true,"internalType":"uint256"}],"anonymous":false},{"type":"error","name":"ERC1155InsufficientBalance","inputs":[{"name":"sender","type":"address","internalType":"address"},{"name":"balance","type":"uint256","internalType":"uint256"},{"name":"needed","type":"uint256","internalType":"uint256"},{"name":"tokenId","type":"uint256","internalType":"uint256"}]},{"type":"error","name":"ERC1155InvalidApprover","inputs":[{"name":"approver","type":"address","internalType":"address"}]},{"type":"error","name":"ERC1155InvalidArrayLength","inputs":[{"name":"idsLength","type":"uint256","internalType":"uint256"},{"name":"valuesLength","type":"uint256","internalType":"uint256"}]},{"type":"error","name":"ERC1155InvalidOperator","inputs":[{"name":"operator","type":"address","internalType":"address"}]},{"type":"error","name":"ERC1155InvalidReceiver","inputs":[{"name":"receiver","type":"address","internalType":"address"}]},{"type":"error","name":"ERC1155InvalidSender","inputs":[{"name":"sender","type":"address","internalType":"address"}]},{"type":"error","name":"ERC1155MissingApprovalForAll","inputs":[{"name":"operator","type":"address","internalType":"address"},{"name":"owner","type":"address","internalType":"address"}]},{"type":"error","name":"NotForSale","inputs":[{"name":"id","type":"uint256","internalType":"uint256"}]},{"type":"error","name":"OwnableInvalidOwner","inputs":[{"name":"owner","type":"address","internalType":"address"}]},{"type":"error","name":"OwnableUnauthorizedAccount","inputs":[{"name":"account","type":"address","internalType":"address"}]},{"type":"error","name":"SafeERC20FailedOperation","inputs":[{"name":"token","type":"address","internalType":"address"}]},{"type":"error","name":"ZeroAmount","inputs":[]},{"type":"error","name":"ZeroRecipient","inputs":[]}],"bytecode":{"object":"0x60c060405234801561000f575f5ffd5b5060405161340138038061340183398181016040528101906100319190610451565b80826100428161019960201b60201c565b505f73ffffffffffffffffffffffffffffffffffffffff168173ffffffffffffffffffffffffffffffffffffffff16036100b3575f6040517f1e4fbdf70000000000000000000000000000000000000000000000000000000081526004016100aa91906104e0565b60405180910390fd5b6100c2816101ac60201b60201c565b505f73ffffffffffffffffffffffffffffffffffffffff168373ffffffffffffffffffffffffffffffffffffffff1603610128576040517fd27b444300000000000000000000000000000000000000000000000000000000815260040160405180910390fd5b8373ffffffffffffffffffffffffffffffffffffffff1660808173ffffffffffffffffffffffffffffffffffffffff16815250508273ffffffffffffffffffffffffffffffffffffffff1660a08173ffffffffffffffffffffffffffffffffffffffff1681525050505050506107d8565b80600290816101a89190610709565b5050565b5f60035f9054906101000a900473ffffffffffffffffffffffffffffffffffffffff1690508160035f6101000a81548173ffffffffffffffffffffffffffffffffffffffff021916908373ffffffffffffffffffffffffffffffffffffffff1602179055508173ffffffffffffffffffffffffffffffffffffffff168173ffffffffffffffffffffffffffffffffffffffff167f8be0079c531659141344cd1fd0a4f28419497f9722a3daafe3b4186f6b6457e060405160405180910390a35050565b5f604051905090565b5f5ffd5b5f5ffd5b5f73ffffffffffffffffffffffffffffffffffffffff82169050919050565b5f6102a982610280565b9050919050565b5f6102ba8261029f565b9050919050565b6102ca816102b0565b81146102d4575f5ffd5b50565b5f815190506102e5816102c1565b92915050565b6102f48161029f565b81146102fe575f5ffd5b50565b5f8151905061030f816102eb565b92915050565b5f5ffd5b5f5ffd5b5f601f19601f8301169050919050565b7f4e487b71000000000000000000000000000000000000000000000000000000005f52604160045260245ffd5b6103638261031d565b810181811067ffffffffffffffff821117156103825761038161032d565b5b80604052505050565b5f61039461026f565b90506103a0828261035a565b919050565b5f67ffffffffffffffff8211156103bf576103be61032d565b5b6103c88261031d565b9050602081019050919050565b8281835e5f83830152505050565b5f6103f56103f0846103a5565b61038b565b90508281526020810184848401111561041157610410610319565b5b61041c8482856103d5565b509392505050565b5f82601f83011261043857610437610315565b5b81516104488482602086016103e3565b91505092915050565b5f5f5f5f6080858703121561046957610468610278565b5b5f610476878288016102d7565b945050602061048787828801610301565b935050604085015167ffffffffffffffff8111156104a8576104a761027c565b5b6104b487828801610424565b92505060606104c587828801610301565b91505092959194509250565b6104da8161029f565b82525050565b5f6020820190506104f35f8301846104d1565b92915050565b5f81519050919050565b7f4e487b71000000000000000000000000000000000000000000000000000000005f52602260045260245ffd5b5f600282049050600182168061054757607f821691505b60208210810361055a57610559610503565b5b50919050565b5f819050815f5260205f209050919050565b5f6020601f8301049050919050565b5f82821b905092915050565b5f600883026105bc7fffffffffffffffffffffffffffffffffffffffffffffffffffffffffffffffff82610581565b6105c68683610581565b95508019841693508086168417925050509392505050565b5f819050919050565b5f819050919050565b5f61060a610605610600846105de565b6105e7565b6105de565b9050919050565b5f819050919050565b610623836105f0565b61063761062f82610611565b84845461058d565b825550505050565b5f5f905090565b61064e61063f565b61065981848461061a565b505050565b5b8181101561067c576106715f82610646565b60018101905061065f565b5050565b601f8211156106c15761069281610560565b61069b84610572565b810160208510156106aa578190505b6106be6106b685610572565b83018261065e565b50505b505050565b5f82821c905092915050565b5f6106e15f19846008026106c6565b1980831691505092915050565b5f6106f983836106d2565b9150826002028217905092915050565b610712826104f9565b67ffffffffffffffff81111561072b5761072a61032d565b5b6107358254610530565b610740828285610680565b5f60209050601f831160018114610771575f841561075f578287015190505b61076985826106ee565b8655506107d0565b601f19841661077f86610560565b5f5b828110156107a657848901518255600182019150602085019450602081019050610781565b868310156107c357848901516107bf601f8916826106d2565b8355505b6001600288020188555050505b505050505050565b60805160a051612bfa6108075f395f818161067f01526108b701525f81816108d901526109bd0152612bfa5ff3fe608060405234801561000f575f5ffd5b5060043610610113575f3560e01c8063715018a6116100a0578063b9186d7d1161006f578063b9186d7d146102db578063e985e9c51461030b578063f242432a1461033b578063f2fde38b14610357578063f7d975771461037357610113565b8063715018a61461027957806389a30271146102835780638da5cb5b146102a1578063a22cb465146102bf57610113565b8063156e29f6116100e7578063156e29f6146101c35780632eb2c2d6146101df5780632f99c6cc146101fb5780634e1273f41461021957806359a87bc11461024957610113565b8062fdd58e1461011757806301ffc9a71461014757806302fe5305146101775780630e89341c14610193575b5f5ffd5b610131600480360381019061012c9190611bcb565b61038f565b60405161013e9190611c18565b60405180910390f35b610161600480360381019061015c9190611c86565b6103e4565b60405161016e9190611ccb565b60405180910390f35b610191600480360381019061018c9190611d45565b6104c5565b005b6101ad60048036038101906101a89190611d90565b61051d565b6040516101ba9190611e2b565b60405180910390f35b6101dd60048036038101906101d89190611e4b565b6105af565b005b6101f960048036038101906101f49190612083565b6105d6565b005b61020361067d565b604051610210919061215d565b60405180910390f35b610233600480360381019061022e9190612236565b6106a1565b6040516102409190612363565b60405180910390f35b610263600480360381019061025e9190612383565b6107ab565b6040516102709190611c18565b60405180910390f35b6102816109a8565b005b61028b6109bb565b604051610298919061242e565b60405180910390f35b6102a96109df565b6040516102b6919061215d565b60405180910390f35b6102d960048036038101906102d49190612471565b610a07565b005b6102f560048036038101906102f09190611d90565b610a1d565b6040516103029190611c18565b60405180910390f35b610325600480360381019061032091906124af565b610a32565b6040516103329190611ccb565b60405180910390f35b610355600480360381019061035091906124ed565b610ac0565b005b610371600480360381019061036c9190612580565b610b67565b005b61038d600480360381019061038891906125ab565b610beb565b005b5f5f5f8381526020019081526020015f205f8473ffffffffffffffffffffffffffffffffffffffff1673ffffffffffffffffffffffffffffffffffffffff1681526020019081526020015f2054905092915050565b5f7fd9b67a26000000000000000000000000000000000000000000000000000000007bffffffffffffffffffffffffffffffffffffffffffffffffffffffff1916827bffffffffffffffffffffffffffffffffffffffffffffffffffffffff191614806104ae57507f0e89341c000000000000000000000000000000000000000000000000000000007bffffffffffffffffffffffffffffffffffffffffffffffffffffffff1916827bffffffffffffffffffffffffffffffffffffffffffffffffffffffff1916145b806104be57506104bd82610c58565b5b9050919050565b6104cd610cc1565b61051982828080601f0160208091040260200160405190810160405280939291908181526020018383808284375f81840152601f19601f82011690508083019250505050505050610d48565b5050565b60606002805461052c90612616565b80601f016020809104026020016040519081016040528092919081815260200182805461055890612616565b80156105a35780601f1061057a576101008083540402835291602001916105a3565b820191905f5260205f20905b81548152906001019060200180831161058657829003601f168201915b50505050509050919050565b6105b7610cc1565b6105d183838360405180602001604052805f815250610d5b565b505050565b5f6105df610df0565b90508073ffffffffffffffffffffffffffffffffffffffff168673ffffffffffffffffffffffffffffffffffffffff161415801561062457506106228682610a32565b155b156106685780866040517fe237d92200000000000000000000000000000000000000000000000000000000815260040161065f929190612646565b60405180910390fd5b6106758686868686610df7565b505050505050565b7f000000000000000000000000000000000000000000000000000000000000000081565b606081518351146106ed57815183516040517f5b0599910000000000000000000000000000000000000000000000000000000081526004016106e492919061266d565b60405180910390fd5b5f835167ffffffffffffffff81111561070957610708611e9b565b5b6040519080825280602002602001820160405280156107375781602001602082028036833780820191505090505b5090505f5f90505b84518110156107a05761077661075e8287610eeb90919063ffffffff16565b6107718387610efe90919063ffffffff16565b61038f565b82828151811061078957610788612694565b5b60200260200101818152505080600101905061073f565b508091505092915050565b5f5f83036107e5576040517f1f2a200500000000000000000000000000000000000000000000000000000000815260040160405180910390fd5b5f73ffffffffffffffffffffffffffffffffffffffff168273ffffffffffffffffffffffffffffffffffffffff160361084a576040517fd27b444300000000000000000000000000000000000000000000000000000000815260040160405180910390fd5b5f60045f8681526020019081526020015f205490505f81036108a357846040517fcb5f921000000000000000000000000000000000000000000000000000000000815260040161089a9190611c18565b60405180910390fd5b83816108af91906126ee565b915061091e337f0000000000000000000000000000000000000000000000000000000000000000847f000000000000000000000000000000000000000000000000000000000000000073ffffffffffffffffffffffffffffffffffffffff16610f11909392919063ffffffff16565b61093883868660405180602001604052805f815250610d5b565b848373ffffffffffffffffffffffffffffffffffffffff163373ffffffffffffffffffffffffffffffffffffffff167fb362243af1e2070d7d5bf8d713f2e0fab64203f1b71462afbe20572909788c5e878660405161099892919061266d565b60405180910390a4509392505050565b6109b0610cc1565b6109b95f610f93565b565b7f000000000000000000000000000000000000000000000000000000000000000081565b5f60035f9054906101000a900473ffffffffffffffffffffffffffffffffffffffff16905090565b610a19610a12610df0565b8383611056565b5050565b6004602052805f5260405f205f915090505481565b5f60015f8473ffffffffffffffffffffffffffffffffffffffff1673ffffffffffffffffffffffffffffffffffffffff1681526020019081526020015f205f8373ffffffffffffffffffffffffffffffffffffffff1673ffffffffffffffffffffffffffffffffffffffff1681526020019081526020015f205f9054906101000a900460ff16905092915050565b5f610ac9610df0565b90508073ffffffffffffffffffffffffffffffffffffffff168673ffffffffffffffffffffffffffffffffffffffff1614158015610b0e5750610b0c8682610a32565b155b15610b525780866040517fe237d922000000000000000000000000000000000000000000000000000000008152600401610b49929190612646565b60405180910390fd5b610b5f86868686866111bf565b505050505050565b610b6f610cc1565b5f73ffffffffffffffffffffffffffffffffffffffff168173ffffffffffffffffffffffffffffffffffffffff1603610bdf575f6040517f1e4fbdf7000000000000000000000000000000000000000000000000000000008152600401610bd6919061215d565b60405180910390fd5b610be881610f93565b50565b610bf3610cc1565b817f15819dd2fd9f6418b142e798d08a18d0bf06ea368f4480b7b0d3f75bd966bc4860045f8581526020019081526020015f205483604051610c3692919061266d565b60405180910390a28060045f8481526020019081526020015f20819055505050565b5f7f01ffc9a7000000000000000000000000000000000000000000000000000000007bffffffffffffffffffffffffffffffffffffffffffffffffffffffff1916827bffffffffffffffffffffffffffffffffffffffffffffffffffffffff1916149050919050565b610cc9610df0565b73ffffffffffffffffffffffffffffffffffffffff16610ce76109df565b73ffffffffffffffffffffffffffffffffffffffff1614610d4657610d0a610df0565b6040517f118cdaa7000000000000000000000000000000000000000000000000000000008152600401610d3d919061215d565b60405180910390fd5b565b8060029081610d5791906128c6565b5050565b5f73ffffffffffffffffffffffffffffffffffffffff168473ffffffffffffffffffffffffffffffffffffffff1603610dcb575f6040517f57f447ce000000000000000000000000000000000000000000000000000000008152600401610dc2919061215d565b60405180910390fd5b5f5f610dd785856112c5565b91509150610de85f878484876112f5565b505050505050565b5f33905090565b5f73ffffffffffffffffffffffffffffffffffffffff168473ffffffffffffffffffffffffffffffffffffffff1603610e67575f6040517f57f447ce000000000000000000000000000000000000000000000000000000008152600401610e5e919061215d565b60405180910390fd5b5f73ffffffffffffffffffffffffffffffffffffffff168573ffffffffffffffffffffffffffffffffffffffff1603610ed7575f6040517f01a83514000000000000000000000000000000000000000000000000000000008152600401610ece919061215d565b60405180910390fd5b610ee485858585856112f5565b5050505050565b5f60208202602084010151905092915050565b5f60208202602084010151905092915050565b610f8d848573ffffffffffffffffffffffffffffffffffffffff166323b872dd868686604051602401610f4693929190612995565b604051602081830303815290604052915060e01b6020820180517bffffffffffffffffffffffffffffffffffffffffffffffffffffffff83818316178352505050506113a1565b50505050565b5f60035f9054906101000a900473ffffffffffffffffffffffffffffffffffffffff1690508160035f6101000a81548173ffffffffffffffffffffffffffffffffffffffff021916908373ffffffffffffffffffffffffffffffffffffffff1602179055508173ffffffffffffffffffffffffffffffffffffffff168173ffffffffffffffffffffffffffffffffffffffff167f8be0079c531659141344cd1fd0a4f28419497f9722a3daafe3b4186f6b6457e060405160405180910390a35050565b5f73ffffffffffffffffffffffffffffffffffffffff168273ffffffffffffffffffffffffffffffffffffffff16036110c6575f6040517fced3e1000000000000000000000000000000000000000000000000000000000081526004016110bd919061215d565b60405180910390fd5b8060015f8573ffffffffffffffffffffffffffffffffffffffff1673ffffffffffffffffffffffffffffffffffffffff1681526020019081526020015f205f8473ffffffffffffffffffffffffffffffffffffffff1673ffffffffffffffffffffffffffffffffffffffff1681526020019081526020015f205f6101000a81548160ff0219169083151502179055508173ffffffffffffffffffffffffffffffffffffffff168373ffffffffffffffffffffffffffffffffffffffff167f17307eab39ab6107e8899845ad3d59bd9653f200f220920489ca2b5937696c31836040516111b29190611ccb565b60405180910390a3505050565b5f73ffffffffffffffffffffffffffffffffffffffff168473ffffffffffffffffffffffffffffffffffffffff160361122f575f6040517f57f447ce000000000000000000000000000000000000000000000000000000008152600401611226919061215d565b60405180910390fd5b5f73ffffffffffffffffffffffffffffffffffffffff168573ffffffffffffffffffffffffffffffffffffffff160361129f575f6040517f01a83514000000000000000000000000000000000000000000000000000000008152600401611296919061215d565b60405180910390fd5b5f5f6112ab85856112c5565b915091506112bc87878484876112f5565b50505050505050565b60608060405191506001825283602083015260408201905060018152826020820152604081016040529250929050565b6113018585858561143c565b5f73ffffffffffffffffffffffffffffffffffffffff168473ffffffffffffffffffffffffffffffffffffffff161461139a575f61133d610df0565b90506001845103611389575f61135c5f86610efe90919063ffffffff16565b90505f6113725f86610efe90919063ffffffff16565b90506113828389898585896117cf565b5050611398565b61139781878787878761197e565b5b505b5050505050565b5f5f60205f8451602086015f885af1806113c0576040513d5f823e3d81fd5b3d92505f519150505f82146113d95760018114156113f4565b5f8473ffffffffffffffffffffffffffffffffffffffff163b145b1561143657836040517f5274afe700000000000000000000000000000000000000000000000000000000815260040161142d919061215d565b60405180910390fd5b50505050565b805182511461148657815181516040517f5b05999100000000000000000000000000000000000000000000000000000000815260040161147d92919061266d565b60405180910390fd5b5f61148f610df0565b90505f5f90505b835181101561168e575f6114b38286610efe90919063ffffffff16565b90505f6114c98386610efe90919063ffffffff16565b90505f73ffffffffffffffffffffffffffffffffffffffff168873ffffffffffffffffffffffffffffffffffffffff16146115ec575f5f5f8481526020019081526020015f205f8a73ffffffffffffffffffffffffffffffffffffffff1673ffffffffffffffffffffffffffffffffffffffff1681526020019081526020015f205490508181101561159857888183856040517f03dee4c500000000000000000000000000000000000000000000000000000000815260040161158f94939291906129ca565b60405180910390fd5b8181035f5f8581526020019081526020015f205f8b73ffffffffffffffffffffffffffffffffffffffff1673ffffffffffffffffffffffffffffffffffffffff1681526020019081526020015f2081905550505b5f73ffffffffffffffffffffffffffffffffffffffff168773ffffffffffffffffffffffffffffffffffffffff161461168157805f5f8481526020019081526020015f205f8973ffffffffffffffffffffffffffffffffffffffff1673ffffffffffffffffffffffffffffffffffffffff1681526020019081526020015f205f8282546116799190612a0d565b925050819055505b5050806001019050611496565b506001835103611749575f6116ac5f85610efe90919063ffffffff16565b90505f6116c25f85610efe90919063ffffffff16565b90508573ffffffffffffffffffffffffffffffffffffffff168773ffffffffffffffffffffffffffffffffffffffff168473ffffffffffffffffffffffffffffffffffffffff167fc3d58168c5ae7397731d063d5bbf3d657854427343f4c083240f7aacaa2d0f62858560405161173a92919061266d565b60405180910390a450506117c8565b8373ffffffffffffffffffffffffffffffffffffffff168573ffffffffffffffffffffffffffffffffffffffff168273ffffffffffffffffffffffffffffffffffffffff167f4a39dc06d4c0dbc64b70af90fd698a233a518aa5d07e595d983b8c0526c8f7fb86866040516117bf929190612a40565b60405180910390a45b5050505050565b5f8473ffffffffffffffffffffffffffffffffffffffff163b1115611976578373ffffffffffffffffffffffffffffffffffffffff1663f23a6e6187878686866040518663ffffffff1660e01b815260040161182f959493929190612ac7565b6020604051808303815f875af192505050801561186a57506040513d601f19601f820116820180604052508101906118679190612b33565b60015b6118eb573d805f8114611898576040519150601f19603f3d011682016040523d82523d5f602084013e61189d565b606091505b505f8151036118e357846040517f57f447ce0000000000000000000000000000000000000000000000000000000081526004016118da919061215d565b60405180910390fd5b805160208201fd5b63f23a6e6160e01b7bffffffffffffffffffffffffffffffffffffffffffffffffffffffff1916817bffffffffffffffffffffffffffffffffffffffffffffffffffffffff19161461197457846040517f57f447ce00000000000000000000000000000000000000000000000000000000815260040161196b919061215d565b60405180910390fd5b505b505050505050565b5f8473ffffffffffffffffffffffffffffffffffffffff163b1115611b25578373ffffffffffffffffffffffffffffffffffffffff1663bc197c8187878686866040518663ffffffff1660e01b81526004016119de959493929190612b5e565b6020604051808303815f875af1925050508015611a1957506040513d601f19601f82011682018060405250810190611a169190612b33565b60015b611a9a573d805f8114611a47576040519150601f19603f3d011682016040523d82523d5f602084013e611a4c565b606091505b505f815103611a9257846040517f57f447ce000000000000000000000000000000000000000000000000000000008152600401611a89919061215d565b60405180910390fd5b805160208201fd5b63bc197c8160e01b7bffffffffffffffffffffffffffffffffffffffffffffffffffffffff1916817bffffffffffffffffffffffffffffffffffffffffffffffffffffffff191614611b2357846040517f57f447ce000000000000000000000000000000000000000000000000000000008152600401611b1a919061215d565b60405180910390fd5b505b505050505050565b5f604051905090565b5f5ffd5b5f5ffd5b5f73ffffffffffffffffffffffffffffffffffffffff82169050919050565b5f611b6782611b3e565b9050919050565b611b7781611b5d565b8114611b81575f5ffd5b50565b5f81359050611b9281611b6e565b92915050565b5f819050919050565b611baa81611b98565b8114611bb4575f5ffd5b50565b5f81359050611bc581611ba1565b92915050565b5f5f60408385031215611be157611be0611b36565b5b5f611bee85828601611b84565b9250506020611bff85828601611bb7565b9150509250929050565b611c1281611b98565b82525050565b5f602082019050611c2b5f830184611c09565b92915050565b5f7fffffffff0000000000000000000000000000000000000000000000000000000082169050919050565b611c6581611c31565b8114611c6f575f5ffd5b50565b5f81359050611c8081611c5c565b92915050565b5f60208284031215611c9b57611c9a611b36565b5b5f611ca884828501611c72565b91505092915050565b5f8115159050919050565b611cc581611cb1565b82525050565b5f602082019050611cde5f830184611cbc565b92915050565b5f5ffd5b5f5ffd5b5f5ffd5b5f5f83601f840112611d0557611d04611ce4565b5b8235905067ffffffffffffffff811115611d2257611d21611ce8565b5b602083019150836001820283011115611d3e57611d3d611cec565b5b9250929050565b5f5f60208385031215611d5b57611d5a611b36565b5b5f83013567ffffffffffffffff811115611d7857611d77611b3a565b5b611d8485828601611cf0565b92509250509250929050565b5f60208284031215611da557611da4611b36565b5b5f611db284828501611bb7565b91505092915050565b5f81519050919050565b5f82825260208201905092915050565b8281835e5f83830152505050565b5f601f19601f8301169050919050565b5f611dfd82611dbb565b611e078185611dc5565b9350611e17818560208601611dd5565b611e2081611de3565b840191505092915050565b5f6020820190508181035f830152611e438184611df3565b905092915050565b5f5f5f60608486031215611e6257611e61611b36565b5b5f611e6f86828701611b84565b9350506020611e8086828701611bb7565b9250506040611e9186828701611bb7565b9150509250925092565b7f4e487b71000000000000000000000000000000000000000000000000000000005f52604160045260245ffd5b611ed182611de3565b810181811067ffffffffffffffff82111715611ef057611eef611e9b565b5b80604052505050565b5f611f02611b2d565b9050611f0e8282611ec8565b919050565b5f67ffffffffffffffff821115611f2d57611f2c611e9b565b5b602082029050602081019050919050565b5f611f50611f4b84611f13565b611ef9565b90508083825260208201905060208402830185811115611f7357611f72611cec565b5b835b81811015611f9c5780611f888882611bb7565b845260208401935050602081019050611f75565b5050509392505050565b5f82601f830112611fba57611fb9611ce4565b5b8135611fca848260208601611f3e565b91505092915050565b5f5ffd5b5f67ffffffffffffffff821115611ff157611ff0611e9b565b5b611ffa82611de3565b9050602081019050919050565b828183375f83830152505050565b5f61202761202284611fd7565b611ef9565b90508281526020810184848401111561204357612042611fd3565b5b61204e848285612007565b509392505050565b5f82601f83011261206a57612069611ce4565b5b813561207a848260208601612015565b91505092915050565b5f5f5f5f5f60a0868803121561209c5761209b611b36565b5b5f6120a988828901611b84565b95505060206120ba88828901611b84565b945050604086013567ffffffffffffffff8111156120db576120da611b3a565b5b6120e788828901611fa6565b935050606086013567ffffffffffffffff81111561210857612107611b3a565b5b61211488828901611fa6565b925050608086013567ffffffffffffffff81111561213557612134611b3a565b5b61214188828901612056565b9150509295509295909350565b61215781611b5d565b82525050565b5f6020820190506121705f83018461214e565b92915050565b5f67ffffffffffffffff8211156121905761218f611e9b565b5b602082029050602081019050919050565b5f6121b36121ae84612176565b611ef9565b905080838252602082019050602084028301858111156121d6576121d5611cec565b5b835b818110156121ff57806121eb8882611b84565b8452602084019350506020810190506121d8565b5050509392505050565b5f82601f83011261221d5761221c611ce4565b5b813561222d8482602086016121a1565b91505092915050565b5f5f6040838503121561224c5761224b611b36565b5b5f83013567ffffffffffffffff81111561226957612268611b3a565b5b61227585828601612209565b925050602083013567ffffffffffffffff81111561229657612295611b3a565b5b6122a285828601611fa6565b9150509250929050565b5f81519050919050565b5f82825260208201905092915050565b5f819050602082019050919050565b6122de81611b98565b82525050565b5f6122ef83836122d5565b60208301905092915050565b5f602082019050919050565b5f612311826122ac565b61231b81856122b6565b9350612326836122c6565b805f5b8381101561235657815161233d88826122e4565b9750612348836122fb565b925050600181019050612329565b5085935050505092915050565b5f6020820190508181035f83015261237b8184612307565b905092915050565b5f5f5f6060848603121561239a57612399611b36565b5b5f6123a786828701611bb7565b93505060206123b886828701611bb7565b92505060406123c986828701611b84565b9150509250925092565b5f819050919050565b5f6123f66123f16123ec84611b3e565b6123d3565b611b3e565b9050919050565b5f612407826123dc565b9050919050565b5f612418826123fd565b9050919050565b6124288161240e565b82525050565b5f6020820190506124415f83018461241f565b92915050565b61245081611cb1565b811461245a575f5ffd5b50565b5f8135905061246b81612447565b92915050565b5f5f6040838503121561248757612486611b36565b5b5f61249485828601611b84565b92505060206124a58582860161245d565b9150509250929050565b5f5f604083850312156124c5576124c4611b36565b5b5f6124d285828601611b84565b92505060206124e385828601611b84565b9150509250929050565b5f5f5f5f5f60a0868803121561250657612505611b36565b5b5f61251388828901611b84565b955050602061252488828901611b84565b945050604061253588828901611bb7565b935050606061254688828901611bb7565b925050608086013567ffffffffffffffff81111561256757612566611b3a565b5b61257388828901612056565b9150509295509295909350565b5f6020828403121561259557612594611b36565b5b5f6125a284828501611b84565b91505092915050565b5f5f604083850312156125c1576125c0611b36565b5b5f6125ce85828601611bb7565b92505060206125df85828601611bb7565b9150509250929050565b7f4e487b71000000000000000000000000000000000000000000000000000000005f52602260045260245ffd5b5f600282049050600182168061262d57607f821691505b6020821081036126405761263f6125e9565b5b50919050565b5f6040820190506126595f83018561214e565b612666602083018461214e565b9392505050565b5f6040820190506126805f830185611c09565b61268d6020830184611c09565b9392505050565b7f4e487b71000000000000000000000000000000000000000000000000000000005f52603260045260245ffd5b7f4e487b71000000000000000000000000000000000000000000000000000000005f52601160045260245ffd5b5f6126f882611b98565b915061270383611b98565b925082820261271181611b98565b91508282048414831517612728576127276126c1565b5b5092915050565b5f819050815f5260205f209050919050565b5f6020601f8301049050919050565b5f82821b905092915050565b5f6008830261278b7fffffffffffffffffffffffffffffffffffffffffffffffffffffffffffffffff82612750565b6127958683612750565b95508019841693508086168417925050509392505050565b5f6127c76127c26127bd84611b98565b6123d3565b611b98565b9050919050565b5f819050919050565b6127e0836127ad565b6127f46127ec826127ce565b84845461275c565b825550505050565b5f5f905090565b61280b6127fc565b6128168184846127d7565b505050565b5b818110156128395761282e5f82612803565b60018101905061281c565b5050565b601f82111561287e5761284f8161272f565b61285884612741565b81016020851015612867578190505b61287b61287385612741565b83018261281b565b50505b505050565b5f82821c905092915050565b5f61289e5f1984600802612883565b1980831691505092915050565b5f6128b6838361288f565b9150826002028217905092915050565b6128cf82611dbb565b67ffffffffffffffff8111156128e8576128e7611e9b565b5b6128f28254612616565b6128fd82828561283d565b5f60209050601f83116001811461292e575f841561291c578287015190505b61292685826128ab565b86555061298d565b601f19841661293c8661272f565b5f5b828110156129635784890151825560018201915060208501945060208101905061293e565b86831015612980578489015161297c601f89168261288f565b8355505b6001600288020188555050505b505050505050565b5f6060820190506129a85f83018661214e565b6129b5602083018561214e565b6129c26040830184611c09565b949350505050565b5f6080820190506129dd5f83018761214e565b6129ea6020830186611c09565b6129f76040830185611c09565b612a046060830184611c09565b95945050505050565b5f612a1782611b98565b9150612a2283611b98565b9250828201905080821115612a3a57612a396126c1565b5b92915050565b5f6040820190508181035f830152612a588185612307565b90508181036020830152612a6c8184612307565b90509392505050565b5f81519050919050565b5f82825260208201905092915050565b5f612a9982612a75565b612aa38185612a7f565b9350612ab3818560208601611dd5565b612abc81611de3565b840191505092915050565b5f60a082019050612ada5f83018861214e565b612ae7602083018761214e565b612af46040830186611c09565b612b016060830185611c09565b8181036080830152612b138184612a8f565b90509695505050505050565b5f81519050612b2d81611c5c565b92915050565b5f60208284031215612b4857612b47611b36565b5b5f612b5584828501612b1f565b91505092915050565b5f60a082019050612b715f83018861214e565b612b7e602083018761214e565b8181036040830152612b908186612307565b90508181036060830152612ba48185612307565b90508181036080830152612bb88184612a8f565b9050969550505050505056fea26469706673582212209a3aa14dee25d4cb1b118484bf6ccc2035999784e31a96c89c2695c7de59d86764736f6c634300081c0033","linkReferences":{}},"methodIdentifiers":{"BENEFICIARY()":"2f99c6cc","USDC()":"89a30271","balanceOf(address,uint256)":"00fdd58e","balanceOfBatch(address[],uint256[])":"4e1273f4","buy(uint256,uint256,address)":"59a87bc1","isApprovedForAll(address,address)":"e985e9c5","mint(address,uint256,uint256)":"156e29f6","owner()":"8da5cb5b","priceOf(uint256)":"b9186d7d","renounceOwnership()":"715018a6","safeBatchTransferFrom(address,address,uint256[],uint256[],bytes)":"2eb2c2d6","safeTransferFrom(address,address,uint256,uint256,bytes)":"f242432a","setApprovalForAll(address,bool)":"a22cb465","setPrice(uint256,uint256)":"f7d97577","setURI(string)":"02fe5305","supportsInterface(bytes4)":"01ffc9a7","transferOwnership(address)":"f2fde38b","uri(uint256)":"0e89341c"},"id":43}