{"abi":[{"type":"constructor","inputs":[{"name":"initialOwner","type":"address","internalType":"address"}],"stateMutability":"nonpayable"},{"type":"function","name":"cancelOwnershipHandover","inputs":[],"outputs":[],"stateMutability":"payable"},{"type":"function","name":"completeOwnershipHandover","inputs":[{"name":"pendingOwner","type":"address","internalType":"address"}],"outputs":[],"stateMutability":"payable"},{"type":"function","name":"eip712Domain","inputs":[],"outputs":[{"name":"fields","type":"bytes1","internalType":"bytes1"},{"name":"name","type":"string","internalType":"string"},{"name":"version","type":"string","internalType":"string"},{"name":"chainId","type":"uint256","internalType":"uint256"},{"name":"verifyingContract","type":"address","internalType":"address"},{"name":"salt","type":"bytes32","internalType":"bytes32"},{"name":"extensions","type":"uint256[]","internalType":"uint256[]"}],"stateMutability":"view"},{"type":"function","name":"isValidSignature","inputs":[{"name":"hash","type":"bytes32","internalType":"bytes32"},{"name":"signature","type":"bytes","internalType":"bytes"}],"outputs":[{"name":"","type":"bytes4","internalType":"bytes4"}],"stateMutability":"view"},{"type":"function","name":"nonceUsed","inputs":[{"name":"nonce","type":"uint256","internalType":"uint256"}],"outputs":[{"name":"used","type":"bool","internalType":"bool"}],"stateMutability":"view"},{"type":"function","name":"owner","inputs":[],"outputs":[{"name":"result","type":"address","internalType":"address"}],"stateMutability":"view"},{"type":"function","name":"ownershipHandoverExpiresAt","inputs":[{"name":"pendingOwner","type":"address","internalType":"address"}],"outputs":[{"name":"result","type":"uint256","internalType":"uint256"}],"stateMutability":"view"},{"type":"function","name":"renounceOwnership","inputs":[],"outputs":[],"stateMutability":"payable"},{"type":"function","name":"requestOwnershipHandover","inputs":[],"outputs":[],"stateMutability":"payable"},{"type":"function","name":"rotateOwnerWithSig","inputs":[{"name":"newOwner","type":"address","internalType":"address"},{"name":"chainId","type":"uint256","internalType":"uint256"},{"name":"nonce","type":"uint256","internalType":"uint256"},{"name":"expiry","type":"uint48","internalType":"uint48"},{"name":"signature","type":"bytes","internalType":"bytes"}],"outputs":[],"stateMutability":"nonpayable"},{"type":"function","name":"rotationDigest","inputs":[{"name":"newOwner","type":"address","internalType":"address"},{"name":"chainId","type":"uint256","internalType":"uint256"},{"name":"nonce","type":"uint256","internalType":"uint256"},{"name":"expiry","type":"uint48","internalType":"uint48"}],"outputs":[{"name":"","type":"bytes32","internalType":"bytes32"}],"stateMutability":"view"},{"type":"function","name":"transferOwnership","inputs":[{"name":"newOwner","type":"address","internalType":"address"}],"outputs":[],"stateMutability":"payable"},{"type":"event","name":"OwnerRotatedWithSig","inputs":[{"name":"previousOwner","type":"address","indexed":true,"internalType":"address"},{"name":"newOwner","type":"address","indexed":true,"internalType":"address"},{"name":"nonce","type":"uint256","indexed":false,"internalType":"uint256"}],"anonymous":false},{"type":"event","name":"OwnershipHandoverCanceled","inputs":[{"name":"pendingOwner","type":"address","indexed":true,"internalType":"address"}],"anonymous":false},{"type":"event","name":"OwnershipHandoverRequested","inputs":[{"name":"pendingOwner","type":"address","indexed":true,"internalType":"address"}],"anonymous":false},{"type":"event","name":"OwnershipTransferred","inputs":[{"name":"oldOwner","type":"address","indexed":true,"internalType":"address"},{"name":"newOwner","type":"address","indexed":true,"internalType":"address"}],"anonymous":false},{"type":"error","name":"AlreadyInitialized","inputs":[]},{"type":"error","name":"InvalidChainId","inputs":[]},{"type":"error","name":"InvalidSignature","inputs":[]},{"type":"error","name":"NewOwnerIsZeroAddress","inputs":[]},{"type":"error","name":"NoHandoverRequest","inputs":[]},{"type":"error","name":"NonceAlreadyUsed","inputs":[]},{"type":"error","name":"RotationExpired","inputs":[]},{"type":"error","name":"Unauthorized","inputs":[]},{"type":"error","name":"ZeroAddress","inputs":[]}],"bytecode":{"object":"0x610120604052348015610010575f5ffd5b5060405161155d38038061155d8339818101604052810190610032919061037a565b3073ffffffffffffffffffffffffffffffffffffffff16608081815250504660a081815250506060806100696101c160201b60201c565b6100845761007b6101c560201b60201c565b80925081935050505b5f6100936101c160201b60201c565b6100a45782805190602001206100a8565b5f5f1b5b90505f6100b96101c160201b60201c565b6100ca5782805190602001206100ce565b5f5f1b5b90508160c081815250508060e081815250505f6100ef6101c160201b60201c565b610139576040517f8b73c3c69bb8fe3d512ecc4cf759cc79239f7b179b0ffacaa9a75d522b39400f815283602082015282604082015246606082015230608082015260a081209150505b80610100818152505050505050505f73ffffffffffffffffffffffffffffffffffffffff168173ffffffffffffffffffffffffffffffffffffffff16036101ac576040517fd92e233d00000000000000000000000000000000000000000000000000000000815260040160405180910390fd5b6101bb8161023c60201b60201c565b506103a5565b5f90565b6060806040518060400160405280600e81526020017f5265636f766572795369676e657200000000000000000000000000000000000081525091506040518060400160405280600581526020017f312e302e3000000000000000000000000000000000000000000000000000000081525090509091565b61024a61031860201b60201c565b156102c2577fffffffffffffffffffffffffffffffffffffffffffffffffffffffff7487392780541561028457630dc149f05f526004601cfd5b8160601b60601c9150811560ff1b82178155815f7f8be0079c531659141344cd1fd0a4f28419497f9722a3daafe3b4186f6b6457e05f5fa350610315565b8060601b60601c9050807fffffffffffffffffffffffffffffffffffffffffffffffffffffffff7487392755805f7f8be0079c531659141344cd1fd0a4f28419497f9722a3daafe3b4186f6b6457e05f5fa35b50565b5f90565b5f5ffd5b5f73ffffffffffffffffffffffffffffffffffffffff82169050919050565b5f61034982610320565b9050919050565b6103598161033f565b8114610363575f5ffd5b50565b5f8151905061037481610350565b92915050565b5f6020828403121561038f5761038e61031c565b5b5f61039c84828501610366565b91505092915050565b60805160a05160c05160e0516101005161117b6103e25f395f61085a01525f610a8c01525f610a6901525f610afb01525f610b1f015261117b5ff3fe6080604052600436106100a6575f3560e01c80638da5cb5b116100635780638da5cb5b1461017057806394d0d3a61461019a578063d7c3b14d146101d6578063f04e283e146101fe578063f2fde38b1461021a578063fee81cf414610236576100a6565b80631626ba7e146100aa57806325692962146100e657806354d1f13d146100f05780635536d7d1146100fa578063715018a61461013657806384b0196e14610140575b5f5ffd5b3480156100b5575f5ffd5b506100d060048036038101906100cb9190610bef565b610272565b6040516100dd9190610c86565b60405180910390f35b6100ee6102ac565b005b6100f86102fd565b005b348015610105575f5ffd5b50610120600480360381019061011b9190610d67565b610336565b60405161012d9190610dda565b60405180910390f35b61013e6103a1565b005b34801561014b575f5ffd5b506101546103b4565b6040516101679796959493929190610f72565b60405180910390f35b34801561017b575f5ffd5b506101846103ff565b6040516101919190610ff4565b60405180910390f35b3480156101a5575f5ffd5b506101c060048036038101906101bb919061100d565b610427565b6040516101cd9190611052565b60405180910390f35b3480156101e1575f5ffd5b506101fc60048036038101906101f7919061106b565b610443565b005b61021860048036038101906102139190611101565b610681565b005b610234600480360381019061022f9190611101565b6106bf565b005b348015610241575f5ffd5b5061025c60048036038101906102579190611101565b6106e8565b604051610269919061112c565b60405180910390f35b5f61028661027e6103ff565b858585610701565b1561029a57631626ba7e60e01b90506102a5565b63ffffffff60e01b90505b9392505050565b5f6102b5610802565b67ffffffffffffffff164201905063389a75e1600c52335f52806020600c2055337fdbf36a107da19e49527a7176a1babf963b4b0ff8cde35ee35d6cd8f1f9ac7e1d5f5fa250565b63389a75e1600c52335f525f6020600c2055337ffa7b8eab7da67f412cc9575ed43464468f9bfbae89d1675917346ca6d8fe3c925f5fa2565b5f5f61038b7f1b52056339bd46492f87362882d3a97b349dce4059a30ea730efb2bb0d6cfdb78773ffffffffffffffffffffffffffffffffffffffff165f1b875f1b875f1b8765ffffffffffff165f1b61080c565b90506103968161083b565b915050949350505050565b6103a96108b7565b6103b25f6108ee565b565b5f6060805f5f5f60607f0f0000000000000000000000000000000000000000000000000000000000000096506103e86109b4565b809650819750505046935030925090919293949596565b5f7fffffffffffffffffffffffffffffffffffffffffffffffffffffffff7487392754905090565b5f602052805f5260405f205f915054906101000a900460ff1681565b5f73ffffffffffffffffffffffffffffffffffffffff168673ffffffffffffffffffffffffffffffffffffffff16036104a8576040517fd92e233d00000000000000000000000000000000000000000000000000000000815260040160405180910390fd5b8265ffffffffffff164211156104ea576040517f3c8f073500000000000000000000000000000000000000000000000000000000815260040160405180910390fd5b5f85141580156104fa5750468514155b15610531576040517f7a47c9a200000000000000000000000000000000000000000000000000000000815260040160405180910390fd5b5f5f8581526020019081526020015f205f9054906101000a900460ff1615610585576040517f1fb09b8000000000000000000000000000000000000000000000000000000000815260040160405180910390fd5b5f61059287878787610336565b90505f61059d6103ff565b90506105ab81838686610701565b6105e1576040517f8baa579f00000000000000000000000000000000000000000000000000000000815260040160405180910390fd5b60015f5f8881526020019081526020015f205f6101000a81548160ff021916908315150217905550610612886108ee565b8773ffffffffffffffffffffffffffffffffffffffff168173ffffffffffffffffffffffffffffffffffffffff167f790a0e8ef38d3256782a9b5e1cff74b632ac68ce3daaa971c89d157e995775618860405161066f919061112c565b60405180910390a35050505050505050565b6106896108b7565b63389a75e1600c52805f526020600c2080544211156106af57636f5e88185f526004601cfd5b5f8155506106bc816108ee565b50565b6106c76108b7565b8060601b6106dc57637448fbae5f526004601cfd5b6106e5816108ee565b50565b5f63389a75e1600c52815f526020600c20549050919050565b5f5f73ffffffffffffffffffffffffffffffffffffffff168573ffffffffffffffffffffffffffffffffffffffff1603156107fa576040516001156107f857853b6107ba57826040811461075d576041811461078157506107f8565b6020850135601b8160ff1c0160205285356040528060011b60011c60605250610792565b60408501355f1a6020526040856040375b50845f526020600160805f60015afa5180871860601b3d1192505f60605281604052506107f8565b631626ba7e60e01b80825285600483015260248201604081528460448401528486606485013760208160648701858b5afa9350838282511416935050505b505b949350505050565b5f6202a300905090565b5f60405186815285602082015284604082015283606082015282608082015260a0812091505095945050505050565b5f610844610a2b565b1561085857610851610a2f565b9050610894565b7f00000000000000000000000000000000000000000000000000000000000000009050610883610af7565b1561089357610890610a2f565b90505b5b6719010000000000005f5280601a5281603a52604260182090505f603a52919050565b7fffffffffffffffffffffffffffffffffffffffffffffffffffffffff748739275433146108ec576382b429005f526004601cfd5b565b6108f6610b4f565b1561095b577fffffffffffffffffffffffffffffffffffffffffffffffffffffffff748739278160601b60601c91508181547f8be0079c531659141344cd1fd0a4f28419497f9722a3daafe3b4186f6b6457e05f5fa3811560ff1b82178155506109b1565b7fffffffffffffffffffffffffffffffffffffffffffffffffffffffff748739278160601b60601c91508181547f8be0079c531659141344cd1fd0a4f28419497f9722a3daafe3b4186f6b6457e05f5fa3818155505b50565b6060806040518060400160405280600e81526020017f5265636f766572795369676e657200000000000000000000000000000000000081525091506040518060400160405280600581526020017f312e302e3000000000000000000000000000000000000000000000000000000081525090509091565b5f90565b5f5f610a39610a2b565b15610a67575f5f610a486109b4565b9150915081805190602001209350808051906020012092505050610aae565b7f000000000000000000000000000000000000000000000000000000000000000091507f000000000000000000000000000000000000000000000000000000000000000090505b6040517f8b73c3c69bb8fe3d512ecc4cf759cc79239f7b179b0ffacaa9a75d522b39400f815282602082015281604082015246606082015230608082015260a081209250505090565b5f5f7f000000000000000000000000000000000000000000000000000000000000000090505f7f0000000000000000000000000000000000000000000000000000000000000000905080301482461416159250505090565b5f90565b5f5ffd5b5f5ffd5b5f819050919050565b610b6d81610b5b565b8114610b77575f5ffd5b50565b5f81359050610b8881610b64565b92915050565b5f5ffd5b5f5ffd5b5f5ffd5b5f5f83601f840112610baf57610bae610b8e565b5b8235905067ffffffffffffffff811115610bcc57610bcb610b92565b5b602083019150836001820283011115610be857610be7610b96565b5b9250929050565b5f5f5f60408486031215610c0657610c05610b53565b5b5f610c1386828701610b7a565b935050602084013567ffffffffffffffff811115610c3457610c33610b57565b5b610c4086828701610b9a565b92509250509250925092565b5f7fffffffff0000000000000000000000000000000000000000000000000000000082169050919050565b610c8081610c4c565b82525050565b5f602082019050610c995f830184610c77565b92915050565b5f73ffffffffffffffffffffffffffffffffffffffff82169050919050565b5f610cc882610c9f565b9050919050565b610cd881610cbe565b8114610ce2575f5ffd5b50565b5f81359050610cf381610ccf565b92915050565b5f819050919050565b610d0b81610cf9565b8114610d15575f5ffd5b50565b5f81359050610d2681610d02565b92915050565b5f65ffffffffffff82169050919050565b610d4681610d2c565b8114610d50575f5ffd5b50565b5f81359050610d6181610d3d565b92915050565b5f5f5f5f60808587031215610d7f57610d7e610b53565b5b5f610d8c87828801610ce5565b9450506020610d9d87828801610d18565b9350506040610dae87828801610d18565b9250506060610dbf87828801610d53565b91505092959194509250565b610dd481610b5b565b82525050565b5f602082019050610ded5f830184610dcb565b92915050565b5f7fff0000000000000000000000000000000000000000000000000000000000000082169050919050565b610e2781610df3565b82525050565b5f81519050919050565b5f82825260208201905092915050565b8281835e5f83830152505050565b5f601f19601f8301169050919050565b5f610e6f82610e2d565b610e798185610e37565b9350610e89818560208601610e47565b610e9281610e55565b840191505092915050565b610ea681610cf9565b82525050565b610eb581610cbe565b82525050565b5f81519050919050565b5f82825260208201905092915050565b5f819050602082019050919050565b610eed81610cf9565b82525050565b5f610efe8383610ee4565b60208301905092915050565b5f602082019050919050565b5f610f2082610ebb565b610f2a8185610ec5565b9350610f3583610ed5565b805f5b83811015610f65578151610f4c8882610ef3565b9750610f5783610f0a565b925050600181019050610f38565b5085935050505092915050565b5f60e082019050610f855f83018a610e1e565b8181036020830152610f978189610e65565b90508181036040830152610fab8188610e65565b9050610fba6060830187610e9d565b610fc76080830186610eac565b610fd460a0830185610dcb565b81810360c0830152610fe68184610f16565b905098975050505050505050565b5f6020820190506110075f830184610eac565b92915050565b5f6020828403121561102257611021610b53565b5b5f61102f84828501610d18565b91505092915050565b5f8115159050919050565b61104c81611038565b82525050565b5f6020820190506110655f830184611043565b92915050565b5f5f5f5f5f5f60a0878903121561108557611084610b53565b5b5f61109289828a01610ce5565b96505060206110a389828a01610d18565b95505060406110b489828a01610d18565b94505060606110c589828a01610d53565b935050608087013567ffffffffffffffff8111156110e6576110e5610b57565b5b6110f289828a01610b9a565b92509250509295509295509295565b5f6020828403121561111657611115610b53565b5b5f61112384828501610ce5565b91505092915050565b5f60208201905061113f5f830184610e9d565b9291505056fea26469706673582212201ad3d3981ac2d95c13d530e1578b20015f0cd4f02a7d93a55e20c7e0919e529b64736f6c634300081c0033","linkReferences":{}},"methodIdentifiers":{"cancelOwnershipHandover()":"54d1f13d","completeOwnershipHandover(address)":"f04e283e","eip712Domain()":"84b0196e","isValidSignature(bytes32,bytes)":"1626ba7e","nonceUsed(uint256)":"94d0d3a6","owner()":"8da5cb5b","ownershipHandoverExpiresAt(address)":"fee81cf4","renounceOwnership()":"715018a6","requestOwnershipHandover()":"25692962","rotateOwnerWithSig(address,uint256,uint256,uint48,bytes)":"d7c3b14d","rotationDigest(address,uint256,uint256,uint48)":"5536d7d1","transferOwnership(address)":"f2fde38b"},"id":23}