{"abi":[{"type":"constructor","inputs":[{"name":"_mainValidator","type":"address","internalType":"address"}],"stateMutability":"nonpayable"},{"type":"function","name":"eip712Domain","inputs":[],"outputs":[{"name":"fields","type":"bytes1","internalType":"bytes1"},{"name":"name","type":"string","internalType":"string"},{"name":"version","type":"string","internalType":"string"},{"name":"chainId","type":"uint256","internalType":"uint256"},{"name":"verifyingContract","type":"address","internalType":"address"},{"name":"salt","type":"bytes32","internalType":"bytes32"},{"name":"extensions","type":"uint256[]","internalType":"uint256[]"}],"stateMutability":"view"},{"type":"function","name":"getMainAccount","inputs":[{"name":"appAccount","type":"address","internalType":"address"}],"outputs":[{"name":"","type":"address","internalType":"address"}],"stateMutability":"view"},{"type":"function","name":"getRecoverDigest","inputs":[{"name":"account","type":"address","internalType":"address"},{"name":"chainId","type":"uint256","internalType":"uint256"},{"name":"newMainAccount","type":"address","internalType":"address"},{"name":"nonce","type":"uint256","internalType":"uint256"},{"name":"expiry","type":"uint48","internalType":"uint48"}],"outputs":[{"name":"","type":"bytes32","internalType":"bytes32"}],"stateMutability":"view"},{"type":"function","name":"guardianConfig","inputs":[{"name":"account","type":"address","internalType":"address"}],"outputs":[{"name":"userGuardian","type":"address","internalType":"address"},{"name":"externalGuardian","type":"address","internalType":"address"},{"name":"threshold","type":"uint8","internalType":"uint8"}],"stateMutability":"view"},{"type":"function","name":"guardianThreshold","inputs":[{"name":"account","type":"address","internalType":"address"}],"outputs":[{"name":"","type":"uint8","internalType":"uint8"}],"stateMutability":"view"},{"type":"function","name":"isInitialized","inputs":[{"name":"smartAccount","type":"address","internalType":"address"}],"outputs":[{"name":"","type":"bool","internalType":"bool"}],"stateMutability":"view"},{"type":"function","name":"isModuleType","inputs":[{"name":"typeID","type":"uint256","internalType":"uint256"}],"outputs":[{"name":"","type":"bool","internalType":"bool"}],"stateMutability":"pure"},{"type":"function","name":"isValidSignatureWithSender","inputs":[{"name":"","type":"address","internalType":"address"},{"name":"hash","type":"bytes32","internalType":"bytes32"},{"name":"data","type":"bytes","internalType":"bytes"}],"outputs":[{"name":"","type":"bytes4","internalType":"bytes4"}],"stateMutability":"view"},{"type":"function","name":"mainValidator","inputs":[],"outputs":[{"name":"","type":"address","internalType":"contract OneAuthValidator"}],"stateMutability":"view"},{"type":"function","name":"name","inputs":[],"outputs":[{"name":"","type":"string","internalType":"string"}],"stateMutability":"pure"},{"type":"function","name":"nonceUsed","inputs":[{"name":"account","type":"address","internalType":"address"},{"name":"nonce","type":"uint256","internalType":"uint256"}],"outputs":[{"name":"","type":"bool","internalType":"bool"}],"stateMutability":"view"},{"type":"function","name":"onInstall","inputs":[{"name":"data","type":"bytes","internalType":"bytes"}],"outputs":[],"stateMutability":"nonpayable"},{"type":"function","name":"onUninstall","inputs":[{"name":"","type":"bytes","internalType":"bytes"}],"outputs":[],"stateMutability":"nonpayable"},{"type":"function","name":"recoverWithGuardian","inputs":[{"name":"account","type":"address","internalType":"address"},{"name":"chainId","type":"uint256","internalType":"uint256"},{"name":"newMainAccount","type":"address","internalType":"address"},{"name":"nonce","type":"uint256","internalType":"uint256"},{"name":"expiry","type":"uint48","internalType":"uint48"},{"name":"guardianSig","type":"bytes","internalType":"bytes"}],"outputs":[],"stateMutability":"nonpayable"},{"type":"function","name":"setGuardianConfig","inputs":[{"name":"_userGuardian","type":"address","internalType":"address"},{"name":"_externalGuardian","type":"address","internalType":"address"},{"name":"_threshold","type":"uint8","internalType":"uint8"}],"outputs":[],"stateMutability":"nonpayable"},{"type":"function","name":"validateUserOp","inputs":[{"name":"userOp","type":"tuple","internalType":"struct PackedUserOperation","components":[{"name":"sender","type":"address","internalType":"address"},{"name":"nonce","type":"uint256","internalType":"uint256"},{"name":"initCode","type":"bytes","internalType":"bytes"},{"name":"callData","type":"bytes","internalType":"bytes"},{"name":"accountGasLimits","type":"bytes32","internalType":"bytes32"},{"name":"preVerificationGas","type":"uint256","internalType":"uint256"},{"name":"gasFees","type":"bytes32","internalType":"bytes32"},{"name":"paymasterAndData","type":"bytes","internalType":"bytes"},{"name":"signature","type":"bytes","internalType":"bytes"}]},{"name":"userOpHash","type":"bytes32","internalType":"bytes32"}],"outputs":[{"name":"","type":"uint256","internalType":"ERC7579ValidatorBase.ValidationData"}],"stateMutability":"view"},{"type":"function","name":"version","inputs":[],"outputs":[{"name":"","type":"string","internalType":"string"}],"stateMutability":"pure"},{"type":"event","name":"AppGuardianConfigSet","inputs":[{"name":"account","type":"address","indexed":true,"internalType":"address"},{"name":"userGuardian","type":"address","indexed":false,"internalType":"address"},{"name":"externalGuardian","type":"address","indexed":false,"internalType":"address"},{"name":"threshold","type":"uint8","indexed":false,"internalType":"uint8"}],"anonymous":false},{"type":"event","name":"AppMainAccountRecovered","inputs":[{"name":"appAccount","type":"address","indexed":true,"internalType":"address"},{"name":"oldMainAccount","type":"address","indexed":true,"internalType":"address"},{"name":"newMainAccount","type":"address","indexed":true,"internalType":"address"}],"anonymous":false},{"type":"event","name":"AppRecoveryExecuted","inputs":[{"name":"account","type":"address","indexed":true,"internalType":"address"},{"name":"guardian","type":"address","indexed":true,"internalType":"address"},{"name":"newMainAccount","type":"address","indexed":true,"internalType":"address"},{"name":"nonce","type":"uint256","indexed":false,"internalType":"uint256"}],"anonymous":false},{"type":"event","name":"AppValidatorInstalled","inputs":[{"name":"appAccount","type":"address","indexed":true,"internalType":"address"},{"name":"mainAccount","type":"address","indexed":true,"internalType":"address"}],"anonymous":false},{"type":"event","name":"AppValidatorUninstalled","inputs":[{"name":"appAccount","type":"address","indexed":true,"internalType":"address"}],"anonymous":false},{"type":"error","name":"EmptyGuardianSignature","inputs":[]},{"type":"error","name":"GuardianNotConfigured","inputs":[]},{"type":"error","name":"InvalidChainId","inputs":[]},{"type":"error","name":"InvalidGuardianSignature","inputs":[]},{"type":"error","name":"InvalidGuardianType","inputs":[]},{"type":"error","name":"InvalidMainAccount","inputs":[]},{"type":"error","name":"InvalidMainValidator","inputs":[]},{"type":"error","name":"InvalidNewMainAccount","inputs":[]},{"type":"error","name":"InvalidThreshold","inputs":[]},{"type":"error","name":"ModuleAlreadyInitialized","inputs":[{"name":"smartAccount","type":"address","internalType":"address"}]},{"type":"error","name":"NonceAlreadyUsed","inputs":[]},{"type":"error","name":"NotInitialized","inputs":[{"name":"smartAccount","type":"address","internalType":"address"}]},{"type":"error","name":"RecoveryExpired","inputs":[]},{"type":"error","name":"ThresholdRequiresBothGuardians","inputs":[]}],"bytecode":{"object":"0x610140604052348015610010575f5ffd5b50604051612d5e380380612d5e833981810160405281019061003291906102c0565b3073ffffffffffffffffffffffffffffffffffffffff16608081815250504660a081815250506060806100696101e760201b60201c565b6100845761007b6101eb60201b60201c565b80925081935050505b5f6100936101e760201b60201c565b6100a45782805190602001206100a8565b5f5f1b5b90505f6100b96101e760201b60201c565b6100ca5782805190602001206100ce565b5f5f1b5b90508160c081815250508060e081815250505f6100ef6101e760201b60201c565b610139576040517f8b73c3c69bb8fe3d512ecc4cf759cc79239f7b179b0ffacaa9a75d522b39400f815283602082015282604082015246606082015230608082015260a081209150505b80610100818152505050505050505f73ffffffffffffffffffffffffffffffffffffffff168173ffffffffffffffffffffffffffffffffffffffff16036101ac576040517fd4dab47700000000000000000000000000000000000000000000000000000000815260040160405180910390fd5b8073ffffffffffffffffffffffffffffffffffffffff166101208173ffffffffffffffffffffffffffffffffffffffff1681525050506102eb565b5f90565b6060806040518060400160405280601381526020017f4f6e654175746841707056616c696461746f720000000000000000000000000081525091506040518060400160405280600581526020017f312e302e3000000000000000000000000000000000000000000000000000000081525090509091565b5f5ffd5b5f73ffffffffffffffffffffffffffffffffffffffff82169050919050565b5f61028f82610266565b9050919050565b61029f81610285565b81146102a9575f5ffd5b50565b5f815190506102ba81610296565b92915050565b5f602082840312156102d5576102d4610262565b5b5f6102e2848285016102ac565b91505092915050565b60805160a05160c05160e0516101005161012051612a2d6103315f395f818161078e01528181610efa015261121e01525f50505f50505f50505f50505f5050612a2d5ff3fe608060405234801561000f575f5ffd5b5060043610610109575f3560e01c806384b0196e116100a0578063a1cdf4ed1161006f578063a1cdf4ed146102bb578063d60b347f146102eb578063ecd059611461031b578063ed3262e11461034b578063f551e2ee1461037d57610109565b806384b0196e1461021b5780638a91b0e31461023f5780638c93caec1461025b578063970032031461028b57610109565b806354fd4d50116100dc57806354fd4d50146101a75780635dbc2f83146101c557806361a8d623146101e35780636d61fe70146101ff57610109565b806306fdde031461010d5780631647795e1461012b57806333be95f71461015b5780634d13a36b1461018b575b5f5ffd5b6101156103ad565b6040516101229190611e1c565b60405180910390f35b61014560048036038101906101409190611ed1565b6103ea565b6040516101529190611f29565b60405180910390f35b61017560048036038101906101709190611f7d565b61044e565b604051610182919061200c565b60405180910390f35b6101a560048036038101906101a09190612086565b61046f565b005b6101af61074f565b6040516101bc9190611e1c565b60405180910390f35b6101cd61078c565b6040516101da919061218b565b60405180910390f35b6101fd60048036038101906101f891906121da565b6107b0565b005b6102196004803603810190610214919061222a565b6109dc565b005b610223610c16565b6040516102369796959493929190612384565b60405180910390f35b6102596004803603810190610254919061222a565b610c61565b005b61027560048036038101906102709190612406565b610de4565b6040516102829190612431565b60405180910390f35b6102a560048036038101906102a09190612497565b610e49565b6040516102b29190612521565b60405180910390f35b6102d560048036038101906102d09190612406565b610fbf565b6040516102e29190612549565b60405180910390f35b61030560048036038101906103009190612406565b61102d565b6040516103129190611f29565b60405180910390f35b61033560048036038101906103309190612562565b6110c1565b6040516103429190611f29565b60405180910390f35b61036560048036038101906103609190612406565b6110cd565b6040516103749392919061258d565b60405180910390f35b610397600480360381019061039291906125c2565b611178565b6040516103a4919061266d565b60405180910390f35b60606040518060400160405280601381526020017f4f6e654175746841707056616c696461746f7200000000000000000000000000815250905090565b5f5f5f8473ffffffffffffffffffffffffffffffffffffffff1673ffffffffffffffffffffffffffffffffffffffff1681526020019081526020015f206002015f8381526020019081526020015f205f9054906101000a900460ff16905092915050565b5f61046461045f87878787876112e3565b61135b565b905095945050505050565b868685858065ffffffffffff164211156104b5576040517fd3c92b0d00000000000000000000000000000000000000000000000000000000815260040160405180910390fd5b5f5f8573ffffffffffffffffffffffffffffffffffffffff1673ffffffffffffffffffffffffffffffffffffffff1681526020019081526020015f206002015f8381526020019081526020015f205f9054906101000a900460ff1615610547576040517f1fb09b8000000000000000000000000000000000000000000000000000000000815260040160405180910390fd5b5f83141580156105575750468314155b1561058e576040517f7a47c9a200000000000000000000000000000000000000000000000000000000815260040160405180910390fd5b60015f5f8673ffffffffffffffffffffffffffffffffffffffff1673ffffffffffffffffffffffffffffffffffffffff1681526020019081526020015f206002015f8481526020019081526020015f205f6101000a81548160ff0219169083151502179055505f73ffffffffffffffffffffffffffffffffffffffff168973ffffffffffffffffffffffffffffffffffffffff1603610659576040517ff720c8d100000000000000000000000000000000000000000000000000000000815260040160405180910390fd5b5f6106678c8c8c8c8c61044e565b90505f5f5f8e73ffffffffffffffffffffffffffffffffffffffff1673ffffffffffffffffffffffffffffffffffffffff1681526020019081526020015f205f0190505f6106b782848b8b6113cf565b90506106c38e8d61141c565b8b73ffffffffffffffffffffffffffffffffffffffff168173ffffffffffffffffffffffffffffffffffffffff168f73ffffffffffffffffffffffffffffffffffffffff167f45e5192c6e345385df54ba59bb7d06ea7a6f39543a89bcf82d3a6ffef711284f8e6040516107379190612686565b60405180910390a45050505050505050505050505050565b60606040518060400160405280600581526020017f312e302e30000000000000000000000000000000000000000000000000000000815250905090565b7f000000000000000000000000000000000000000000000000000000000000000081565b5f8160ff1614806107c4575060028160ff16115b156107fb576040517faabd5a0900000000000000000000000000000000000000000000000000000000815260040160405180910390fd5b60028160ff16036108a3575f73ffffffffffffffffffffffffffffffffffffffff168373ffffffffffffffffffffffffffffffffffffffff16148061086b57505f73ffffffffffffffffffffffffffffffffffffffff168273ffffffffffffffffffffffffffffffffffffffff16145b156108a2576040517fc13a2f9c00000000000000000000000000000000000000000000000000000000815260040160405180910390fd5b5b5f5f5f3373ffffffffffffffffffffffffffffffffffffffff1673ffffffffffffffffffffffffffffffffffffffff1681526020019081526020015f205f01905083815f015f6101000a81548173ffffffffffffffffffffffffffffffffffffffff021916908373ffffffffffffffffffffffffffffffffffffffff16021790555082816001015f6101000a81548173ffffffffffffffffffffffffffffffffffffffff021916908373ffffffffffffffffffffffffffffffffffffffff160217905550818160010160146101000a81548160ff021916908360ff1602179055503373ffffffffffffffffffffffffffffffffffffffff167fa0dfa584ff5a3935000849f58afc2a8239a931c9d0eff309a9097a5bb346a40e8585856040516109ce9392919061258d565b60405180910390a250505050565b5f3390505f73ffffffffffffffffffffffffffffffffffffffff1660015f8373ffffffffffffffffffffffffffffffffffffffff1673ffffffffffffffffffffffffffffffffffffffff1681526020019081526020015f205f9054906101000a900473ffffffffffffffffffffffffffffffffffffffff1673ffffffffffffffffffffffffffffffffffffffff1614610aac57806040517f4d6b9dd3000000000000000000000000000000000000000000000000000000008152600401610aa39190612431565b60405180910390fd5b5f5f5f5f8686810190610abf91906126da565b93509350935093505f73ffffffffffffffffffffffffffffffffffffffff168473ffffffffffffffffffffffffffffffffffffffff1603610b2c576040517fc7ef260d00000000000000000000000000000000000000000000000000000000815260040160405180910390fd5b8360015f8773ffffffffffffffffffffffffffffffffffffffff1673ffffffffffffffffffffffffffffffffffffffff1681526020019081526020015f205f6101000a81548173ffffffffffffffffffffffffffffffffffffffff021916908373ffffffffffffffffffffffffffffffffffffffff160217905550610bb38584848461156d565b8373ffffffffffffffffffffffffffffffffffffffff168573ffffffffffffffffffffffffffffffffffffffff167f3cfdcc715acb14d4bb8c86f1006ecb57c8afd9563f8cd7f210a6d490aceb3f5760405160405180910390a350505050505050565b5f6060805f5f5f60607f0f000000000000000000000000000000000000000000000000000000000000009650610c4a61178d565b809650819750505046935030925090919293949596565b5f3390505f73ffffffffffffffffffffffffffffffffffffffff1660015f8373ffffffffffffffffffffffffffffffffffffffff1673ffffffffffffffffffffffffffffffffffffffff1681526020019081526020015f205f9054906101000a900473ffffffffffffffffffffffffffffffffffffffff1673ffffffffffffffffffffffffffffffffffffffff1603610d3157806040517ff91bd6f1000000000000000000000000000000000000000000000000000000008152600401610d289190612431565b60405180910390fd5b60015f8273ffffffffffffffffffffffffffffffffffffffff1673ffffffffffffffffffffffffffffffffffffffff1681526020019081526020015f205f6101000a81549073ffffffffffffffffffffffffffffffffffffffff0219169055610d9c815f5f5f61156d565b8073ffffffffffffffffffffffffffffffffffffffff167f6ae4a31d76a661feb5c1ae9d399dabe159a49925e0a7a7bdceb0bdbc3271a98a60405160405180910390a2505050565b5f60015f8373ffffffffffffffffffffffffffffffffffffffff1673ffffffffffffffffffffffffffffffffffffffff1681526020019081526020015f205f9054906101000a900473ffffffffffffffffffffffffffffffffffffffff169050919050565b5f5f60015f855f016020810190610e609190612406565b73ffffffffffffffffffffffffffffffffffffffff1673ffffffffffffffffffffffffffffffffffffffff1681526020019081526020015f205f9054906101000a900473ffffffffffffffffffffffffffffffffffffffff1690505f73ffffffffffffffffffffffffffffffffffffffff168173ffffffffffffffffffffffffffffffffffffffff1603610ef8576001915050610fb9565b7f000000000000000000000000000000000000000000000000000000000000000073ffffffffffffffffffffffffffffffffffffffff1663a45efa49828587806101000190610f47919061274a565b6040518563ffffffff1660e01b8152600401610f6694939291906127f6565b602060405180830381865afa158015610f81573d5f5f3e3d5ffd5b505050506040513d601f19601f82011682018060405250810190610fa5919061285e565b15610fb3575f915050610fb9565b60019150505b92915050565b5f5f5f5f8473ffffffffffffffffffffffffffffffffffffffff1673ffffffffffffffffffffffffffffffffffffffff1681526020019081526020015f205f0160010160149054906101000a900460ff1690505f8160ff16146110225780611025565b60015b915050919050565b5f5f73ffffffffffffffffffffffffffffffffffffffff1660015f8473ffffffffffffffffffffffffffffffffffffffff1673ffffffffffffffffffffffffffffffffffffffff1681526020019081526020015f205f9054906101000a900473ffffffffffffffffffffffffffffffffffffffff1673ffffffffffffffffffffffffffffffffffffffff1614159050919050565b5f600182149050919050565b5f5f5f5f5f5f8673ffffffffffffffffffffffffffffffffffffffff1673ffffffffffffffffffffffffffffffffffffffff1681526020019081526020015f205f019050805f015f9054906101000a900473ffffffffffffffffffffffffffffffffffffffff16816001015f9054906101000a900473ffffffffffffffffffffffffffffffffffffffff168260010160149054906101000a900460ff16935093509350509193909250565b5f5f60015f3373ffffffffffffffffffffffffffffffffffffffff1673ffffffffffffffffffffffffffffffffffffffff1681526020019081526020015f205f9054906101000a900473ffffffffffffffffffffffffffffffffffffffff1690505f73ffffffffffffffffffffffffffffffffffffffff168173ffffffffffffffffffffffffffffffffffffffff160361121c5763ffffffff60e01b9150506112db565b7f000000000000000000000000000000000000000000000000000000000000000073ffffffffffffffffffffffffffffffffffffffff1663a45efa49828787876040518563ffffffff1660e01b815260040161127b94939291906127f6565b602060405180830381865afa158015611296573d5f5f3e3d5ffd5b505050506040513d601f19601f820116820180604052508101906112ba919061285e565b156112cf57631626ba7e60e01b9150506112db565b63ffffffff60e01b9150505b949350505050565b5f6113507fcb281d857f878ee92fc4ee89dc12c42ea551dc2ce917a04cdffa1bf6f8518a208773ffffffffffffffffffffffffffffffffffffffff165f1b875f1b8773ffffffffffffffffffffffffffffffffffffffff165f1b875f1b8765ffffffffffff165f1b611804565b905095945050505050565b5f5f5f61136661178d565b915091506040517f91ab3d17e3a50a9d89e63fd30b92be7f5336b03b287bb946787a83a9d62a27665f5282516020840120602052815160208301206040523060605260805f206020526119015f52846040526042601e209350806040525f606052505050919050565b5f5f8560010160149054906101000a900460ff16905060018160ff1611611404576113fc8686868661183a565b915050611414565b61141086868686611a02565b9150505b949350505050565b5f60015f8473ffffffffffffffffffffffffffffffffffffffff1673ffffffffffffffffffffffffffffffffffffffff1681526020019081526020015f205f9054906101000a900473ffffffffffffffffffffffffffffffffffffffff1690508160015f8573ffffffffffffffffffffffffffffffffffffffff1673ffffffffffffffffffffffffffffffffffffffff1681526020019081526020015f205f6101000a81548173ffffffffffffffffffffffffffffffffffffffff021916908373ffffffffffffffffffffffffffffffffffffffff1602179055508173ffffffffffffffffffffffffffffffffffffffff168173ffffffffffffffffffffffffffffffffffffffff168473ffffffffffffffffffffffffffffffffffffffff167fc8296b25eb84b3ad77a80a9ebbd1c231da95349b03154156a6a235832332fdca60405160405180910390a4505050565b60028160ff1611156115ab576040517faabd5a0900000000000000000000000000000000000000000000000000000000815260040160405180910390fd5b60028160ff1603611653575f73ffffffffffffffffffffffffffffffffffffffff168373ffffffffffffffffffffffffffffffffffffffff16148061161b57505f73ffffffffffffffffffffffffffffffffffffffff168273ffffffffffffffffffffffffffffffffffffffff16145b15611652576040517fc13a2f9c00000000000000000000000000000000000000000000000000000000815260040160405180910390fd5b5b5f5f5f8673ffffffffffffffffffffffffffffffffffffffff1673ffffffffffffffffffffffffffffffffffffffff1681526020019081526020015f205f01905083815f015f6101000a81548173ffffffffffffffffffffffffffffffffffffffff021916908373ffffffffffffffffffffffffffffffffffffffff16021790555082816001015f6101000a81548173ffffffffffffffffffffffffffffffffffffffff021916908373ffffffffffffffffffffffffffffffffffffffff160217905550818160010160146101000a81548160ff021916908360ff1602179055508473ffffffffffffffffffffffffffffffffffffffff167fa0dfa584ff5a3935000849f58afc2a8239a931c9d0eff309a9097a5bb346a40e85858560405161177e9392919061258d565b60405180910390a25050505050565b6060806040518060400160405280601381526020017f4f6e654175746841707056616c696461746f720000000000000000000000000081525091506040518060400160405280600581526020017f312e302e3000000000000000000000000000000000000000000000000000000081525090509091565b5f6040518781528660208201528560408201528460608201528360808201528260a082015260c081209150509695505050505050565b5f5f8383905003611877576040517f042a9b6400000000000000000000000000000000000000000000000000000000815260040160405180910390fd5b5f83835f81811061188b5761188a612889565b5b9050013560f81c60f81b60f81c9050365f858560019080926118af939291906128be565b915091505f8360ff16036118e757875f015f9054906101000a900473ffffffffffffffffffffffffffffffffffffffff169350611950565b60018360ff160361191d57876001015f9054906101000a900473ffffffffffffffffffffffffffffffffffffffff16935061194f565b6040517f062e942d00000000000000000000000000000000000000000000000000000000815260040160405180910390fd5b5b5f73ffffffffffffffffffffffffffffffffffffffff168473ffffffffffffffffffffffffffffffffffffffff16036119b5576040517fba53e96500000000000000000000000000000000000000000000000000000000815260040160405180910390fd5b6119c184888484611cab565b6119f7576040517f07a81bc400000000000000000000000000000000000000000000000000000000815260040160405180910390fd5b505050949350505050565b5f6002838390501015611a41576040517f042a9b6400000000000000000000000000000000000000000000000000000000815260040160405180910390fd5b5f83835f90600292611a55939291906128be565b90611a609190612939565b60f01c61ffff166002611a7391906129c4565b905080848490501015611ab2576040517f07a81bc400000000000000000000000000000000000000000000000000000000815260040160405180910390fd5b5f73ffffffffffffffffffffffffffffffffffffffff16865f015f9054906101000a900473ffffffffffffffffffffffffffffffffffffffff1673ffffffffffffffffffffffffffffffffffffffff161480611b5c57505f73ffffffffffffffffffffffffffffffffffffffff16866001015f9054906101000a900473ffffffffffffffffffffffffffffffffffffffff1673ffffffffffffffffffffffffffffffffffffffff16145b15611b93576040517fba53e96500000000000000000000000000000000000000000000000000000000815260040160405180910390fd5b611bd2865f015f9054906101000a900473ffffffffffffffffffffffffffffffffffffffff168686866002908692611bcd939291906128be565b611cab565b611c08576040517f07a81bc400000000000000000000000000000000000000000000000000000000815260040160405180910390fd5b611c47866001015f9054906101000a900473ffffffffffffffffffffffffffffffffffffffff1686868685908092611c42939291906128be565b611cab565b611c7d576040517f07a81bc400000000000000000000000000000000000000000000000000000000815260040160405180910390fd5b855f015f9054906101000a900473ffffffffffffffffffffffffffffffffffffffff16915050949350505050565b5f5f73ffffffffffffffffffffffffffffffffffffffff168573ffffffffffffffffffffffffffffffffffffffff160315611da457604051600115611da257853b611d64578260408114611d075760418114611d2b5750611da2565b6020850135601b8160ff1c0160205285356040528060011b60011c60605250611d3c565b60408501355f1a6020526040856040375b50845f526020600160805f60015afa5180871860601b3d1192505f6060528160405250611da2565b631626ba7e60e01b80825285600483015260248201604081528460448401528486606485013760208160648701858b5afa9350838282511416935050505b505b949350505050565b5f81519050919050565b5f82825260208201905092915050565b8281835e5f83830152505050565b5f601f19601f8301169050919050565b5f611dee82611dac565b611df88185611db6565b9350611e08818560208601611dc6565b611e1181611dd4565b840191505092915050565b5f6020820190508181035f830152611e348184611de4565b905092915050565b5f5ffd5b5f5ffd5b5f73ffffffffffffffffffffffffffffffffffffffff82169050919050565b5f611e6d82611e44565b9050919050565b611e7d81611e63565b8114611e87575f5ffd5b50565b5f81359050611e9881611e74565b92915050565b5f819050919050565b611eb081611e9e565b8114611eba575f5ffd5b50565b5f81359050611ecb81611ea7565b92915050565b5f5f60408385031215611ee757611ee6611e3c565b5b5f611ef485828601611e8a565b9250506020611f0585828601611ebd565b9150509250929050565b5f8115159050919050565b611f2381611f0f565b82525050565b5f602082019050611f3c5f830184611f1a565b92915050565b5f65ffffffffffff82169050919050565b611f5c81611f42565b8114611f66575f5ffd5b50565b5f81359050611f7781611f53565b92915050565b5f5f5f5f5f60a08688031215611f9657611f95611e3c565b5b5f611fa388828901611e8a565b9550506020611fb488828901611ebd565b9450506040611fc588828901611e8a565b9350506060611fd688828901611ebd565b9250506080611fe788828901611f69565b9150509295509295909350565b5f819050919050565b61200681611ff4565b82525050565b5f60208201905061201f5f830184611ffd565b92915050565b5f5ffd5b5f5ffd5b5f5ffd5b5f5f83601f84011261204657612045612025565b5b8235905067ffffffffffffffff81111561206357612062612029565b5b60208301915083600182028301111561207f5761207e61202d565b5b9250929050565b5f5f5f5f5f5f5f60c0888a0312156120a1576120a0611e3c565b5b5f6120ae8a828b01611e8a565b97505060206120bf8a828b01611ebd565b96505060406120d08a828b01611e8a565b95505060606120e18a828b01611ebd565b94505060806120f28a828b01611f69565b93505060a088013567ffffffffffffffff81111561211357612112611e40565b5b61211f8a828b01612031565b925092505092959891949750929550565b5f819050919050565b5f61215361214e61214984611e44565b612130565b611e44565b9050919050565b5f61216482612139565b9050919050565b5f6121758261215a565b9050919050565b6121858161216b565b82525050565b5f60208201905061219e5f83018461217c565b92915050565b5f60ff82169050919050565b6121b9816121a4565b81146121c3575f5ffd5b50565b5f813590506121d4816121b0565b92915050565b5f5f5f606084860312156121f1576121f0611e3c565b5b5f6121fe86828701611e8a565b935050602061220f86828701611e8a565b9250506040612220868287016121c6565b9150509250925092565b5f5f602083850312156122405761223f611e3c565b5b5f83013567ffffffffffffffff81111561225d5761225c611e40565b5b61226985828601612031565b92509250509250929050565b5f7fff0000000000000000000000000000000000000000000000000000000000000082169050919050565b6122a981612275565b82525050565b6122b881611e9e565b82525050565b6122c781611e63565b82525050565b5f81519050919050565b5f82825260208201905092915050565b5f819050602082019050919050565b6122ff81611e9e565b82525050565b5f61231083836122f6565b60208301905092915050565b5f602082019050919050565b5f612332826122cd565b61233c81856122d7565b9350612347836122e7565b805f5b8381101561237757815161235e8882612305565b97506123698361231c565b92505060018101905061234a565b5085935050505092915050565b5f60e0820190506123975f83018a6122a0565b81810360208301526123a98189611de4565b905081810360408301526123bd8188611de4565b90506123cc60608301876122af565b6123d960808301866122be565b6123e660a0830185611ffd565b81810360c08301526123f88184612328565b905098975050505050505050565b5f6020828403121561241b5761241a611e3c565b5b5f61242884828501611e8a565b91505092915050565b5f6020820190506124445f8301846122be565b92915050565b5f5ffd5b5f61012082840312156124645761246361244a565b5b81905092915050565b61247681611ff4565b8114612480575f5ffd5b50565b5f813590506124918161246d565b92915050565b5f5f604083850312156124ad576124ac611e3c565b5b5f83013567ffffffffffffffff8111156124ca576124c9611e40565b5b6124d68582860161244e565b92505060206124e785828601612483565b9150509250929050565b5f61250b61250661250184611e9e565b612130565b611e9e565b9050919050565b61251b816124f1565b82525050565b5f6020820190506125345f830184612512565b92915050565b612543816121a4565b82525050565b5f60208201905061255c5f83018461253a565b92915050565b5f6020828403121561257757612576611e3c565b5b5f61258484828501611ebd565b91505092915050565b5f6060820190506125a05f8301866122be565b6125ad60208301856122be565b6125ba604083018461253a565b949350505050565b5f5f5f5f606085870312156125da576125d9611e3c565b5b5f6125e787828801611e8a565b94505060206125f887828801612483565b935050604085013567ffffffffffffffff81111561261957612618611e40565b5b61262587828801612031565b925092505092959194509250565b5f7fffffffff0000000000000000000000000000000000000000000000000000000082169050919050565b61266781612633565b82525050565b5f6020820190506126805f83018461265e565b92915050565b5f6020820190506126995f8301846122af565b92915050565b5f6126a982611e44565b9050919050565b6126b98161269f565b81146126c3575f5ffd5b50565b5f813590506126d4816126b0565b92915050565b5f5f5f5f608085870312156126f2576126f1611e3c565b5b5f6126ff878288016126c6565b9450506020612710878288016126c6565b9350506040612721878288016126c6565b9250506060612732878288016121c6565b91505092959194509250565b5f5ffd5b5f5ffd5b5f5ffd5b5f5f833560016020038436030381126127665761276561273e565b5b80840192508235915067ffffffffffffffff82111561278857612787612742565b5b6020830192506001820236038313156127a4576127a3612746565b5b509250929050565b5f82825260208201905092915050565b828183375f83830152505050565b5f6127d583856127ac565b93506127e28385846127bc565b6127eb83611dd4565b840190509392505050565b5f6060820190506128095f8301876122be565b6128166020830186611ffd565b81810360408301526128298184866127ca565b905095945050505050565b61283d81611f0f565b8114612847575f5ffd5b50565b5f8151905061285881612834565b92915050565b5f6020828403121561287357612872611e3c565b5b5f6128808482850161284a565b91505092915050565b7f4e487b71000000000000000000000000000000000000000000000000000000005f52603260045260245ffd5b5f5ffd5b5f5ffd5b5f5f858511156128d1576128d06128b6565b5b838611156128e2576128e16128ba565b5b6001850283019150848603905094509492505050565b5f82905092915050565b5f7fffff00000000000000000000000000000000000000000000000000000000000082169050919050565b5f82821b905092915050565b5f61294483836128f8565b8261294f8135612902565b9250600282101561298f5761298a7fffff0000000000000000000000000000000000000000000000000000000000008360020360080261292d565b831692505b505092915050565b7f4e487b71000000000000000000000000000000000000000000000000000000005f52601160045260245ffd5b5f6129ce82611e9e565b91506129d983611e9e565b92508282019050808211156129f1576129f0612997565b5b9291505056fea264697066735822122027a6d14aba643ccf002451c0f1a13e22bd192bedd4ff8acee4286d7481b9b8d964736f6c634300081c0033","linkReferences":{}},"methodIdentifiers":{"eip712Domain()":"84b0196e","getMainAccount(address)":"8c93caec","getRecoverDigest(address,uint256,address,uint256,uint48)":"33be95f7","guardianConfig(address)":"ed3262e1","guardianThreshold(address)":"a1cdf4ed","isInitialized(address)":"d60b347f","isModuleType(uint256)":"ecd05961","isValidSignatureWithSender(address,bytes32,bytes)":"f551e2ee","mainValidator()":"5dbc2f83","name()":"06fdde03","nonceUsed(address,uint256)":"1647795e","onInstall(bytes)":"6d61fe70","onUninstall(bytes)":"8a91b0e3","recoverWithGuardian(address,uint256,address,uint256,uint48,bytes)":"4d13a36b","setGuardianConfig(address,address,uint8)":"61a8d623","validateUserOp((address,uint256,bytes,bytes,bytes32,uint256,bytes32,bytes,bytes),bytes32)":"97003203","version()":"54fd4d50"},"id":88}