{"abi":[{"type":"constructor","inputs":[{"name":"_mainValidator","type":"address","internalType":"address"}],"stateMutability":"nonpayable"},{"type":"function","name":"batchSetApprovalToMainAccount","inputs":[{"name":"appAccount","type":"address","internalType":"address"},{"name":"tokens","type":"tuple[]","internalType":"struct IOneAuthAppValidator.TokenAmount[]","components":[{"name":"token","type":"address","internalType":"address"},{"name":"amount","type":"uint256","internalType":"uint256"}]}],"outputs":[],"stateMutability":"nonpayable"},{"type":"function","name":"batchTransferToMainAccount","inputs":[{"name":"appAccount","type":"address","internalType":"address"},{"name":"tokens","type":"tuple[]","internalType":"struct IOneAuthAppValidator.TokenAmount[]","components":[{"name":"token","type":"address","internalType":"address"},{"name":"amount","type":"uint256","internalType":"uint256"}]}],"outputs":[],"stateMutability":"nonpayable"},{"type":"function","name":"eip712Domain","inputs":[],"outputs":[{"name":"fields","type":"bytes1","internalType":"bytes1"},{"name":"name","type":"string","internalType":"string"},{"name":"version","type":"string","internalType":"string"},{"name":"chainId","type":"uint256","internalType":"uint256"},{"name":"verifyingContract","type":"address","internalType":"address"},{"name":"salt","type":"bytes32","internalType":"bytes32"},{"name":"extensions","type":"uint256[]","internalType":"uint256[]"}],"stateMutability":"view"},{"type":"function","name":"getMainAccount","inputs":[{"name":"appAccount","type":"address","internalType":"address"}],"outputs":[{"name":"","type":"address","internalType":"address"}],"stateMutability":"view"},{"type":"function","name":"getRecoverDigest","inputs":[{"name":"account","type":"address","internalType":"address"},{"name":"chainId","type":"uint256","internalType":"uint256"},{"name":"newMainAccount","type":"address","internalType":"address"},{"name":"nonce","type":"uint256","internalType":"uint256"},{"name":"expiry","type":"uint48","internalType":"uint48"}],"outputs":[{"name":"","type":"bytes32","internalType":"bytes32"}],"stateMutability":"view"},{"type":"function","name":"guardianConfig","inputs":[{"name":"account","type":"address","internalType":"address"}],"outputs":[{"name":"userGuardian","type":"address","internalType":"address"},{"name":"externalGuardian","type":"address","internalType":"address"},{"name":"threshold","type":"uint8","internalType":"uint8"}],"stateMutability":"view"},{"type":"function","name":"guardianThreshold","inputs":[{"name":"account","type":"address","internalType":"address"}],"outputs":[{"name":"","type":"uint8","internalType":"uint8"}],"stateMutability":"view"},{"type":"function","name":"isInitialized","inputs":[{"name":"smartAccount","type":"address","internalType":"address"}],"outputs":[{"name":"","type":"bool","internalType":"bool"}],"stateMutability":"view"},{"type":"function","name":"isModuleType","inputs":[{"name":"typeID","type":"uint256","internalType":"uint256"}],"outputs":[{"name":"","type":"bool","internalType":"bool"}],"stateMutability":"pure"},{"type":"function","name":"isValidSignatureWithSender","inputs":[{"name":"","type":"address","internalType":"address"},{"name":"hash","type":"bytes32","internalType":"bytes32"},{"name":"data","type":"bytes","internalType":"bytes"}],"outputs":[{"name":"","type":"bytes4","internalType":"bytes4"}],"stateMutability":"view"},{"type":"function","name":"mainValidator","inputs":[],"outputs":[{"name":"","type":"address","internalType":"contract OneAuthValidator"}],"stateMutability":"view"},{"type":"function","name":"name","inputs":[],"outputs":[{"name":"","type":"string","internalType":"string"}],"stateMutability":"pure"},{"type":"function","name":"nonceUsed","inputs":[{"name":"account","type":"address","internalType":"address"},{"name":"nonce","type":"uint256","internalType":"uint256"}],"outputs":[{"name":"","type":"bool","internalType":"bool"}],"stateMutability":"view"},{"type":"function","name":"onInstall","inputs":[{"name":"data","type":"bytes","internalType":"bytes"}],"outputs":[],"stateMutability":"nonpayable"},{"type":"function","name":"onUninstall","inputs":[{"name":"","type":"bytes","internalType":"bytes"}],"outputs":[],"stateMutability":"nonpayable"},{"type":"function","name":"recoverWithGuardian","inputs":[{"name":"account","type":"address","internalType":"address"},{"name":"chainId","type":"uint256","internalType":"uint256"},{"name":"newMainAccount","type":"address","internalType":"address"},{"name":"nonce","type":"uint256","internalType":"uint256"},{"name":"expiry","type":"uint48","internalType":"uint48"},{"name":"guardianSig","type":"bytes","internalType":"bytes"}],"outputs":[],"stateMutability":"nonpayable"},{"type":"function","name":"setApprovalToMainAccount","inputs":[{"name":"appAccount","type":"address","internalType":"address"},{"name":"token","type":"address","internalType":"address"},{"name":"amount","type":"uint256","internalType":"uint256"}],"outputs":[],"stateMutability":"nonpayable"},{"type":"function","name":"setGuardianConfig","inputs":[{"name":"_userGuardian","type":"address","internalType":"address"},{"name":"_externalGuardian","type":"address","internalType":"address"},{"name":"_threshold","type":"uint8","internalType":"uint8"}],"outputs":[],"stateMutability":"nonpayable"},{"type":"function","name":"transferToMainAccount","inputs":[{"name":"appAccount","type":"address","internalType":"address"},{"name":"token","type":"address","internalType":"address"},{"name":"amount","type":"uint256","internalType":"uint256"}],"outputs":[],"stateMutability":"nonpayable"},{"type":"function","name":"validateUserOp","inputs":[{"name":"userOp","type":"tuple","internalType":"struct PackedUserOperation","components":[{"name":"sender","type":"address","internalType":"address"},{"name":"nonce","type":"uint256","internalType":"uint256"},{"name":"initCode","type":"bytes","internalType":"bytes"},{"name":"callData","type":"bytes","internalType":"bytes"},{"name":"accountGasLimits","type":"bytes32","internalType":"bytes32"},{"name":"preVerificationGas","type":"uint256","internalType":"uint256"},{"name":"gasFees","type":"bytes32","internalType":"bytes32"},{"name":"paymasterAndData","type":"bytes","internalType":"bytes"},{"name":"signature","type":"bytes","internalType":"bytes"}]},{"name":"userOpHash","type":"bytes32","internalType":"bytes32"}],"outputs":[{"name":"","type":"uint256","internalType":"ERC7579ValidatorBase.ValidationData"}],"stateMutability":"view"},{"type":"function","name":"version","inputs":[],"outputs":[{"name":"","type":"string","internalType":"string"}],"stateMutability":"pure"},{"type":"event","name":"AppGuardianConfigSet","inputs":[{"name":"account","type":"address","indexed":true,"internalType":"address"},{"name":"userGuardian","type":"address","indexed":false,"internalType":"address"},{"name":"externalGuardian","type":"address","indexed":false,"internalType":"address"},{"name":"threshold","type":"uint8","indexed":false,"internalType":"uint8"}],"anonymous":false},{"type":"event","name":"AppMainAccountRecovered","inputs":[{"name":"appAccount","type":"address","indexed":true,"internalType":"address"},{"name":"oldMainAccount","type":"address","indexed":true,"internalType":"address"},{"name":"newMainAccount","type":"address","indexed":true,"internalType":"address"}],"anonymous":false},{"type":"event","name":"AppRecoveryExecuted","inputs":[{"name":"account","type":"address","indexed":true,"internalType":"address"},{"name":"guardian","type":"address","indexed":true,"internalType":"address"},{"name":"newMainAccount","type":"address","indexed":true,"internalType":"address"},{"name":"nonce","type":"uint256","indexed":false,"internalType":"uint256"}],"anonymous":false},{"type":"event","name":"AppValidatorInstalled","inputs":[{"name":"appAccount","type":"address","indexed":true,"internalType":"address"},{"name":"mainAccount","type":"address","indexed":true,"internalType":"address"}],"anonymous":false},{"type":"event","name":"AppValidatorUninstalled","inputs":[{"name":"appAccount","type":"address","indexed":true,"internalType":"address"}],"anonymous":false},{"type":"error","name":"EmptyGuardianSignature","inputs":[]},{"type":"error","name":"GuardianNotConfigured","inputs":[]},{"type":"error","name":"InvalidChainId","inputs":[]},{"type":"error","name":"InvalidGuardianSignature","inputs":[]},{"type":"error","name":"InvalidGuardianType","inputs":[]},{"type":"error","name":"InvalidMainAccount","inputs":[]},{"type":"error","name":"InvalidMainValidator","inputs":[]},{"type":"error","name":"InvalidNewMainAccount","inputs":[]},{"type":"error","name":"InvalidThreshold","inputs":[]},{"type":"error","name":"ModuleAlreadyInitialized","inputs":[{"name":"smartAccount","type":"address","internalType":"address"}]},{"type":"error","name":"NonceAlreadyUsed","inputs":[]},{"type":"error","name":"NotInitialized","inputs":[{"name":"smartAccount","type":"address","internalType":"address"}]},{"type":"error","name":"OnlyMainAccount","inputs":[]},{"type":"error","name":"RecoveryExpired","inputs":[]},{"type":"error","name":"ThresholdRequiresBothGuardians","inputs":[]}],"bytecode":{"object":"0x610140604052348015610010575f5ffd5b5060405161406d38038061406d833981810160405281019061003291906102c0565b3073ffffffffffffffffffffffffffffffffffffffff16608081815250504660a081815250506060806100696101e760201b60201c565b6100845761007b6101eb60201b60201c565b80925081935050505b5f6100936101e760201b60201c565b6100a45782805190602001206100a8565b5f5f1b5b90505f6100b96101e760201b60201c565b6100ca5782805190602001206100ce565b5f5f1b5b90508160c081815250508060e081815250505f6100ef6101e760201b60201c565b610139576040517f8b73c3c69bb8fe3d512ecc4cf759cc79239f7b179b0ffacaa9a75d522b39400f815283602082015282604082015246606082015230608082015260a081209150505b80610100818152505050505050505f73ffffffffffffffffffffffffffffffffffffffff168173ffffffffffffffffffffffffffffffffffffffff16036101ac576040517fd4dab47700000000000000000000000000000000000000000000000000000000815260040160405180910390fd5b8073ffffffffffffffffffffffffffffffffffffffff166101208173ffffffffffffffffffffffffffffffffffffffff1681525050506102eb565b5f90565b6060806040518060400160405280601381526020017f4f6e654175746841707056616c696461746f720000000000000000000000000081525091506040518060400160405280600581526020017f312e302e3000000000000000000000000000000000000000000000000000000081525090509091565b5f5ffd5b5f73ffffffffffffffffffffffffffffffffffffffff82169050919050565b5f61028f82610266565b9050919050565b61029f81610285565b81146102a9575f5ffd5b50565b5f815190506102ba81610296565b92915050565b5f602082840312156102d5576102d4610262565b5b5f6102e2848285016102ac565b91505092915050565b60805160a05160c05160e0516101005161012051613d3c6103315f395f8181610cbf0152818161152b0152611abf01525f50505f50505f50505f50505f5050613d3c5ff3fe608060405234801561000f575f5ffd5b5060043610610135575f3560e01c806384b0196e116100b6578063a1cdf4ed1161007a578063a1cdf4ed1461033b578063c2cf80f31461036b578063d60b347f14610387578063ecd05961146103b7578063ed3262e1146103e7578063f551e2ee1461041957610135565b806384b0196e1461027f5780638a91b0e3146102a35780638c93caec146102bf578063952bc74a146102ef578063970032031461030b57610135565b806354fd4d50116100fd57806354fd4d50146101ef5780635a5ebbdc1461020d5780635dbc2f831461022957806361a8d623146102475780636d61fe701461026357610135565b806306fdde03146101395780631647795e1461015757806328e55a771461018757806333be95f7146101a35780634d13a36b146101d3575b5f5ffd5b610141610449565b60405161014e9190612902565b60405180910390f35b610171600480360381019061016c91906129c0565b610486565b60405161017e9190612a18565b60405180910390f35b6101a1600480360381019061019c9190612a31565b6104ea565b005b6101bd60048036038101906101b89190612abc565b61066d565b6040516101ca9190612b4b565b60405180910390f35b6101ed60048036038101906101e89190612bc5565b61068e565b005b6101f761096e565b6040516102049190612902565b60405180910390f35b61022760048036038101906102229190612cc4565b6109ab565b005b610231610cbd565b60405161023e9190612d7c565b60405180910390f35b610261600480360381019061025c9190612dcb565b610ce1565b005b61027d60048036038101906102789190612e1b565b610f0d565b005b610287611111565b60405161029a9796959493929190612f75565b60405180910390f35b6102bd60048036038101906102b89190612e1b565b61115c565b005b6102d960048036038101906102d49190612ff7565b6112a9565b6040516102e69190613022565b60405180910390f35b61030960048036038101906103049190612a31565b61130e565b005b61032560048036038101906103209190613088565b61143d565b6040516103329190613112565b60405180910390f35b61035560048036038101906103509190612ff7565b6115f2565b604051610362919061313a565b60405180910390f35b61038560048036038101906103809190612cc4565b611660565b005b6103a1600480360381019061039c9190612ff7565b611897565b6040516103ae9190612a18565b60405180910390f35b6103d160048036038101906103cc9190613153565b61192b565b6040516103de9190612a18565b60405180910390f35b61040160048036038101906103fc9190612ff7565b611942565b6040516104109392919061317e565b60405180910390f35b610433600480360381019061042e91906131b3565b6119ed565b604051610440919061325e565b60405180910390f35b60606040518060400160405280601381526020017f4f6e654175746841707056616c696461746f7200000000000000000000000000815250905090565b5f5f5f8473ffffffffffffffffffffffffffffffffffffffff1673ffffffffffffffffffffffffffffffffffffffff1681526020019081526020015f206002015f8381526020019081526020015f205f9054906101000a900460ff16905092915050565b5f60015f8573ffffffffffffffffffffffffffffffffffffffff1673ffffffffffffffffffffffffffffffffffffffff1681526020019081526020015f205f9054906101000a900473ffffffffffffffffffffffffffffffffffffffff1690508073ffffffffffffffffffffffffffffffffffffffff163373ffffffffffffffffffffffffffffffffffffffff16146105af576040517ff7c1d6a400000000000000000000000000000000000000000000000000000000815260040160405180910390fd5b5f73ffffffffffffffffffffffffffffffffffffffff168373ffffffffffffffffffffffffffffffffffffffff1603610602576105fc84828460405180602001604052805f815250611b86565b50610667565b61066584845f848660405160240161061b929190613277565b60405160208183030381529060405263a9059cbb60e01b6020820180517bffffffffffffffffffffffffffffffffffffffffffffffffffffffff8381831617835250505050611b86565b505b50505050565b5f61068361067e8787878787611c50565b611cc8565b905095945050505050565b868685858065ffffffffffff164211156106d4576040517fd3c92b0d00000000000000000000000000000000000000000000000000000000815260040160405180910390fd5b5f5f8573ffffffffffffffffffffffffffffffffffffffff1673ffffffffffffffffffffffffffffffffffffffff1681526020019081526020015f206002015f8381526020019081526020015f205f9054906101000a900460ff1615610766576040517f1fb09b8000000000000000000000000000000000000000000000000000000000815260040160405180910390fd5b5f83141580156107765750468314155b156107ad576040517f7a47c9a200000000000000000000000000000000000000000000000000000000815260040160405180910390fd5b60015f5f8673ffffffffffffffffffffffffffffffffffffffff1673ffffffffffffffffffffffffffffffffffffffff1681526020019081526020015f206002015f8481526020019081526020015f205f6101000a81548160ff0219169083151502179055505f73ffffffffffffffffffffffffffffffffffffffff168973ffffffffffffffffffffffffffffffffffffffff1603610878576040517ff720c8d100000000000000000000000000000000000000000000000000000000815260040160405180910390fd5b5f6108868c8c8c8c8c61066d565b90505f5f5f8e73ffffffffffffffffffffffffffffffffffffffff1673ffffffffffffffffffffffffffffffffffffffff1681526020019081526020015f205f0190505f6108d682848b8b611d3c565b90506108e28e8d611d89565b8b73ffffffffffffffffffffffffffffffffffffffff168173ffffffffffffffffffffffffffffffffffffffff168f73ffffffffffffffffffffffffffffffffffffffff167f45e5192c6e345385df54ba59bb7d06ea7a6f39543a89bcf82d3a6ffef711284f8e604051610956919061329e565b60405180910390a45050505050505050505050505050565b60606040518060400160405280600581526020017f312e302e30000000000000000000000000000000000000000000000000000000815250905090565b5f60015f8573ffffffffffffffffffffffffffffffffffffffff1673ffffffffffffffffffffffffffffffffffffffff1681526020019081526020015f205f9054906101000a900473ffffffffffffffffffffffffffffffffffffffff1690508073ffffffffffffffffffffffffffffffffffffffff163373ffffffffffffffffffffffffffffffffffffffff1614610a70576040517ff7c1d6a400000000000000000000000000000000000000000000000000000000815260040160405180910390fd5b5f8383905067ffffffffffffffff811115610a8e57610a8d6132b7565b5b604051908082528060200260200182016040528015610ac757816020015b610ab461285d565b815260200190600190039081610aac5790505b5090505f5b84849050811015610caa575f73ffffffffffffffffffffffffffffffffffffffff16858583818110610b0157610b006132e4565b5b9050604002015f016020810190610b189190612ff7565b73ffffffffffffffffffffffffffffffffffffffff1603610bb15760405180606001604052808473ffffffffffffffffffffffffffffffffffffffff168152602001868684818110610b6d57610b6c6132e4565b5b90506040020160200135815260200160405180602001604052805f815250815250828281518110610ba157610ba06132e4565b5b6020026020010181905250610c9d565b6040518060600160405280868684818110610bcf57610bce6132e4565b5b9050604002015f016020810190610be69190612ff7565b73ffffffffffffffffffffffffffffffffffffffff1681526020015f815260200184878785818110610c1b57610c1a6132e4565b5b90506040020160200135604051602401610c36929190613277565b60405160208183030381529060405263a9059cbb60e01b6020820180517bffffffffffffffffffffffffffffffffffffffffffffffffffffffff8381831617835250505050815250828281518110610c9157610c906132e4565b5b60200260200101819052505b8080600101915050610acc565b50610cb58582611eda565b505050505050565b7f000000000000000000000000000000000000000000000000000000000000000081565b5f8160ff161480610cf5575060028160ff16115b15610d2c576040517faabd5a0900000000000000000000000000000000000000000000000000000000815260040160405180910390fd5b60028160ff1603610dd4575f73ffffffffffffffffffffffffffffffffffffffff168373ffffffffffffffffffffffffffffffffffffffff161480610d9c57505f73ffffffffffffffffffffffffffffffffffffffff168273ffffffffffffffffffffffffffffffffffffffff16145b15610dd3576040517fc13a2f9c00000000000000000000000000000000000000000000000000000000815260040160405180910390fd5b5b5f5f5f3373ffffffffffffffffffffffffffffffffffffffff1673ffffffffffffffffffffffffffffffffffffffff1681526020019081526020015f205f01905083815f015f6101000a81548173ffffffffffffffffffffffffffffffffffffffff021916908373ffffffffffffffffffffffffffffffffffffffff16021790555082816001015f6101000a81548173ffffffffffffffffffffffffffffffffffffffff021916908373ffffffffffffffffffffffffffffffffffffffff160217905550818160010160146101000a81548160ff021916908360ff1602179055503373ffffffffffffffffffffffffffffffffffffffff167fa0dfa584ff5a3935000849f58afc2a8239a931c9d0eff309a9097a5bb346a40e858585604051610eff9392919061317e565b60405180910390a250505050565b5f3390505f73ffffffffffffffffffffffffffffffffffffffff1660015f8373ffffffffffffffffffffffffffffffffffffffff1673ffffffffffffffffffffffffffffffffffffffff1681526020019081526020015f205f9054906101000a900473ffffffffffffffffffffffffffffffffffffffff1673ffffffffffffffffffffffffffffffffffffffff1614610fa6575061110d565b5f5f5f5f8686810190610fb9919061334c565b93509350935093505f73ffffffffffffffffffffffffffffffffffffffff168473ffffffffffffffffffffffffffffffffffffffff1603611026576040517fc7ef260d00000000000000000000000000000000000000000000000000000000815260040160405180910390fd5b8360015f8773ffffffffffffffffffffffffffffffffffffffff1673ffffffffffffffffffffffffffffffffffffffff1681526020019081526020015f205f6101000a81548173ffffffffffffffffffffffffffffffffffffffff021916908373ffffffffffffffffffffffffffffffffffffffff1602179055506110ad85848484611f87565b8373ffffffffffffffffffffffffffffffffffffffff168573ffffffffffffffffffffffffffffffffffffffff167f3cfdcc715acb14d4bb8c86f1006ecb57c8afd9563f8cd7f210a6d490aceb3f5760405160405180910390a350505050505b5050565b5f6060805f5f5f60607f0f0000000000000000000000000000000000000000000000000000000000000096506111456121a7565b809650819750505046935030925090919293949596565b5f3390505f73ffffffffffffffffffffffffffffffffffffffff1660015f8373ffffffffffffffffffffffffffffffffffffffff1673ffffffffffffffffffffffffffffffffffffffff1681526020019081526020015f205f9054906101000a900473ffffffffffffffffffffffffffffffffffffffff1673ffffffffffffffffffffffffffffffffffffffff16036111f557506112a5565b60015f8273ffffffffffffffffffffffffffffffffffffffff1673ffffffffffffffffffffffffffffffffffffffff1681526020019081526020015f205f6101000a81549073ffffffffffffffffffffffffffffffffffffffff0219169055611260815f5f5f611f87565b8073ffffffffffffffffffffffffffffffffffffffff167f6ae4a31d76a661feb5c1ae9d399dabe159a49925e0a7a7bdceb0bdbc3271a98a60405160405180910390a2505b5050565b5f60015f8373ffffffffffffffffffffffffffffffffffffffff1673ffffffffffffffffffffffffffffffffffffffff1681526020019081526020015f205f9054906101000a900473ffffffffffffffffffffffffffffffffffffffff169050919050565b5f60015f8573ffffffffffffffffffffffffffffffffffffffff1673ffffffffffffffffffffffffffffffffffffffff1681526020019081526020015f205f9054906101000a900473ffffffffffffffffffffffffffffffffffffffff1690508073ffffffffffffffffffffffffffffffffffffffff163373ffffffffffffffffffffffffffffffffffffffff16146113d3576040517ff7c1d6a400000000000000000000000000000000000000000000000000000000815260040160405180910390fd5b61143684845f84866040516024016113ec929190613277565b60405160208183030381529060405263095ea7b360e01b6020820180517bffffffffffffffffffffffffffffffffffffffffffffffffffffffff8381831617835250505050611b86565b5050505050565b5f5f60015f855f0160208101906114549190612ff7565b73ffffffffffffffffffffffffffffffffffffffff1673ffffffffffffffffffffffffffffffffffffffff1681526020019081526020015f205f9054906101000a900473ffffffffffffffffffffffffffffffffffffffff1690505f73ffffffffffffffffffffffffffffffffffffffff168173ffffffffffffffffffffffffffffffffffffffff16036114ec5760019150506115ec565b5f845f0160208101906114ff9190612ff7565b846040516020016115119291906133b0565b6040516020818303038152906040528051906020012090507f000000000000000000000000000000000000000000000000000000000000000073ffffffffffffffffffffffffffffffffffffffff1663a45efa4983838880610100019061157891906133e3565b6040518563ffffffff1660e01b8152600401611597949392919061348f565b602060405180830381865afa1580156115b2573d5f5f3e3d5ffd5b505050506040513d601f19601f820116820180604052508101906115d691906134f7565b156115e5575f925050506115ec565b6001925050505b92915050565b5f5f5f5f8473ffffffffffffffffffffffffffffffffffffffff1673ffffffffffffffffffffffffffffffffffffffff1681526020019081526020015f205f0160010160149054906101000a900460ff1690505f8160ff16146116555780611658565b60015b915050919050565b5f60015f8573ffffffffffffffffffffffffffffffffffffffff1673ffffffffffffffffffffffffffffffffffffffff1681526020019081526020015f205f9054906101000a900473ffffffffffffffffffffffffffffffffffffffff1690508073ffffffffffffffffffffffffffffffffffffffff163373ffffffffffffffffffffffffffffffffffffffff1614611725576040517ff7c1d6a400000000000000000000000000000000000000000000000000000000815260040160405180910390fd5b5f8383905067ffffffffffffffff811115611743576117426132b7565b5b60405190808252806020026020018201604052801561177c57816020015b61176961285d565b8152602001906001900390816117615790505b5090505f5b848490508110156118845760405180606001604052808686848181106117aa576117a96132e4565b5b9050604002015f0160208101906117c19190612ff7565b73ffffffffffffffffffffffffffffffffffffffff1681526020015f8152602001848787858181106117f6576117f56132e4565b5b90506040020160200135604051602401611811929190613277565b60405160208183030381529060405263095ea7b360e01b6020820180517bffffffffffffffffffffffffffffffffffffffffffffffffffffffff838183161783525050505081525082828151811061186c5761186b6132e4565b5b60200260200101819052508080600101915050611781565b5061188f8582611eda565b505050505050565b5f5f73ffffffffffffffffffffffffffffffffffffffff1660015f8473ffffffffffffffffffffffffffffffffffffffff1673ffffffffffffffffffffffffffffffffffffffff1681526020019081526020015f205f9054906101000a900473ffffffffffffffffffffffffffffffffffffffff1673ffffffffffffffffffffffffffffffffffffffff1614159050919050565b5f600182148061193b5750600282145b9050919050565b5f5f5f5f5f5f8673ffffffffffffffffffffffffffffffffffffffff1673ffffffffffffffffffffffffffffffffffffffff1681526020019081526020015f205f019050805f015f9054906101000a900473ffffffffffffffffffffffffffffffffffffffff16816001015f9054906101000a900473ffffffffffffffffffffffffffffffffffffffff168260010160149054906101000a900460ff16935093509350509193909250565b5f5f60015f3373ffffffffffffffffffffffffffffffffffffffff1673ffffffffffffffffffffffffffffffffffffffff1681526020019081526020015f205f9054906101000a900473ffffffffffffffffffffffffffffffffffffffff1690505f73ffffffffffffffffffffffffffffffffffffffff168173ffffffffffffffffffffffffffffffffffffffff1603611a915763ffffffff60e01b915050611b7e565b5f3386604051602001611aa59291906133b0565b6040516020818303038152906040528051906020012090507f000000000000000000000000000000000000000000000000000000000000000073ffffffffffffffffffffffffffffffffffffffff1663a45efa49838388886040518563ffffffff1660e01b8152600401611b1c949392919061348f565b602060405180830381865afa158015611b37573d5f5f3e3d5ffd5b505050506040513d601f19601f82011682018060405250810190611b5b91906134f7565b15611b7157631626ba7e60e01b92505050611b7e565b63ffffffff60e01b925050505b949350505050565b60605f611ba15f60f81b5f60f81b5f60e01b5f60501b61221e565b90508573ffffffffffffffffffffffffffffffffffffffff1663d691c96482611bcb88888861225d565b6040518363ffffffff1660e01b8152600401611be8929190613584565b5f604051808303815f875af1158015611c03573d5f5f3e3d5ffd5b505050506040513d5f823e3d601f19601f82011682018060405250810190611c2b919061377d565b5f81518110611c3d57611c3c6132e4565b5b6020026020010151915050949350505050565b5f611cbd7fcb281d857f878ee92fc4ee89dc12c42ea551dc2ce917a04cdffa1bf6f8518a208773ffffffffffffffffffffffffffffffffffffffff165f1b875f1b8773ffffffffffffffffffffffffffffffffffffffff165f1b875f1b8765ffffffffffff165f1b61228c565b905095945050505050565b5f5f5f611cd36121a7565b915091506040517f91ab3d17e3a50a9d89e63fd30b92be7f5336b03b287bb946787a83a9d62a27665f5282516020840120602052815160208301206040523060605260805f206020526119015f52846040526042601e209350806040525f606052505050919050565b5f5f8560010160149054906101000a900460ff16905060018160ff1611611d7157611d69868686866122c2565b915050611d81565b611d7d8686868661248a565b9150505b949350505050565b5f60015f8473ffffffffffffffffffffffffffffffffffffffff1673ffffffffffffffffffffffffffffffffffffffff1681526020019081526020015f205f9054906101000a900473ffffffffffffffffffffffffffffffffffffffff1690508160015f8573ffffffffffffffffffffffffffffffffffffffff1673ffffffffffffffffffffffffffffffffffffffff1681526020019081526020015f205f6101000a81548173ffffffffffffffffffffffffffffffffffffffff021916908373ffffffffffffffffffffffffffffffffffffffff1602179055508173ffffffffffffffffffffffffffffffffffffffff168173ffffffffffffffffffffffffffffffffffffffff168473ffffffffffffffffffffffffffffffffffffffff167fc8296b25eb84b3ad77a80a9ebbd1c231da95349b03154156a6a235832332fdca60405160405180910390a4505050565b60605f611ef6600160f81b5f60f81b5f60e01b5f60501b61221e565b90508373ffffffffffffffffffffffffffffffffffffffff1663d691c96482611f1e86612733565b6040518363ffffffff1660e01b8152600401611f3b929190613584565b5f604051808303815f875af1158015611f56573d5f5f3e3d5ffd5b505050506040513d5f823e3d601f19601f82011682018060405250810190611f7e919061377d565b91505092915050565b60028160ff161115611fc5576040517faabd5a0900000000000000000000000000000000000000000000000000000000815260040160405180910390fd5b60028160ff160361206d575f73ffffffffffffffffffffffffffffffffffffffff168373ffffffffffffffffffffffffffffffffffffffff16148061203557505f73ffffffffffffffffffffffffffffffffffffffff168273ffffffffffffffffffffffffffffffffffffffff16145b1561206c576040517fc13a2f9c00000000000000000000000000000000000000000000000000000000815260040160405180910390fd5b5b5f5f5f8673ffffffffffffffffffffffffffffffffffffffff1673ffffffffffffffffffffffffffffffffffffffff1681526020019081526020015f205f01905083815f015f6101000a81548173ffffffffffffffffffffffffffffffffffffffff021916908373ffffffffffffffffffffffffffffffffffffffff16021790555082816001015f6101000a81548173ffffffffffffffffffffffffffffffffffffffff021916908373ffffffffffffffffffffffffffffffffffffffff160217905550818160010160146101000a81548160ff021916908360ff1602179055508473ffffffffffffffffffffffffffffffffffffffff167fa0dfa584ff5a3935000849f58afc2a8239a931c9d0eff309a9097a5bb346a40e8585856040516121989392919061317e565b60405180910390a25050505050565b6060806040518060400160405280601381526020017f4f6e654175746841707056616c696461746f720000000000000000000000000081525091506040518060400160405280600581526020017f312e302e3000000000000000000000000000000000000000000000000000000081525090509091565b5f84845f60e01b858560405160200161223b959493929190613888565b60405160208183030381529060405261225390613915565b9050949350505050565b606083838360405160200161227493929190613a1a565b60405160208183030381529060405290509392505050565b5f6040518781528660208201528560408201528460608201528360808201528260a082015260c081209150509695505050505050565b5f5f83839050036122ff576040517f042a9b6400000000000000000000000000000000000000000000000000000000815260040160405180910390fd5b5f83835f818110612313576123126132e4565b5b9050013560f81c60f81b60f81c9050365f8585600190809261233793929190613a5a565b915091505f8360ff160361236f57875f015f9054906101000a900473ffffffffffffffffffffffffffffffffffffffff1693506123d8565b60018360ff16036123a557876001015f9054906101000a900473ffffffffffffffffffffffffffffffffffffffff1693506123d7565b6040517f062e942d00000000000000000000000000000000000000000000000000000000815260040160405180910390fd5b5b5f73ffffffffffffffffffffffffffffffffffffffff168473ffffffffffffffffffffffffffffffffffffffff160361243d576040517fba53e96500000000000000000000000000000000000000000000000000000000815260040160405180910390fd5b6124498488848461275c565b61247f576040517f07a81bc400000000000000000000000000000000000000000000000000000000815260040160405180910390fd5b505050949350505050565b5f60028383905010156124c9576040517f042a9b6400000000000000000000000000000000000000000000000000000000815260040160405180910390fd5b5f83835f906002926124dd93929190613a5a565b906124e89190613ac9565b60f01c61ffff1660026124fb9190613b54565b90508084849050101561253a576040517f07a81bc400000000000000000000000000000000000000000000000000000000815260040160405180910390fd5b5f73ffffffffffffffffffffffffffffffffffffffff16865f015f9054906101000a900473ffffffffffffffffffffffffffffffffffffffff1673ffffffffffffffffffffffffffffffffffffffff1614806125e457505f73ffffffffffffffffffffffffffffffffffffffff16866001015f9054906101000a900473ffffffffffffffffffffffffffffffffffffffff1673ffffffffffffffffffffffffffffffffffffffff16145b1561261b576040517fba53e96500000000000000000000000000000000000000000000000000000000815260040160405180910390fd5b61265a865f015f9054906101000a900473ffffffffffffffffffffffffffffffffffffffff16868686600290869261265593929190613a5a565b61275c565b612690576040517f07a81bc400000000000000000000000000000000000000000000000000000000815260040160405180910390fd5b6126cf866001015f9054906101000a900473ffffffffffffffffffffffffffffffffffffffff16868686859080926126ca93929190613a5a565b61275c565b612705576040517f07a81bc400000000000000000000000000000000000000000000000000000000815260040160405180910390fd5b855f015f9054906101000a900473ffffffffffffffffffffffffffffffffffffffff16915050949350505050565b6060816040516020016127469190613ce6565b6040516020818303038152906040529050919050565b5f5f73ffffffffffffffffffffffffffffffffffffffff168573ffffffffffffffffffffffffffffffffffffffff1603156128555760405160011561285357853b6128155782604081146127b857604181146127dc5750612853565b6020850135601b8160ff1c0160205285356040528060011b60011c606052506127ed565b60408501355f1a6020526040856040375b50845f526020600160805f60015afa5180871860601b3d1192505f6060528160405250612853565b631626ba7e60e01b80825285600483015260248201604081528460448401528486606485013760208160648701858b5afa9350838282511416935050505b505b949350505050565b60405180606001604052805f73ffffffffffffffffffffffffffffffffffffffff1681526020015f8152602001606081525090565b5f81519050919050565b5f82825260208201905092915050565b8281835e5f83830152505050565b5f601f19601f8301169050919050565b5f6128d482612892565b6128de818561289c565b93506128ee8185602086016128ac565b6128f7816128ba565b840191505092915050565b5f6020820190508181035f83015261291a81846128ca565b905092915050565b5f604051905090565b5f5ffd5b5f5ffd5b5f73ffffffffffffffffffffffffffffffffffffffff82169050919050565b5f61295c82612933565b9050919050565b61296c81612952565b8114612976575f5ffd5b50565b5f8135905061298781612963565b92915050565b5f819050919050565b61299f8161298d565b81146129a9575f5ffd5b50565b5f813590506129ba81612996565b92915050565b5f5f604083850312156129d6576129d561292b565b5b5f6129e385828601612979565b92505060206129f4858286016129ac565b9150509250929050565b5f8115159050919050565b612a12816129fe565b82525050565b5f602082019050612a2b5f830184612a09565b92915050565b5f5f5f60608486031215612a4857612a4761292b565b5b5f612a5586828701612979565b9350506020612a6686828701612979565b9250506040612a77868287016129ac565b9150509250925092565b5f65ffffffffffff82169050919050565b612a9b81612a81565b8114612aa5575f5ffd5b50565b5f81359050612ab681612a92565b92915050565b5f5f5f5f5f60a08688031215612ad557612ad461292b565b5b5f612ae288828901612979565b9550506020612af3888289016129ac565b9450506040612b0488828901612979565b9350506060612b15888289016129ac565b9250506080612b2688828901612aa8565b9150509295509295909350565b5f819050919050565b612b4581612b33565b82525050565b5f602082019050612b5e5f830184612b3c565b92915050565b5f5ffd5b5f5ffd5b5f5ffd5b5f5f83601f840112612b8557612b84612b64565b5b8235905067ffffffffffffffff811115612ba257612ba1612b68565b5b602083019150836001820283011115612bbe57612bbd612b6c565b5b9250929050565b5f5f5f5f5f5f5f60c0888a031215612be057612bdf61292b565b5b5f612bed8a828b01612979565b9750506020612bfe8a828b016129ac565b9650506040612c0f8a828b01612979565b9550506060612c208a828b016129ac565b9450506080612c318a828b01612aa8565b93505060a088013567ffffffffffffffff811115612c5257612c5161292f565b5b612c5e8a828b01612b70565b925092505092959891949750929550565b5f5f83601f840112612c8457612c83612b64565b5b8235905067ffffffffffffffff811115612ca157612ca0612b68565b5b602083019150836040820283011115612cbd57612cbc612b6c565b5b9250929050565b5f5f5f60408486031215612cdb57612cda61292b565b5b5f612ce886828701612979565b935050602084013567ffffffffffffffff811115612d0957612d0861292f565b5b612d1586828701612c6f565b92509250509250925092565b5f819050919050565b5f612d44612d3f612d3a84612933565b612d21565b612933565b9050919050565b5f612d5582612d2a565b9050919050565b5f612d6682612d4b565b9050919050565b612d7681612d5c565b82525050565b5f602082019050612d8f5f830184612d6d565b92915050565b5f60ff82169050919050565b612daa81612d95565b8114612db4575f5ffd5b50565b5f81359050612dc581612da1565b92915050565b5f5f5f60608486031215612de257612de161292b565b5b5f612def86828701612979565b9350506020612e0086828701612979565b9250506040612e1186828701612db7565b9150509250925092565b5f5f60208385031215612e3157612e3061292b565b5b5f83013567ffffffffffffffff811115612e4e57612e4d61292f565b5b612e5a85828601612b70565b92509250509250929050565b5f7fff0000000000000000000000000000000000000000000000000000000000000082169050919050565b612e9a81612e66565b82525050565b612ea98161298d565b82525050565b612eb881612952565b82525050565b5f81519050919050565b5f82825260208201905092915050565b5f819050602082019050919050565b612ef08161298d565b82525050565b5f612f018383612ee7565b60208301905092915050565b5f602082019050919050565b5f612f2382612ebe565b612f2d8185612ec8565b9350612f3883612ed8565b805f5b83811015612f68578151612f4f8882612ef6565b9750612f5a83612f0d565b925050600181019050612f3b565b5085935050505092915050565b5f60e082019050612f885f83018a612e91565b8181036020830152612f9a81896128ca565b90508181036040830152612fae81886128ca565b9050612fbd6060830187612ea0565b612fca6080830186612eaf565b612fd760a0830185612b3c565b81810360c0830152612fe98184612f19565b905098975050505050505050565b5f6020828403121561300c5761300b61292b565b5b5f61301984828501612979565b91505092915050565b5f6020820190506130355f830184612eaf565b92915050565b5f5ffd5b5f61012082840312156130555761305461303b565b5b81905092915050565b61306781612b33565b8114613071575f5ffd5b50565b5f813590506130828161305e565b92915050565b5f5f6040838503121561309e5761309d61292b565b5b5f83013567ffffffffffffffff8111156130bb576130ba61292f565b5b6130c78582860161303f565b92505060206130d885828601613074565b9150509250929050565b5f6130fc6130f76130f28461298d565b612d21565b61298d565b9050919050565b61310c816130e2565b82525050565b5f6020820190506131255f830184613103565b92915050565b61313481612d95565b82525050565b5f60208201905061314d5f83018461312b565b92915050565b5f602082840312156131685761316761292b565b5b5f613175848285016129ac565b91505092915050565b5f6060820190506131915f830186612eaf565b61319e6020830185612eaf565b6131ab604083018461312b565b949350505050565b5f5f5f5f606085870312156131cb576131ca61292b565b5b5f6131d887828801612979565b94505060206131e987828801613074565b935050604085013567ffffffffffffffff81111561320a5761320961292f565b5b61321687828801612b70565b925092505092959194509250565b5f7fffffffff0000000000000000000000000000000000000000000000000000000082169050919050565b61325881613224565b82525050565b5f6020820190506132715f83018461324f565b92915050565b5f60408201905061328a5f830185612eaf565b6132976020830184612ea0565b9392505050565b5f6020820190506132b15f830184612ea0565b92915050565b7f4e487b71000000000000000000000000000000000000000000000000000000005f52604160045260245ffd5b7f4e487b71000000000000000000000000000000000000000000000000000000005f52603260045260245ffd5b5f61331b82612933565b9050919050565b61332b81613311565b8114613335575f5ffd5b50565b5f8135905061334681613322565b92915050565b5f5f5f5f608085870312156133645761336361292b565b5b5f61337187828801613338565b945050602061338287828801613338565b935050604061339387828801613338565b92505060606133a487828801612db7565b91505092959194509250565b5f6040820190506133c35f830185612eaf565b6133d06020830184612b3c565b9392505050565b5f5ffd5b5f5ffd5b5f5ffd5b5f5f833560016020038436030381126133ff576133fe6133d7565b5b80840192508235915067ffffffffffffffff821115613421576134206133db565b5b60208301925060018202360383131561343d5761343c6133df565b5b509250929050565b5f82825260208201905092915050565b828183375f83830152505050565b5f61346e8385613445565b935061347b838584613455565b613484836128ba565b840190509392505050565b5f6060820190506134a25f830187612eaf565b6134af6020830186612b3c565b81810360408301526134c2818486613463565b905095945050505050565b6134d6816129fe565b81146134e0575f5ffd5b50565b5f815190506134f1816134cd565b92915050565b5f6020828403121561350c5761350b61292b565b5b5f613519848285016134e3565b91505092915050565b5f61352c82612b33565b9050919050565b61353c81613522565b82525050565b5f81519050919050565b5f61355682613542565b6135608185613445565b93506135708185602086016128ac565b613579816128ba565b840191505092915050565b5f6040820190506135975f830185613533565b81810360208301526135a9818461354c565b90509392505050565b6135bb826128ba565b810181811067ffffffffffffffff821117156135da576135d96132b7565b5b80604052505050565b5f6135ec612922565b90506135f882826135b2565b919050565b5f67ffffffffffffffff821115613617576136166132b7565b5b602082029050602081019050919050565b5f5ffd5b5f67ffffffffffffffff821115613646576136456132b7565b5b61364f826128ba565b9050602081019050919050565b5f61366e6136698461362c565b6135e3565b90508281526020810184848401111561368a57613689613628565b5b6136958482856128ac565b509392505050565b5f82601f8301126136b1576136b0612b64565b5b81516136c184826020860161365c565b91505092915050565b5f6136dc6136d7846135fd565b6135e3565b905080838252602082019050602084028301858111156136ff576136fe612b6c565b5b835b8181101561374657805167ffffffffffffffff81111561372457613723612b64565b5b808601613731898261369d565b85526020850194505050602081019050613701565b5050509392505050565b5f82601f83011261376457613763612b64565b5b81516137748482602086016136ca565b91505092915050565b5f602082840312156137925761379161292b565b5b5f82015167ffffffffffffffff8111156137af576137ae61292f565b5b6137bb84828501613750565b91505092915050565b5f6137ce82612e66565b9050919050565b5f819050919050565b6137ef6137ea826137c4565b6137d5565b82525050565b613806613801826137c4565b6137d5565b82525050565b5f819050919050565b61382661382182613224565b61380c565b82525050565b5f7fffffffffffffffffffffffffffffffffffffffffffff0000000000000000000082169050919050565b5f6138618261382c565b9050919050565b5f819050919050565b61388261387d82613857565b613868565b82525050565b5f61389382886137de565b6001820191506138a382876137f5565b6001820191506138b38286613815565b6004820191506138c38285613815565b6004820191506138d38284613871565b6016820191508190509695505050505050565b5f819050602082019050919050565b5f6139008251612b33565b80915050919050565b5f82821b905092915050565b5f61391f82613542565b82613929846138e6565b9050613934816138f5565b925060208210156139745761396f7fffffffffffffffffffffffffffffffffffffffffffffffffffffffffffffffff83602003600802613909565b831692505b5050919050565b5f8160601b9050919050565b5f6139918261397b565b9050919050565b5f6139a282613987565b9050919050565b6139ba6139b582612952565b613998565b82525050565b5f819050919050565b6139da6139d58261298d565b6139c0565b82525050565b5f81905092915050565b5f6139f482613542565b6139fe81856139e0565b9350613a0e8185602086016128ac565b80840191505092915050565b5f613a2582866139a9565b601482019150613a3582856139c9565b602082019150613a4582846139ea565b9150819050949350505050565b5f5ffd5b5f5ffd5b5f5f85851115613a6d57613a6c613a52565b5b83861115613a7e57613a7d613a56565b5b6001850283019150848603905094509492505050565b5f82905092915050565b5f7fffff00000000000000000000000000000000000000000000000000000000000082169050919050565b5f613ad48383613a94565b82613adf8135613a9e565b92506002821015613b1f57613b1a7fffff00000000000000000000000000000000000000000000000000000000000083600203600802613909565b831692505b505092915050565b7f4e487b71000000000000000000000000000000000000000000000000000000005f52601160045260245ffd5b5f613b5e8261298d565b9150613b698361298d565b9250828201905080821115613b8157613b80613b27565b5b92915050565b5f81519050919050565b5f82825260208201905092915050565b5f819050602082019050919050565b613bb981612952565b82525050565b5f82825260208201905092915050565b5f613bd982613542565b613be38185613bbf565b9350613bf38185602086016128ac565b613bfc816128ba565b840191505092915050565b5f606083015f830151613c1c5f860182613bb0565b506020830151613c2f6020860182612ee7565b5060408301518482036040860152613c478282613bcf565b9150508091505092915050565b5f613c5f8383613c07565b905092915050565b5f602082019050919050565b5f613c7d82613b87565b613c878185613b91565b935083602082028501613c9985613ba1565b805f5b85811015613cd45784840389528151613cb58582613c54565b9450613cc083613c67565b925060208a01995050600181019050613c9c565b50829750879550505050505092915050565b5f6020820190508181035f830152613cfe8184613c73565b90509291505056fea264697066735822122049d23ae6791bf515c02e0aba40bd9b3b48104e627ddee88f8dcb5f13f510eced64736f6c634300081c0033","linkReferences":{}},"methodIdentifiers":{"batchSetApprovalToMainAccount(address,(address,uint256)[])":"c2cf80f3","batchTransferToMainAccount(address,(address,uint256)[])":"5a5ebbdc","eip712Domain()":"84b0196e","getMainAccount(address)":"8c93caec","getRecoverDigest(address,uint256,address,uint256,uint48)":"33be95f7","guardianConfig(address)":"ed3262e1","guardianThreshold(address)":"a1cdf4ed","isInitialized(address)":"d60b347f","isModuleType(uint256)":"ecd05961","isValidSignatureWithSender(address,bytes32,bytes)":"f551e2ee","mainValidator()":"5dbc2f83","name()":"06fdde03","nonceUsed(address,uint256)":"1647795e","onInstall(bytes)":"6d61fe70","onUninstall(bytes)":"8a91b0e3","recoverWithGuardian(address,uint256,address,uint256,uint48,bytes)":"4d13a36b","setApprovalToMainAccount(address,address,uint256)":"952bc74a","setGuardianConfig(address,address,uint8)":"61a8d623","transferToMainAccount(address,address,uint256)":"28e55a77","validateUserOp((address,uint256,bytes,bytes,bytes32,uint256,bytes32,bytes,bytes),bytes32)":"97003203","version()":"54fd4d50"},"id":57}