{"abi":[{"type":"constructor","inputs":[{"name":"_guardians","type":"address[]","internalType":"address[]"},{"name":"_threshold","type":"uint8","internalType":"uint8"}],"stateMutability":"nonpayable"},{"type":"function","name":"guardian0","inputs":[],"outputs":[{"name":"","type":"address","internalType":"address"}],"stateMutability":"view"},{"type":"function","name":"guardian1","inputs":[],"outputs":[{"name":"","type":"address","internalType":"address"}],"stateMutability":"view"},{"type":"function","name":"guardian2","inputs":[],"outputs":[{"name":"","type":"address","internalType":"address"}],"stateMutability":"view"},{"type":"function","name":"guardianCount","inputs":[],"outputs":[{"name":"","type":"uint8","internalType":"uint8"}],"stateMutability":"view"},{"type":"function","name":"isValidSignature","inputs":[{"name":"hash","type":"bytes32","internalType":"bytes32"},{"name":"signatures","type":"bytes","internalType":"bytes"}],"outputs":[{"name":"","type":"bytes4","internalType":"bytes4"}],"stateMutability":"view"},{"type":"function","name":"threshold","inputs":[],"outputs":[{"name":"","type":"uint8","internalType":"uint8"}],"stateMutability":"view"},{"type":"error","name":"DuplicateGuardian","inputs":[]},{"type":"error","name":"InvalidGuardianCount","inputs":[]},{"type":"error","name":"InvalidThreshold","inputs":[]},{"type":"error","name":"ZeroAddress","inputs":[]}],"bytecode":{"object":"0x610120604052348015610010575f5ffd5b50604051610f85380380610f858339818101604052810190610032919061053d565b5f825190505f8114806100455750600381115b1561007c576040517f45d0f35500000000000000000000000000000000000000000000000000000000815260040160405180910390fd5b5f8260ff16148061008f5750808260ff16115b156100c6576040517faabd5a0900000000000000000000000000000000000000000000000000000000815260040160405180910390fd5b5f5b8181101561021c575f73ffffffffffffffffffffffffffffffffffffffff168482815181106100fa576100f9610597565b5b602002602001015173ffffffffffffffffffffffffffffffffffffffff160361014f576040517fd92e233d00000000000000000000000000000000000000000000000000000000815260040160405180910390fd5b5f60018261015d91906105fa565b90505b8281101561020e5784818151811061017b5761017a610597565b5b602002602001015173ffffffffffffffffffffffffffffffffffffffff168583815181106101ac576101ab610597565b5b602002602001015173ffffffffffffffffffffffffffffffffffffffff1603610201576040517f6f3bdabb00000000000000000000000000000000000000000000000000000000815260040160405180910390fd5b8080600101915050610160565b5080806001019150506100c8565b50825f815181106102305761022f610597565b5b602002602001015173ffffffffffffffffffffffffffffffffffffffff1660808173ffffffffffffffffffffffffffffffffffffffff168152505060018111610279575f610296565b8260018151811061028d5761028c610597565b5b60200260200101515b73ffffffffffffffffffffffffffffffffffffffff1660a08173ffffffffffffffffffffffffffffffffffffffff1681525050600281116102d7575f6102f4565b826002815181106102eb576102ea610597565b5b60200260200101515b73ffffffffffffffffffffffffffffffffffffffff1660c08173ffffffffffffffffffffffffffffffffffffffff16815250508060ff1660e08160ff16815250508160ff166101008160ff168152505050505061062d565b5f604051905090565b5f5ffd5b5f5ffd5b5f5ffd5b5f601f19601f8301169050919050565b7f4e487b71000000000000000000000000000000000000000000000000000000005f52604160045260245ffd5b6103a782610361565b810181811067ffffffffffffffff821117156103c6576103c5610371565b5b80604052505050565b5f6103d861034c565b90506103e4828261039e565b919050565b5f67ffffffffffffffff82111561040357610402610371565b5b602082029050602081019050919050565b5f5ffd5b5f73ffffffffffffffffffffffffffffffffffffffff82169050919050565b5f61044182610418565b9050919050565b61045181610437565b811461045b575f5ffd5b50565b5f8151905061046c81610448565b92915050565b5f61048461047f846103e9565b6103cf565b905080838252602082019050602084028301858111156104a7576104a6610414565b5b835b818110156104d057806104bc888261045e565b8452602084019350506020810190506104a9565b5050509392505050565b5f82601f8301126104ee576104ed61035d565b5b81516104fe848260208601610472565b91505092915050565b5f60ff82169050919050565b61051c81610507565b8114610526575f5ffd5b50565b5f8151905061053781610513565b92915050565b5f5f6040838503121561055357610552610355565b5b5f83015167ffffffffffffffff8111156105705761056f610359565b5b61057c858286016104da565b925050602061058d85828601610529565b9150509250929050565b7f4e487b71000000000000000000000000000000000000000000000000000000005f52603260045260245ffd5b5f819050919050565b7f4e487b71000000000000000000000000000000000000000000000000000000005f52601160045260245ffd5b5f610604826105c4565b915061060f836105c4565b9250828201905080821115610627576106266105cd565b5b92915050565b60805160a05160c05160e051610100516108f861068d5f395f818161012e015261033101525f818161022b015261035501525f8181610379015261044b01525f818161039d015261042301525f81816103c101526103f001526108f85ff3fe608060405234801561000f575f5ffd5b5060043610610060575f3560e01c80631626ba7e1461006457806342cde4e81461009457806354387ad7146100b25780635cf5e386146100d0578063603d1b98146100ee578063976fda791461010c575b5f5ffd5b61007e6004803603810190610079919061060f565b61012a565b60405161008b91906106a6565b60405180910390f35b61009c61032f565b6040516100a991906106da565b60405180910390f35b6100ba610353565b6040516100c791906106da565b60405180910390f35b6100d8610377565b6040516100e59190610732565b60405180910390f35b6100f661039b565b6040516101039190610732565b60405180910390f35b6101146103bf565b6040516101219190610732565b60405180910390f35b5f5f7f000000000000000000000000000000000000000000000000000000000000000060ff1690505f8484905090505f5f5f5b848110156102fe57836003836101739190610781565b111561018d5763ffffffff60e01b95505050505050610328565b5f8888848181106101a1576101a06107b4565b5b9050013560f81c60f81b60f81c90505f89896001866101c09190610781565b906003876101ce9190610781565b926101db939291906107e9565b906101e69190610864565b60f01c61ffff1690505f816003866101fe9190610781565b6102089190610781565b9050868111156102295763ffffffff60e01b98505050505050505050610328565b7f000000000000000000000000000000000000000000000000000000000000000060ff168360ff161061026d5763ffffffff60e01b98505050505050505050610328565b5f8360ff166001901b90505f818816146102995763ffffffff60e01b9950505050505050505050610328565b80871796506102ce6102aa856103e3565b8e8e8e60038b6102ba9190610781565b9087926102c9939291906107e9565b610472565b6102ea5763ffffffff60e01b9950505050505050505050610328565b81955050505050808060010191505061015d565b508281146103195763ffffffff60e01b945050505050610328565b631626ba7e60e01b9450505050505b9392505050565b7f000000000000000000000000000000000000000000000000000000000000000081565b7f000000000000000000000000000000000000000000000000000000000000000081565b7f000000000000000000000000000000000000000000000000000000000000000081565b7f000000000000000000000000000000000000000000000000000000000000000081565b7f000000000000000000000000000000000000000000000000000000000000000081565b5f5f8260ff1603610416577f0000000000000000000000000000000000000000000000000000000000000000905061046d565b60018260ff1603610449577f0000000000000000000000000000000000000000000000000000000000000000905061046d565b7f000000000000000000000000000000000000000000000000000000000000000090505b919050565b5f5f73ffffffffffffffffffffffffffffffffffffffff168573ffffffffffffffffffffffffffffffffffffffff16031561056b5760405160011561056957853b61052b5782604081146104ce57604181146104f25750610569565b6020850135601b8160ff1c0160205285356040528060011b60011c60605250610503565b60408501355f1a6020526040856040375b50845f526020600160805f60015afa5180871860601b3d1192505f6060528160405250610569565b631626ba7e60e01b80825285600483015260248201604081528460448401528486606485013760208160648701858b5afa9350838282511416935050505b505b949350505050565b5f5ffd5b5f5ffd5b5f819050919050565b61058d8161057b565b8114610597575f5ffd5b50565b5f813590506105a881610584565b92915050565b5f5ffd5b5f5ffd5b5f5ffd5b5f5f83601f8401126105cf576105ce6105ae565b5b8235905067ffffffffffffffff8111156105ec576105eb6105b2565b5b602083019150836001820283011115610608576106076105b6565b5b9250929050565b5f5f5f6040848603121561062657610625610573565b5b5f6106338682870161059a565b935050602084013567ffffffffffffffff81111561065457610653610577565b5b610660868287016105ba565b92509250509250925092565b5f7fffffffff0000000000000000000000000000000000000000000000000000000082169050919050565b6106a08161066c565b82525050565b5f6020820190506106b95f830184610697565b92915050565b5f60ff82169050919050565b6106d4816106bf565b82525050565b5f6020820190506106ed5f8301846106cb565b92915050565b5f73ffffffffffffffffffffffffffffffffffffffff82169050919050565b5f61071c826106f3565b9050919050565b61072c81610712565b82525050565b5f6020820190506107455f830184610723565b92915050565b5f819050919050565b7f4e487b71000000000000000000000000000000000000000000000000000000005f52601160045260245ffd5b5f61078b8261074b565b91506107968361074b565b92508282019050808211156107ae576107ad610754565b5b92915050565b7f4e487b71000000000000000000000000000000000000000000000000000000005f52603260045260245ffd5b5f5ffd5b5f5ffd5b5f5f858511156107fc576107fb6107e1565b5b8386111561080d5761080c6107e5565b5b6001850283019150848603905094509492505050565b5f82905092915050565b5f7fffff00000000000000000000000000000000000000000000000000000000000082169050919050565b5f82821b905092915050565b5f61086f8383610823565b8261087a813561082d565b925060028210156108ba576108b57fffff00000000000000000000000000000000000000000000000000000000000083600203600802610858565b831692505b50509291505056fea264697066735822122014f64a09fa0220304bf3993489bf2c42fcf4de712f23d540dfcedd2b4fe805a964736f6c634300081c0033","linkReferences":{}},"methodIdentifiers":{"guardian0()":"976fda79","guardian1()":"603d1b98","guardian2()":"5cf5e386","guardianCount()":"54387ad7","isValidSignature(bytes32,bytes)":"1626ba7e","threshold()":"42cde4e8"},"id":74}